:020000040800F2
:10000000F009002041020008090E00080B0E00084C
:100010000D0E00080F0E0008110E00080000000071
:10002000000000000000000000000000130E0008A7
:10003000150E000800000000170E0008190E000839
:100040005B0200085B0200085B0200085B0200081C
:100050005B0200085B0200085B0200085B0200080C
:100060005B0200085B0200085B0200085B020008FC
:100070005B0200085B0200085B0200085B020008EC
:100080005B0200085B0200085B0200085B020008DC
:100090005B0200085B0200085B0200085B020008CC
:1000A0005B0200085B0200085B0200085B020008BC
:1000B0005B0200085B0200085B0200085B020008AC
:1000C0005B0200085B0200085B0200085B0200089C
:1000D0005B0200085B0200085B0200085B0200088C
:1000E0005B0200085B0200085B0200085B0200087C
:1000F0005B0200085B0200085B0200085B0200086C
:100100005B0200085B0200085B0200085B0200085B
:100110005B0200085B0200085B0200081D0E00087D
:100120005B0200085B0200085B0200085B0200083B
:100130005B0200085B0200085B0200085B0200082B
:100140005B0200085B0200085B0200085B0200081B
:100150005B0200085B0200085B0200085B0200080B
:100160005B0200085B0200085B0200085B020008FB
:100170005B0200085B0200085B0200080000000050
:100180005B0200085B02000800F002F800F049F88A
:100190000AA090E8000C82448344AAF10107DA45E2
:1001A00001D100F03EF8AFF2090EBAE80F0013F0EB
:1001B000010F18BFFB1A43F00103184728AB0100D9
:1001C00048AB0100103A24BF78C878C1FAD852076A
:1001D00024BF30C830C144BF04680C6070470000C1
:1001E0000023002400250026103A28BF78C1FBD840
:1001F000520728BF30C148BF0B607047662919F00D
:10020000BA81002070471FB519F005F916F0ACF956
:1002100004000020002118F079FAE0601FBD10B53D
:1002200010BD16F0A5FA1146FFF7EDFF00F01DFC1A
:1002300016F0C3FA03B4FFF7F2FF03BC16F006FB97
:100240000948804709480047FEE7FEE7FEE7FEE76A
:10025000FEE7FEE7FEE7FEE7FEE7FEE704480549A6
:10026000054A064B704700001DD7000889010008A9
:10027000F0030020F0090020F0050020F005002028
:10028000002908BF70470844521E11F0010F03D027
:1002900012F8013F00F8013D490808BF7047537844
:1002A00000F8013C12F8023F00F8023D491EF6D169
:1002B000704713B584B000200C46029004AA0421B4
:1002C00001A8FFF7DDFF0498A0F11052C73A1FBF45
:1002D000A0F12051B1F1CD01A0F13051B1F1CB012C
:1002E0004FF010014FF090401DD004F0A1FE012806
:1002F0001CBF06B010BD002210214FF0904004F04A
:100300009CFE4FF6FF73042201A9DC4800F0E2FFD7
:10031000012210214FF0904004F08FFE204602F0A1
:100320006DFD06B010BD04F083FE01281CBF06B0B1
:1003300010BD002210214FF0904004F07EFE4FF4DB
:100340008073042201A9CD4800F0C4FF01221021CE
:100350004FF0904004F071FE204602F04FFD002265
:1003600010214FF0904004F068FE4FF48070009030
:10037000042302AA01A9C14801F095F80122102125
:100380004FF0904004F059FE204602F037FD9DF8F2
:100390000A009DF8091006B000EB012080B210BDE4
:1003A00010B50121B648FFF784FF0121B548FFF7DA
:1003B00080FF0121B448FFF77CFF6421B348FFF7B9
:1003C00078FFB34C01212046FFF773FF2046BDE8BC
:1003D000104001216DE7B04910B4DFF8B8C28A6857
:1003E000CC685CF82230C31A2344CB604CF822005E
:1003F000501C00F01F008860D81703EBD06010BCC1
:1004000040F34F107047A44910B4DFF890C20A6956
:100410004C695CF82230C31A23444B614CF822002B
:10042000501C00F01F000861D81703EBD06010BC0F
:1004300040F34F107047984910B4DFF864C20A685F
:100440004C685CF82230C31A23444B604CF82200FD
:10045000501C00F01F00086092480168491C0160B0
:10046000D81703EBD06010BC40F34F10704730B585
:1004700091B004468C4807908C4808908C480990AD
:100480008C480A908C480B908C480C9007AA042149
:1004900004A8FFF7F5FE08AA042105A8FFF7F0FE5F
:1004A00009AA042106A8FFF7EBFE0AAA04210DA859
:1004B000FFF7E6FE0BAA04210EA8FFF7E1FE0CAA47
:1004C00004210FA8FFF7DCFE10214FF0904004F04C
:1004D000AFFD012858D1002210214FF0904004F0C8
:1004E000ACFD4FF6FF73042204A9644800F0F2FE4D
:1004F000012210214FF0904004F09FFD012002F0F6
:100500007DFC002210214FF0904004F096FD4FF644
:10051000FF75042301AA05A95848009500F0C3FF00
:10052000012210214FF0904004F087FD012002F0DD
:1005300065FC002210214FF0904004F07EFD042362
:1005400002AA06A94D48009500F0ADFF0122102136
:100550004FF0904004F071FD012002F04FFC0022AA
:1005600010214FF0904004F068FD2B46042203A9AF
:10057000424801F0DFF8012210214FF0904004F0D2
:100580005CFD012002F03AFC9DF806009DF8051084
:10059000DFF80CC100EB01203F4900B20B684D6849
:1005A0005CF82320821A2A444A604CF82300581C25
:1005B00000F01F0008603B480CF5807C03685B1C62
:1005C0000360D01702EBD06040F34F1000EE100A2A
:1005D000F8EEC00A9FED3A0A20EE801ADFED390AE4
:1005E00021EE201A84ED001A9DF80A009DF80920DA
:1005F0000B6900EB022000B25CF823204D69821ADF
:100600002A444A614CF82300581C00F01F0008617E
:10061000D01702EBD06040F34F1001EE100AACF19E
:10062000800CB8EEC11A21EE001A21EE201A84EDDA
:10063000011A9DF80E009DF80D20CD6800EB0220F8
:100640008A6803B25CF82200181A2844C8604CF883
:100650002230521C02F01F028A60C11700EBD160E9
:1006600040F34F1001EE100AB8EEC11A21EE000A55
:1006700020EE200A84ED020A11B030BDC80100202E
:100680001F0000B4982000B4380300B46F1F00B0FE
:10069000E5000018C80000200000002048010020EC
:1006A000480000202C000020C7000024CD000028B6
:1006B000CB00002CF7000004FD000008FB00000C3C
:1006C000000080380000B44230B583B00C460546C7
:1006D00001F124030322114668460FF036FF95ED21
:1006E000000A0EF093FC84ED000A95ED010A0EF06D
:1006F0008DFC84ED010A95ED020A0EF087FC84ED75
:10070000020A04F10C022146684611F05AFC03B0BB
:1007100030BD30B50C462DED048B9DB0054603224F
:100720006B46114616A80FF010FF032209AB1146C5
:1007300018A80FF00AFF032204F1240311461AA897
:100740000FF003FF95ED000A0EF060FC84ED000A47
:1007500095ED010A0EF05AFC84ED010A95ED020AAE
:100760000EF054FC84ED020AD5ED018AB7EE009A32
:10077000C4ED068A8DED009A9FED7A8AB0EE680A84
:100780008DED018A8DED028A8DED038A0EF0C4FB9A
:100790008DED040AB0EE680A0EF038FCB1EE400AA6
:1007A0008DED050A8DED068AB0EE680A0EF02EFC7E
:1007B0008DED070AB0EE680A0EF0AEFB8DED080A6B
:1007C00012AA214616A811F0FCFB9DED120A16F0A4
:1007D00085FE84ED070AF0EE408A0EF09DFB8DED5C
:1007E000090A8DED0A8AB0EE680A0EF00FFCB1EE30
:1007F000400A8DED0B0A8DED0C8A8DED0D9A8DED75
:100800000E8AB0EE680A0EF001FC8DED0F0A8DED38
:10081000108AB0EE680A0EF07FFB8DED110A1AAA5D
:1008200018A916A810F071FB1DB0BDEC048B30BDEB
:1008300030B50C462DED048B9BB0054603226B466C
:10084000114612A80FF081FE032204F12403114681
:1008500014A80FF07AFE032209AB114616A80FF078
:1008600074FE032204F12403114618A80FF06DFE54
:1008700095ED000A0EF0CAFB84ED000A95ED010A21
:100880000EF0C4FB84ED010A95ED020A0EF0BEFBEA
:1008900084ED020A04F10C02214618A811F091FB24
:1008A000D4ED030A94ED040AF7EE008AB0EEE01AE4
:1008B000F0EEC01AB4EEE11AF1EE10FA02DD16F015
:1008C000A3FE18E080EE808AB0EE680A08EE080AFF
:1008D000F0EE400AB1EEE00AB4EE400AF1EE10FA92
:1008E0001CBFB0EE600A17F092FDC8EE000AB0EE31
:1008F000600A16F0A5FB84ED080AB0EE409A0EF0EF
:100900000BFB8DED000AB0EE490A0EF07FFB8DED7A
:10091000010A9FED148AB0EE490A8DED028A0EF0AD
:1009200075FBB1EE400A8DED030AB0EE490A0EF0F8
:10093000F3FA8DED040A8DED058A8DED068A8DEDB5
:10094000078ACDED088A092209A904F1240014F0D0
:10095000A3F814AA12A916A810F0D7FA1BB0BDEC80
:10096000048B30BD0000000010B40068A0F180418D
:10097000B1F5A0511CBF10BC7047FE48016821F0C2
:1009800001010160FC48C168491CC160FB490A685B
:1009900000F1040CDCF80040002100F1080394424F
:1009A00008BF19600CD01C68641C1C601C68042CF7
:1009B00006D3CCF80020196012B9F14B01221A605D
:1009C000C26922B1C1610278521C02700DE0C26896
:1009D000322A3CBF10BC70470278002A04BF10BC0A
:1009E0007047027803691A700170C16010BC7047CB
:1009F00072B6FEE710B596B04421684615F04EFB7E
:100A0000002411941294139414944FF400701594CC
:100A100004F025FF08B172B6FEE710200090012017
:100A200060210690CDE907410221CDE90A100C9022
:100A300020200D900720CDE90E016846109102F0AC
:100A400066FB08B172B6FEE70F2011900320CDE9D6
:100A500012040146149411A8159402F0CCFE00284B
:100A600004BF16B010BD72B6FEE72DED028B9AB032
:100A700002F080F94421684615F010FB4FF00008A1
:100A8000CDF84480CDF84880CDF84C80CDF850802A
:100A90004FF40070CDF8548004F0E1FE08B172B656
:100AA000FEE70124CDE906481027022500976020C3
:100AB000CDE90A54089020200726CDE90C40CDE965
:100AC0000E651095684602F022FB08B172B6FEE78B
:100AD0000F2011900320CDE912080146CDF8508077
:100AE00011A8CDF8548002F086FE08B172B6FEE778
:100AF000A448CDF80080CDF80480CDF80880CDF86A
:100B00000C80CDF81080C16C41F00401C164C16C4F
:100B100001F004010591C16C41F00101C164C06C98
:100B2000012200F00100059010214FF0904004F0E8
:100B300084FA4FF40050CDE90008694602959248C6
:100B400004F0C2F80097CDE9014869464FF09040A3
:100B5000CDF80C8004F0B8F88D488C4901604FF452
:100B60008271C0E901184FF4E061C0E903184FF445
:100B70000071C0E905811821C0E90718C0F8248078
:100B8000C0E90A86C0F83080C0F8348000F01FFA4F
:100B900008B172B6FEE78048CDF80080CDF8048039
:100BA0007C49CDF8088001604FF6FF11C0E90118BB
:100BB0000A21C0F81880C16005F08FFB08B172B639
:100BC000FEE7CDF8008069467348CDF808800AF04A
:100BD00039FC08B172B6FEE77148704901604FF404
:100BE000E131C0E901180C21C0F80C80C0E9048192
:100BF000C0F81880C0F81C80C0F82080C0F824809D
:100C00000AF0BBFF08B172B6FEE7012210214FF0D7
:100C1000904004F012FA604805F00FFCFFF7C0FBAB
:100C2000604E9FED618ADFED618A06F11805DFF8FD
:100C3000489105F1540705F10C0B5A48FFF717FCD2
:100C40005FF0000406EB840090ED000A05EB8400E1
:100C500060EE080A80EEA80A80ED000A0EF0D6F9D0
:100C600007EB8400641C80ED000A032CEAD399F89A
:100C70000100012804D099F80100022808D010E0F2
:100C800089F801804A49A1F10C00FFF742FD08E014
:100C900089F8018046494FF0010AA1F10C00FFF7E5
:100CA000C7FD4349A1F10C00FFF70EFD99F80100C3
:100CB000012802D1BAF1000F06D199F801000228EB
:100CC0000CD1BAF1000F09D089F80180DBF80C00D3
:100CD00018F030FB41EC100B16F03EFA99F80100C9
:100CE0000328D9F8180007D00028A6D189F8018078
:100CF0000120C9E90580A0E70028F7D0D9F8141031
:100D000020299AD32B4A00211346401CE0FB0231D4
:100D100089096FF0640201FB0200C9E90580264CD5
:100D2000DBF80C00206018F005FB41EC100B23A150
:100D300053EC102B684615F0ADF8684615F05DF9D8
:100D400082B264236946A4F1FC000BF03BF8DBF8A7
:100D50001000606018F0EEFA41EC100B17A153EC94
:100D6000102B684615F096F8684615F046F982B2E1
:100D7000642327E0101400401800002010080048E9
:100D800034000020001002400008004800300140FC
:100D9000C8010020001400402C0200200044004044
:100DA00078020020FC020020DB0F494000003443A1
:100DB000200300202BC337A27403002025302E32DD
:100DC000306609006946A4F1FC000AF0FBFFDBF87D
:100DD0001400A06018F0AEFA41EC100B08A153EC1F
:100DE000102B684615F056F8684615F006F982B2E1
:100DF00064236946A4F1FC000AF0E4FF1DE700004B
:100E000025302E3230660A00FEE7FEE7FEE7FEE7F9
:100E1000FEE770477047704701F0D1BF014807F007
:100E20000CBE00002C020020674881B0016E41F02A
:100E300001010166016E01F001010091816D41F037
:100E400080518165806D00F08050009001B0704746
:100E500000B587B0002100910191029103910491A6
:100E60000068A0F18041B1F598311CBF07B000BD0A
:100E70005548016E41F480510166016E01F48051C4
:100E80000591C16C41F00101C164C06C694600F07C
:100E900001000590E02000900220019003200390C3
:100EA000052004904FF0904003F00EFF07B000BD06
:100EB0000068A0F18041B1F5983118BF70474248F1
:100EC000016E21F480510166E0214FF0904003F063
:100ED000FABF08B50068A0F18041B1F5A05118BF74
:100EE00008BD3948816D41F020018165806D002287
:100EF00000F0200000901146372005F064F8BDE8AE
:100F00000840372005F08FB80068A0F18041B1F5A6
:100F1000A05118BF70472C48816D21F020018165D8
:100F2000372005F08FB830B5A9B0002405462294CB
:100F300023942494259488216846269415F0AEF8CD
:100F40002868A0F18041B1F588411CBF29B030BDAF
:100F50000225009568460F9402F043FF002818BF51
:100F6000FFF746FD1848816D41F400318165816DC0
:100F700001F400312791C16C41F00101C164C06CE2
:100F800022A900F0010027900C20CDE922050320C2
:100F9000CDE92440072026904FF0904003F094FEC6
:100FA00029B030BD0068A0F18041B1F5884118BF7B
:100FB00070470548816D21F4003181650C214FF0A7
:100FC000904003F080BF00000010024070470028EE
:100FD00004BF0120704770B50446406A0025002810
:100FE0001CBF2561656104D0A56294F85D0058B905
:100FF00005E06068B0F5827F18BFE561F4E784F82A
:101000005C502046FFF724FF022084F85D00206832
:10101000016821F040010160E168B1F5E06F8CBF2B
:1010200000204FF48050B1F5706F1CBFB1F5E06F38
:10103000A562A188228901F4827102F4044241EA86
:101040000201227C02F0020241EA0201227D02F04A
:10105000010241EA0201228B02F4007241EA02011C
:10106000227F02F0380241EA020194F8202002F0C7
:10107000800241EA0201228D02F4005241EA02019B
:1010800022681160A1694FF0040202EA114194F84C
:10109000242000F4805002F0100241EA020194F88A
:1010A000342002F0080241EA0201A28902F47062CF
:1010B00041EA020141EA00002168486025664FF0DC
:1010C000010084F85D004FF0000070BD70470028FB
:1010D00004BF0120704710B50446022084F85D006B
:1010E0002068016821F0400101602046FFF7E0FE22
:1010F0000020206684F85D0084F85C0010BD2DE9B6
:10110000F04782B04FF0000A1F460E4604460A9D83
:101110008DF804A001F059FE401B3D1A01F055FE68
:101120008046206800F10C09FE490968C1EBC10145
:1011300001EB8101090D69430091806830421CD0A8
:10114000B6F5C06F05D199F800008DF804009DF840
:101150000400B7F1FF3F0CD001F037FEA0EB080010
:10116000A8420ED26DB10098002808BF0025401E8D
:101170000090206880683042E2D102B00020BDE8D3
:10118000F0872068416821F0E00141606068B0F5B7
:10119000827F0BD1A068B0F5004F18BFB0F5806F0B
:1011A00004D12068016821F040010160A06AB0F517
:1011B000005F09D12068016821F4005101602068B6
:1011C000016841F400510160012084F85D0084F859
:1011D0005CA002B00320BDE8F087F8B51F460446C6
:1011E000069D01F0F2FD401B3D1A01F0EEFD0646A2
:1011F000CC480068C0F3CB3068430090206880681A
:1012000010F0800F14D000BFB7F1FF3F0BD001F0FA
:10121000DCFD801BA8420DD265B10098002808BFF4
:101220000025401E00902068806810F0800FEBD1F0
:101230000020F8BD2068416821F0E001416060684D
:10124000B0F5827F0BD1A068B0F5004F18BFB0F5A4
:10125000806F04D12068016821F040010160A06A1C
:10126000B0F5005F09D12068016821F400510160E8
:101270002068016841F400510160012084F85D009C
:10128000002084F85C000320F8BDF8B515460E4632
:101290000B460092044600224FF4C051FFF72FFF87
:1012A00090B933460022802120460095FFF795FF34
:1012B00050B9334600224FF4C06120460095FFF735
:1012C0001EFF002808BFF8BD206E40F020002066F9
:1012D0000320F8BD2DE9F84F044690F85C00002685
:1012E0001D4692468B46012804BF022001F01EBD18
:1012F0004FF0010984F85C9001F067FD074694F80F
:101300005D004FF00008012818BF022640F0C4809D
:10131000BBF1000F18BFBAF1000F00F0BC804FF016
:10132000030084F85D00C4F86080C4F838B0A4F805
:101330003CA0A4F83EA0C4F84080A4F84480A4F8DF
:101340004680C4F85080C4F84C80A068B0F5004FC7
:1013500009D12068016821F040010160206801681E
:1013600041F4804101602068016811F0400F03D111
:10137000016841F040010160E068B0F5E06F60682D
:1013800031D9002818BFBAF1010F0BD1A06B216829
:101390000088C860A06B00F10200A063E08FA0F19C
:1013A0000100E087E08F002861D02068816811F09B
:1013B000020F09D0A16B0988C160A06B801CA063DB
:1013C000E08F401EE0870AE001F0FFFCC01BA8424E
:1013D00003D3B5F1FF3F56D101E0002D53D0E08F8C
:1013E0000028E2D143E0002818BFBAF1010F15D15F
:1013F000E08F0128A06B08D921680088C860A06B25
:10140000801CA063E08F801E07E0216800780873CD
:10141000A06B401CA063E08F401EE087E08F30B3DC
:101420002068816811F0020F14D0E18F0129A16BAF
:1014300007D90988C160A06B801CA063E08F801E63
:1014400006E009780173A06B401CA063E08F401E8A
:10145000E08709E001F0B9FCC01BA84203D3B5F155
:10146000FF3F10D100E075B1E08F0028D8D13A4697
:1014700029462046FFF709FF00281CBF20202066D0
:10148000A06830B901E0032606E02068C1688068E2
:101490000090206E00B1012684F85D9084F85C8095
:1014A000304601F043BC2DE9F05F044690F85C0043
:1014B00001260A9F1D4692468B464FF000080128E0
:1014C00004BF022001F035BC012084F85C0001F06B
:1014D0007CFC814694F85D006168012808D0B1F574
:1014E000827F03BFA168002904284FF002087DD144
:1014F000BBF1000F1ABFBAF1000F002D4FF0010829
:1015000074D094F85D0004281CBF052084F85D00A9
:1015100000202066C4F840A0A4F84650A4F8445027
:1015200002E0000044000020C4F838B0E587A58739
:10153000E0642065E068B0F5E06F98BF012D206899
:1015400041688CBF21F4805141F480514160206892
:10155000016811F0400F03D1016841F040010160C2
:10156000E068B0F5E06F606864D9002818BF012D0D
:1015700046D1A06B21680088C860A06B00F1020012
:10158000A063E08FA0F10100E08739E02068816866
:1015900011F0020F1CBFE18F00290ED0012E0CD1DB
:1015A000A16B0988C160A06B00F10200A063E08F0D
:1015B000A0F10100E0874FF000062068816811F07B
:1015C000010F1CBFB4F8461000290ED0C068216C72
:1015D0000880206C00F102002064B4F84600A0F1FD
:1015E0000100A4F846004FF0010600E019E001F008
:1015F000ECFBA0EB0900B84202D3B7F1FF3F75D175
:10160000E08F002804BFB4F846000028BED14A4647
:1016100039462046FFF739FE18B120204FF0010867
:101620002066012084F85D00002084F85C004046BC
:1016300001F07FBB002818BF012D70D1E08F012879
:10164000A06B08D921680088C860A06B801CA063CB
:10165000E08F801E07E0216800780873A06B401CB3
:10166000A063E08F401EE08759E02068816811F098
:10167000020F1CBFE18F002916D0012E14D1E18F7B
:101680000129A16B07D90988C160A06B801CA063E8
:10169000E08F801E06E009780173A06B401CA063F8
:1016A000E08F401EE08700262068816811F0010F5E
:1016B0001CBFB4F84610002925D0B4F84610012903
:1016C00015D9C068216C0880206C801C2064B4F897
:1016D0004600801EA4F84600B4F84600012811D840
:1016E0002068416841F4805141600BE01FE0007BBD
:1016F000216C0870206C401C2064B4F84600401E29
:10170000A4F84600012601F060FBA0EB0900B842F6
:1017100004D3B7F1FF3F02D009E000E03FB1E08F12
:10172000002804BFB4F8460000289ED16FE74FF0B0
:10173000030876E72DE9F84F0446406800271D4668
:1017400091468A464FF0040BB0F5827F04BFA06833
:10175000002816D094F85C00012804BF022001F094
:10176000E5BA012084F85C0001F02FFB064694F8EE
:101770005D004FF00008012818BF02270BD000F0D1
:10178000CAB884F85DB0009313460A462046FFF7B6
:101790008AFE01F0CBBABAF1000F18BFB9F1000F01
:1017A0006FD084F85DB0C4F86080C4F840A0A4F89D
:1017B0004490A4F84690C4F83880A4F83C80A4F87B
:1017C0003E80C4F84C80C4F85080E068B0F5E06F0B
:1017D000206841688CBF21F4805141F48051416000
:1017E000A068B0F5004F09D12068016821F04001E0
:1017F00001602068016821F480410160206801686F
:1018000011F0400F03D1016841F040010160E06830
:10181000B0F5E06FB4F8460020D888B3206881683E
:1018200011F0010F0BD0007B216C0870206C401C64
:101830002064B4F84600401EA4F8460009E001F018
:10184000C4FA801BA84203D3B5F1FF3F2DD100E0BD
:101850005DB3B4F846000028E0D121E080B12068F3
:10186000816811F0010F0DD0C068216C0880206CD8
:10187000801C2064B4F84600401EA4F846000BE02B
:101880000EE047E001F0A1FA801BA84203D3B5F1B6
:10189000FF3F0AD100E045B1B4F846000028DED190
:1018A0006068B0F5827F0ED101E0032733E0A068C5
:1018B000B0F5004F18BFB0F5806F04D12068016803
:1018C00021F0400101602B464FF000024FF08001F3
:1018D00020460096FFF781FCA0B96068B0F5827FD2
:1018E00016D1A068B0F5004F18BFB0F5806F0FD1CA
:1018F0002B464FF000024FF4C06120460096FFF7E0
:10190000FEFB28B1206E40F02001216620202066D9
:10191000206E00B10127012084F85D0084F85C800E
:10192000384601F003BA70477047816B0268097846
:101930001173816B491C8163C18F491EC187C18F9F
:10194000002918BF704738B5044601F03EFA024638
:101950002068416821F0A001416064212046FFF722
:1019600094FC18B1206E40F020002066A06818B9E1
:101970002068C16880680090012084F85D00206EB6
:101980000028204602D0FFF7CFFF38BDFFF7CBFF7E
:1019900038BD816B02680988D160816B891C8163C5
:1019A000C18F491EC187C18F002918BF704738B544
:1019B000044601F00AFA02462068416821F0A001BD
:1019C000416064212046FFF760FC18B1206E40F0B2
:1019D00020002066A06818B92068C168806800905F
:1019E000012084F85D00206E0028204602D0FFF719
:1019F0009BFF38BDFFF797FF38BD10B490F85C30FF
:101A00004FF0000C012B02BF022010BC70470123D5
:101A100080F85C300023002914BF002A4FF0010C2D
:101A200036D090F85D40012C18BF4FF0020C2FD13A
:101A3000032480F85D40036681638287C287036464
:101A4000A0F84430A0F84630C364C168B1F5E06F37
:101A50008CBFFE49FE4901658168B1F5004F09D18F
:101A600001680A6822F040020A6001680A6842F4CC
:101A700080420A6001684A6842F0A0024A60016838
:101A80000A6812F0400F03D10A6842F040020A606F
:101A900080F85C3010BC6046704770470168097B75
:101AA000026C1170016C491C0164B0F84610491EAB
:101AB000A0F84610B0F84610002918BF7047F8B5D6
:101AC00004460068416821F060014160642601F02D
:101AD0007CF905466068B0F5827F0BD1A068B0F54F
:101AE000004F18BFB0F5806F04D12068016821F065
:101AF0004001016033464FF000024FF08001204664
:101B00000095FFF76AFBA0B96068B0F5827F18D135
:101B1000A068B0F5004F18BFB0F5806F11D1334603
:101B20004FF000024FF4C06120460095FFF7E7FA3E
:101B300038B1206E40F020012166206E40F0200078
:101B40002066012084F85D00206E0028204602D027
:101B5000FFF7EAFEF8BDFFF7A0FFF8BD0168C9680E
:101B6000026C1180016C891C0164B0F84610491E9A
:101B7000A0F84610B0F84610002918BF7047F8B515
:101B800004460068416821F060014160642601F06C
:101B90001CF905466068B0F5827F0BD1A068B0F5EE
:101BA000004F18BFB0F5806F04D12068016821F0A4
:101BB0004001016033464FF000024FF080012046A3
:101BC0000095FFF70AFBA0B96068B0F5827F18D1D5
:101BD000A068B0F5004F18BFB0F5806F11D1334643
:101BE0004FF000024FF4C06120460095FFF787FADE
:101BF00038B1206E40F020012166206E40F02000B8
:101C00002066012084F85D00206E0028204602D066
:101C1000FFF78AFEF8BDFFF740FFF8BD7047C38F9E
:101C2000826B0168022B07D31288CA60816B891C02
:101C30008163C18F891E06E012780A73816B491C8B
:101C40008163C18F491EC187C18F002918BF7047AA
:101C500001684A6822F080024A60B0F84610002904
:101C600018BF704710B5044601F0AFF8024620686F
:101C7000416821F02001416064212046FFF705FB07
:101C800018B1206E40F020002066216E012029B19D
:101C900084F85D002046FFF747FE10BD94F85D1004
:101CA00084F85D000429204602D0FFF7B7FF10BD7D
:101CB000FFF7F3FE10BDB0F84630026C0168012B4F
:101CC00013D9C9681180016C891C0164B0F84610F1
:101CD000891EA0F84610B0F8461001290FD10168FE
:101CE0004A6842F480524A6009E0097B1170016C35
:101CF000491C0164B0F84610491EA0F84610B0F81F
:101D00004610002918BF704701684A6822F0600237
:101D10004A60C18F002918BF704710B5044601F012
:101D200054F802462068416821F020014160642196
:101D30002046FFF7AAFA18B1206E40F02000206676
:101D4000216E012029B184F85D002046FFF7ECFDEB
:101D500010BD94F85D1084F85D000429204602D07F
:101D6000FFF75CFF10BDFFF798FE10BD816B0268A6
:101D70000988D160816B891C8163C18F491EC1872D
:101D8000C18F002918BF704701684A6822F080029D
:101D90004A60B0F84610002918BF704710B50446D5
:101DA00001F013F802462068416821F020014160EB
:101DB00064212046FFF769FA18B1206E40F0200038
:101DC0002066216E012029B184F85D002046FFF7CE
:101DD000ABFD10BD94F85D1084F85D000429204629
:101DE00002D0FFF71BFF10BDFFF757FE10BD0168C3
:101DF000C968026C1180016C891C0164B0F846103E
:101E0000491EA0F84610B0F84610002918BF7047C8
:101E100001684A6822F040024A60C18F002918BF59
:101E2000704710B5044600F0D0FF024620684168B4
:101E300021F02001416064212046FFF726FA18B105
:101E4000206E40F020002066216E03E09319000808
:101E50002B190008012029B184F85D002046FFF706
:101E600063FD10BD94F85D1084F85D0004292046E0
:101E700002D0FFF7D3FE10BDFFF70FFE10BD70B408
:101E800090F85C404FF0000C012C02BF022070BCA7
:101E90007047012480F85C4090F85D40002546685A
:101EA000012C08D0B6F5827F03BF8668002E042C73
:101EB0004FF0020C3DD100291ABF002A002B4FF031
:101EC000010C36D090F85D40042C1CBF052480F82E
:101ED0005D40056681638387C3870264A0F8443050
:101EE000A0F84630C168B1F5E06F04D9FC49C1647F
:101EF000FC49016505E0FC49C164FC490165022B10
:101F000004D301684A6822F4805203E001684A68F9
:101F100042F480524A6001684A6842F0E0024A6036
:101F200001680A6812F0400F03D10A6842F04002CB
:101F30000A6080F85C5070BC6046704730B413464D
:101F4000826804244FF0000C002A04BF4268B2F5F6
:101F5000827F12D090F85C20012A02BF022030BCA0
:101F60007047012280F85C2090F85D500022012D1E
:101F700018BF4FF0020C05D041E080F85D4030BC46
:101F80000A467CE7002914BF002B4FF0010C36D025
:101F900080F85D4002660164A0F84430A0F8463045
:101FA00082638287C2870265C168B1F5E06F01680C
:101FB0004B688CBF23F4805343F480534B608CBF39
:101FC000CB49CC49C1648168B1F5004F09D10168A2
:101FD0000B6823F040030B6001680B6823F4804317
:101FE0000B6001684B6843F060034B6001680B684D
:101FF00013F0400F03D10B6843F040030B6080F8EF
:102000005C2030BC6046704710B5806A01684A6841
:1020100022F003024A60016E41F0100101660121C5
:1020200080F85D10FFF780FC10BD38B50546846A66
:1020300000F0CBFE2968096811F0200F24D1216837
:102040004A6822F020034B6021684A6822F00203AC
:102050004B60024664212046FFF717F918B1206E45
:1020600040F020002066A068002118B92068C268EE
:1020700080680090E187012084F85D00206E18B12F
:102080002046FFF751FC38BD2046FFF74CFC38BD19
:10209000704710B5806AFFF7FBFF10BD2DE9F041D6
:1020A000044690F85C000026012804BF0220BDE829
:1020B000F081012784F85C7094F85D000025012808
:1020C00018BF022670D1002914BF002A01266BD048
:1020D0004FF0030084F85D002566A163A287E287C4
:1020E00025642565E564A4F84450A4F84650A0682A
:1020F000B0F5004F09D12068016821F0400101606E
:102100002068016841F480410160616D7A4808638C
:10211000616D7A48C862616D79484863606D856316
:102120002068416821F480414160E068B0F5E06FCB
:1021300004D8606D8069B0F5806F10D0E38F20689F
:10214000A16B00F10C02606D03F0C6F8C8B1206EFF
:1021500040F010002066012684F85D7024E0E08FD6
:1021600010F0010F2068416814BF41F4804121F450
:1021700080414160E08F14BF07EB50004008E087CA
:10218000DCE72068016811F0400F03D1016841F0DD
:10219000400101602068416841F0200141602068F1
:1021A000416841F00201416084F85C503046BDE86E
:1021B000F081F8B50546846A00F007FE29680968D1
:1021C00011F0200F56D121684A6822F020024A609F
:1021D000A168002904BF6168B1F5827F21684A685F
:1021E00014BF22F0010222F003024A600546606833
:1021F0004FF06406B0F5827F0BD1A068B0F5004FB8
:1022000018BFB0F5806F04D12068016821F040014B
:10221000016033464FF000024FF0800120460095E8
:10222000FEF7DBFF0027A0B96068B0F5827F16D10A
:10223000A068B0F5004F18BFB0F5806F0FD13346DE
:102240004FF000024FF4C06120460095FEF757FFA3
:1022500028B1206E40F02001216620202066A4F8DD
:102260004670012084F85D00206E18B12046FFF70B
:102270005BFBF8BD2046FFF710FCF8BD704710B5BA
:10228000806AFFF7FBFF10BD70B50546846A00F059
:102290009CFD2968096811F0200F33D121684B6833
:1022A00023F020034B60024664212046FEF7EDFF39
:1022B00018B1206E40F0200020662068416821F0AF
:1022C000030141600020E087A4F84600012084F863
:1022D0005D00206EB0B12046FFF726FB70BD000008
:1022E000EF1D00086D1D0008B71C00081F1C00082A
:1022F0005D1B00089D1A0008932000082B20000891
:10230000092000082046FFF789FCE7E7704710B571
:10231000806AFFF7FBFF10BD2DE9F041044690F8FD
:102320005C000026012804BF0220BDE8F0810127DF
:1023300084F85C7094F85D000025D4F804C001288E
:102340000AD0BCF5827F03BFD4F808C0BCF1000FEF
:102350000428022640F0B58000291ABF002A002B6D
:10236000012600F0AE8094F85D0004281CBF052013
:1023700084F85D002566A163A387E3872264A4F83F
:102380004430A4F84630E56425652068416821F4AE
:10239000C0414160E068B0F5E06F2068416884BFEB
:1023A00021F4805141600CD841F480514160606D4E
:1023B0008069B0F5806F1FD0A06D8069B0F5806F27
:1023C0002DD094F85D00042843D0A16DFD4808632A
:1023D000A16DFD48C862A16DFC484863A06D85638E
:1023E000B4F846302068226C00F10C01A06D02F0B8
:1023F00073FF00284AD133E094F83C0010F0010F3D
:102400002068416814BF41F4804121F4804141605B
:10241000E08F14BF07EB50004008E087CCE720684E
:10242000416821F480514160B4F8460010F0010F7A
:102430002068416814BF41F4005121F4005141600B
:10244000B4F8460014BF07EB50004008A4F846005B
:10245000B7E7A16DDE480863A16DDE48C862BAE740
:102460002068416841F001014160606D0563606D65
:10247000C562606D4563606D8563E38F2068A16B05
:1024800000F10C02606D02F027FF38B1206E40F0C1
:1024900010002066012684F85D7012E02068016853
:1024A00011F0400F03D1016841F040010160206844
:1024B000416841F0200141602068416841F002011B
:1024C000416084F85C503046BDE8F0812DE9F04170
:1024D0000446806800260423002804BFD4F804C002
:1024E000BCF5827F13D094F85CC0BCF1010F04BF2F
:1024F0000220BDE8F081012784F85C7094F85DC08B
:102500000025BCF1010F18BF022608D086E084F830
:102510005D302046BDE8F04113460A46FCE600293E
:1025200014BF002A012679D084F85D302566216425
:10253000A4F84420A4F84620E5642565A587E5872E
:10254000B0F5004F09D12068016821F04001016019
:102550002068016821F4804101602068416821F40D
:1025600000514160E068B0F5E06F2068416884BFC9
:1025700021F48051416007D841F480514160A06D41
:102580008069B0F5806F1CD0A16D91480863A16D82
:102590009048C862A16D8D484863A06D8563B4F80A
:1025A00046302068226C00F10C01A06D02F094FE10
:1025B00008B3206E40F010002066012684F85D709C
:1025C0002CE02068416821F480514160B4F8460055
:1025D00010F0010F2068416814BF41F4005121F44C
:1025E00000514160B4F8460014BF07EB50004008AA
:1025F000A4F84600C8E72068016811F0400F03D135
:10260000016841F0400101602068416841F020010B
:1026100041602068416841F00101416084F85C50EC
:102620003046BDE8F08138B504460068016821F005
:1026300040010160684845F6C0510068B0FBF1F008
:102640006421484300902068416821F040014160C6
:10265000009828B3401E00902068406810F0400F9A
:10266000F6D100BF00F0B1FB00906423002280216E
:102670002046FEF7B2FD4025002818BF256600F071
:10268000A4FB0090642300224FF4C0612046FEF7B3
:1026900036FD002818BF2566072084F85D0038BD88
:1026A000206E40F040002066DCE730B504464A4822
:1026B00045F6C05183B00068B0FBF1F06421484397
:1026C00001902068416821F0800141600198002854
:1026D00054D0401E01902068406810F0800FF5D162
:1026E00000F073FB024664212046FEF7CEFD402534
:1026F000002818BF25662068016821F040010160AC
:1027000000F063FB0090642300224FF4C061204678
:10271000FEF7F5FC002818BF25662068416811F017
:10272000400F26D0416821F040014160019850B32C
:10273000401E01902068406810F0400FF6D100BFA5
:1027400000F043FB00906423002280212046FEF726
:1027500044FD002818BF256600F037FB0090642375
:1027600000224FF4C0612046FEF7C9FC002818BFC4
:102770002566072084F85D0003B030BD206E40F070
:1027800040002066ACE7206E40F040002066D7E7AE
:10279000F0B50446104845F6C05183B000680027E4
:1027A000B0FBF1F06421484301900090206841683B
:1027B00021F0200141602168486810F0800F18BFA7
:1027C00006480DE00F2300088922000809200008B0
:1027D0007F220008B321000844000020AB26000837
:1027E00018BF20650BD0009800287DD0A0F1010013
:1027F000009094F85D000728F5D101980090486892
:1028000010F0400F1CBFFA48E0640BD0009800287D
:102810006BD0A0F10100009094F85D000728F5D17D
:102820000198009048684FF0400610F0020F4FF0FA
:1028300000051CBF606D002827D08563606D02F025
:1028400098FD002818BF26662068416821F0020123
:10285000416000F0BAFA024664212046FEF715FDF9
:10286000002818BF26662068016821F04001016039
:1028700000F0ABFA0090642300224FF4C0612046C0
:10288000FEF73DFC002818BF26662068406810F05F
:10289000010F1CBFA06D00282CD08563A06D02F035
:1028A00068FD002818BF26662068016821F04001F5
:1028B000016000F08AFA0090642300228021204603
:1028C000FEF78BFC002818BF266600F07EFA009009
:1028D000642300224FF4C0612046FEF710FC00285C
:1028E00018BF2666206801E018E01CE0416821F06E
:1028F00001014160A4F84650E587206E40280CBFD6
:10290000012725662068C168816800918068009071
:10291000012084F85D0003B03846F0BD206E40F021
:102920004000206669E7206E40F04000206677E7AF
:102930007047F8B5846A2068016821F040010160A1
:10294000A06D002585632068416821F00101416088
:1029500000F03BFA00906423002280212046FEF71D
:102960003CFC4026002818BF266600F02EFA009096
:10297000642300224FF4C0612046FEF7C0FB00280C
:1029800018BF2666606D00281EBF806B0028F8BD4A
:10299000A4F84650E587206E402818BF25662068B9
:1029A000C1688168009180680090012084F85D0012
:1029B0002046FFF7BDFFF8BDF8B5846A0025606DBD
:1029C00085632068416821F00201416000F0FDF953
:1029D000024664212046FEF758FC4026002818BF16
:1029E00026662068016821F04001016000F0EDF9E1
:1029F0000090642300224FF4C0612046FEF77FFB65
:102A0000002818BF2666A06D00281EBF806B002816
:102A1000F8BDA4F84650E587206E402818BF25660B
:102A20002068C1688168009180680090012084F866
:102A30005D002046FFF77CFFF8BD2DE9F04104461C
:102A40006C4845F6C05182B000680026B0FBF1F03A
:102A5000012764214843019000902168486820F0D4
:102A6000200048602168486810F0800F1CBF624851
:102A700020650AD00098002868D0401E009094F885
:102A80005D000728F6D101980090486810F0400FCB
:102A90001CBF5748E0640AD0009800285BD0401E55
:102AA000009094F85D000728F6D101980090606DC1
:102AB000002530B1496811F0020F0EBF85634F4900
:102AC0008163A06D38B12168496811F0010F0EBF14
:102AD00085634B498163206840684FF0400810F0DF
:102AE000020F1CBF606D002808D002F068FC0028AF
:102AF0001DBF606D8563C4F8608000272068406852
:102B000010F0010F1CBFA06D002806D002F057FC8A
:102B1000C0B1A06D8563C4F860809FB1A4F8465031
:102B2000E587206E40280CBF012625662068C16815
:102B30008168009180680090012084F85D00204643
:102B4000FFF7F6FE02B03046BDE8F081206E40F09F
:102B50004000206697E7206E40F040002066A4E722
:102B600090F85C10012904BF02207047012180F811
:102B70005C1001684A6822F003024A60002180F874
:102B80005C100846704790F85C10012904BF0220D1
:102B90007047012180F85C1001684A6842F0030226
:102BA0004A60002180F85C100846704770B5044602
:102BB000406D002538B102F0DCFB20B1206E40F002
:102BC000100020660125A06D38B102F0D2FB20B1C3
:102BD000206E40F01000206601252068416821F039
:102BE00003014160012084F85D00284670BD0000AB
:102BF0002726000844000020AB260008B929000859
:102C00003329000810B5806A0021A0F84610C1875A
:102C1000FEF78AFE10BD38B5044600684268816838
:102C200011F0400F0BD111F0010F18BF12F0400F3F
:102C300005D0E16C01B02046BDE83040084711F0F6
:102C4000020F18BF12F0800F05D0216D01B0204691
:102C5000BDE83040084711F4B07F14BF12F0200FD8
:102C600038BD11F0400F0AD094F85D30032B4DD0E1
:102C7000236E43F004032366C3688368009311F056
:102C8000200F09D0236E43F001032366836800936D
:102C9000036823F04003036011F4807F06D0206EA8
:102CA00040F008002066206880680090206E0028B0
:102CB00008BF38BD2068416821F0E0014160012073
:102CC00084F85D0012F0030F24D02068416821F0E1
:102CD00003014160144DA06D40B18563A06D02F009
:102CE0006EFB18B1206E40F040002066606D002839
:102CF00008BF38BD8563606D02F061FB002808BF26
:102D000038BD206E40F04000206638BDC168806844
:102D1000009038BD2046FEF707FE38BD90F85D00F4
:102D20007047006E70470000052C000818BCBDE815
:102D3000E08F30BCBDE8C09F704770B5854E05463A
:102D40000024307898B14FF47A71B1FBF0F08249E9
:102D50000968B1FBF0F003F095F940B9102D06D2E7
:102D600000222946501E03F02EF9756000E0012470
:102D7000204670BD10B50024032003F015F90F2084
:102D8000FFF7DBFF002814BF0124FEF74DF82046B3
:102D900010BD7047714810B54FF0FF318163C163BA
:102DA00000228263C2630164026481628262C16242
:102DB000C26201630263FFF7ECFF002010BD6548AB
:102DC000816802781144816070476248806870476A
:102DD00060484068704770B55E4C01460020257819
:102DE0008D4208BF70BD21706068FFF7A6FF002804
:102DF00018BF257070BD57480078704770B50446FD
:102E0000FFF7E3FF0546B4F1FF3F02D051480078D9
:102E10000444FFF7DAFF401BA042FAD370BD4FF025
:102E2000E020016921F00201016170474FF0E020CC
:102E3000016941F002010161704749487047494802
:102E40000068000C704747480068C0F30B007047EB
:102E50004548006870474548006870474448006826
:102E600070474048416841F00101416070473D486A
:102E7000416821F00101416070473A48416841F0E2
:102E80000201416070473748416821F0020141600A
:102E900070473448416841F004014160704731484F
:102EA000416821F00401416070473248CA21416203
:102EB0005321416230490120C1F8000370472E4977
:102EC0000120086270472C49002008627047294998
:102ED0000A6B22F0040210430863704725490A6B0D
:102EE00022F0020210430863704722494A6B22F025
:102EF0003F0210434863704770B51E4C206B40F092
:102F000001002063FFF761FF0546206B10F0080FFA
:102F10000BD100BFFFF759FF401B0A2801D903203E
:102F200070BD206B10F0080FF4D0002070BD114868
:102F3000016B21F00101016370470E48416841F4C3
:102F40008071416070470B48416821F48071416095
:102F500070470000380000204400002000100240AC
:102F600000030D01002004E09075FF1F9475FF1F02
:102F70009875FF1F00000140000020422DE9F0413C
:102F8000FE4C206840F001002060FFF71EFF054660
:102F9000206810F0020F08D1FFF717FF401B02282E
:102FA0003BD8206810F0020FF6D0206820F0F00027
:102FB00040F0600020600027A760F249F0480860F8
:102FC000F1480068FFF7B9FE00281CBF0120BDE8EA
:102FD000F081FFF7FAFE0546A06810F00C0F18BF4D
:102FE00041F2883609D000BFFFF7EFFE401BB04228
:102FF00013D8A06810F00C0FF6D12068E349084000
:103000002060FFF7E2FE0546206810F0285F0BD035
:10301000FFF7DBFE401B022802D90320BDE8F08148
:10302000206810F0285FF3D1E760E06840F480503A
:10303000E0602761206940F4805020616761606929
:1030400040F480506061206820F480202060A761F7
:103050004FF0FF302062D4F8940040F40000C4F830
:1030600094000020BDE8F081C44930B400238A6890
:103070001846D1F80CC012F00C020CF00305DFF872
:1030800010C34FEA6C040DD00C2A09D0042A02BFE9
:10309000604630BC7047082A08BF204630BC7047E5
:1030A000012D16D10B6813F0080F07BFD1F894302B
:1030B000C3F303230B68C3F30313B64D002A55F87B
:1030C000233002BF184630BC70470C2A1CBF30BCEE
:1030D0007047C86800F00300022808BF604603D0AC
:1030E000032814BF18462046CA68CB68C2F30212F0
:1030F000C3F306235843521CB0FBF2F0C96830BC3E
:10310000C1F34161491C4900B0FBF1F07047002850
:1031100004BF012070472DE9F84F984D0446A86878
:1031200000F00C06E86800F0030A207810F0100F99
:1031300000F01C81A6B10C2E08BFBAF1010F0FD010
:10314000A0690028286800F0FD8040F00100286098
:10315000FFF73BFE0746286810F0020F7ED0DEE046
:10316000286810F0020F02D0A069002877D0D4F8A8
:103170002090286810F0080F19BF286800F0F000B0
:10318000D5F89410F02008BF00EA1110DFF808828B
:1031900081454CD9A86D002710F0805F02D002F065
:1031A00059FB0DE0A86D40F08050A865A86D00F0B7
:1031B0008050009002F04EFBA96D21F08051A9656E
:1031C000B0F5007F09D0B9F1800F88BF03270FD871
:1031D0000AD100BF4FF002070AE0B9F1800F07D90A
:1031E000B9F1A00F03D9F5E7B9F1700F00D10127AC
:1031F000D8F8000020F007003843C8F80000D8F8DD
:10320000000000F00700B84265D1286840F00800CF
:1032100028602868216A20F0F00008432860686868
:10322000E16920F47F4040EA0120686056E02868A8
:1032300040F0080028602868216A20F0F000084368
:1032400028606868E16920F47F4040EA01206860F6
:10325000F6BB0027D4F82090A86D01E055E03AE0D5
:1032600010F0805F02D002F0F5FA0DE0A86D40F09A
:103270008050A865A86D00F08050009002F0EAFA36
:10328000A96D21F08051A965B0F5007F09D0B9F191
:10329000800F88BF03270FD80AD100BF4FF0020765
:1032A0000AE0B9F1800F07D9B9F1A00F03D9F5E70A
:1032B000B9F1700F00D10127D8F8000020F0070005
:1032C0003843C8F80000D8F8000000F0070000E01C
:1032D00004E0B84202D0012000F042BCFFF7C4FE77
:1032E0000146A8682D4AC0F30310105C00F01F00CF
:1032F00021FA00F02349086023480068FFF71DFD0C
:10330000002818BF00F02CBC30E0FFF75EFDC01BAA
:10331000022800F2B481286810F0020FF5D0286866
:1033200040F0080028602868216A20F0F000084377
:1033300028606868E16920F47F4040EA0120686005
:1033400014E000BF20F001002860FFF73EFD0746B3
:10335000286810F0020F09D0FFF737FDC01B0228C4
:1033600000F28D81286810F0020FF5D1207810F05E
:10337000010F60D0082E35D00C2E11E00010024055
:1033800000093D00440000203C000020FFF4FEEA5C
:103390000024F4008C950108002002407C9501086F
:1033A00008BFBAF1030F1DD06068B0F5803F22D08E
:1033B000B0F5A02F28680CBF40F4802020F48030A6
:1033C000286028680CBF40F4803020F480202860FA
:1033D0006068F8B1FFF7F9FC0746286810F4003F71
:1033E0000ED028E0286810F4003F24D06068002840
:1033F0003FF471AF1FE0286840F480302860E7E7B1
:10340000FFF7E3FCC01B64287ED8286810F4003F57
:10341000F6D010E0FFF7D9FC0746286810F4003F0B
:1034200009D000BFFFF7D1FCC01B64286CD8286806
:1034300010F4003FF6D1207810F0020F49D0042E8E
:1034400013D00C2E08BFBAF1020F0ED0E06800288E
:1034500028682AD040F480702860FFF7B6FC074641
:10346000286810F4806F0FD017E0286810F4806F80
:1034700003D0E06800283FF42EAF686820F0F851D0
:10348000207C41EA00600EE0FFF79FFCC01B022891
:103490003AD8286810F4806FF6D06868217C20F054
:1034A000F85040EA0160686013E020F48070286002
:1034B000FFF78BFC0746286810F4806F09D000BF27
:1034C000FFF783FCC01B02281ED8286810F4806F09
:1034D000F6D1207810F0080F34D060690028D5F8B4
:1034E000940018D040F00100C5F89400FFF76DFC7F
:1034F0000746D5F8940010F0020F23D1FFF765FCC2
:10350000C01B022800D800E096E0D5F8940010F027
:10351000020FF3D016E020F00100C5F89400FFF789
:1035200054FC0746D5F8940010F0020F0AD000BFF3
:10353000FFF74BFCC01B02287ED8D5F8940010F092
:10354000020FF5D1207810F0040F76D0A86D4FF05F
:10355000000810F0805F09D1A86D40F08050A86588
:10356000A86D4FF0010800F080500090DFF8CC9576
:10357000D9F8000010F4807F18D1D9F8000040F489
:103580008070C9F80000FFF720FC0746D9F800005A
:1035900010F4807F0AD100BFFFF717FCC01B022880
:1035A0006DD8D9F8000010F4807FF5D0A06801280C
:1035B0001FD00528D5F890000CBF40F0040020F083
:1035C0000100C5F89000D5F890000CBF40F0010054
:1035D00020F00400C5F89000A06841F28839D0B10D
:1035E000FFF7F3FB0746D5F8900010F0020F07D065
:1035F00027E0D5F8900040F00100C5F89000EBE717
:10360000FFF7E3FBC01B484539D8D5F8900010F010
:10361000020FF5D015E0FFF7D8FB0746D5F890006C
:1036200010F0020F0DD000BFFFF7CFFBC01B4845C5
:1036300025D8D5F8900001E021E009E010F0020F54
:10364000F2D1B8F1000F03D0A86D20F08050A8652A
:10365000A06AE8B3022815D00C2E3FF43CAE2868CF
:1036600020F080702860FFF7B0FB0446286810F057
:10367000007F7DD0FFF7A9FB001B022879D903202A
:1036800000F06EBAE868E26A00F0030191422AD1C4
:10369000216B00F0700209011039914223D1626B55
:1036A00000F4FE41B1EB022F1DD1A26B00F40031FA
:1036B000072A14BF01220022914214D1A18F00F4E5
:1036C000C00249084905A1F5001191420BD100E063
:1036D0008EE094F8401000F0C06049084906A1F15E
:1036E000007181425DD00C2E3FF4F5AD286810F0DA
:1036F000806F04BF286810F0805F7FF4ECAD28680D
:1037000020F080702860FFF760FB0646286810F004
:10371000007F08D0FFF759FB801B0228AFD828682C
:1037200010F0007FF6D1D4E90B016FF00F0202EB2D
:1037300001110843A18F5204490802EB4151626B09
:1037400041EA0221084394F840104FF07E424908B4
:1037500002EB41610843A16B090940EA4142E86874
:10376000F74908401043E860286840F0807001E0A5
:103770003AE034E02860E86840F08070E860FFF7E5
:1037800024FB0446286810F0007F31D1FFF71DFBB1
:10379000001B02283FF673AF286810F0007FF5D0B9
:1037A00026E0286810F0007F22D1286840F0807061
:1037B0002860E86840F08070E860FFF706FB044688
:1037C000286810F0007F13D1FFF7FFFA001B0228D2
:1037D0003FF655AF286810F0007FF5D008E0286864
:1037E00010F0007F7FF446AFE868D6490840E860F3
:1037F000002000F0B5B9002804BF012070472DE972
:10380000F047D14F05460E46386800F00700B04239
:1038100009D2386820F0070030433860386800F07B
:103820000700B0426CD12878C84C10F0020F0AD0C3
:10383000A868A16801F0F001884204D9A16821F0CC
:10384000F0010843A060287810F0010F3AD06868B2
:10385000032822D0022825D0216840B311F4806FBC
:103860004ED0A16821F003010843A060FFF7ADFA34
:103870008046A068696800F00C00B0EB810F18BFAB
:1038800041F288391ED000BFFFF79FFAA0EB080075
:10389000484510D90320BDE8F087216811F0007F6A
:1038A000DFD12DE0216811F4003FDAD128E011F0DA
:1038B000020FD6D124E0A068696800F00C00B0EBDC
:1038C000810FE1D1287810F0020F0AD0A868A16812
:1038D00001F0F001814204D9A16821F0F001084310
:1038E000A060386800F00700B0420CD9386820F0BA
:1038F000070030433860386800F00700B04202D05B
:103900000120BDE8F087287810F0040F05D0A068EA
:10391000E96820F4E0600843A060287810F0080F00
:1039200006D0A068296920F4605040EAC100A06078
:10393000FFF79AFBA168864AC1F30311515C01F0BD
:103940001F01C8408349086083480068BDE8F0470C
:10395000FFF7F3B970B57D4C86B01546E06C0E46A6
:1039600040F00100E064E06C694600F00100059061
:10397000A015009002200190039000200290049076
:103980004FF0904001F0A0F9A06846EA050120F050
:10399000EE400843A06006B070BD6E4800687047F6
:1039A0006C486A49006889686C4AC1F30221515C1D
:1039B00001F01F01C8407047664864490068896883
:1039C000664AC1F3C221515C01F01F01C840704733
:1039D0001F2101605D490A684FF0000312F4802F37
:1039E00018BF4FF4A0225ED042600A6812F0010FA7
:1039F0004FF0010214BF82618361D1F804C0CCF39F
:103A0000072CC0F81CC0D1F800C00CF0F00CC0F8B6
:103A100020C0D1F800C01CF4807F1ABF4FF4807C16
:103A2000C0F80CC0C360D1F804C0CCF3046CC0F87B
:103A300010C0D1F890C01CF0040F1CBF4FF0050C53
:103A4000C0F808C038D000BFD1F894C01CF0010FF6
:103A500014BF4261436143620B6813F0807F18BF5B
:103A600002228262CA6802F00302C262CA68C2F31A
:103A70000212521C0263CA68C2F306224263CA6879
:103A8000C2F34152521C5200C263CA68C2F341627F
:103A9000521C52000264C96811F4003F14BF112186
:103AA0000721816370470A6812F4803F14BF4FF406
:103AB0008032436098D198E7D1F890C01CF0010F94
:103AC00014BF82608360BFE70F2202601F4A9368C1
:103AD00003F003034360936803F0F003836093688B
:103AE00003F4E063C36092684FF4E06303EAD20238
:103AF00002611548006800F007000860704713482D
:103B0000016841F4002101607047704710B50F4C07
:103B1000E06910F4807F08BF10BDFFF7F6FF4FF497
:103B20008070206210BD094951F8940F0A6800F0B6
:103B30007E4042F400020A607047000000700040BE
:103B40008C809DF9FCFFEEFE002002400010024038
:103B50007C950108440000203C000020BC95010831
:103B600018BCBDE8E08F00002DE9F041FF4C06468F
:103B70008846E068002510F0030F30680ED0E16839
:103B800001F00301814263D1002861D0E0687168CF
:103B9000C0F30210401C884226D059E0012804D00E
:103BA000022807D003280AD052E0216811F0020F42
:103BB0000DD14DE0216811F4806F08D148E02168F3
:103BC00011F4003F04BF216811F4802F40D0E16858
:103BD00072686FF00F0321F0730103EB021241EAE8
:103BE000020141EA0000E060206820F0805020607F
:103BF000FFF7EBF80746206810F0005F09D000BF20
:103C0000FFF7E3F8C01B022837D8206810F0005FE8
:103C1000F6D1B8F1000F1DD0307C4FF07E41400846
:103C200001EB4060B16840EA0120616921F4FE4186
:103C300021F0C06108436061206840F0805020603E
:103C4000FFF7C3F80746206810F0005F10D01AE0B5
:103C500001251CE0B068F1680002090940EA414012
:103C6000616921F4FE4121F4003108436061E3E71A
:103C7000FFF7ABF8C01B022801D9032507E0206835
:103C800010F0005FF4D060697169084360612846F4
:103C9000BDE8F0812DE9F041B44D06460C46E868D8
:103CA000002710F0030F30680ED0E96801F003011F
:103CB000814264D1002862D0E8687168C0F30210C4
:103CC000401C884226D05AE0012804D0022807D0A0
:103CD00003280AD053E0296811F0020F0DD14EE0FD
:103CE000296811F4806F08D149E0296811F4003F78
:103CF00004BF296811F4802F41D0E96872686FF021
:103D00000F0321F0730103EB021241EA020141EAC1
:103D10000000E860286820F080602860FFF755F810
:103D20008046286810F0006F0AD000BFFFF74DF8FA
:103D3000A0EB0800022847D8286810F0006FF5D1E2
:103D4000FCB1012C2BD0307D4FF07E41400801EBBF
:103D50004060B16840EA0120296921F4FE4121F068
:103D6000C06108432861286840F080602860FFF740
:103D70002CF80446286810F0006F20D02AE00127B4
:103D80002CE0B068F1680002090940EA4140296965
:103D900021F4FE4121F4003108432861E3E7308A31
:103DA0007349400801EB4050B16840EA012029699D
:103DB00021F4FE4121F4C00108432861D3E7FFF755
:103DC00004F8001B022801D9032707E0286810F037
:103DD000006FF4D02869B169084328613846BDE80E
:103DE000F0812DE9F84F0446002700885F4D3E46DC
:103DF00010F4006F1FD0606E80B1B0F5800F12D04C
:103E0000B0F5000F05D0B0F5400F18BF012724D042
:103E100010E0E86840F48030E8601EE00021201DDA
:103E2000FFF738FF04E0002104F12000FFF79CFEBB
:103E3000070012D03E46208810F4805F28D0A06E84
:103E4000C8B1B0F1807F1BD0B0F1007F0ED0B0F1CF
:103E5000407F18BF012719D019E0D5F88800616E9E
:103E600020F440000843C5F88800E4E7E86840F41F
:103E70008030E8600AE00021201DFFF70BFF04E01E
:103E8000002104F12000FFF76FFE07465FB13E46B8
:103E9000206810F4003F40D0A86D4FF0000A10F0E9
:103EA000805F09D012E0D5F88800A16E20F0407044
:103EB0000843C5F88800EBE7A86D40F08050A8657E
:103EC000A86D4FF0010A00F080500090DFF8A48048
:103ED000D8F8000040F48070C8F80000FEF775FFC5
:103EE0008146D8F8000010F4807F0CD1FEF76DFFFA
:103EF000A0EB0900022801D9032706E0D8F800004A
:103F000010F4807FF2D0002F7ED03E46BAF1000F31
:103F100003D0A86D20F08050A865207810F0010F24
:103F200007D0D5F88800A16B20F003000843C5F83E
:103F30008800207810F0020F07D0D5F88800E16BD8
:103F400020F00C000843C5F88800207810F0040F1A
:103F500007D0D5F88800216C20F030000843C5F860
:103F60008800207810F0080F0ED005E00010024005
:103F70000000E0FF00700040D5F88800616C20F080
:103F8000C0000843C5F88800207810F0100F07D053
:103F9000D5F88800A16C20F440700843C5F888006B
:103FA000207810F0200F07D0D5F88800E16C20F4BD
:103FB00040600843C5F88800208810F4007F07D0CF
:103FC000D5F88800E16D20F440200843C5F888004A
:103FD000208810F4806F07D0D5F88800216E20F477
:103FE00040100843C5F88800207810F0400F07D033
:103FF000D5F88800216D20F440500843C5F88800AA
:10400000207810F0800F00E028E007D0D5F8880075
:10401000616D20F440400843C5F88800208810F402
:10402000807F07D0D5F88800A16D20F44030084388
:10403000C5F88800208810F4005F5BD0D5F88800B0
:10404000E16E20F040600843C5F88800E06EB0F1F2
:10405000006F43D0B0F1806F45D04BE0D5F89000B1
:1040600010F440701CBFD4F88410814211D0D5F8F0
:104070009000D5F8901020F4407041F48031C5F8DC
:104080009010D5F8901021F48031C5F89010C5F843
:10409000900010F0010F17D0FEF797FE0746D5F8F5
:1040A000900010F0020F08BF41F288380CD100BF19
:1040B000FEF78BFEC01B404501D9032626E7D5F845
:1040C000900010F0020FF3D0D5F89000D4F88410CF
:1040D00020F440700843C5F8900017E7E86840F402
:1040E0008010E86006E00121201DFFF7D3FD0028C5
:1040F00018BF0646206810F4002F1BD0D5F88800A2
:10410000216F20F040600843C5F88800206FB0F1AF
:10411000006F03D0B0F1806F05D00BE0E86840F489
:104120008010E86006E00121201DFFF7B3FD0028A4
:1041300018BF0646206810F4802F1BD0D5F88800E1
:10414000616F20F040600843C5F88800606FB0F1EF
:10415000006F03D0B0F1806F05D00BE0E86840F449
:104160008010E86006E00121201DFFF793FD002884
:1041700018BF0646208810F4804F1CD0D5F8880060
:10418000A16F20F040500843C5F88800A06FB0F13F
:10419000805F03D0B0F1005F06D00CE00221201D4B
:1041A000FFF778FD30B906E0022104F12000FFF7A7
:1041B000DBFC00B10646208810F4004F07D0D5F88C
:1041C0008800E16F20F080400843C5F8880020682F
:1041D00010F4803F08D0D5F88800D4F8801020F083
:1041E00000400843C5F88800304600F069BD10B4AF
:1041F000FE490160FE4951F80C2F02F0030CC0F893
:1042000004C00A68C2F30212521C82604B68C3F3F6
:104210000623C3604B6803F40034072303EB5434D4
:1042200004614C68C4F34154641C640044614C68EC
:10423000C4F34164641C64008461C0E908C28A68F4
:10424000C2F3062282628A6802F4003203EB523221
:10425000C2628A68C2F34162521C52000263CA6F92
:1042600002F003028263CA6F02F00C02C263CA6FDB
:1042700002F030020264CA6F02F0C0024264CA6FE8
:1042800002F440728264CA6F02F44062C264CA6F70
:1042900002F440520265CA6F02F440424265CA6F9E
:1042A00002F440328265CA6F02F44022C265CA6FCE
:1042B00002F440120266CA6F02F440024266CA6FFC
:1042C00002F040728266D1F8842002F44072C0F895
:1042D0008420CA6F02F04062C266CA6F02F0406278
:1042E0000267CA6F02F040624267CA6F02F0405232
:1042F0008267CA6F02F08042C267C96F01F0004155
:10430000C0F8801010BC7047034630B40020B84A93
:10431000B3F5003F39D0D168F02501F00301B54C69
:10432000DFF8D4C201295DD0022971D0032918BF5A
:10433000002173D0B3F5007F00F0348267DC102BCE
:1043400000F0848173DC012B6FD0022B6ED0042B24
:1043500000F06081082B1CBF30BC7047D2F8881079
:1043600011F0C00100F07382402900F0178280290B
:1043700000F06781C0291CBF30BC7047D2F8901094
:1043800011F0020F1ED130BC7047D2F8901001F42A
:104390004071B1F5807F0ED0B1F5007F16D0B1F538
:1043A000407F1CBF30BC7047116811F4003F18BF3C
:1043B000924830BC7047D2F8901011F0020F04BF41
:1043C00030BC70474FF4004030BC7047D2F89410B6
:1043D00011F0020F04BF30BC704700BF30BC4FF477
:1043E000FA407047116811F00201A3D0116811F072
:1043F000080F07BFD2F8941005EA1111116801F0F7
:10440000F001090954F8211094E701E006E031E0D9
:10441000116811F4806118BF61468BE7116811F4CF
:10442000003118BF764985E701E0B0E0CAE0202BF3
:104430007ED0402B00F08E81802B00F09D81B3F563
:10444000807F1CBF30BC7047D2F8881011F4403117
:1044500000F0FD81B1F5803F00F0A081B1F5003F93
:104460001CBF30BC7047116811F4806F40F0EC81C4
:1044700030BC7047B3F5804F7ED00EDCB3F5806F53
:1044800000F0B281B3F5006F3AD0B3F5805F3CD055
:10449000B3F5005F0FD030BC7047B3F5004F00F0AC
:1044A000C581B3F5803F68D0B3F5802F1EBFB3F54B
:1044B000002F30BC7047D2F8883003F04063B3F16E
:1044C000806F45D0B3F1006F24D0B3F1406F1CBFB3
:1044D00030BC7047116811F0020F04BF30BC704748
:1044E000106810F0080F07BFD2F8940005EA10100A
:1044F000106800F0F000000954F8200030BC70474C
:1045000030BC4FF4006000F052BB30BC4FF4805020
:1045100000F04DBB136813F0007F19BFD36813F48C
:10452000801F30BC7047D068C0F30620484300E0CD
:10453000A8E0D168C1F30211491CB0FBF1F0D168C9
:1045400030BCC1F34151491C4900B0FBF1F0704748
:10455000136813F0006F19BF136913F4801F30BC88
:1045600070471069C0F306204843D168C1F30211B7
:10457000491CB0FBF1F001E0A0E0E2E0116930BCC1
:10458000C1F34151491C4900B0FBF1F07047D2F82A
:10459000881011F003016ED001296DD002290BD0D3
:1045A00003291CBF30BC7047D2F8901011F0020FE5
:1045B0007FF408AF30BC7047116811F4806F76D17A
:1045C00030BC7047D2F8881011F00C0170D004296B
:1045D00052D0082918D00C291CBF30BC7047D2F823
:1045E000901011F0020F7FF4EDAE0BE0FFFF0F0013
:1045F000001002408C9501080024F40090D00300C4
:1046000000127A0030BC7047116811F4806F4ED1EF
:10461000EBE700BFD2F8881011F0300148D0102924
:104620002AD0202908D03029DFD1D2F8901011F0FB
:10463000020F7FF4C7AED8E7116811F4806F36D14E
:10464000D3E7116811F4806F31D1CEE7D2F888102A
:1046500011F440712CD0B1F5807F0DD0B1F5007F01
:104660000BD0B1F5407FC0D1D2F8901011F0020FFD
:104670007FF4A8AEB9E769E07DE0116811F4806FBE
:1046800015D1B2E7D2F8881011F4406110D0B1F51D
:10469000806F70D0B1F5006F0BD0B1F5406FA4D131
:1046A000D2F8901011F0020F7FF48CAE9DE774E009
:1046B000CCE0116811F4806F6FD196E7D2F88830A2
:1046C00003F04053B3F1805F06D0B3F1005F1DD01B
:1046D000B3F1405F62D088E7136813F0006F1CBF2E
:1046E000136913F0807F80D01069C0F3062048431F
:1046F000D168C1F30211491CB0FBF1F01169C1F39B
:104700004161491C4900B0FBF1F06EE7136813F0FA
:10471000005F1CBF536913F0807F3FF466AF5069A0
:10472000C0F306204843D168C1F30211491CB0FB15
:10473000F1F05169C1F34161491C4900B0FBF1F04E
:1047400053E7D2F8880010F0004F27D130BCFFF7B4
:1047500033B900BFD2F8881011F4405177D0B1F5C9
:10476000805F1BD0B1F5005F7FF43FAF116811F49B
:10477000806F69D139E711E0D2F8881011F4404117
:1047800065D0B1F5804F09D0B1F5004F7FF42DAF62
:10479000116811F4806F57D127E755E030BCFEF760
:1047A00063BC00BFD2F8881011F440214FD0B1F59E
:1047B000802F0DD0B1F5002F11D0B1F5402F7FF42F
:1047C00014AFD2F8901011F0020F7FF4FBAD0CE79C
:1047D000D2F8941011F0020F7FF400AE05E71168D3
:1047E00011F4806F30D100E7D2F8881011F4401135
:1047F0002DD0B1F5801F0DD0B1F5001F11D0B1F54E
:10480000401F7FF4F2AED2F8901011F0020F7FF447
:10481000D9ADEAE6D2F8941011F0020F7FF4DEADC4
:10482000E3E6116811F4806F0ED1DEE6D2F888104D
:1048300011F080410BD0B1F1804F7FF4D6AE1168FA
:1048400011F4806F3FF4D1AE6046CEE6FFE730BC96
:10485000FFF7A6B82DE9F041FE4D0746002628686F
:1048600020F080602860FEF7B0FA0446286810F057
:10487000006F0AD0FEF7A9FA001B022801D903260F
:1048800033E0286810F0006FF4D1388AF24940080C
:1048900001EB4050B9684FF07E4240EA0120397D7B
:1048A000490802EB41610843F968090940EA4140BF
:1048B0002969EA4A1140084328612869B96908430F
:1048C0002861286840F080602860FEF77EFA044680
:1048D000286810F0006F08D1FEF777FA001B022855
:1048E000CDD8286810F0006FF6D03046BDE8F081D2
:1048F00070B5D84C0026206820F080602060FEF75C
:1049000064FA0546206810F0006F0AD0FEF75DFAE1
:10491000401B022801D9032603E0206810F0006F35
:10492000F4D1206920F4881020F080702061206884
:1049300010F0085F03D1E06820F00300E06030462B
:1049400070BD2DE9F041C34D06460027286820F0D0
:1049500080502860FEF739FA0446286810F0005F9E
:104960000BD000BFFEF731FA001B022801D9032744
:104970002DE0286810F0005FF4D1307C4FF07E41CC
:10498000400801EB4060B16840EA0120F168090984
:1049900040EA41406969B24A114008436861686968
:1049A000716908436861286840F080502860FEF70C
:1049B0000CFA0446286810F0005F08D1FEF705FAEB
:1049C000001B0228D3D8286810F0005FF6D03846C4
:1049D000BDE8F08170B59F4C0026206820F0805023
:1049E0002060FEF7F2F90546206810F0005F0AD05B
:1049F000FEF7EBF9401B022801D9032603E02068EB
:104A000010F0005FF4D1606920F4803020F08070F5
:104A10006061206810F0206F03D1E06820F003008F
:104A2000E060304670BD8B498A6822F40042104332
:104A300088607047874951F8942F22F4706242EAE7
:104A4000001008607047834850F8901F41F0200123
:104A5000016070477F4850F8901F21F0200140F816
:104A60007819016821F4007101607047794850F8A5
:104A7000901F41F0200140F87819016841F400715D
:104A800001607848016841F40021016076480168BE
:104A900041F4002101607047704710B56D4CE0692A
:104AA00010F4007F08BF10BDFFF7F6FF4FF4007051
:104AB000206210BDF0B5674C07460025E06C89B058
:104AC0002E4640F00100E064E06C02A900F0010015
:104AD0000790042002900320039002200590049583
:104AE0004FF0904000F0F0F8A06D10F0805F08D11A
:104AF000A06D40F08050A065A06D012500F08050B1
:104B000001905A48006810F4807F02D100F0D8FD6F
:104B10000126D4F8900020F04070384340F08070B7
:104B2000C4F89000002E18BF00F0D0FD002D04BF87
:104B300009B0F0BDA06D20F08050A06509B0F0BDB7
:104B400038B5444C00252846A16D11F0805F08D18E
:104B5000A16D41F08051A165A16D012501F0805149
:104B600000914249096811F4807F02D100F0A8FD4C
:104B70000120D4F8901021F08071C4F89010002822
:104B800018BF00F0A3FD002D08BF38BDA06D20F0B8
:104B90008050A06538BD2F48016841F004010160D4
:104BA00070472C48016821F00401016070470346FA
:104BB0000020DFF8BCC0274AB3F5006F03D0B3F57F
:104BC000805F09D063E0D2F8883003F44003B3F586
:104BD000400F08D160467047D2F8883003F0407328
:104BE000B3F1407FF6D0B3F5000F18BFB3F1007FEB
:104BF0001FD0FBB3B3F5800F1CBFB3F1807F7047AC
:104C0000136813F0005F1ABF536913F4803F7047B5
:104C1000D068C0F3021000F10100B1FBF0F150695F
:104C2000C0F30623506910F4003F46D04FF0110046
:104C300028E0136813F0007F1ABFD36813F4803F95
:104C40007047D068C0F3021000F10100B1FBF0F131
:104C5000D06810E0001002400000E0FFFF809DF9E6
:104C6000FF80FDF90004014008040140007000408D
:104C700068FF1F000BE0C0F30623D06810F4003F6C
:104C80001BD0D3E701FB03F1B1FBF0F070471368D1
:104C900013F0006F1ABF136913F4803F7047D06898
:104CA000C0F3021000F10100B1FBF0F11069C0F394
:104CB0000623106910F4003FB8D14FF00700E1E778
:104CC00018BCBDE8E08F00000B680022002B08BF75
:104CD00070472DE9F84FEF4DED4C4FF001094FF0C3
:104CE000030C4FF00F0A05F1040E00BF0B6809FA20
:104CF00002F6334000F0E0800F7907F00307012F40
:104D000018BF022F1AD1D0F808804FEA42070CFAD8
:104D100007FB28EA0B08D1F80CB00BFA07F747EAB3
:104D200008078760476891F8048027EA0607C8F3F8
:104D3000001808FA02F848EA070747604F683CEA9B
:104D400007080CD1D0F82C80C7F3C00728EA060664
:104D500097403E43C6624E683CEA06060BD0C768E1
:104D600056000CFA06F827EA0807D1F8088008FA76
:104D700006F63E43C6600E7906F00306022E11D1F8
:104D8000D60800EB8607D7F820805607F60E0AFAF9
:104D900006FB28EA0B08D1F810B00BFA06F646EA33
:104DA00008063E62066857000CFA07F826EA08066D
:104DB00091F8048008F0030808FA07F73E430660FC
:104DC0004E6816F4403F77D0266E46F00106266600
:104DD000266E06F00106009622F0030606F18046D4
:104DE00006F58036D6F8088097073F0F0AFA07FBCA
:104DF00028EA0B08B0F1904F08BF4FF0000B30D0FD
:104E0000A0F1904BBBF5806B08BF4FF0010B28D091
:104E1000A0F1904BBBF5006B08BF4FF0020B20D008
:104E2000A0F1904BBBF5406B08BF4FF0030B18D0BF
:104E3000A0F1904BBBF5805B08BF4FF0040B10D086
:104E4000A0F1904BBBF5A05B08BF4FF0050B08D05D
:104E5000A0F1904BBBF5C05B0CBF4FF0060B4FF0C1
:104E6000070B0BFA07F747EA0807B7602E684F6889
:104E70009E4317F4801F18BF1E432E60DEF80060AB
:104E80004F689E4317F4001F18BF1E43CEF8006002
:104E9000814F3E68D1F804809E4318F4003F18BF4C
:104EA0001E433E607D4F3E68D1F804809E4318F457
:104EB000803F18BF1E433E600B68521CD3407FF4F6
:104EC00015AF00F0F1B80022002908BF70472DE9A6
:104ED000F04FDFF8C8E101270F264FF0030900BFAC
:104EE00007FA02F414EA01037ED022F0030C0CF15D
:104EF000804505F58035D5F808A04FEA827C4FEA59
:104F00001C7806FA08FC0CEA0A0AB0F1904F08BFB8
:104F10004FF0000B30D0A0F1904BBBF5806B08BF79
:104F20004FF0010B28D0A0F1904BBBF5006B08BFF0
:104F30004FF0020B20D0A0F1904BBBF5406B08BFA7
:104F40004FF0030B18D0A0F1904BBBF5805B08BF6E
:104F50004FF0040B10D0A0F1904BBBF5A05B08BF45
:104F60004FF0050B08D0A0F1904BBBF5C05B0CBF18
:104F70004FF0060B4FF0070B0BFA08F8D04521D184
:104F8000DEF800A02AEA030ACEF800A0DFF80881C4
:104F9000D8F800A02AEA030AC8F800A0DFF80081C8
:104FA000D8F800A02AEA030AC8F800A0A8F104086B
:104FB000D8F800A02AEA0303C8F80030AB6823EA57
:104FC0000C03AB60D0F800C0530009FA03F34CEABD
:104FD000030CC0F800C04FEAD20C00EB8C0CDCF8DC
:104FE00020504FEA427800E01BE04FEAD86806FA0A
:104FF00008F825EA0805CCF82050D0F808C02CEABB
:10500000030CC0F808C0D0F804C02CEA040CC0F8A7
:1050100004C0D0F80CC02CEA0303C360C36AA343E6
:10502000C362521C31FA02F37FF45AAF00F03FB86A
:105030000069084018BF01207047002A14BF816131
:1050400081627047426921EA0203114043EA01414B
:105050008161704781B041F480320092C261C161C8
:105060000099C161C1690091C06910F4803F14BF0B
:105070000020012001B0704770470A490A680242C7
:1050800008BF704710B50860FFF7F6FF10BD0000BD
:1050900000100240080401400404014000040140E3
:1050A0000C0401401404014018BCBDE8E08F30BC82
:1050B000BDE8C08F002804BF01207047DFF8E8C3B7
:1050C0000268FA4BFA49624509D2DFF8E8C3944412
:1050D000A3FB0CC31B099B00C0E9101309E0DFF818
:1050E000D8C39444A3FB0CC31B099B004364F34B3C
:1050F000036430B4022380F825301368D0E902C479
:105100004CEA040CD0E904452C434CEA040C8469B5
:105110006FF30E134CEA040CC4694CEA040C046AE5
:105120004CEA040C4CEA030313608268B2F5804F2A
:105130002FD0036C0F228B4217D1D1F8A83090F8F2
:1051400044C00CF01C0C02FA0CF223EA0202C1F873
:10515000A82090F84430426803F01C039A40D1F82C
:10516000A8301A43C1F8A82013E0D5490B6890F87D
:1051700044C00CF01C0C02FA0CF223EA02020A6092
:1051800090F84430426803F01C039A400B681A43BD
:105190000A600021C163012280F8252080F82410D4
:1051A00030BC0846704710B4002802BF012010BC74
:1051B000704701680A6822F001020A60DFF8E8C25D
:1051C0000268BA49BA4B624509D2DFF8E8C2944492
:1051D000A1FB0CC109098900C0E9103109E0DFF821
:1051E000D8C29444A1FB0CC1090989004164B349A8
:1051F00001640021116090F844204FF0010C02F08E
:105200001C020CFA02F2D0F840C0CCF80420D0F80E
:1052100040C00F229C450BD1D3F8A8C090F8444061
:1052200004F01C04A2402CEA0202C3F8A8200AE001
:10523000A34BD3F800C090F8444004F01C04A240F3
:105240002CEA02021A60C162016341638163C16397
:1052500080F8251080F8241010BC0020704770B42E
:1052600090F824404FF0000C012C02BF022070BCCB
:105270007047012480F8244090F825600025012E15
:105280001CBF80F824504FF0020C02D070BC604666
:105290007047022680F82560C56305682E6826F0F1
:1052A00001062E6090F8445005F01C05AC40056CDA
:1052B0006C60046863608368102B036803BF9A60A6
:1052C0000268D16099601CBF0168CA60006801680B
:1052D00041F001010160D9E770B490F824404FF02B
:1052E000000C012C02BF022070BC7047012480F822
:1052F000244090F825600025012E1CBF80F8245022
:105300004FF0020C02D070BC60467047022680F855
:105310002560C56305682E6826F001062E6090F8AA
:10532000445005F01C05AC40056C6C60046863607B
:105330008368102B036803BF9A600268D16099608C
:105340001CBF0168CA60016B002901680A6818BFA8
:1053500042F00E0206D122F004020A6001680A68D7
:1053600042F00A020A600068016841F00101016030
:10537000C9E790F825200021022A05D00422C26343
:1053800080F82410012070470268136823F00E0390
:1053900013600268136823F00103136090F844203F
:1053A000D0F840C002F01C03012202FA03F3CCF84B
:1053B000043080F8252080F824100846704710B586
:1053C00090F825100024022903D00421C163012490
:1053D0001BE001680A6822F00E020A6001680A6890
:1053E00022F001020A6090F84410036C01F01C02E4
:1053F000012101FA02F25A6080F82510002180F89C
:105400002410816B002918BF8847204610BD2DE964
:10541000F05F044690F82500164689464FF00008D4
:10542000022806D00420E06384F82480012000F0E4
:1054300039B92068006810F0200F1CBF4FF480704D
:10544000E06360D194F84400B9F1000F00F01C0152
:105450000CBF0220042000FA01F7FDF7B6FC8246DB
:10546000206C00684FF00105384208BF4FF0080B70
:1054700036D1206C016894F8440000F01C000BFA4F
:1054800000F001421ED094F84400216C00F01C0092
:1054900005FA00F04860E56384F8255084F824801C
:1054A000012000F0FFB8000008040240CDCCCCCCB5
:1054B00000000240F8FFFDBFF8FBFDBF0004024002
:1054C000A8040240B6F1FF3F06D0FDF77EFCA0EB3A
:1054D0000A00B04211D886B1206C00683842C8D0AA
:1054E00094F84400B9F1000F00F01C010DD0042025
:1054F0008840216C48600020D3E72020E06384F8D6
:10550000255084F824800120CBE702208840216CBC
:10551000486084F8248084F82550ECE7F0B4016CEE
:10552000D1F800C001680B6890F8442002F01C0418
:10553000042202FA04F515EA0C0F18BF13F0040F49
:1055400014D00B6813F0200F03D10B6823F0040371
:105550000B6090F8441001F01C0102FA01F1026C9A
:105560005160016B002946D1F0BC7047022606FA53
:1055700004F212EA0C0F4FF000054FF0010218BFC1
:1055800013F0020F17D00B6813F0200F05D10B6832
:1055900023F00A030B6080F8252090F84410026C79
:1055A00001F01C0106FA01F1516080F82450C16A33
:1055B00009BBF0BC7047082606FA04F414EA0C0F85
:1055C00012BF13F0080FF0BC70470B6823F00E03F6
:1055D0000B6090F84410036C01F01C0102FA01F119
:1055E0005960C26380F8252080F82450416B00295F
:1055F00004BFF0BC7047F0BC084790F824C00023FB
:10560000BCF1010F04BF022070474FF0010C80F87D
:1056100024C090F825C0BCF1010F0FD1002908BFAC
:10562000C2620CD0012908BF026308D0022908BF5A
:10563000426304D0032908BF826300D00123002104
:1056400080F824101846704790F824200023012A7F
:1056500004BF02207047012280F8242090F825C062
:105660000022BCF1010F13D1052911D2DFE801F0AE
:10567000030507090B00C2620BE0026309E0426305
:1056800007E0826305E0C26202634263826300E076
:10569000012380F824201846704790F825007047B1
:1056A000C06B704730BCBDE8C09F00006448816B90
:1056B00041F080518163816B21F08051816370479B
:1056C0006048016841F48071016070475D4801687D
:1056D00021F48071016070475A4910B44A68036828
:1056E00022F00E021A434A60DFF85CC1DCF80010B9
:1056F00021F48031CCF80010ACF104010A6822F4E6
:1057000080320A60514A136823F480331360131FF8
:105710001C6824F480341C60446814F4803F03D077
:105720000C6844F480340C60416811F4003F05D0EB
:10573000DCF8001041F48031CCF80010017911F050
:10574000010F03D0196841F480311960007910F01D
:10575000020F03D0106840F48030106010BC0020AD
:1057600070473848416841F0010141607047354851
:10577000416821F00101416070473249CB6800F077
:105780001F02934343EA5010C86088681043886042
:1057900070472C498A6800F01F0022EA00008860E8
:1057A000704710B50C4627490028486900F400707E
:1057B00004D0002808BF00F043FB05E020B100F052
:1057C00045FB002818BF10BD2148016821F00401E5
:1057D0000160012C04BF30BF10BD40BF20BF20BFFF
:1057E00010BDB0F5804F084601D000F049BB00F075
:1057F0005CBB1448016821F0070141F0030101601E
:105800001348016841F00401016030BF704710483F
:10581000016841F00201016070470D48016821F004
:105820000201016070470A48016841F010010160FF
:1058300070470748016821F0100101607047704708
:105840000010024000700040040401400C040140BC
:1058500010ED00E0F748006800F4C0607047F549BB
:10586000B0F5007F086800F4C0600AD0B0F5806F22
:1058700005D0086820F4C06040F480600860002013
:105880007047B0F5007FFAD0086820F4C06040F49B
:1058900000700860E8484FF03202006800FB02F038
:1058A000E64AB0FBF2F000F101004A6912F4806FA1
:1058B0001CBF0028401EF8D1486910F4806F18BF43
:1058C0000320DCD07047DB49CA6822F40072104321
:1058D000C860C86840F48070C8607047D548C16827
:1058E00021F48071C1607047D248416841F4806101
:1058F00041607047CF48416821F480614160704742
:10590000CC48416841F4007141607047C948416822
:1059100021F4007141607047C648816841F400413C
:1059200081607047C348816821F4004181607047FD
:1059300003460020BF4A082B4ED2DFE803F00411D3
:105940001B232B333B43136A21F4804C43EA0C03A3
:105950001362536A21F4204123EA01015162704726
:10596000936A0B439362D36A21F0100123EA010189
:10597000D1627047136B0B431363536B23EA01012E
:1059800051637047936B0B439363D36B23EA01011D
:10599000D1637047136C0B431364536C23EA01010A
:1059A00051647047936C0B439364D36C23EA0101F9
:1059B000D1647047136D0B431365536D23EA0101E6
:1059C00051657047936D01F003010B439365D36DEF
:1059D00023EA0101D165704701207047034600208A
:1059E000944A082B31D2DFE803F0040B10151A1F7C
:1059F0002429136A21F4804123EA010111627047CE
:105A0000936A23EA010191627047136B23EA010153
:105A100011637047936B23EA010191637047136C24
:105A200023EA010111647047936C23EA0101916438
:105A30007047136D23EA010111657047936D01F002
:105A4000030123EA01019165704701207047034675
:105A50000020784A082B4FD2DFE803F004111C2401
:105A60002C343C44536A21F4204C43EA0C03536227
:105A7000136A21F4804123EA010111627047D36A5D
:105A800021F0100C43EA0C03D362936A23EA01016C
:105A900091627047536B0B435363136B23EA01010D
:105AA00011637047D36B0B43D363936B23EA0101FC
:105AB00091637047536C0B435364136C23EA0101E9
:105AC00011647047D36C0B43D364936C23EA0101D8
:105AD00091647047536D0B435365136D23EA0101C5
