:020000040800F2
:1000000008140020290200084D0D00084F0D0008BB
:10001000510D0008530D0008550D000800000000A8
:10002000000000000000000000000000570D000864
:10003000590D0008000000005B0D00085D0D000870
:10004000430200084302000843020008430200087C
:10005000430200084302000843020008430200086C
:10006000430200084302000843020008430200085C
:10007000430200084302000843020008430200084C
:10008000430200084302000843020008430200083C
:10009000430200084302000843020008430200082C
:1000A000430200084302000843020008430200081C
:1000B000430200084302000843020008430200080C
:1000C00043020008430200084302000843020008FC
:1000D00043020008430200084302000843020008EC
:1000E00043020008430200084302000843020008DC
:1000F00043020008430200084302000843020008CC
:1001000043020008430200084302000843020008BB
:10011000430200084302000843020008610D000882
:10012000430200084302000843020008430200089B
:10013000430200084302000843020008430200088B
:10014000430200084302000843020008430200087B
:10015000430200084302000843020008430200086B
:10016000430200084302000843020008430200085B
:100170004302000843020008430200080000000098
:10018000430200084302000800F002F800F03CF8C7
:100190000AA090E8000C82448344AAF10107DA45E2
:1001A00001D100F031F8AFF2090EBAE80F0013F0F8
:1001B000010F18BFFB1A43F0010318476411010037
:1001C00084110100103A24BF78C878C1FAD85207C8
:1001D00024BF30C830C144BF04680C6070470000C1
:1001E0000023002400250026103A28BF78C1FBD840
:1001F000520728BF30C148BF0B6070471FB50FF0D2
:10020000BEFC1FBD10B510BD0DF0ACF91146FFF7D7
:10021000F5FF00F0B7FA0DF0CAF903B4FFF7F2FFEB
:1002200003BC0DF0CDF9000009488047094800479C
:10023000FEE7FEE7FEE7FEE7FEE7FEE7FEE7FEE796
:10024000FEE7FEE704480549054A064B70470000F3
:10025000B191000889010008080E00200814002050
:100260000810002008100020491E03D412F8013B9A
:100270004354F9E7704773B584B000200D460290EF
:1002800004AA042101A8FFF7EFFF049A4FF090445D
:10029000A2F11050C73823D0A2F12050CD381FD082
:1002A000A2F13050CB381BD01021204603F048FB80
:1002B000012813D100221021204603F046FB4FF6FF
:1002C000FF73042201A9E04801F062F80122102125
:1002D000204603F03AFB284602F013FC06B070BD3E
:1002E0001021204603F02CFB0128F7D10022102119
:1002F0002646204603F029FB4FF48074234604224F
:1003000001A9D14801F044F801221021304603F040
:100310001CFB284602F0F5FB00221021304603F0BA
:1003200014FB042302AA01A9C748009401F02FF985
:1003300001221021304603F008FB284602F0E1FBC1
:100340009DF80A009DF8091000EB012080B2C5E776
:1003500010B50121BD48FFF78EFF0121BC48FFF712
:100360008AFF0121BB48FFF786FF1921BA48FFF732
:1003700082FFBA4C01212046FFF77DFF2046BDE8F1
:100380001040012177E710B5FF221F2120FA01F369
:1003900013F0010F02F0800301D083F080035206B6
:1003A000120E0BB182F01D02491EC9B20729EDD809
:1003B000D043C0B210BD30B5AA4BA94C9968DD68D6
:1003C00054F82120821A2A44DA6044F82100491C9A
:1003D00001F07F009860D01702EB5060C01100B2AE
:1003E00030BD30B59F4BA04C19695D6954F8212090
:1003F000821A2A445A6144F82100491C01F07F0006
:100400001861D01702EB5060C01100B230BD30B59A
:10041000944B964C19685D6854F82120821A2A443E
:100420005A6044F82100491C01F07F001860D01781
:1004300002EB5060C01100B230BD70B590B0044600
:100440008B4807908B4808908B4809908B480A90FE
:100450008B480B908B480C9007AA042104A8FFF747
:1004600003FF08AA042105A8FFF7FEFE09AA04213C
:1004700006A8FFF7F9FE0AAA04210DA8FFF7F4FE6B
:100480000BAA04210EA8FFF7EFFE0CAA04210FA867
:10049000FFF7EAFE4FF090461021304603F050FA85
:1004A00001284FD100221021304603F04EFA4FF6BA
:1004B000FF752B46042204A9634800F069FF01225E
:1004C0001021304603F041FA012002F01AFB00220D
:1004D0001021304603F039FA042301AA05A95A482D
:1004E000009501F054F801221021304603F02DFA56
:1004F000012002F006FB00221021304603F025FA0D
:10050000042302AA06A95048009501F040F80122F0
:100510001021304603F019FA012002F0F2FA00220D
:100520001021304603F011FA2B46042203A9464855
:1005300001F05CF901221021304603F006FA012097
:1005400002F0DFFA9DF806009DF8051000EB01208F
:1005500000B2FFF75CFF00EE100AF8EEC00A9FED54
:100560004A0A20EE801ADFED490A21EE201A84EDB6
:10057000001A9DF80A009DF8091000EB012000B256
:10058000FFF72FFF01EE100AB8EEC11A21EE001A94
:1005900021EE201A84ED011A9DF80E009DF80D1031
:1005A00000EB012000B2FFF706FF01EE100AB8EEE3
:1005B000C11A21EE000A20EE200A84ED020A10B0D2
:1005C00070BD30B5274B324C9969DD6954F8212054
:1005D000821A2A44DA6144F82100491C01F07F00A4
:1005E0009861D01702EB5060C01100B230BD30B539
:1005F0001C4B284C196A5D6A54F82120821A2A443F
:100600005A6244F82100491C01F07F001862D0179B
:1006100002EB5060C01100B230BD30B5114B1E4C22
:10062000996ADD6A54F82120821A2A44DA6244F871
:100630002100491C01F07F009862D01702EB506046
:10064000C01100B230BD0000580C00201F0000B4E3
:10065000982000B4380300B46F1F00B0E500001804
:1006600058020020000000205804002058000020FC
:10067000C7000024CD000028CB00002CF7000004A8
:10068000FD000008FB00000C000080380000B442B0
:100690005806002058080020580A002030B500688D
:1006A000FE49884231D1FD481030016821F0010136
:1006B0000160FB49C868401CC860FA4800680D1D0D
:1006C0002C682B1D002284420CD01C68641C1C600A
:1006D0001C68042C07D328601A6020B901200C3351
:1006E000186000E01A60486920B14A610878401C2F
:1006F000087009E0C868322807D30878002804D0B9
:1007000008780B6918700A70CA6030BD72B6FEE7CF
:1007100010B596B0442168460CF0E7FE142111A8EC
:100720000CF0E3FE4FF4007003F0B3FC08B172B6B6
:10073000FEE7102000900120002460210690CDE902
:1007400007410221CDE90A100C9020200D900720CE
:10075000CDE90E016846109102F077FB08B172B640
:10076000FEE70F2011900320CDE9120401461494F6
:1007700011A8159402F0EFFD002801D072B6FEE733
:1007800016B010BD2DED088B86B002F077F9FFF79B
:10079000BFFF142168460CF0A8FEC34DE86C40F082
:1007A0000100E864E86C4FF0904600F0010005900D
:1007B00001221021304603F0C8F8102000900120DB
:1007C0000024CDE9010469463046039402F058FF45
:1007D00000F095FAB54800940194B0490294016084
:1007E0004FF6FF11C0E901140A218461C16004F0D1
:1007F00014F908B172B6FEE7A24600946946AB4808
:10080000029408F074FB08B172B6FEE7E86C40F0A1
:100810000400E864A3481038016821F040610160D9
:10082000A048001F016841F080610160A0494FF4B9
:100830000000C1F800019D4804F093F90122102145
:10084000304603F082F8FFF783FD984F4C379FED59
:1008500099AADFED99AA07F118069FED98BADFF87B
:1008600040B206F10C0806F1600990484C30FFF7E1
:10087000E4FD002407EB840006EB840590ED000AFC
:1008800060EE0A0A80EEAA0A85ED000A0EF044F82E
:1008900020EE0B0A08EB840080ED000A95ED000ABB
:1008A00009F05CF909EB8400641C80ED000A032C5C
:1008B000E0D39BF801105846012903D04178022962
:1008C00009D010E080F801A078497C31A1F118002E
:1008D00000F0EBFA07E080F801A074497C31A1F147
:1008E000180000F071FB71497C31A1F1180000F093
:1008F000B9FA6E4C7C34E0680FF0D0F841EC100B84
:100900000CF092FE9FED6E8B51EC100B53EC182BFC
:100910000EF0CEFD9FED6C9B53EC192B0EF0B2FB4D
:100920000EF0CAFA04F15405286020690FF0B6F8F9
:1009300041EC100B0CF078FE53EC182B51EC100B23
:100940000EF0B6FD53EC192B0EF09CFB0EF0B4FA32
:10095000686060690FF0A2F841EC100B0CF064FEC7
:1009600053EC182B51EC100B0EF0A2FD53EC192B8D
:100970000EF088FB0EF0A0FAA86076E710B50446EA
:100980002DED068BF0EE40AAF7EE009A9FED508A0F
:1009900009F06CF8F0EE408AB0EE6A0A09F0DEF871
:1009A000B1EE40AAB0EE6A0A09F0D8F8B0EE409A6B
:1009B000B0EE6A0A09F05AF8C4ED009A84ED018A93
:1009C00084ED028A84ED038AC4ED048A84ED05AACD
:1009D00084ED068A84ED079A84ED080ABDEC068B47
:1009E00010BD10B504462DED068BF0EE40AA09F0BF
:1009F0003DF8B0EE409A9FED368AB0EE6A0A09F0F3
:100A0000ADF8B1EE40AAF7EE009AB0EE6A0A09F02E
:100A1000A5F8F0EE408AB0EE6A0A09F027F884EDF6
:100A2000009A84ED018A84ED02AA84ED038AC4ED64
:100A3000049A84ED058AC4ED068A84ED078A84ED64
:100A4000080ACBE710B504462DED068BB0EE40AAA0
:100A500009F00CF8B0EE409AB0EE4A0A09F07EF8C0
:100A6000F0EE408A9FED1A8AB0EE4A0A09F076F855
:100A7000F1EE409AB0EE4A0A08F0F8FF84ED009AD1
:100A8000C4ED018A84ED028AC4ED039A84ED040A60
:100A9000F7EE000A84ED058A1CE000000014004017
:100AA000300000201008004800100240BC0C00205C
:100AB00004E000E0DB0F4940000034430000C8447C
:100AC00000000000008066401F85EB51B81E094001
:100AD0000000000084ED068A84ED078AC4ED080A50
:100AE000BDEC068B10BD90ED000AD1ED000A91ED32
:100AF000011A20EE200AD0ED010A00EE810AD0EDA5
:100B0000020A91ED021A00EE810A82ED000A90EDD0
:100B1000030AD1ED000A91ED011A20EE200AD0ED72
:100B2000040A00EE810AD0ED050A91ED021A00EEEA
:100B3000810A82ED010A90ED060AD1ED000A91EDDD
:100B4000011A20EE200AD0ED070A00EE810AD0ED4E
:100B5000080A91ED021A00EE810A82ED020A70473E
:100B600090ED010AD1ED020A91ED011A20EE200A62
:100B7000D0ED020A00EEC10A82ED000A90ED020AF1
:100B8000D1ED000A91ED021A20EE200AD0ED000A04
:100B900000EEC10A82ED010A90ED000AD1ED010AD2
:100BA00091ED001A20EE200AD0ED010A00EEC10AF4
:100BB00082ED020A704738B50D4604466B460322A3
:100BC000014608F014FC9DED000AB5EEC00AF1EEF6
:100BD00010FA04DBF1EEC00ACDED000A05E01FEDCE
:100BE000440A8DED000ADDED000AB7EE001A03227B
:100BF00081EE200A2946204608F08FFD38BD70B5E9
:100C0000BAB014460D46064624224D4909A80CF0F8
:100C10003AFC032209AB114634A809F0F1FF032284
:100C200019AB114615A809F0EBFF032222AB1146C0
:100C30002BA809F0E5FF2EA93046FFF7BCFF31A92C
:100C40002846FFF7B8FF12AA31A92EA8FFF788FFA0
:100C5000242168460CF049FC9DED140A03226B46E2
:100C6000F1EE400ACDED010ADDED130A1146CDED9E
:100C7000020A8DED030A9DED120AF1EE600A17A833
:100C8000B1EE401A8DED051ACDED060A8DED070A7D
:100C900009F0B6FF17A915AA08460AF06DFA2DABA0
:100CA00003222946304608F0A2FB9DED2D0AF7EEFF
:100CB000000A12A930EEC00A38AB03228DED2D0ACE
:100CC000084608F094FB2BAA17A934A809F0E2FD06
:100CD000DDED2D0A9DED381A15A9084680EE810A32
:100CE0000AF028FE03222346114636A809F088FFA1
:100CF00036AA2BA915A809F0CDFD3AB070BD12484F
:100D000010B5104901604FF48271416000214FF429
:100D1000E062C0E902124FF400720161C0E90512FD
:100D20001822C0E9072107224162C0E90A120163C3
:100D3000416300F0BCF9002801D072B6FEE710BD97
:100D40001CFC000800300140580C0020FEE7FEE7C4
:100D5000FEE7FEE7FEE770477047704701F0B3BE5D
:100D6000014805F0BFBF0000BC0C00203A4808B5A0
:100D7000016E41F001010166016E01F00101009177
:100D8000816D41F080518165806D00F08050009050
:100D900008BD10B586B00446142168460CF0A5FBCA
:100DA0002E49206888421FD12B48016E41F48051A2
:100DB0000166016E01F480510591C16C41F00101A1
:100DC000C164C06C694600F001000590E02000900D
:100DD000022001900020029003200390052004903F
:100DE0004FF0904002F04CFC06B010BD00681B496B
:100DF000884209D11848016E21F480510166E02132
:100E00004FF0904002F014BD704708B500681449D7
:100E1000884212D11048816D41F020018165806DBA
:100E2000002200F0200000901146372003F079FCEA
:100E3000BDE80840372003F092BC08BD00680849AF
:100E4000884207D10448816D21F020018165372057
:100E500003F092BC704700000010024000300140D7
:100E6000001400407CB50C46054601F12403032222
:100E70001146684609F0C4FE95ED000A08F06EFEC2
:100E800084ED000A95ED010A08F068FE84ED010A80
:100E900095ED020A08F062FE84ED020A04F10C02EC
:100EA000214668460AF05EFE7CBD30B50C462DED4D
:100EB000048B9BB0054603226B46114612A809F02D
:100EC0009FFE032209AB114617A809F099FE0322E1
:100ED00004F12403114619A809F092FE95ED000AC9
:100EE00008F03CFE84ED000A95ED010A08F036FE9C
:100EF00084ED010A95ED020A08F030FE84ED020A45
:100F0000D5ED018AB7EE009AC4ED068A8DED009A00
:100F10009FED648AB0EE680A8DED018A8DED028A3C
:100F20008DED038A08F0A2FD8DED040AB0EE680A8B
:100F300008F014FEB1EE400A8DED050A8DED068A2B
:100F4000B0EE680A08F00AFE8DED070AB0EE680AF6
:100F500008F08CFD8DED080A14AA214612A80AF0AB
:100F600001FE9DED140A0CF021FD84ED070AF0EE60
:100F7000408A08F07BFD8DED090A8DED0A8AB0EEFE
:100F8000680A08F0EBFDB1EE400A8DED0B0A8DED1D
:100F90000C8A8DED0D9A8DED0E8AB0EE680A08F080
:100FA000DDFD8DED0F0A8DED108AB0EE680A08F0B8
:100FB0005DFD8DED110A19AA17A912A80AF0DCF837
:100FC0001BB0BDEC048B30BD70B50C462DED028B13
:100FD00098B0064603226B46114612A809F010FE8F
:100FE00004F1240303221D46114614A809F008FE4B
:100FF000032209AB114616A809F002FE214630462D
:10100000FFF730FF94ED030A94ED041AB4EEC10A21
:10101000F1EE10FA06DDF0EE400AB0EE410A0CF0F7
:101020005BFD07E0F0EE410A0CF056FDDFED1E0A15
:1010300030EEC00A84ED080AF0EE408A08F016FD92
:101040008DED000AB0EE680A08F088FD8DED010A0A
:101050009FED148AB0EE680A8DED028A08F07EFDDD
:10106000B1EE400A8DED030AB0EE680A08F0FEFC0E
:101070008DED040A8DED058A8DED068A8DED078ACA
:10108000B7EE000A8DED080A092209A928460BF0DF
:10109000FEFD14AA12A916A80AF06EF818B0BDEC4D
:1010A000028B70BD00000000DB0FC93F704770B5B8
:1010B000040009D0606A002540B125616561A56220
:1010C00094F85D0040B10CE0012070BD6068B0F59F
:1010D000827FF4D0E561F2E784F85C502046FFF7A8
:1010E00058FE022084F85D002068016821F040016C
:1010F0000160E0684FF4E062904201D9002101E014
:101100004FF48051B0F5706F02D0904200D0A562CC
:10111000A088228900F4827002F404421043227CE9
:1011200002F002021043227D02F001021043228BE2
:1011300002F400721043227F02F03802104394F848
:10114000202002F080021043228D02F4005210434E
:1011500022681060A069042202EA104094F824205A
:1011600001F4805102F01002104394F8342002F090
:1011700008021043A28902F47062104308432168F8
:1011800048602566012084F85D00002070BD70472E
:1011900010B5040011D0022084F85D0020680168B9
:1011A00021F0400101602046FFF720FE002020666C
:1011B00084F85D0084F85C0010BD012010BD2DE9AD
:1011C000FC5F4FF0000B984616460F4604460C9DF8
:1011D0008DF804B001F07DFC411BA8EB010501F086
:1011E00078FC8246206800F10C09F7480068C0EBE3
:1011F000C00000EB8000000D684343E0B7F5C06F0E
:1012000006D12EB999F800008DF804009DF804006D
:10121000B8F1FF3F37D001F05CFCA0EB0A00A84218
:1012200003D215B1009858B32BE02068416821F033
:10123000E00141606068B0F5827F0BD1A068B0F535
:10124000004F02D0B0F5806F04D12068016821F012
:1012500040010160A06AB0F5005F09D12068016813
:1012600021F4005101602068016841F400510160DF
:10127000012084F85D0084F85CB0032001F0D6BB47
:101280000025401E0090206880683840B042B5D1EB
:101290000020F3E72DE9F8431E46914688460446B0
:1012A000089D01F016FC401B351A01F012FC0746A0
:1012B000C5480068C0F3CB30684338E0701C37D0B5
:1012C00001F007FCC01BA84203D215B1009860B31F
:1012D0002CE02068416821F0E00141606068B0F5D1
:1012E000827F0BD1A068B0F5004F02D0B0F5806FBF
:1012F00004D12068016821F040010160A06AB0F5C6
:10130000005F09D12068016821F400510160206864
:10131000016841F400510160012084F85D00002063
:1013200084F85C000320BDE8F8830025401E00908F
:101330002068816838EA010004D000204845BDD10A
:101340000020F0E70120F9E7F8B515460E460B46F8
:101350000092044600224FF4C051FFF730FF88B9D5
:1013600033460022802120460095FFF793FF48B9BD
:10137000334600224FF4C06120460095FFF71FFF5F
:10138000002804D0206E40F0200020660320F8BD25
:101390002DE9F84F044690F85C0000261D46904663
:1013A000894601280ED04FF0010B84F85CB001F0A3
:1013B00090FB074694F85D004146B246012804D0F0
:1013C0000226A5E0022001F034BBB9F1000F76D06F
:1013D000B8F1000F73D0032084F85D00C4F860A05A
:1013E000C4F83890A4F83C80A4F83E80C4F840A02B
:1013F000A4F844A0A4F846A0C4F850A0C4F84CA097
:10140000A068B0F5004F09D12068026822F04002C0
:1014100002602068026842F480420260206802682C
:10142000520603D4026842F040020260E068B0F560
:10143000E06F606822D908B101291BD1A06B216837
:101440000088C86006E020688168890709D5A16B1B
:101450000988C160A06B801CA063E08F401EE087FC
:1014600008E001F036FBC01BA84202D3681C01D083
:1014700045E0A5B3E08F0028E5D135E008B10129AA
:101480002FD1E08F0128A06B03D921680088C860A4
:101490000FE021680078087314E0E08721E02068FD
:1014A0008168890714D5E18F0129A16B08D90988C2
:1014B000C160A06B801CA063E08F801EEDE726E07A
:1014C00009780173A06B401CA063E08F401EE4E725
:1014D00001F0FFFAC01BA84202D3681C01D00EE045
:1014E0006DB1E08F0028DAD13A4629462046FFF751
:1014F0002BFF08B120202066A06810B105E003266C
:1015000006E02068C16880680090206E00B1012666
:1015100084F85DB084F85CA0304654E72DE9F843C8
:10152000044640684FF48276154689464FF40047DA
:101530004FF48068B04209D1A068B84201D040455C
:1015400004D12068016821F0400101604B4600226F
:10155000802120460095FFF79DFE80B96068B0426B
:1015600013D1A068B84201D040450ED14B460022AD
:101570004FF4C06120460095FFF721FE28B1206E90
:1015800040F0200020660320CDE60020CBE62DE9C8
:10159000F05F044690F85C0001250A9E1F469246C3
:1015A0008B464FF00008012810D0012084F85C0021
:1015B00001F08FFA814694F85D00616801280ED031
:1015C000B1F5827F09D104E054000020022001F02F
:1015D00033BAA16809B9042801D0022004E1BBF1A3
:1015E000000F24D0BAF1000F21D007B394F85D00AA
:1015F000042802D0052084F85D0000202066C4F88D
:1016000040A0A4F84670A4F84470C4F838B0E78746
:10161000A787E0642065E0684FF4E061884201D864
:10162000012F06D92068426822F4805205E001208B
:10163000DAE02068426842F4805242602068026822
:10164000520603D4026842F040020260E068884219
:10165000606842D908B1012F37D1A06B216800889A
:10166000C860A06B801CA063E08F401EE0872CE068
:101670002068816889070DD5E18F59B1012D09D105
:10168000A16B0988C160A06B801CA063E08F401E25
:10169000E087002520688168C9070ED0B4F846109D
:1016A00059B1C068216C0880206C801C2064B4F89B
:1016B0004600401EA4F84600012501F00AFAA0EBFE
:1016C0000900B04201D3701C72D1E08F0028CFD145
:1016D000B4F846000028CBD173E008B1012F69D1DE
:1016E000E08F0128A06B08D921680088C860A06B32
:1016F000801CA063E08F801E07E0216800780873DB
:10170000A06B401CA063E08F401EE08752E0206881
:101710008168890718D5E18FB1B1012D14D1E18F0E
:101720000129A16B07D90988C160A06B801CA06347
:10173000E08F801E06E009780173A06B401CA06357
:10174000E08F401EE087002520688168C90727D008
:10175000B4F8461021B3B4F84610012914D9C06872
:10176000216C0880206C801C2064B4F84600801E28
:10177000A4F84600B4F84600012810D82068416853
:1017800041F4805141600AE0007B216C0870206CBC
:10179000401C2064B4F84600401EA4F84600012511
:1017A00001F097F9A0EB0900B04202D3701C01D000
:1017B00019E0C6B1E08F0028A9D1B4F8460000288E
:1017C000A5D14A4631462046FFF7BEFD18B120207C
:1017D0004FF001082066012084F85D00002084F8A5
:1017E0005C004046F3E603208046F4E72DE9F84F1D
:1017F0000446406800261D46904689464FF0040B7B
:10180000B0F5827F01D1A06888B194F85C0001280E
:1018100016D0012084F85C0001F05BF9074694F8CB
:101820005D004FF0000A01280CD0022692E084F8F7
:101830005DB0009313460A462046FFF7A8FEC2E5B6
:101840000220C0E5B9F1000F73D0B8F1000F70D0DD
:1018500084F85DB0C4F860A0C4F84090A4F8448057
:10186000A4F84680C4F838A0A4F83CA0A4F83EA090
:10187000C4F84CA0C4F850A0E0684FF4E06188427E
:101880002068426802D922F4805201E042F480527A
:101890004260A068B0F5004F09D12068026822F0CC
:1018A000400202602068026822F4804202602068E0
:1018B0000268520603D4026842F040020260E06807
:1018C000884219D937E020688168C9070BD0007BAE
:1018D000216C0870206C401C2064B4F84600401E47
:1018E000A4F8460008E001F0F4F8C01BA84202D3B7
:1018F000681C01D036E0A5B3B4F846000028E2D158
:101900001DE020688168C9070BD0C068216C088081
:10191000206C801C2064B4F84600401EA4F84600E9
:1019200009E001F0D6F8C01BA84203D3681C02D01E
:1019300018E00EE0ADB1B4F846000028E1D13A4617
:1019400029462046FFF7EAFD08B120202066206ED8
:1019500000B10126012084F85D0084F85CA03046C7
:1019600031E5FFE70326F5E77047704738B50446D1
:1019700001F0AFF802462068416821F0A001416003
:1019800064212046FFF7E0FC18B1206E40F02000F3
:101990002066A06818B92068C1688068009001209E
:1019A00084F85D00206E0028204602D0FFF7DDFF9E
:1019B00038BDFFF7D9FF38BD816B02680978117314
:1019C000816B491C8163C18F491EC187C18F00296A
:1019D00000D1CBE77047816B02680988D160816BC9
:1019E000891C8163C18F491EC187C18F002900D125
:1019F000BCE7704730B590F85C400023012C0BD059
:101A0000012480F85C40002441B13AB190F85D5067
:101A1000012D05D0022333E0022030BD01232FE049
:101A2000032580F85D50046681638287C287046461
:101A3000A0F84440A0F84640C464C168B1F5E06F26
:101A400001D9FE4900E0FE4901658168B1F5004F0A
:101A500009D101680A6822F040020A6001680A6838
:101A600042F480420A6001684A6842F0A0024A607B
:101A700001680A68520603D40A6842F040020A600C
:101A800080F85C40184630BD704710B504460068C9
:101A9000416821F06001416001F01BF802466421B9
:101AA0002046FFF73BFD18B1206E40F02000206675
:101AB000012084F85D00206E0028204602D0FFF748
:101AC00054FF10BDFFF7E0FF10BD0168097B026CF9
:101AD0001170016C491C0164B0F84610491EA0F851
:101AE0004610B0F84610002900D1CEE770470168D3
:101AF000C968026C1180016C891C0164B0F8461041
:101B0000491EA0F84610B0F84610002900D1BCE7E5
:101B10007047704710B5044600F0DBFF02462068AE
:101B2000416821F02001416064212046FFF70CFC50
:101B300018B1206E40F020002066216E012029B1EE
:101B400084F85D002046FFF710FF10BD94F85D108B
:101B500084F85D000429204602D0FFF7DAFF10BDAB
:101B6000FFF792FF10BDC38F826B0168022B07D372
:101B70001288CA60816B891C8163C18F891E06E04F
:101B800012780A73816B491C8163C18F491EC1871A
:101B9000C18F002909D101684A6822F080024A6099
:101BA000B0F84610002900D1B4E77047B0F84630CD
:101BB000026C0168012B13D9C9681180016C891C62
:101BC0000164B0F84610891EA0F84610B0F846101F
:101BD00001290FD101684A6842F480524A6009E045
:101BE000097B1170016C491C0164B0F84610491E54
:101BF000A0F84610B0F84610002908D101684A68DC
:101C000022F060024A60C18F002900D182E770474C
:101C1000816B02680988D160816B891C8163C18FE7
:101C2000491EC187C18F002909D101684A6822F085
:101C300080024A60B0F84610002900D16AE7704778
:101C40000168C968026C1180016C891C0164B0F8DC
:101C50004610491EA0F84610B0F84610002908D1D9
:101C600001684A6822F040024A60C18F002900D111
:101C700050E77047F0B590F85C500024012D0CD06F
:101C8000012580F85C5090F85D5000264768012DD2
:101C90000BD0B7F5827F06D101E00220F0BD876846
:101CA0000FB9042D01D002243AE0D1B1CAB1C3B1B9
:101CB00090F85D50042D02D0052580F85D50066631
:101CC00081638387C3870264A0F84430A0F846305C
:101CD000C168B1F5E06F06D95A49C1645A49016536
:101CE00007E001241CE05949C16459490165022BF0
:101CF00004D301684A6822F4805203E001684A680C
:101D000042F480524A6001684A6842F0E0024A6048
:101D100001680A68520603D40A6842F040020A6069
:101D200080F85C602046F0BD70B400238468042510
:101D30001CB94468B4F5827F0DD090F85C40012C4A
:101D40000FD0012480F85C4090F85D600024012EE3
:101D50000AD0022343E080F85D5070BC13460A4667
:101D600088E7022070BC7047B9B1B2B180F85D500D
:101D700004660164A0F84420A0F8462084638487A8
:101D8000C4870465C168B1F5E06F01684A6806D987
:101D900022F480524A602F4905E001231FE042F4FB
:101DA00080524A602C49C1648168B1F5004F09D165
:101DB00001680A6822F040020A6001680A6822F499
:101DC00080420A6001684A6842F060024A60016825
:101DD0000A68520603D40A6842F040020A6080F89A
:101DE0005C401846BEE710B5806A01684A6822F078
:101DF00003024A60016E41F010010166012180F882
:101E00005D10FFF7B2FD10BD38B50546846A00F0DD
:101E100060FE024628680068800634D42068416865
:101E200021F0200141602068416821F002014160F9
:101E300064212046FFF788FAA0B10FE0D719000807
:101E4000B9190008411C0008111C0008AD1B00084E
:101E5000671B0008EF1A0008CB1A0008206E40F03C
:101E600020002066A068002118B92068C268806838
:101E70000090E187012084F85D00206E18B12046B3
:101E8000FFF773FD38BD2046FFF76EFD38BD704784
:101E900010B5806AFFF7FBFF10BD2DE9F041044645
:101EA00090F85C000025012809D0012784F85C70B7
:101EB00094F85D000026012804D0022570E002207D
:101EC000BDE8F08199B192B1032084F85D002666E7
:101ED000A163A287E28726642665E664A4F84460CD
:101EE000A4F84660A068B0F5004F02D00BE00125D1
:101EF00056E02068016821F0400101602068016817
:101F000041F480410160616DFD480863616DFD48E9
:101F1000C862616DFC484863606D866320684168F3
:101F200021F480414160E068B0F5E06F10D8606D49
:101F30008069B0F5806F0BD1E08FC00720684168E1
:101F400016D041F480414160E08F07EB5000E087FC
:101F5000E38F2268A16B0C32606D01F026FE68B140
:101F6000206E40F010002066012584F85D7017E0B7
:101F700021F480414160E08F4008E8E72068016873
:101F8000490603D4016841F04001016020684168BE
:101F900041F0200141602068416841F00201416048
:101FA00084F85C6028468BE770B50546846A00F0CB
:101FB00090FD024628680068800627D420684168A2
:101FC00021F020014160A06818B96068B0F5827FF7
:101FD00017D02068416821F001014160642120464A
:101FE000FFF79CFA08B1202020660020A4F84600E4
:101FF000012084F85D00206E40B12046FFF7B5FC5B
:1020000070BD2068416821F00301E6E72046FFF734
:102010003BFD70BD704710B5806AFFF7FBFF10BD38
:1020200070B50546846A00F054FD024628680068D1
:1020300080061FD42068416821F02001416064219E
:102040002046FFF781F918B1206E40F0200020668D
:102050002068416821F0030141600020E087A4F876
:102060004600012084F85D00206E18B12046FFF77D
:102070007CFC70BD2046FFF74CFD70BD704710B56D
:10208000806AFFF7FBFF10BD2DE9F041044690F890
:102090005C00002501280DD0012684F85C6094F8CE
:1020A0005D000027D4F804C001280ED0BCF5827F63
:1020B00009D101E0022003E7D4F808C0BCF1000F09
:1020C00001D1042801D00225ADE011B30AB303B356
:1020D00094F85D00042802D0052084F85D0027668E
:1020E000A163A387E3872264A4F84430A4F84630B0
:1020F000E76427652068416821F4C0414160E068D9
:10210000B0F5E06F2068416805D921F48051416045
:102110002FE0012587E041F480514160606D4FF46C
:102120008061806988420CD194F83C00C007206827
:10213000426837D042F480424260E08F06EB5000A4
:10214000E087A06D8069884213D12068416821F43E
:1021500080514160B4F84600C0072068416827D02C
:1021600041F400514160B4F8460006EB5000A4F879
:10217000460094F85D00042821D0A16D63480863EF
:102180006348A16DC862A16D5F484863A06D876315
:10219000B4F846302168226C0C31A06D01F005FDC9
:1021A00038BB11E022F480424260E08F4008C7E76C
:1021B00021F400514160B4F846004008D7E7A16D12
:1021C000544808635448DCE72068416841F0010145
:1021D0004160606D0763606DC762606D4763606DED
:1021E0008763E38F2268A16B0C32606D01F0DDFC28
:1021F00038B1206E40F010002066012584F85D6043
:1022000011E020680168490603D4016841F04001EB
:1022100001602068416841F0200141602068416808
:1022200041F00201416084F85C70284648E62DE9DF
:10223000F041044600258068042318B96668B6F5A5
:10224000827F0ED094F85C60012E12D0012684F8B3
:102250005C6094F85DC00027BCF1010F0BD0022533
:1022600097E084F85D302046BDE8F04113460A4609
:102270000AE7022024E681B17AB184F85D3027664E
:102280002164A4F84420A4F84620E7642765A787C2
:10229000E787B0F5004F02D00BE0012579E0206818
:1022A000016821F0400101602068016821F480414B
:1022B00001602068416821F400514160E068B0F598
:1022C000E06F2068416803D921F4805141602BE020
:1022D00041F480514160A06D8069B0F5806F23D1D9
:1022E0002068416821F480514160B4F84600C0077D
:1022F0002068416834D041F4005141600EE0000094
:10230000911E0008091E0008E71D00087F20000834
:102310002120000817200008A91F0008B4F8460073
:1023200006EB5000A4F84600A16DFE480863A16DBD
:10233000FD48C862A16DFD484863A06D8763B4F88D
:1023400046302168226C0C31A06D01F02EFC70B17A
:10235000206E40F010002066012584F85D6018E0D2
:1023600021F400514160B4F846004008DAE72068E3
:102370000168490603D4016841F04001016020680A
:10238000416841F0200141602068416841F001014D
:10239000416084F85C70284692E538B504460068D0
:1023A000016821F040010160E14845F6C051006834
:1023B000B0FBF1F06421484300902068416821F0AF
:1023C00040014160009808B3401E009020684068BA
:1023D0004006F7D400F07DFB0090642300228021AA
:1023E0002046FEF757FF402500B1256600F071FB3F
:1023F0000090642300224FF4C0612046FEF7DFFE08
:1024000000B12566072084F85D0038BD206E40F0DD
:1024100040002066DEE77CB50446C54845F6C0515D
:102420000068B0FBF1F064214843019020684168E6
:1024300021F080014160019800284BD0401E01909E
:10244000206840680006F6D400F043FB0246642191
:102450002046FEF779FF402500B125662068016817
:1024600021F04001016000F034FB4FF4C0660090A1
:102470006423002231462046FEF7A1FE00B1256606
:1024800020684168490621D5416821F0400141603A
:10249000019820B3401E0190206840684006F7D4A0
:1024A00000F017FB00906423002280212046FEF7F5
:1024B000F1FE00B1256600F00CFB009064230022C1
:1024C00031462046FEF77BFE00B12566072084F8E2
:1024D0005D007CBD206E40F040002066B4E7206EB9
:1024E00040F040002066DBE72DE9FC4104469048BF
:1024F00045F6C05100250068B0FBF1F06421484367
:10250000019000902068416821F02001416021681D
:10251000486800060CD587482065009800287DD0C3
:10252000401E009094F85D000728F6D101980090B5
:10253000486840060CD58048E064009800287DD0AB
:10254000401E009094F85D000728F6D10198009095
:1025500048684FF4C06880074FF040064FF000070E
:1025600025D5606D18B38763606D01F056FB00B12F
:1025700026662068416821F00201416000F0A9FA56
:10258000024664212046FEF7DFFE00B12666206881
:10259000016821F04001016000F09BFA0090642383
:1025A000002241462046FEF70AFE00B1266620685A
:1025B0004068C00727D0A06D28B38763A06D01F0E5
:1025C0002CFB00B126662068016821F04001016003
:1025D00000F07FFA00906423002280212046FEF75D
:1025E00059FE00B1266600F074FA009064230022C0
:1025F00041462046FEF7E3FD00B1266620684168AB
:1026000021F001014160A4F84670E787206E402860
:1026100019D027662068C168816801E009E00DE0F3
:10262000009180680090012084F85D002846BDE894
:10263000FC81206E40F04000206677E7206E40F07D
:102640004000206682E70125E4E77047F8B5846A18
:102650002068016821F040010160A06D00258563BC
:102660002068416821F00101416000F032FA0090D9
:102670006423002280212046FEF70CFE402600B194
:10268000266600F026FA0090642300224FF4C06111
:102690002046FEF794FD00B12666606D10B1806B98
:1026A000002812D1A4F84650E587206E402800D0BB
:1026B00025662068C16881680091806800900120CB
:1026C00084F85D002046FFF7C0FFF8BDF8B5846AC6
:1026D0000025606D85632068416821F0020141603A
:1026E00000F0F7F9024664212046FEF72DFE402651
:1026F00000B126662068016821F04001016000F009
:10270000E8F90090642300224FF4C0612046FEF7F0
:1027100056FD00B12666A06D10B1806B002820D157
:102720000CE0000017200008A91F0008E71D0008A2
:1027300054000020172400089B230008A4F84650EA
:10274000E587206E402800D025662068C168816832
:10275000009180680090012084F85D002046FFF71A
:1027600074FFF8BD2DE9FC410446AA4845F6C05166
:10277000002600680125B0FBF1F064214843019078
:1027800000902068416821F020014160216848687C
:1027900000060BD5A04820650098F8B1401E0090B7
:1027A00094F85D000728F7D101980090486840062A
:1027B0000BD59A48E0640098A8B1401E009094F8A8
:1027C0005D000728F7D101980090606D002780B167
:1027D000496889070CD5924981630AE0206E40F070
:1027E00040002066E0E7206E40F040002066EAE707
:1027F0008763A06D38B121684968C90702D089494B
:10280000816300E08763206840684FF040088007DC
:102810000AD5606D40B101F025FA20B1606D876383
:10282000C4F8608000E0002520684068C00708D038
:10283000A06D30B101F016FAB8B1A06D8763C4F88D
:10284000608095B1A4F84670E787206E40280ED0CE
:1028500027662068C1688168009180680090012027
:1028600084F85D002046FFF7F0FE3046DFE60126E3
:10287000EFE790F85C1001290CD0012180F85C1082
:1028800001684A6822F003024A60002180F85C1067
:10289000084670470220704790F85C1001290CD060
:1028A000012180F85C1001684A6842F003024A6026
:1028B000002180F85C10084670470220704770B510
:1028C0000446406D002538B101F0A7F920B1206E13
:1028D00040F0100020660125A06D38B101F09DF98F
:1028E00020B1206E40F0100020660125206841686C
:1028F00021F003014160012084F85D00284670BD8D
:1029000010B5806A0021A0F84610C187FFF72DF8A6
:1029100010BD38B5016804464A688868C04343065C
:1029200006D5C30704D1D3435B0601D4E16C05E0AF
:10293000830708D4D3431B0605D4216D01B020467C
:10294000BDE830400847830603D5430601D5C305DB
:1029500051D4D3439B064ED443060AD494F85D3039
:10296000032B49D0236E43F004032366CB688B68A6
:102970000093830609D4236E43F0010323668B681A
:1029800000930B6823F040030B60C00506D4206E53
:1029900040F008002066206880680090206E0028C3
:1029A00029D02068416821F0E0014160012084F8CD
:1029B0005D00900701D4D00722D02068416821F043
:1029C00003014160184DA06D40B18563A06D01F019
:1029D00049F918B1206E40F040002066606D002873
:1029E00009D08563606D01F03DF9002803D0206EA9
:1029F00040F04000206638BDC8688868009038BD47
:102A00002046FEF7B2FF38BD90F85D007047006EBB
:102A10007047000054000020172400089B23000882
:102A2000CD2600084D260008012900083CBCBDE861
:102A3000C09F18BCBDE8E08F30BCBDE8C09F00005F
:102A4000704770B5824E05460024307898B14FF437
:102A50007A71B1FBF0F07F490968B1FBF0F001F049
:102A6000AAFE40B9102D06D200222946501E01F0C0
:102A700058FE756000E00124204670BD10B50024AA
:102A8000032001F041FE0F20FFF7DBFF08B1012416
:102A900001E0FEF76BF9204610BD70476E4810B597
:102AA0004FF0FF318163C16300228263C26301641E
:102AB000026481628262C162C26201630263FFF7E3
:102AC000ECFF002010BD62488168027811448160EB
:102AD00070475F48806870475D484068704770B5D0
:102AE0005B4D014600202C788C4206D02970686826
:102AF000FFF7A7FF002800D02C7070BD5448007865
:102B0000704770B50446FFF7E4FF0546601C02D02D
:102B10004F4800780444FFF7DCFF401BA042FAD383
:102B200070BD4FF0E020016921F0020101617047A2
:102B30004FF0E020016941F0020101617047474810
:102B4000704747480068000C704745480068C0F36C
:102B50000B0070474348006870474248001D0068FA
:102B6000704740480830006870473D48416841F070
:102B70000101416070473A48416821F0010141601C
:102B800070473748416841F002014160704734485E
:102B9000416821F00201416070473148416841F0CD
:102BA0000401416070472E48416821F004014160F2
:102BB00070472D48CA214162532141622B490120AF
:102BC000C1F800037047294901200862704727496E
:102BD00000200862704724490A6B22F00402024375
:102BE0000A63704720490A6B22F0020202430A631B
:102BF00070471D494A6B22F03F0202434A63704707
:102C000070B5194C206B40F001002063FFF761FFA5
:102C1000054606E0FFF75DFF401B0A2801D90320A7
:102C200070BD206B0007F5D5002070BD0E48016B0C
:102C300021F00101016370470B48416841F4807144
:102C4000416070470848416821F4807141607047D5
:102C500048000020540000200010024000030D0135
:102C6000002004E09075FF1F00000140000020429A
:102C70002DE9F041FE4C206840F001002060FFF794
:102C800028FF054604E0FFF724FF401B022831D847
:102C900020688007F7D5206820F0F00040F0600041
:102CA00020600026A660F449F2480860F3480068F6
:102CB000FFF7C7FE10B10120BDE8F081FFF709FF63
:102CC000054641F2883704E0FFF703FF401BB84296
:102CD00010D8A06810F00C0FF6D12068E849084021
:102CE0002060FFF7F6FE054606E0FFF7F2FE401B08
:102CF000022801D90320DFE7206810F0285FF4D113
:102D0000E660E06840F48050E0602661206940F4AD
:102D1000805020616661606940F480506061206885
:102D200020F480202060A6614FF0FF302062D4F8AC
:102D3000940040F40000C4F894000020BCE770B593
:102D4000CB4B002210469968DC6811F00C0104F0AE
:102D50000306CC4C4FEA640508D00C2904D00429A2
:102D600031D0082931D010E0012E10D11A68120795
:102D700004D4D3F89420C2F3032202E01A68C2F309
:102D80000312C14E56F82220D9B10C2918D1D868A7
:102D900000F0030002281AD003281AD01046D96880
:102DA000DA68C1F30211C2F306224243491CB2FBA6
:102DB000F1F0D968C1F34161491C4900B0FBF1F061
:102DC00070BD104670BD204670BD284670BD2046BF
:102DD000E5E72846E3E7F8B5A54E05460024B06DC3
:102DE000C00002D501F050F90DE0B06D40F0805008
:102DF000B065B06D00F08050009001F045F9B16D04
:102E000021F08051B165B0F5007F04D0802D07D945
:102E10004FF003040AE0802D08D9A02D01D804E06A
:102E200001D1022402E0702D00D1012497480168ED
:102E300021F0070121430160006800F00700A04273
:102E400001D00120F8BD0020F8BD2DE9F8430400B1
:102E50006FD0874EB06800F00C05F06800F00307F3
:102E60002078C00664D575B10C2D01D1012F0AD090
:102E7000A0690028306879D040F001003060FFF789
:102E800028FE80465CE03068800702D5A0690028F3
:102E9000DED0216A3068000703D5306800F0F0000A
:102EA00004E0D6F89400F02202EA1010814216D90C
:102EB0000846FFF790FF00283BD1306840F008003B
:102EC00030603068216A20F0F0000843306070689C
:102ED000E16920F47F4040EA0120706016E030682C
:102EE00040F0080030603068216A20F0F0000843AC
:102EF00030607068E16920F47F4040EA0120706032
:102F000025B9206AFFF767FF0028D5D1FFF717FF23
:102F1000B1685F4AC1F30311515C01F01F01C84061
:102F20005549086055480068FFF78BFD00287DD1A2
:102F30002CE0CDE0FFF7CDFDA0EB0800022876D80D
:102F400030688007F6D5306840F00800306030689F
:102F5000216A20F0F000084330607068E16920F4D5
:102F60007F4040EA0120706010E0FFE720F00100A0
:102F70003060FFF7AEFD804605E0FFF7AAFDA0EB4D
:102F800008000228DBD830688007F6D42078C00714
:102F900040D0082D18D00C2D01D1032F14D060681B
:102FA000B0F5803F17D0B0F5A02F306817D020F4CF
:102FB00080303060306820F4802030606068E0B19C
:102FC000FFF787FD804614E03068800322D56068F3
:102FD00000287DD01EE0306840F48030EDE740F4FA
:102FE00080203060F7E7FFF774FDA0EB080064284D
:102FF000A5D830688003F6D50CE0FFF76AFD80465F
:1030000005E0FFF766FDA0EB0800642897D830685C
:103010008003F6D4207880074BD5042D11D00C2DD9
:1030200001D1022F0DD0E068002801E086E1E4E044
:1030300030682FD040F480703060FFF74AFD0746BB
:103040000BE0306840050BD5E0680028C1D007E0F0
:10305000FFF73FFDC01B022894D830684005F7D524
:103060007068217C20F0F85040EA0160706020E038
:103070000010024000093D00540000204C000020D8
:10308000FFF4FEEA0024F40050FC00080020024097
:1030900040FC000820F480703060FFF71AFD0746FE
:1030A00004E0FFF716FDC01B0228A1D830684005D8
:1030B000F7D42078000729D560690028D6F8940055
:1030C00013D040F00100C6F89400FFF702FD00E0C5
:1030D0000AE1074604E0FFF7FCFCC01B022887D882
:1030E000D6F894008007F6D510E020F00100C6F86D
:1030F0009400FFF7EEFC074604E0FFF7EAFCC01B74
:1031000002287AD8D6F894008007F6D420784007B1
:1031100065D5B06D4FF00008C00009D4B06D40F027
:103120008050B065B06D4FF0010800F08050009005
:10313000F6480168C90511D40168814641F48071DF
:103140000160FFF7C6FC074604E0FFF7C2FCC01BA6
:10315000022852D8D9F80000C005F6D5A068012889
:1031600015D00528D6F8900016D020F00100C6F83A
:103170009000D6F8900020F00400C6F89000A068F7
:1031800041F28839B8B1FFF7A4FC07460EE0D6F843
:10319000900040F00100F0E740F00400C6F8900015
:1031A000F5E7FFF796FCC11B494526D8D6F89000F5
:1031B0008007F6D50CE0FFF78CFC074604E0FFF72C
:1031C00088FCC11B494518D8D6F890008007F6D472
:1031D000B8F1000F03D0B06D20F08050B065A06A48
:1031E000F0B302280AD00C2D7ED0306820F0807019
:1031F0003060FFF76EFC0446A2E09EE0F068E26AF1
:1032000000F00301914229D1216B00F07002090105
:103210001039914222D1626B00F4FE41B1EB022FD2
:103220001CD1A16B00F40032072901D0012100E07C
:1032300000218A4212D1A18F00F4C0024908490539
:10324000A1F50011914209D194F8401000F0C0603E
:1032500049084906A1F10071814251D00C2D00E0CE
:1032600065E076D03068400173D43068C00070D417
:10327000306820F080703060FFF72BFC054604E0DA
:10328000FFF727FC401B022857D830688001F7D48D
:10329000D4E90B016FF00F0202EB01110843A18F7B
:1032A0005204490802EB4151626B41EA0221084392
:1032B00094F840104FF07E42490802EB4161084308
:1032C000A16B090940EA4140F168914A1140084365
:1032D000F060306840F080703060F06840F08070DE
:1032E000F060FFF7F6FB00E033E0044604E0FFF790
:1032F000F0FB001B022820D830688001F7D526E0BB
:103300003068800123D4306840F080703060F0680D
:1033100040F08070F060FFF7DCFB044604E0FFF74C
:10332000D8FB001B022808D830688001F7D50EE0D2
:10333000FFF7CFFB001B022802D90320BDE8F8836A
:1033400030688001F4D4F06872490840F0600020D1
:10335000F4E70120F2E72DE9F0470D46040071D0B3
:10336000DFF8B481D8F8000000F00700A8420CD2C2
:10337000D8F8001021F007012943C8F80010D8F848
:10338000000000F00700A8425CD12078634E80075F
:103390000AD5A068B16801F0F001884204D9B1688B
:1033A00021F0F0010143B1602078C0072BD06068A4
:1033B000032811D0022812D0316898B1490500299C
:1033C00040DAB16821F003010143B160FFF781FBEE
:1033D000074641F288390FE031688901EFE731682B
:1033E0008903ECE78907EAE7FFF773FBC11B49454F
:1033F00002D90320BDE8F087B068616800F00C00D6
:10340000B0EB810FF0D1207880070AD5A068B168B1
:1034100001F0F001884204D2B16821F0F0010143CB
:10342000B160D8F80010404601F00701A9420BD95D
:10343000016821F0070129430160006800F00700DE
:10344000A84201D00120D5E72078400705D5B06813
:10345000E16820F4E0600843B0602078000706D5FA
:10346000B068216920F4605040EAC100B060FFF705
:1034700066FCB1682A4AC1F30311515C01F01F01D7
:10348000C8402849086028480068BDE8F047FFF7B1
:10349000D8BA70B5214C86B01646E06C0D4640F0A7
:1034A0000100E064E06C694600F001000590A015A1
:1034B00000900220019003900020029004904FF0B1
:1034C000904000F0DDF8A068354320F0EE4028433E
:1034D000A06006B070BD13480068704711480F49DE
:1034E00000688968114AC1F30221515C01F01F0193
:1034F000C84070470B480949006889680B4AC1F306
:10350000C221515C01F01F01C840704700700040AB
:103510008C809DF9FCFFEEFE00200240001002406E
:1035200040FC0008540000204C00002080FC0008F3
:1035300010B51F21016050490A6853034FF0000283
:1035400002D54FF4A02304E00B68DB0303D54FF44E
:103550008033436000E042600B68DC074FF00103FA
:1035600001D0836100E082614C68C4F30724C46128
:103570000C6804F0F00404620C68E40503D54FF411
:103580008074C46000E0C2604C68C4F304640461E9
:10359000D1F89040640702D50524846006E0D1F894
:1035A0009040E40701D0836000E08260D1F894404D
:1035B000E40701D0436100E0426142620A68D2013F
:1035C00002D50222826200E08362CA6802F003022E
:1035D000C262CA68C2F30212521C0263CA68C2F312
:1035E00006224263CA68C2F34152521C5200C263AF
:1035F000CA68C2F34162521C52000264C96889035E
:1036000001D5112100E00721816310BD0F22026066
:10361000194A936803F003034360936803F0F003CF
:103620008360936803F4E063C36092684FF4E063DF
:1036300003EAD20202611148006800F00700086046
:1036400070470D48016841F40021016070477047E0
:1036500010B5094CE069C00503D5FFF7F8FFA015C8
:10366000206210BD044951F8940F0A6800F07E40B2
:1036700042F400020A60704700100240002002403D
:103680002DE9F84FDFF814930022A9F1040B03276A
:103690004FF00F0C09F1040AABF1040EC1E0012454
:1036A0009440234077D00D7905F00305012D01D01A
:1036B000022D15D18668550007FA05F826EA080696
:1036C000D1F80C8008FA05F848EA0608C0F8088026
:1036D00045680E79A543C6F3001696402E43466012
:1036E0004D68EE43B6070AD1C66AA643C5F3C004C7
:1036F00094403443C4620C79E443A40708D0C568FD
:10370000540007FA04F6B5438E68A6402E43C660FF
:103710000C7904F00304022C11D1D40800EB8406C8
:10372000356A5407E40E0CFA04F825EA0805D1F8C6
:10373000108008FA04F848EA0508C6F820800568F1
:10374000540007FA04F6B5430E7906F00306A640C6
:103750002E4306604C6814F4403F61D0904C256EB7
:1037600045F001052566246E22F0030504F00104EE
:1037700000948C4C05EB0408D8F808509407260FE9
:103780000CFA06F4A543B0F1904F05D0864CA04248
:1037900004D101241CE043E0002419E0834CA04242
:1037A00001D1022414E0824CA04201D103240FE095
:1037B000804CA04201D104240AE07F4CA04201D1F8
:1037C000052405E07D4CA04201D1062400E0072439
:1037D000B4402C43C8F80840D9F800404D464E6824
:1037E0009C43F60200D51C432C60DAF80040554695
:1037F0004E689C43B60200D51C432C60DBF80040A9
:103800005D464E689C43B60300D51C432C60DEF831
:10381000004075464E689C43F60300D51C432C605F
:10382000521C0B6833FA02F47FF439AF00F0C8B8C9
:103830002DE9F04F0022DFF86CA14FF0010B4FF0A3
:103840000F0978E00BFA02F515EA010472D022F0B4
:1038500003065644B36897074FEA177C09FA0CF73A
:1038600007EA0308B0F1904F04D04F4B984203D1C0
:1038700001231BE0002319E04C4B984201D10223A5
:1038800014E04B4B984201D103230FE0494B98427F
:1038900001D104230AE0484B984201D1052305E0F9
:1038A000464B984201D1062300E0072303FA0CF3AC
:1038B000434522D1DFF8E4C0ACF1080CDCF800305D
:1038C000A343CCF800300CF1040CDCF80030A34327
:1038D000CCF80030DFF8C4C00CF1040CDCF8003088
:1038E000A343CCF80030DFF8B4C0DCF80030A343C9
:1038F000CCF80030B368BB43B360046856000323C0
:10390000B3401C430460D40800EB8404276A5607C4
:103910004FEAD66C09FA0CF6B743276284689C43D9
:1039200084604468AC434460C4689C43C460C36A18
:10393000AB43C362521C31FA02F383D100F043B8A7
:103940000069084000D0012070470AB181617047CA
:1039500081627047426921EA02030A4043EA024158
:103960008161704708B541F480320092C261C16143
:103970000099C161C1690091C069C00301D50020EF
:1039800008BD012008BD7047044910B50C310A6814
:10399000024202D00860FFF7F6FF10BD08040140A4
:1039A00000100240000001400004004800080048E8
:1039B000000C00480010004800140048001800489F
:1039C00018BCBDE8E08F30BCBDE8C08F70B568B1F1
:1039D000FD4C01681423FD4AA14209D2FC4C0C4461
:1039E000B4FBF3F39B00C0E910230BE0012070BD92
:1039F000F54C64420C44B4FBF3F39B004364F24B7C
:103A0000083B0364022380F825300C6847F6F07306
:103A10009C43D0E902352B43D0E9045635432B4370
:103A200085692B43C5692B43056A2B4323430B60F0
:103A30008168B1F5804F29D0016C0F23914212D1DA
:103A400052F8A81F90F8444004F01C04A340994386
:103A5000116090F84430416803F01C0399401368EA
:103A60001943116012E0D849A0310A6890F8444027
:103A700004F01C04A3409A430A6090F84430426862
:103A800003F01C039A400B681A430A600021C163CB
:103A9000012280F8252080F82410084670BD30B53A
:103AA00090B101680A6822F001020A60C64C0268FF
:103AB0001421C64BA24209D2C54C1444B4FBF1F107
:103AC0008900C0E910310BE0012030BDBE4C6442DA
:103AD0001444B4FBF1F189004164BB490839016425
:103AE0000021116090F8442002F01C040122A24041
:103AF000046C6260046C0F229C4202D153F8A84F00
:103B000002E0B14BA0331C6890F8445005F01C054E
:103B1000AA4094431C60C162016341638163C16335
:103B200080F8251080F82410002030BD30B590F8C2
:103B3000444004F01C050124AC40056C6C60046832
:103B400063608368102B036803D099600068C260CB
:103B500030BD9A600068C16030BD70B5044690F811
:103B60002400002501280CD0012084F8240094F8BA
:103B700025600020012E06D084F824000225284666
:103B800070BD022070BD022684F82560E0632068C5
:103B9000066826F0010606602046FFF7C7FF20688A
:103BA000016841F001010160E9E770B5044690F851
:103BB0002400002501280CD0012084F8240094F86A
:103BC00025600020012E06D084F824000225284616
:103BD00070BD022070BD022684F82560E063206875
:103BE000066826F0010606602046FFF79FFF206B5F
:103BF00000282068016802D041F00E0106E021F0A3
:103C0000040101602068016841F00A010160206838
:103C1000016841F001010160D9E710B590F8251065
:103C20000022022905D00421C16380F8242001204C
:103C300010BD01680B6823F00E030B6001680B6870
:103C400023F001030B6090F84410012401F01C03E1
:103C500004FA03F1036C596080F8254080F82420B1
:103C6000104610BD10B590F825100024022903D08D
:103C70000421C16301241AE001680A6822F00E02DF
:103C80000A6001680A6822F001020A6090F8441094
:103C9000012301F01C0203FA02F1026C516080F86A
:103CA0002530002180F82410816B01B1884720461F
:103CB00010BD2DE9F05F044690F8250015468B46AF
:103CC0004FF000084FF0040A022802D0C4F83CA0CC
:103CD0004DE020680068800603D54FF48070E063F3
:103CE00047E094F84400BBF1000F00F01C0007D03F
:103CF0000AFA00F6FEF7EDFE07464FF001091FE055
:103D000002268640F6E7016894F8440000F01C02A1
:103D10000820904001420BD094F84400226C00F03F
:103D20001C0109FA01F148465160C4F83C901CE0BE
:103D3000681C05D0FEF7CDFEC01BA84212D88DB17D
:103D4000206C01683142DED094F84400BBF1000FD2
:103D500000F01C010FD00AFA01F0216C486000202D
:103D600000F0C8B82020E063484684F8250084F8B5
:103D700024800120F4E702208840216C486084F808
:103D8000248084F82590EAE7F0B4016C0B680168A0
:103D90000A6890F84440042504F01C0405FA04F66F
:103DA0001E4217D0560715D50A68920603D40A6832
:103DB00022F004020A6090F8441001F01C018D40CA
:103DC000016C4D60016B23E00804024000000240DA
:103DD000F8FFFDBF022606FA04F71F424FF0000C61
:103DE0004FF0010518D0970716D50A68920605D43A
:103DF0000A6822F00A020A6080F8255090F8441000
:103E000001F01C018E40016C4E6080F824C0C16A34
:103E100000291AD0F0BC08470826A6401E4214D03C
:103E2000120712D50A6822F00E020A6090F84410B8
:103E3000026C01F01C0105FA01F15160C56380F8C4
:103E4000255080F824C0416BE2E7F0BC704710B504
:103E500090F824400023012C07D0012480F824404E
:103E600090F82540012C02D008E0022010BD59B185
:103E700001290BD002290BD003290BD001230021EB
:103E800080F82410184610BDC262F8E70263F6E716
:103E90004263F4E78263F2E710B590F82430002221
:103EA000012B08D0012380F8243090F8254000230E
:103EB000012C02D014E0022010BD052910D2DFE849
:103EC00001F0030507090B00C3620AE0036308E081
:103ED000436306E0836304E0C36203634363F9E77B
:103EE000012280F82430104610BD90F8250070475C
:103EF000C06B704730BCBDE8C09F00005E48816B5E
:103F000041F080518163816B21F080518163704762
:103F10005A48016841F48071016070475748016850
:103F200021F480710160704730B554494A680368D4
:103F300022F00E021A434A60514B196821F4803175
:103F400019601A1F116821F4803111604C4C08343B
:103F5000216821F480312160191D0D6825F4803518
:103F60000D604568ED0303D5156845F4803515608F
:103F70004268920303D51A6842F480321A600279CB
:103F8000D20703D00A6842F480320A6000798007C1
:103F900003D5206840F480302060002030BD3748D1
:103FA000416841F00101416070473448416821F0A7
:103FB000010141607047314AD36800F01F018B4313
:103FC00043EA5010D06090680843906070472B49D6
:103FD0008A6800F01F0082438A607047274A10B544
:103FE000002850690C460FD0C043800501D500F071
:103FF000E2FA2448016821F004010160012C0AD092
:1040000040BF20BF20BF10BD8005F2D500F0D9FA17
:104010000028F8D1EDE730BF10BDB0F5804F08465D
:1040200001D000F0E9BA00F0FDBA1448016821F0AF
:104030000701C91C01601348016841F004010160D7
:1040400030BF70470F48016841F0020101607047BE
:104050000C48016821F002010160704709480168BD
:1040600041F01001016070470648016821F010011D
:10407000016070477047000000100240007000406F
:104080000404014010ED00E0FE48006800F4C06048
:104090007047FC49B0F5007F0868C0F3412009D0A3
:1040A000022805D0086820F4C06040F480600860F1
:1040B000002070470128FBD0086820F4C06040F45D
:1040C00000700860F048322200685043EF4AB0FBAD
:1040D000F2F0401C00E0401E4A69520501D500285C
:1040E000F9D148694005E3D503207047E549CA681E
:1040F00022F400720243CA60C86840F48070C8604D
:104100007047E048C16821F48071C1607047DD48A4
:10411000416841F4806141607047DA48416821F4A8
:10412000806141607047D748416841F40071416047
:104130007047D448416821F4007141607047D1480C
:10414000816841F4004181607047CE48816821F464
:10415000004181607047034610B50020C94A082B12
:1041600045D2DFE803F0040F181F262D343B136AF5
:1041700021F4804423431362536A21F420418B438A
:10418000536210BD936A0B439362D36A21F010010E
:104190008B43D36210BD136B0B431363536B8B4381
:1041A000536310BD936B0B439363D36B8B43D36308
:1041B00010BD136C0B431364536C8B43536410BDDD
:1041C000936C0B439364D36C8B43D36410BD136D1A
:1041D0000B431365536D8B43536510BD936D01F015
:1041E00003010B439365D36D8B43D36510BD012051
:1041F00010BD034610B50020A24A082B29D2DFE8E3
:1042000003F0040A0E12161A1E22136A21F48041CA
:104210008B43136210BD936A8B43936210BD136B83
:104220008B43136310BD936B8B43936310BD136C6F
:104230008B43136410BD936C8B43936410BD136D5B
:104240008B43136510BD936D01F003018B439365A0
:1042500010BD012010BD034610B50020894A082B6F
:1042600045D2DFE803F0040F181F262D343B536AB4
:1042700021F4204423435362136A21F480418B4389
:10428000136210BDD36A21F010042343D362936AF2
:104290008B43936210BD536B0B435363136B8B4380
:1042A000136310BDD36B0B43D363936B8B43936347
:1042B00010BD536C0B435364136C8B43136410BDDC
:1042C000D36C0B43D364936C8B43936410BD536DD9
:1042D0000B435365136D8B43136510BDD36D01F014
:1042E00003010B43D365936D8B43936510BD012090
:1042F00010BD034610B50020624A082B2BD2DFE820
:1043000003F0040A1014181C2024536A21F42041DD
:104310008B43536210BDD36A21F010018B43D362EB
:1043200010BD536B8B43536310BDD36B8B43D3636F
:1043300010BD536C8B43536410BDD36C8B43D3645B
:1043400010BD536D8B43536510BDD36D01F0030158
:104350008B43D36510BD012010BD4A48816841F4EC
:104360008061816070474748816821F48061816085
:104370007047444920B1B0F5807F05D001207047D7
:10438000886820F4807002E0886840F4807088605B
:10439000002070474FF48070EBE70020E9E73948D0
:1043A000C16841F40051C16070473648C16821F4CA
:1043B0000051C16070473348416841F010014160CD
:1043C00070473048416821F01001416070472D4826
:1043D000416841F02001416070472A48416821F05E
:1043E0002001416070472748416841F04001416029
:1043F00070472448416821F04001416070472148DE
:10440000416841F08001416070471E48416821F0D9
:1044100080014160704770B51D4B1D4C0168002242
:104420001E1F08341D1D102908D020293CD040290A
:1044300066D080297ED00122104670BD196821F017
:1044400008011960316821F008013160216821F00C
:1044500008012160296821F0080129604168C90329
:1044600003D5316841F0080131604168890303D503
:10447000196841F0080119600179C9070DD0296850
:1044800008E00000007000405400002040420F008F
:104490002404014041F00801296000798007CBD550
:1044A000206840F0080084E0196821F010011960CC
:1044B000316821F010013160216821F01001216084
:1044C000296821F0100129604168C90303D53168CA
:1044D00041F0100131604168890303D5196841F04A
:1044E000100119600179C90703D0296841F0100152
:1044F0002960007980079FD5206840F0100058E0BF
:10450000196821F020011960316821F02001316023
:10451000216821F020012160296821F02001296013
:104520004168C90303D5316841F020013160416819
:10453000890300E012E003D5196841F020011960F9
:104540000179C90703D0296841F020012960007969
:104550008007A4D5206840F020002AE0196821F0E7
:1045600040011960316821F040013160216821F07B
:1045700040012160296821F0400129604168C90398
:1045800003D5316841F0400131604168890303D5AA
:10459000196841F0400119600179C90703D0296801
:1045A00041F04001296000798007A4D5206840F0DF
:1045B0004000206040E74F48016841F480410160BD
:1045C00070474C49086820F4804008604A4832220D
:1045D00000685043494AB0FBF2F0401C00E0401E26
:1045E0004A69920501D50028F9D14869800501D5AD
:1045F00003207047002070473E490A6822F00702F6
:104600000A603F490A6842F004020A60012807D0A4
:1046100040BF20BF20BF086820F00400086070473A
:1046200030BFF8E733490A6822F00702521C0A60DB
:1046300033490A6842F004020A60012807D040BFEB
:1046400020BF20BF086820F004000860704730BF1A
:10465000F8E728490A6822F00702921C0A602849F4
:104660000A6842F004020A60012807D040BF20BF58
:1046700020BF086820F004000860704730BFF8E7EA
:104680001C48016821F00701091D01601C480168F0
:1046900041F00401016030BF7047704770477047B8
:1046A000704710B5174C2068C00304D5FFF7E2FC33
:1046B0004FF480302060134C20342068000703D56D
:1046C000FFF7EEFF082020602068C00603D5FFF743
:1046D000E6FF102020602068800603D5FFF7DEFF8C
:1046E000202020602068400603D5FFF7D6FF402039
:1046F000206010BD007000405400002040420F00B8
:1047000010ED00E014040140994A00F00701106820
:104710004FF6FF03184040EA012096490843106015
:104720007047F0B4924B1B68C3F30223C3F1070434
:10473000042C00D904241D1D072D01D2002300E004
:10474000DB1E012606FA04F56D1E0D409D409E40BD
:10475000761E164045EA0601F0BC00F0F8B80028C5
:1047600009DB00F01F02012191404009800000F1A7
:10477000E020C0F80011704700280DDB00F01F0298
:10478000012191404009800000F1E020C0F8801133
:10479000BFF34F8FBFF36F8F7047BFF34F8F7448D6
:1047A0000168744A01F4E061121D11430160BFF316
:1047B0004F8F00BFFDE710B5401EB0F1807F01D3E1
:1047C000012010BD4FF0E02460610F21601700F060
:1047D000BEF80020A06107202061002010BD6448C1
:1047E0000068C0F302207047F0B5002804DB00F138
:1047F000E02090F8000405E000F00F0000F1E02058
:1048000090F8140D040901F00700C0F10701042914
:1048100000D90421051D072D01D2002000E0C01E93
:10482000012724FA00F607FA01F56D1E2E4007FA5B
:1048300000F56D1E254016601D60F0BD002809DBE7
:1048400000F01F02012191404009800000F1E020AA
:10485000C0F80012704700280DDB4109890001F102
:10486000E021D1F8001200F01F0201209040014227
:1048700001D00120704700207047002809DB00F0BC
:104880001F02012191404009800000F1E020C0F8A2
:104890008012704700280DDB4109890001F1E021F9
:1048A000D1F8001300F01F0201209040014201D016
:1048B00001207047002070474FF0E021042808696C
:1048C00003D020F004000861704740F00400FAE7CC
:1048D000704710B5FFF7FCFF10BD254940F00100FF
:1048E00088310860BFF34F8FBFF36F8F7047BFF3FE
:1048F0005F8F1F4900208831086070471C4A41784B
:104900008C3211600378111D0A1DE3B143680B60FE
:10491000017BC37A090741EA0361837A41EAC34113
:10492000437B41EA8341837B41EA4341C37B41EAC4
:104930000341437A41EA0321037A007841EA4301C3
:10494000014311607047002008601060704709073C
:10495000090E002804DB00F1E02080F80014704705
:1049600000F00F0000F1E02080F8141D70470000F7
:104970000CED00E00000FA052DE9F0470268F64C66
:10498000F64DF74EF74FF84B4FF0804AA04209D052
:10499000504507D0A84205D0B04203D0B84201D05C
:1049A000984204D122F0700C4A6842EA0C02DFF807
:1049B000BCC3DFF8BC83DFF8BC93A0420FD05045E6
:1049C0000DD0A8420BD0B04209D0B84207D09842CF
:1049D00005D0604503D0404501D0484503D122F4BD
:1049E0004075CA682A434D6922F080022A4302605A
:1049F0008A68C2620A688262A04207D0984205D0E3
:104A0000604503D0404501D0484501D109690163A3
:104A100001214161BDE8F087704710B5040003D063
:104A200094F83D0010B107E0012010BD002084F88B
:104A30003C002046FCF7E9F9022084F83D00211DE6
:104A40002068FFF799FF012084F8480084F83E00B1
:104A500084F83F0084F8400084F8410084F8420064
:104A600084F8430084F8440084F8450084F8460044
:104A700084F8470084F83D00002010BD704710B551
:104A80000446022084F83D002068016A41F21112B8
:104A9000114207D1016A9210114203D1016821F03D
:104AA000010101602046FCF7C9F9002084F84800A4
:104AB00084F83E0084F83F0084F8400084F8410008
:104AC00084F8420084F8430084F8440084F84500E8
:104AD00084F8460084F8470084F83D0084F83C00E0
:104AE00010BD90F83D10012901D00120704702212E
:104AF00080F83D1000689849884211D0B0F1804F8D
:104B00000ED0964988420BD09549884208D09549E5
:104B1000884205D09449884202D09449884207D1FE
:104B20008168954A1140062906D0B1F5803F03D02F
:104B3000016841F0010101600020704701680A6AC4
:104B400041F211131A4207D10A6A9B101A4203D18B
:104B50000A6822F001020A60012180F83D1000205D
:104B6000704790F83D10012901D0012070470221C3
:104B700080F83D100168CA6842F00102CA6000680E
:104B80007549884211D0B0F1804F0ED073498842E8
:104B90000BD07349884208D07249884205D07249C7
:104BA000884202D07149884207D18168724A114017
:104BB000062906D0B1F5803F03D0016841F001011C
:104BC0000160002070470168CA6822F00102CA60D3
:104BD00001680A6A41F211131A4207D10A6A9B104E
:104BE0001A4203D10A6822F001020A60012180F80A
:104BF0003D1000207047704710B5846A0121626A39
:104C0000824203D1217784F83E1019E0A26A8242E1
:104C100004D10220207784F83F1011E0E26A82423A
:104C200004D10420207784F8401009E0226B8242EE
:104C300004D10820207784F8411001E084F83D1069
:104C40002046FFF7D8FF0020207710BD704710B531
:104C5000806AFFF7FBFF10BD704710B5806A016ADC
:104C6000C96911B9012180F83D10FBF717FD10BD8E
:104C700070B5044690F83D0002281BD094F83D0022
:104C8000012816D1A9B1A2B1022084F83D00236AFF
:104C90003A48D862236A3A481863AFF2A300236AFD
:104CA00058632568134605F12C02206AFEF77DFF44
:104CB00008B1012070BD2068C16841F48071C160F5
:104CC00025492068884211D0B0F1804F0ED0234989
:104CD00088420BD02249884208D02249884205D018
:104CE0002149884202D02149884207D18168224A5D
:104CF0001140062906D0B1F5803F03D0016841F08C
:104D000001010160002070BD10B504460068C16853
:104D100021F48071C160206AFEF7A4FF2068016A57
:104D200041F21112114207D1016A9210114203D1CE
:104D3000016821F001010160012084F83D0000209C
:104D400010BD704710B5040003D094F83D00C8B101
:104D50001EE0012010BD0000002C014000040040B6
:104D600000080040000C00400034014000400140B9
:104D70000044014000480140070001005B4C00086E
:104D80004F4C0008002084F83C002046FFF7D9FF74
:104D9000022084F83D00211D2068FFF7EDFD012071
:104DA00084F8480084F83E0084F83F0084F840000E
:104DB00084F8410084F8420084F8430084F84400F9
:104DC00084F8450084F8460084F8470084F83D00E4
:104DD0000020BFE7704710B50446022084F83D006C
:104DE0002068016A41F21112114207D1016A921042
:104DF000114203D1016821F0010101602046FFF753
:104E0000E9FF002084F8480084F83E0084F83F0061
:104E100084F8400084F8410084F8420084F843009C
:104E200084F8440084F8450084F8460084F847007C
:104E300084F83D0084F83C008CE710B501F01F01B8
:104E40000123046A8B409C430462036A8A40134333
:104E500003627FE730B5044669B104290ED0082902
:104E60000FD00C2910D0102911D094F8430001283C
:104E700010D0012030BD94F83E00F8E794F83F00D0
:104E8000F5E794F84000F2E794F84100EFE794F872
:104E90004200ECE70220E9B3042945D0082946D0B6
:104EA0000C2947D0102948D084F8430001222068FB
:104EB000FFF7C3FFFD492068FD4AFE4B884209D039
:104EC000904207D0984205D0FB4DA84202D0FB4D3E
:104ED000A84203D1456C45F40045456420688842EA
:104EE0000FD0B0F1804F0CD0F549884209D0F54978
:104EF000884206D0F449884203D0904201D09842BB
:104F000007D18168F14A1140062908D0B1F5803FE8
:104F100005D000E005E0016841F0010101600020DA
:104F200030BD84F83E00C1E784F83F00BEE784F856
:104F30004000BBE784F84100B8E784F84200B5E7D9
:104F400030B504460D4600680022FFF776FFD74AC9
:104F500041F2111120688B1090420BD0D44A90423C
:104F600008D0D44A904205D0D34A904202D0D34AC6
:104F7000904209D1026A0A4206D1026A1A4203D15A
:104F8000426C22F4004242642068026A0A4206D15E
:104F9000016A194203D1016821F001010160012079
:104FA0005DB1042D0CD0082D0DD00C2D0ED0102D80
:104FB0000FD084F84300002030BD84F83E00FAE7AB
:104FC00084F83F00F7E784F84000F4E784F84100F4
:104FD000F1E784F84200EEE770B50446002569B1B8
:104FE00004290ED008290FD00C2910D0102911D077
:104FF00094F84300012810D0012070BD94F83E00C1
:10500000F8E794F83F00F5E794F84000F2E794F8E9
:105010004100EFE794F84200ECE7022091B1042947
:1050200013D0082914D00C2915D0102916D084F8D3
:105030004300B1B1042919D0082955D00C2958D002
:1050400001254FE084F83E00F3E784F83F00F0E7E5
:1050500084F84000EDE784F84100EAE784F8420074
:10506000E7E72068C26842F0020203E02068C268F5
:1050700042F00402C26001222068FFF7DEFE8B4985
:1050800020688B4A8B4B884209D0904207D09842C7
:1050900005D0894EB04202D0884EB04203D1466C52
:1050A00046F400464664206888420FD0B0F1804F35
:1050B0000CD08349884209D08249884206D082496F
:1050C000884203D0904201D0984207D181687F4A3C
:1050D0001140062906D0B1F5803F03D0016841F0A8
:1050E00001010160284670BD2068C26842F00802D4
:1050F000C0E72068C26842F01002BBE770B50D003F
:1051000004464FF0000607D0042D0AD0082D48D0E1
:105110000C2D4BD0012642E02068C16821F002012D
:1051200003E02068C16821F00401C1600022294623
:105130002068FFF782FE5D4941F21112206893104A
:1051400088420BD05A49884208D05A49884205D033
:105150005949884202D05949884209D1016A11420D
:1051600006D1016A194203D1416C21F40041416426
:105170002068016A114206D1016A194203D101680F
:1051800021F0010101600120ADB1042D16D0082DE0
:1051900017D00C2D18D0102D19D084F843003046AC
:1051A00070BD2068C16821F00801BEE72068C168B1
:1051B00021F01001B9E784F83E00F0E784F83F00E1
:1051C000EDE784F84000EAE784F84100E7E784F877
:1051D0004200E4E7704710B5846A616A814201D1F8
:1051E00001200DE0A16A814201D1022008E0E16ABC
:1051F000814201D1042003E0216B814201D10820CA
:1052000020772046FFF7E6FF00202077A2E57047D1
:1052100010B5846A0121626A824205D12177C06992
:10522000F8B984F83E101CE0A26A824206D102223C
:105230002277C069A8B984F83F1012E0E26A82427E
:1052400006D104222277C06958B984F8401008E0DA
:10525000226B824205D108222277C06908B984F8FE
:1052600041102046FFF7D3FF0020207772E52DE99B
:10527000F04117460D0004464FF000062DD0042DD6
:105280002ED0082D2FD00C2D30D0102D31D094F8E9
:10529000430002287ED07DB3042D31D0082D32D0BA
:1052A0000C2D33D0102D34D012E00000002C014022
:1052B00000340140004001400044014000480140EA
:1052C0000004004000080040000C004007000100FE
:1052D00094F8430001281FD0D7E094F83E00D8E7A7
:1052E00094F83F00D5E794F84000D2E794F84100E5
:1052F000CFE794F84200CCE7FFE794F83E00E9E7F7
:1053000094F83F00E6E794F84000E3E794F84100A2
:10531000E0E794F84200DDE7002F77D0002B75D04E
:105320000220BDB1042D18D0082D19D00C2D1AD093
:10533000102D1BD084F84300F848AFF26511AFF28E
:105340004772B5B1042D2AD0082D7BD00C2D78D012
:10535000012672E084F83E00EEE784F83F00EBE7B8
:1053600084F84000E8E784F84100E5E784F842006B
:10537000E2E7D4F824C0CCF82C00606A0163606ACC
:10538000394642632268606A3432FEF70EFCE8BB9D
:10539000206800E052E0C16841F4007112E0D4F8E6
:1053A00028C0CCF82C00A06A0163A06A3946426389
:1053B0002268A06A3832FEF7F8FB38BB2068C16863
:1053C00041F48061C160012229462068FFF735FD64
:1053D000D3492068D34AD44B884209D0904207D0A1
:1053E000984205D0D14DA84202D0D14DA84203D158
:1053F000456C45F4004545642068884211D0B0F101
:10540000804F0ED0CB4988420BD000E03DE0CA4926
:10541000884206D0C949884203D0904201D09842C0
:1054200007D18168C64A1140062906D0B1F5803FF0
:1054300003D0016841F0010101603046BDE8F08110
:1054400000E013E0D4F82CC0CCF82C00E06A016333
:10545000E06A394642632268E06A3C32FEF7A5FB07
:1054600098B92068C16841F40061ABE7D4F830C056
:10547000CCF82C00206B0163206B39464263226814
:10548000206B4032FEF791FB08B10120D6E720687F
:10549000C16841F4805195E770B50D0004464FF0A6
:1054A000000607D0042D0CD0082D4DD00C2D52D065
:1054B000012647E02068C16821F40071C160606A7C
:1054C00005E02068C16821F48061C160A06AFEF730
:1054D000C9FB002229462068FFF7AFFC904941F242
:1054E00011122068931088420BD08E49884208D050
:1054F0008D49884205D08D49884202D08C49884226
:1055000009D1016A114206D1016A194203D1416CE5
:1055100021F4004141642068016A114206D1016A08
:10552000194203D1016821F0010101600120CDB1D0
:10553000042D1AD0082D1BD00C2D1CD0102D1DD0E1
:1055400084F84300304670BD2068C16821F40061D2
:10555000C160E06ABBE72068C16821F48051C16086
:10556000206BB4E784F83E00ECE784F83F00E9E7FD
:1055700084F84000E6E784F84100E3E784F842005D
:10558000E0E7704710B5040003D094F83D0010B177
:1055900007E001201DE4002084F83C002046FFF7CE
:1055A000F0FF022084F83D00211D2068FFF7E4F998
:1055B000012084F8480084F83E0084F83F0084F815
:1055C000400084F8410084F8420084F8430084F8E5
:1055D000440084F8450084F8460084F8470084F8C5
:1055E0003D00002028E4704710B50446022084F8EE
:1055F0003D002068016A41F21112114207D1016A8F
:105600009210114203D1016821F00101016020468E
:10561000FFF7E9FF002084F8480084F83E0084F892
:105620003F0084F8400084F8410084F8420084F888
:10563000430084F8440084F8450084F8460084F868
:10564000470084F83D0084F83C00DFE530B50446AF
:1056500069B104290ED008290FD00C2910D01029C7
:1056600011D094F84300012810D0012030BD94F8E7
:105670003E00F8E794F83F00F5E794F84000F2E7C1
:1056800094F84100EFE794F84200ECE70220E9B318
:1056900004295AD008295BD00C295CD010295DD090
:1056A00084F8430001222068FFF7C7FB1C492068EB
:1056B0001C4A1D4B884209D0904207D0984205D021
:1056C0001A4DA84202D01A4DA84203D1456C45F4A8
:1056D00000454564206888420FD0B0F1804F0CD05F
:1056E0001449884209D01449884206D01349884297
:1056F00003D0904201D0984207D18168104A1140EE
:10570000062908D0B1F5803F05D000E01AE0016815
:1057100041F001010160002030BD0000115200087D
:10572000002C014000340140004001400044014091
:10573000004801400004004000080040000C004008
:105740000700010084F83E00ACE784F83F00A9E7B9
:1057500084F84000A6E784F84100A3E784F84200FB
:10576000A0E730B504460D4600680022FFF765FB50
:10577000FE4A41F2111120688B1090420BD0FC4A76
:10578000904208D0FB4A904205D0FB4A904202D09A
:10579000FA4A904209D1026A0A4206D1026A1A42C2
:1057A00003D1426C22F4004242642068026A0A4239
:1057B00006D1016A194203D1016821F0010101609B
:1057C00001205DB1042D0CD0082D0DD00C2D0ED074
:1057D000102D0FD084F8430000209DE784F83E0090
:1057E000FAE784F83F00F7E784F84000F4E784F82C
:1057F0004100F1E784F84200EEE770B50446002569
:1058000069B104290ED008290FD00C2910D0102915
:1058100011D094F84300012810D0012070BD94F8F5
:105820003E00F8E794F83F00F5E794F84000F2E70F
:1058300094F84100EFE794F84200ECE7022091B1C0
:10584000042913D0082914D00C2915D0102916D0FA
:1058500084F84300B1B1042919D0082955D00C2986
:1058600058D001254FE084F83E00F3E784F83F006C
:10587000F0E784F84000EDE784F84100EAE784F8B7
:105880004200E7E72068C26842F0020203E02068B5
:10589000C26842F00402C26001222068FFF7CDFA1C
:1058A000B2492068B24AB34B884209D0904207D02F
:1058B000984205D0B04EB04202D0B04EB04203D1B3
:1058C000466C46F400464664206888420FD0B0F12A
:1058D000804F0CD0AA49884209D0AA49884206D0F4
:1058E000A949884203D0904201D0984207D18168EB
:1058F000A64A1140062906D0B1F5803F03D00168C1
:1059000041F001010160284670BD2068C26842F084
:105910000802C0E72068C26842F01002BBE770B519
:105920000D0004464FF0000607D0042D0AD0082DC4
:1059300048D00C2D4BD0012642E02068C16821F0F0
:10594000020103E02068C16821F00401C160002267
:1059500029462068FFF771FA844941F21112206844
:10596000931088420BD08249884208D081498842EE
:1059700005D08149884202D08049884209D1016A14
:10598000114206D1016A194203D1416C21F4004150
:1059900041642068016A114206D1016A194203D1AB
:1059A000016821F0010101600120ADB1042D16D084
:1059B000082D17D00C2D18D0102D19D084F84300C5
:1059C000304670BD2068C16821F00801BEE720683C
:1059D000C16821F01001B9E784F83E00F0E784F8CF
:1059E0003F00EDE784F84000EAE784F84100E7E78C
:1059F00084F84200E4E72DE9F04117460D00044623
:105A00004FF0000619D0042D1AD0082D1BD00C2DF4
:105A10001CD0102D1DD094F8430002287ED0DDB19B
:105A2000042D1CD0082D1DD00C2D1ED0102D1FD0E4
:105A300094F8430001281ED0E9E094F83E00ECE71A
:105A400094F83F00E9E794F84000E6E794F8410055
:105A5000E3E794F84200E0E794F83E00EAE794F8C0
:105A60003F00E7E794F84000E4E794F84100E1E7FD
:105A700094F84200DEE7002F76D0002B74D002208D
:105A8000BDB1042D18D0082D19D00C2D1AD0102D11
:105A90001BD084F843003E48AFF6C501AFF6A762BD
:105AA000B5B1042D28D0082D5FD00C2D72D0012661
:105AB00088E084F83E00EEE784F83F00EBE784F8E6
:105AC0004000E8E784F84100E5E784F84200E2E7B7
:105AD000D4F824C0CCF82C00606A0163606A3946AF
