:020000040800F2
:10000000580D002029020008850A0008870A000808
:10001000890A00088B0A00088D0A00080000000009
:100020000000000000000000000000008F0A00082F
:10003000910A000800000000930A0008950A0008D1
:10004000430200084302000843020008430200087C
:10005000430200084302000843020008430200086C
:10006000430200084302000843020008430200085C
:10007000430200084302000843020008430200084C
:10008000430200084302000843020008430200083C
:10009000430200084302000843020008430200082C
:1000A000430200084302000843020008430200081C
:1000B000430200084302000843020008430200080C
:1000C00043020008430200084302000843020008FC
:1000D00043020008430200084302000843020008EC
:1000E00043020008430200084302000843020008DC
:1000F00043020008430200084302000843020008CC
:1001000043020008430200084302000843020008BB
:1001100043020008430200084302000843020008AB
:10012000430200084302000843020008430200089B
:10013000430200084302000843020008430200088B
:10014000430200084302000843020008430200087B
:10015000430200084302000843020008430200086B
:10016000430200084302000843020008430200085B
:100170004302000843020008430200080000000098
:10018000430200084302000800F002F800F03CF8C7
:100190000AA090E8000C82448344AAF10107DA45E2
:1001A00001D100F031F8AFF2090EBAE80F0013F0F8
:1001B000010F18BFFB1A43F00103184774740000C5
:1001C00094740000103A24BF78C878C1FAD8520756
:1001D00024BF30C830C144BF04680C6070470000C1
:1001E0000023002400250026103A28BF78C1FBD840
:1001F000520728BF30C148BF0B6070471FB507F0DA
:1002000066F81FBD10B510BD04F09AF91146FFF74E
:10021000F5FF00F0F5FA04F0B8F903B4FFF7F2FFC8
:1002200003BC04F0BBF900000948804709480047B7
:10023000FEE7FEE7FEE7FEE7FEE7FEE7FEE7FEE796
:10024000FEE7FEE704480549054A064B70470000F3
:100250000D4400088901000858070020580D0020AF
:100260005809002058090020491E03D412F8013B08
:100270004354F9E7704773B584B000200D460290EF
:1002800004AA042101A8FFF7EFFF049A4FF090445D
:10029000A2F11050C73823D0A2F12050CD381FD082
:1002A000A2F13050CB381BD01021204603F092F839
:1002B000012813D100221021204603F090F84FF6B8
:1002C000FF73042201A9FE4800F0ACFD01221021B9
:1002D000204603F084F8284602F05DF906B070BDB0
:1002E0001021204603F076F80128F7D100221021D2
:1002F0002646204603F073F84FF480742346042208
:1003000001A9EF4800F08EFD01221021304603F0D4
:1003100066F8284602F03FF900221021304603F02B
:100320005EF8042302AA01A9E548009400F079FED2
:1003300001221021304603F052F8284602F02BF932
:100340009DF80A009DF8091000EB012080B2C5E776
:1003500010B5DC4C01212046FFF78DFF0121DA4862
:10036000FFF789FF01212046FFF785FF1921D748B4
:10037000FFF781FFD64C01212046FFF77CFF204686
:10038000BDE81040012176E710B5FF221F2120FAB9
:1003900001F313F0010F02F0800301D083F080031A
:1003A0005206120E0BB182F01D02491EC9B2072976
:1003B000EDD8D043C0B210BD30B5C74BC54C196A9B
:1003C0005D6A54F82120821A2A445A6244F82100B6
:1003D000491C01F03F001862D01702EB90608011B9
:1003E00000B230BD30B5BC4BBC4C996ADD6A54F8E4
:1003F0002120821A2A44DA6244F82100491C01F0C3
:100400003F009862D01702EB9060801100B230BDBF
:1004100030B5B14BB24C9969DD6954F82120821A8C
:100420002A44DA6144F82100491C01F03F00986138
:10043000D01702EB9060801100B230BD30B5A64BF2
:10044000A84C9968DD6854F82120821A2A44DA60A1
:1004500044F82100491C01F03F009860D01702EBDE
:100460009060801100B230BD30B59B4B9E4C196935
:100470005D6954F82120821A2A445A6144F8210007
:10048000491C01F03F001861D01702EB9060801109
:1004900000B230BD30B5904B944C19685D6854F88B
:1004A0002120821A2A445A6044F82100491C01F094
:1004B0003F001860D01702EB9060801100B230BD91
:1004C00070B594B004468A480D908A480E908A48C8
:1004D0000F908A4810908A4811908A4812900DAA6D
:1004E000042107A8FFF7C0FE0EAA042108A8FFF701
:1004F000BBFE0FAA042109A8FFF7B6FE10AA04212B
:100500000AA8FFF7B1FE11AA04210BA8FFF7ACFE61
:1005100012AA04210CA8FFF7A7FE4FF09046102165
:10052000304602F057FF01287ED1002210213046CC
:1005300002F055FF4FF6FF752B46042207A96048CD
:1005400000F070FC01221021304602F048FF01202B
:1005500002F021F800221021304602F040FF04236F
:1005600001AA08A95648009500F05BFD0122102160
:10057000304602F034FF012002F00DF80022102175
:10058000304602F02CFF042302AA09A94C4800952A
:1005900000F047FD01221021304602F020FF01202B
:1005A00001F0F9FF00221021304602F018FF042369
:1005B00003AA0AA94248009500F033FD0122102148
:1005C000304602F00CFF012001F0E5FF002210216F
:1005D000304602F004FF042304AA0BA93848009512
:1005E00000F01FFD01221021304602F0F8FE01202C
:1005F00001F0D1FF00221021304602F0F0FE04236A
:1006000005AA0CA92E48009500F00BFD012210212F
:10061000304602F0E4FE012001F0BDFF002210216F
:10062000304602F0DCFE00E00DE02B46042206A975
:10063000234800F025FE01221021304602F0CFFEB3
:10064000012001F0A8FF9DF806009DF8051000EBC1
:10065000012000B2FFF71EFF00EE100AF8EEC00AFC
:100660009FED290A20EE801ADFED280A21EE201ADC
:1006700084ED001A9DF80A009DF8091000EB012096
:1006800000B2FFF7F1FE01EE100AB8EEC11A21EE3A
:10069000001A21EE201A84ED011A9DF80E009DF833
:1006A0000D1000EB012000B2FFF7C8FE01EE100AAA
:1006B000B8EEC11A21EE000A20EE200A28E0000060
:1006C000580600201F0000B4982000B46F1F00B02F
:1006D000E500001858040020000000205805002004
:1006E0005803002058010020580200205800002024
:1006F000C7000024CD000028CB00002CF700000428
:10070000FD000008FB00000C000080380000B4422F
:1007100084ED020A9DF812009DF8111000EB0120F3
:1007200000B2FFF775FE00EE100AF8EEC00A9FED6A
:10073000150A80EE801A84ED031A9DF816009DF8C4
:10074000151000EB012000B2FFF74CFE00EE900AFE
:10075000F8EEE00A80EE801A84ED041A9DF81A0083
:100760009DF8191000EB012000B2FFF725FE00EE06
:10077000900AF8EEE00A80EE801A84ED051A14B0B3
:1007800070BD00000080BB4572B6FEE710B596B0A4
:100790004421684603F096FE142111A803F092FE4E
:1007A0004FF4007003F0BFF908B172B6FEE71020F5
:1007B00000900120002460210690CDE9074102212C
:1007C000CDE90A100C9020200D900720CDE90E01F4
:1007D0006846109102F083F808B172B6FEE70F2068
:1007E00011900320CDE912040146149411A8159428
:1007F00002F0FBFA002801D072B6FEE716B010BD79
:100800002DED088B86B001F083FEFFF7BFFF1421AA
:10081000684603F057FE8F48C16C41F00101C16486
:10082000C06C4FF0904400F00100059001221021AF
:10083000204602F0D4FD10210120CDE90010002156
:10084000029103916946204602F064FC00F0E0F852
:1008500001221021204602F0C2FDFFF779FDDFEDF5
:100860007E0AB7EE000A03F0EDFF7C4E86ED010A2A
:100870009FED7B0ADFF8EC8186ED030A9FED7A9A03
:10088000DFED7A9A9FED7A8B08F1240908F1300A9E
:1008900008F118077348FFF713FE002408EB8405DE
:1008A00095ED000A60EE090A80EEA90A10EE100A22
:1008B00006F09CFC41EC100B04F0FEFFB0EE481A71
:1008C000F0EE681A53EC112B51EC100B06F098F96E
:1008D00005F0BAFE49F8240095ED030A0AEB8400FE
:1008E00080ED000A96ED030A07EB8400641C20EEFD
:1008F000090A032CC0EE290A95ED000A30EE600AC1
:1009000080ED000ACAD3706806F070FC41EC100B51
:1009100004F02EFFB0EE40AAF0EE60AA386806F0B0
:1009200065FC41EC100B04F023FFB0EE401AF0EE32
:10093000601A53EC1A2B51EC110B05F073FF05F004
:1009400083FE00EE100A03F05BFE444C103484ED8D
:10095000000A706806F04AFC41EC100B04F008FF36
:10096000B0EE40AAF0EE60AA786806F03FFC41ECD9
:10097000100B04F0FDFEB0EE401AF0EE601A53ECDE
:100980001A2B51EC110B05F04DFF05F05DFE00EE4A
:10099000100A03F0C1FE84ED010A786806F026FC17
:1009A00041EC100B04F0E4FE9FED33BBB0EE4B1AAC
:1009B000F0EE6B1A04F09CF8B0EE40AAF0EE60AADC
:1009C000386806F013FC41EC100B04F0D1FEB0EED9
:1009D0004B1AF0EE6B1A04F08BF853EC1A2B51EC17
:1009E000100B05F01FFF41EC100B04F025FF51EC3C
:1009F000100B05F029FE00EE100A03F08DFE86EDC7
:100A0000000AD6ED010A80EE801A86ED021A41E74F
:100A1000144810B564381A4901604FF4827141607E
:100A200000214FF4E062C0E902124FF4007201614C
:100A3000C0E905121822C0E9072107224162C0E976
:100A40000A120163416300F07CF8002801D072B6FD
:100A5000FEE710BD001002400000204230000020E0
:100A600000000000BC060020DB0F494000003443BA
:100A7000000000000000994000000000000000405D
:100A800000300140FEE7FEE7FEE7FEE7FEE77047C5
:100A90007047704701F061BD274808B5016E41F00D
:100AA00001010166016E01F001010091816D41F0CB
:100AB00080518165806D00F08050009008BD10B5B8
:100AC00086B004461421684603F0FCFC1B492068EC
:100AD00088421FD11848016E41F480510166016EB1
:100AE00001F480510591C16C41F00101C164C06CF9
:100AF000694600F001000590E0200090022001907E
:100B00000020029003200390052004904FF09040B5
:100B100002F000FB06B010BD00680849884209D108
:100B20000548016E21F480510166E0214FF09040AC
:100B300002F0C8BB704700000010024000300140C6
:100B4000704770B5040009D0606A002540B1256186
:100B50006561A56294F85D0040B10CE0012070BDB4
:100B60006068B0F5827FF4D0E561F2E784F85C500C
:100B70002046FFF7A4FF022084F85D00206801688A
:100B800021F040010160E0684FF4E062904201D939
:100B9000002101E04FF48051B0F5706F02D0904217
:100BA00000D0A562A088228900F4827002F4044279
:100BB0001043227C02F002021043227D02F0010267
:100BC0001043228B02F400721043227F02F038029D
:100BD000104394F8202002F080021043228D02F48A
:100BE0000052104322681060A069042202EA1040FB
:100BF00094F8242001F4805102F01002104394F87C
:100C0000342002F008021043A28902F470621043FB
:100C10000843216848602566012084F85D000020B3
:100C200070BD704710B5040011D0022084F85D003B
:100C30002068016821F0400101602046FFF76CFF49
:100C40000020206684F85D0084F85C0010BD01205F
:100C500010BD2DE9FC5F4FF0000B984616460F467D
:100C600004460C9D8DF804B001F07DFC411BA8EBFF
:100C7000010501F078FC8246206800F10C09F74874
:100C80000068C0EBC00000EB8000000D684343E04B
:100C9000B7F5C06F06D12EB999F800008DF80400A1
:100CA0009DF80400B8F1FF3F37D001F05CFCA0EBE9
:100CB0000A00A84203D215B1009858B32BE020686F
:100CC000416821F0E00141606068B0F5827F0BD19E
:100CD000A068B0F5004F02D0B0F5806F04D1206855
:100CE000016821F040010160A06AB0F5005F09D100
:100CF0002068016821F4005101602068016841F416
:100D000000510160012084F85D0084F85CB003208C
:100D100001F0D6BB0025401E009020688068384056
:100D2000B042B5D10020F3E72DE9F8431E469146C5
:100D300088460446089D01F016FC401B351A01F058
:100D400012FC0746C5480068C0F3CB30684338E062
:100D5000701C37D001F007FCC01BA84203D215B1AC
:100D6000009860B32CE02068416821F0E001416008
:100D70006068B0F5827F0BD1A068B0F5004F02D05B
:100D8000B0F5806F04D12068016821F04001016056
:100D9000A06AB0F5005F09D12068016821F4005114
:100DA00001602068016841F400510160012084F86D
:100DB0005D00002084F85C000320BDE8F883002576
:100DC000401E00902068816838EA010004D00020AD
:100DD0004845BDD10020F0E70120F9E7F8B51546F8
:100DE0000E460B460092044600224FF4C051FFF716
:100DF00030FF88B933460022802120460095FFF756
:100E000093FF48B9334600224FF4C0612046009555
:100E1000FFF71FFF002804D0206E40F0200020665E
:100E20000320F8BD2DE9F84F044690F85C00002639
:100E30001D469046894601280ED04FF0010B84F8DC
:100E40005CB001F090FB074694F85D004146B24665
:100E5000012804D00226A5E0022001F034BBB9F13C
:100E6000000F76D0B8F1000F73D0032084F85D0036
:100E7000C4F860A0C4F83890A4F83C80A4F83E8080
:100E8000C4F840A0A4F844A0A4F846A0C4F850A018
:100E9000C4F84CA0A068B0F5004F09D120680268E2
:100EA00022F0400202602068026842F48042026040
:100EB00020680268520603D4026842F040020260D1
:100EC000E068B0F5E06F606822D908B101291BD154
:100ED000A06B21680088C86006E0206881688907E7
:100EE00009D5A16B0988C160A06B801CA063E08F4D
:100EF000401EE08708E001F036FBC01BA84202D389
:100F0000681C01D045E0A5B3E08F0028E5D135E0AD
:100F100008B101292FD1E08F0128A06B03D92168E6
:100F20000088C8600FE021680078087314E0E0874B
:100F300021E020688168890714D5E18F0129A16B20
:100F400008D90988C160A06B801CA063E08F801E57
:100F5000EDE726E009780173A06B401CA063E08FE9
:100F6000401EE4E701F0FFFAC01BA84202D3681C50
:100F700001D00EE06DB1E08F0028DAD13A46294663
:100F80002046FFF72BFF08B120202066A06810B193
:100F900005E0032606E02068C16880680090206EA6
:100FA00000B1012684F85DB084F85CA0304654E7B7
:100FB0002DE9F843044640684FF482761546894689
:100FC0004FF400474FF48068B04209D1A068B8429E
:100FD00001D0404504D12068016821F04001016042
:100FE0004B460022802120460095FFF79DFE80B9E8
:100FF0006068B04213D1A068B84201D040450ED11C
:101000004B4600224FF4C06120460095FFF721FEB9
:1010100028B1206E40F0200020660320CDE600209D
:10102000CBE62DE9F05F044690F85C0001250A9EAE
:101030001F4692468B464FF00008012810D0012031
:1010400084F85C0001F08FFA814694F85D006168D5
:1010500001280ED0B1F5827F09D104E054000020B0
:10106000022001F033BAA16809B9042801D0022096
:1010700004E1BBF1000F24D0BAF1000F21D007B377
:1010800094F85D00042802D0052084F85D0000205B
:101090002066C4F840A0A4F84670A4F84470C4F8D0
:1010A00038B0E787A787E0642065E0684FF4E06127
:1010B000884201D8012F06D92068426822F4805264
:1010C00005E00120DAE02068426842F48052426084
:1010D00020680268520603D4026842F040020260AF
:1010E000E0688842606842D908B1012F37D1A06B0F
:1010F00021680088C860A06B801CA063E08F401E40
:10110000E0872CE02068816889070DD5E18F59B10F
:10111000012D09D1A16B0988C160A06B801CA0635F
:10112000E08F401EE087002520688168C9070ED047
:10113000B4F8461059B1C068216C0880206C801C3E
:101140002064B4F84600401EA4F84600012501F0D2
:101150000AFAA0EB0900B04201D3701C72D1E08FF3
:101160000028CFD1B4F846000028CBD173E008B1F5
:10117000012F69D1E08F0128A06B08D92168008870
:10118000C860A06B801CA063E08F801E07E0216810
:1011900000780873A06B401CA063E08F401EE087BE
:1011A00052E020688168890718D5E18FB1B1012D1F
:1011B00014D1E18F0129A16B07D90988C160A06B07
:1011C000801CA063E08F801E06E009780173A06B8D
:1011D000401CA063E08F401EE087002520688168E6
:1011E000C90727D0B4F8461021B3B4F84610012936
:1011F00014D9C068216C0880206C801C2064B4F86D
:101200004600801EA4F84600B4F84600012810D815
:101210002068416841F4805141600AE0007B216C04
:101220000870206C401C2064B4F84600401EA4F8EE
:101230004600012501F097F9A0EB0900B04202D366
:10124000701C01D019E0C6B1E08F0028A9D1B4F814
:1012500046000028A5D14A4631462046FFF7BEFD8C
:1012600018B120204FF001082066012084F85D00AD
:10127000002084F85C004046F3E603208046F4E753
:101280002DE9F84F0446406800261D4690468946E1
:101290004FF0040BB0F5827F01D1A06888B194F8BB
:1012A0005C00012816D0012084F85C0001F05BF995
:1012B000074694F85D004FF0000A01280CD0022682
:1012C00092E084F85DB0009313460A462046FFF78B
:1012D000A8FEC2E50220C0E5B9F1000F73D0B8F155
:1012E000000F70D084F85DB0C4F860A0C4F84090DE
:1012F000A4F84480A4F84680C4F838A0A4F83CA020
:10130000A4F83EA0C4F84CA0C4F850A0E0684FF484
:10131000E06188422068426802D922F4805201E0EC
:1013200042F480524260A068B0F5004F09D12068B5
:10133000026822F0400202602068026822F48042C3
:10134000026020680268520603D4026842F040023C
:101350000260E068884219D937E020688168C907CF
:101360000BD0007B216C0870206C401C2064B4F80A
:101370004600401EA4F8460008E001F0F4F8C01B47
:10138000A84202D3681C01D036E0A5B3B4F84600E9
:101390000028E2D11DE020688168C9070BD0C06831
:1013A000216C0880206C801C2064B4F84600401E2C
:1013B000A4F8460009E001F0D6F8C01BA84203D308
:1013C000681C02D018E00EE0ADB1B4F84600002869
:1013D000E1D13A4629462046FFF7EAFD08B1202030
:1013E0002066206E00B10126012084F85D0084F89B
:1013F0005CA0304631E5FFE70326F5E7704770470C
:1014000038B5044601F0AFF802462068416821F083
:10141000A001416064212046FFF7E0FC18B1206E76
:1014200040F020002066A06818B92068C168806874
:101430000090012084F85D00206E0028204602D034
:10144000FFF7DDFF38BDFFF7D9FF38BD816B0268BC
:1014500009781173816B491C8163C18F491EC18753
:10146000C18F002900D1CBE77047816B02680988E2
:10147000D160816B891C8163C18F491EC187C18F77
:10148000002900D1BCE7704730B590F85C400023DC
:10149000012C0BD0012480F85C40002441B13AB10A
:1014A00090F85D50012D05D0022333E0022030BDBD
:1014B00001232FE0032580F85D5004668163828755
:1014C000C2870464A0F84440A0F84640C464C168E0
:1014D000B1F5E06F01D9FE4900E0FE490165816880
:1014E000B1F5004F09D101680A6822F040020A6094
:1014F00001680A6842F480420A6001684A6842F062
:10150000A0024A6001680A68520603D40A6842F0E1
:1015100040020A6080F85C40184630BD704710B544
:1015200004460068416821F06001416001F01BF849
:10153000024664212046FFF73BFD18B1206E40F0C3
:1015400020002066012084F85D00206E00282046DF
:1015500002D0FFF754FF10BDFFF7E0FF10BD016898
:10156000097B026C1170016C491C0164B0F84610D3
:10157000491EA0F84610B0F84610002900D1CEE769
:1015800070470168C968026C1180016C891C016494
:10159000B0F84610491EA0F84610B0F846100029D1
:1015A00000D1BCE77047704710B5044600F0DBFF80
:1015B00002462068416821F02001416064212046F4
:1015C000FFF70CFC18B1206E40F020002066216E61
:1015D000012029B184F85D002046FFF710FF10BDFF
:1015E00094F85D1084F85D000429204602D0FFF7CE
:1015F000DAFF10BDFFF792FF10BDC38F826B016849
:10160000022B07D31288CA60816B891C8163C18F4A
:10161000891E06E012780A73816B491C8163C18FB1
:10162000491EC187C18F002909D101684A6822F08B
:1016300080024A60B0F84610002900D1B4E7704734
:10164000B0F84630026C0168012B13D9C9681180CB
:10165000016C891C0164B0F84610891EA0F8461080
:10166000B0F8461001290FD101684A6842F480524F
:101670004A6009E0097B1170016C491C0164B0F8F3
:101680004610491EA0F84610B0F84610002908D1AF
:1016900001684A6822F060024A60C18F002900D1C7
:1016A00082E77047816B02680988D160816B891C71
:1016B0008163C18F491EC187C18F002909D101688B
:1016C0004A6822F080024A60B0F84610002900D132
:1016D0006AE770470168C968026C1180016C891C57
:1016E0000164B0F84610491EA0F84610B0F8461044
:1016F000002908D101684A6822F040024A60C18F7F
:10170000002900D150E77047F0B590F85C500024F4
:10171000012D0CD0012580F85C5090F85D5000261A
:101720004768012D0BD0B7F5827F06D101E002207A
:10173000F0BD87680FB9042D01D002243AE0D1B181
:10174000CAB1C3B190F85D50042D02D0052580F8D0
:101750005D50066681638387C3870264A0F84430C6
:10176000A0F84630C168B1F5E06F06D95A49C164A6
:101770005A49016507E001241CE05949C1645949EF
:101780000165022B04D301684A6822F4805203E009
:1017900001684A6842F480524A6001684A6842F02F
:1017A000E0024A6001680A68520603D40A6842F0FF
:1017B00040020A6080F85C602046F0BD70B40023EF
:1017C000846804251CB94468B4F5827F0DD090F874
:1017D0005C40012C0FD0012480F85C4090F85D60E3
:1017E0000024012E0AD0022343E080F85D5070BC33
:1017F00013460A4688E7022070BC7047B9B1B2B1FF
:1018000080F85D5004660164A0F84420A0F84620EA
:1018100084638487C4870465C168B1F5E06F01689B
:101820004A6806D922F480524A602F4905E0012314
:101830001FE042F480524A602C49C1648168B1F5CE
:10184000004F09D101680A6822F040020A6001686D
:101850000A6822F480420A6001684A6842F0600225
:101860004A6001680A68520603D40A6842F04002DE
:101870000A6080F85C401846BEE710B5806A0168CF
:101880004A6822F003024A60016E41F010010166CD
:10189000012180F85D10FFF7B2FD10BD38B5054697
:1018A000846A00F060FE024628680068800634D42E
:1018B0002068416821F0200141602068416821F0E2
:1018C0000201416064212046FFF788FAA0B10FE0D1
:1018D0006B1400084D140008D5160008A516000862
:1018E00041160008FB150008831500085F15000865
:1018F000206E40F020002066A068002118B9206802
:10190000C26880680090E187012084F85D00206E45
:1019100018B12046FFF773FD38BD2046FFF76EFD76
:1019200038BD704710B5806AFFF7FBFF10BD2DE989
:10193000F041044690F85C000025012809D00127F9
:1019400084F85C7094F85D000026012804D002251C
:1019500070E00220BDE8F08199B192B1032084F8D3
:101960005D002666A163A287E28726642665E66499
:10197000A4F84460A4F84660A068B0F5004F02D017
:101980000BE0012556E02068016821F0400101606C
:101990002068016841F480410160616DFD48086381
:1019A000616DFD48C862616DFC484863606D866387
:1019B0002068416821F480414160E068B0F5E06F43
:1019C00010D8606D8069B0F5806F0BD1E08FC007D3
:1019D0002068416816D041F480414160E08F07EBF8
:1019E0005000E087E38F2268A16B0C32606D01F03C
:1019F00026FE68B1206E40F010002066012584F8B4
:101A00005D7017E021F480414160E08F4008E8E715
:101A100020680168490603D4016841F04001016073
:101A20002068416841F0200141602068416841F030
:101A30000201416084F85C6028468BE770B505467A
:101A4000846A00F090FD024628680068800627D46A
:101A50002068416821F020014160A06818B96068E1
:101A6000B0F5827F17D02068416821F00101416004
:101A700064212046FFF79CFA08B120202066002050
:101A8000A4F84600012084F85D00206E40B1204695
:101A9000FFF7B5FC70BD2068416821F00301E6E75F
:101AA0002046FFF73BFD70BD704710B5806AFFF719
:101AB000FBFF10BD70B50546846A00F054FD024678
:101AC0002868006880061FD42068416821F0200142
:101AD000416064212046FFF781F918B1206E40F083
:101AE000200020662068416821F003014160002049
:101AF000E087A4F84600012084F85D00206E18B14C
:101B00002046FFF77CFC70BD2046FFF74CFD70BD02
:101B1000704710B5806AFFF7FBFF10BD2DE9F0415B
:101B2000044690F85C00002501280DD0012684F8B9
:101B30005C6094F85D000027D4F804C001280ED042
:101B4000BCF5827F09D101E0022003E7D4F808C088
:101B5000BCF1000F01D1042801D00225ADE011B382
:101B60000AB303B394F85D00042802D0052084F87A
:101B70005D002766A163A387E3872264A4F844304D
:101B8000A4F84630E76427652068416821F4C04125
:101B90004160E068B0F5E06F2068416805D921F444
:101BA000805141602FE0012587E041F48051416080
:101BB000606D4FF48061806988420CD194F83C00DC
:101BC000C0072068426837D042F480424260E08F0C
:101BD00006EB5000E087A06D8069884213D1206831
:101BE000416821F480514160B4F84600C007206884
:101BF000416827D041F400514160B4F8460006EB3B
:101C00005000A4F8460094F85D00042821D0A16D8E
:101C1000634808636348A16DC862A16D5F4848636B
:101C2000A06D8763B4F846302168226C0C31A06D3A
:101C300001F005FD38BB11E022F480424260E08FE4
:101C40004008C7E721F400514160B4F8460040085D
:101C5000D7E7A16D544808635448DCE72068416821
:101C600041F001014160606D0763606DC762606DA6
:101C70004763606D8763E38F2268A16B0C32606DF0
:101C800001F0DDFC38B1206E40F010002066012527
:101C900084F85D6011E020680168490603D401689A
:101CA00041F0400101602068416841F0200141603D
:101CB0002068416841F00201416084F85C70284668
:101CC00048E62DE9F041044600258068042318B950
:101CD0006668B6F5827F0ED094F85C60012E12D053
:101CE000012684F85C6094F85DC00027BCF1010F08
:101CF0000BD0022597E084F85D302046BDE8F04126
:101D000013460A460AE7022024E681B17AB184F834
:101D10005D3027662164A4F84420A4F84620E764D7
:101D20002765A787E787B0F5004F02D00BE00125B4
:101D300079E02068016821F04001016020680168B5
:101D400021F4804101602068416821F40051416024
:101D5000E068B0F5E06F2068416803D921F4805154
:101D600041602BE041F480514160A06D8069B0F585
:101D7000806F23D12068416821F480514160B4F81C
:101D80004600C0072068416834D041F400514160EA
:101D90000EE00000251900089D1800087B180008B7
:101DA000131B0008B51A0008AB1A00083D1A0008FA
:101DB000B4F8460006EB5000A4F84600A16DFE48BA
:101DC0000863A16DFD48C862A16DFD484863A06D20
:101DD0008763B4F846302168226C0C31A06D01F0A5
:101DE0002EFC70B1206E40F010002066012584F8B2
:101DF0005D6018E021F400514160B4F846004008ED
:101E0000DAE720680168490603D4016841F040011F
:101E100001602068416841F020014160206841680C
:101E200041F00101416084F85C70284692E538B5C4
:101E300004460068016821F040010160E14845F670
:101E4000C0510068B0FBF1F0642148430090206865
:101E5000416821F040014160009808B3401E0090A5
:101E6000206840684006F7D400F07DFB00906423B2
:101E7000002280212046FEF757FF402500B125664D
:101E800000F071FB0090642300224FF4C0612046F3
:101E9000FEF7DFFE00B12566072084F85D0038BD3F
:101EA000206E40F040002066DEE77CB50446C54861
:101EB00045F6C0510068B0FBF1F064214843019041
:101EC0002068416821F080014160019800284BD0D2
:101ED000401E0190206840680006F6D400F043FBE5
:101EE000024664212046FEF779FF402500B12566B1
:101EF0002068016821F04001016000F034FB4FF4DC
:101F0000C06600906423002231462046FEF7A1FE01
:101F100000B1256620684168490621D5416821F055
:101F200040014160019820B3401E01902068406844
:101F30004006F7D400F017FB0090642300228021B4
:101F40002046FEF7F1FE00B1256600F00CFB009084
:101F50006423002231462046FEF77BFE00B1256651
:101F6000072084F85D007CBD206E40F040002066B4
:101F7000B4E7206E40F040002066DBE72DE9FC412D
:101F80000446904845F6C05100250068B0FBF1F0CA
:101F900064214843019000902068416821F02001AD
:101FA00041602168486800060CD587482065009884
:101FB00000287DD0401E009094F85D000728F6D1DF
:101FC00001980090486840060CD58048E06400986D
:101FD00000287DD0401E009094F85D000728F6D1BF
:101FE0000198009048684FF4C06880074FF04006A1
:101FF0004FF0000725D5606D18B38763606D01F061
:1020000056FB00B126662068416821F0020141605C
:1020100000F0A9FA024664212046FEF7DFFE00B177
:1020200026662068016821F04001016000F09BFAFB
:1020300000906423002241462046FEF70AFE00B1CC
:10204000266620684068C00727D0A06D28B3876344
:10205000A06D01F02CFB00B126662068016821F01C
:102060004001016000F07FFA00906423002280218B
:102070002046FEF759FE00B1266600F074FA009083
:102080006423002241462046FEF7E3FD00B12666A8
:102090002068416821F001014160A4F84670E7879B
:1020A000206E402819D027662068C168816801E049
:1020B00009E00DE0009180680090012084F85D0047
:1020C0002846BDE8FC81206E40F04000206677E79E
:1020D000206E40F04000206682E70125E4E770476B
:1020E000F8B5846A2068016821F040010160A06DA4
:1020F000002585632068416821F00101416000F0FE
:1021000032FA00906423002280212046FEF70CFE64
:10211000402600B1266600F026FA009064230022D3
:102120004FF4C0612046FEF794FD00B12666606D55
:1021300010B1806B002812D1A4F84650E587206EBC
:10214000402800D025662068C168816800918068B9
:102150000090012084F85D002046FFF7C0FFF8BD25
:10216000F8B5846A0025606D85632068416821F0B8
:102170000201416000F0F7F9024664212046FEF7B3
:102180002DFE402600B126662068016821F040013E
:10219000016000F0E8F90090642300224FF4C06170
:1021A0002046FEF756FD00B12666A06D10B1806B8B
:1021B000002820D10CE00000AB1A00083D1A0008EE
:1021C0007B18000854000020AB1E00082F1E0008DA
:1021D000A4F84650E587206E402800D02566206888
:1021E000C1688168009180680090012084F85D00DA
:1021F0002046FFF774FFF8BD2DE9FC410446AA48CC
:1022000045F6C051002600680125B0FBF1F06421BD
:102210004843019000902068416821F0200141600E
:102220002168486800060BD5A04820650098F8B1E1
:10223000401E009094F85D000728F7D101980090A7
:10224000486840060BD59A48E0640098A8B1401E43
:10225000009094F85D000728F7D101980090606D18
:10226000002780B1496889070CD5924981630AE04B
:10227000206E40F040002066E0E7206E40F0400015
:102280002066EAE78763A06D38B121684968C9070D
:1022900002D08949816300E08763206840684FF07D
:1022A000400880070AD5606D40B101F025FA20B1E1
:1022B000606D8763C4F8608000E000252068406896
:1022C000C00708D0A06D30B101F016FAB8B1A06D0A
:1022D0008763C4F8608095B1A4F84670E787206EE4
:1022E00040280ED027662068C16881680091806808
:1022F0000090012084F85D002046FFF7F0FE304694
:10230000DFE60126EFE790F85C1001290CD00121EF
:1023100080F85C1001684A6822F003024A600021DC
:1023200080F85C10084670470220704790F85C10F7
:1023300001290CD0012180F85C1001684A6842F044
:1023400003024A60002180F85C10084670470220B2
:10235000704770B50446406D002538B101F0A7F90B
:1023600020B1206E40F0100020660125A06D38B12C
:1023700001F09DF920B1206E40F01000206601258B
:102380002068416821F003014160012084F85D006C
:10239000284670BD10B5806A0021A0F84610C1879C
:1023A000FFF72DF810BD38B5016804464A68886803
:1023B000C043430606D5C30704D1D3435B0601D40B
:1023C000E16C05E0830708D4D3431B0605D4216DD7
:1023D00001B02046BDE830400847830603D54306D8
:1023E00001D5C30551D4D3439B064ED443060AD42A
:1023F00094F85D30032B49D0236E43F00403236629
:10240000CB688B680093830609D4236E43F00103E5
:1024100023668B6800930B6823F040030B60C005B4
:1024200006D4206E40F00800206620688068009086
:10243000206E002829D02068416821F0E001416029
:10244000012084F85D00900701D4D00722D02068D5
:10245000416821F003014160184DA06D40B18563D2
:10246000A06D01F049F918B1206E40F040002066DF
:10247000606D002809D08563606D01F03DF900288A
:1024800003D0206E40F04000206638BDC8688868E0
:10249000009038BD2046FEF7B2FF38BD90F85D00D1
:1024A0007047006E7047000054000020AB1E00080B
:1024B0002F1E000861210008E12000089523000874
:1024C0003CBCBDE8C09F18BCBDE8E08F30BCBDE897
:1024D000C09F0000704770B5824E054600243078DA
:1024E00098B14FF47A71B1FBF0F07F490968B1FB04
:1024F000F0F001F0AAFE40B9102D06D200222946C4
:10250000501E01F058FE756000E00124204670BDA9
:1025100010B50024032001F041FE0F20FFF7DBFF80
:1025200008B1012401E0FEF7B7FA204610BD70475C
:102530006E4810B54FF0FF318163C16300228263A2
:10254000C2630164026481628262C162C262016329
:102550000263FFF7ECFF002010BD6248816802783B
:102560001144816070475F48806870475D484068EB
:10257000704770B55B4D014600202C788C4206D028
:1025800029706868FFF7A7FF002800D02C7070BD85
:1025900054480078704770B50446FFF7E4FF0546DD
:1025A000601C02D04F4800780444FFF7DCFF401B5A
:1025B000A042FAD370BD4FF0E020016921F0020182
:1025C000016170474FF0E020016941F002010161B3
:1025D00070474748704747480068000C70474548B7
:1025E0000068C0F30B0070474348006870474248DA
:1025F000001D0068704740480830006870473D483B
:10260000416841F00101416070473A48416821F05A
:102610000101416070473748416841F00201416063
:1026200070473448416821F00201416070473148E9
:10263000416841F00401416070472E48416821F033
:102640000401416070472D48CA2141625321416213
:102650002B490120C1F80003704729490120086275
:102660007047274900200862704724490A6B22F00E
:10267000040202430A63704720490A6B22F00202F7
:1026800002430A6370471D494A6B22F03F0202432E
:102690004A63704770B5194C206B40F0010020630D
:1026A000FFF761FF054606E0FFF75DFF401B0A28C4
:1026B00001D9032070BD206B0007F5D5002070BD47
:1026C0000E48016B21F00101016370470B4841681E
:1026D00041F48071416070470848416821F480717D
:1026E0004160704748000020540000200010024064
:1026F00000030D01002004E09075FF1F0000014061
:10270000000020422DE9F041FE4C206840F001001D
:102710002060FFF728FF054604E0FFF724FF401B79
:10272000022831D820688007F7D5206820F0F00013
:1027300040F0600020600026A660F449F24808607E
:10274000F3480068FFF7C7FE10B10120BDE8F08133
:10275000FFF709FF054641F2883704E0FFF703FF62
:10276000401BB84210D8A06810F00C0FF6D12068BA
:10277000E84908402060FFF7F6FE054606E0FFF74F
:10278000F2FE401B022801D90320DFE7206810F089
:10279000285FF4D1E660E06840F48050E060266194
:1027A000206940F4805020616661606940F4805087
:1027B0006061206820F480202060A6614FF0FF3027
:1027C0002062D4F8940040F40000C4F89400002083
:1027D000BCE770B5CB4B002210469968DC6811F05D
:1027E0000C0104F00306CC4C4FEA640508D00C2918
:1027F00004D0042931D0082931D010E0012E10D1A5
:102800001A68120704D4D3F89420C2F3032202E01A
:102810001A68C2F30312C14E56F82220D9B10C290E
:1028200018D1D86800F0030002281AD003281AD063
:102830001046D968DA68C1F30211C2F30622424396
:10284000491CB2FBF1F0D968C1F34161491C490050
:10285000B0FBF1F070BD104670BD204670BD28463B
:1028600070BD2046E5E72846E3E7F8B5A54E0546E6
:102870000024B06DC00002D501F050F90DE0B06D3C
:1028800040F08050B065B06D00F08050009001F0D5
:1028900045F9B16D21F08051B165B0F5007F04D0EC
:1028A000802D07D94FF003040AE0802D08D9A02D10
:1028B00001D804E001D1022402E0702D00D10124EE
:1028C0009748016821F0070121430160006800F08A
:1028D0000700A04201D00120F8BD0020F8BD2DE97D
:1028E000F84304006FD0874EB06800F00C05F06824
:1028F00000F003072078C00664D575B10C2D01D116
:10290000012F0AD0A0690028306879D040F001007A
:102910003060FFF728FE80465CE03068800702D513
:10292000A0690028DED0216A3068000703D530682E
:1029300000F0F00004E0D6F89400F02202EA101053
:10294000814216D90846FFF790FF00283BD1306836
:1029500040F0080030603068216A20F0F000084341
:1029600030607068E16920F47F4040EA01207060C7
:1029700016E0306840F0080030603068216A20F0CE
:10298000F000084330607068E16920F47F4040EA5D
:102990000120706025B9206AFFF767FF0028D5D1B4
:1029A000FFF717FFB1685F4AC1F30311515C01F0F3
:1029B0001F01C8405549086055480068FFF78BFD66
:1029C00000287DD12CE0CDE0FFF7CDFDA0EB080085
:1029D000022876D830688007F6D5306840F00800C5
:1029E00030603068216A20F0F00008433060706881
:1029F000E16920F47F4040EA0120706010E0FFE7C9
:102A000020F001003060FFF7AEFD804605E0FFF7E3
:102A1000AAFDA0EB08000228DBD830688007F6D4B6
:102A20002078C00740D0082D18D00C2D01D1032FDD
:102A300014D06068B0F5803F17D0B0F5A02F306893
:102A400017D020F480303060306820F4802030606F
:102A50006068E0B1FFF787FD804614E030688003CE
:102A600022D5606800287DD01EE0306840F48030B8
:102A7000EDE740F480203060F7E7FFF774FDA0EB4E
:102A800008006428A5D830688003F6D50CE0FFF76D
:102A90006AFD804605E0FFF766FDA0EB08006428AC
:102AA00097D830688003F6D4207880074BD5042D62
:102AB00011D00C2D01D1022F0DD0E068002801E0CB
:102AC00086E1E4E030682FD040F480703060FFF79A
:102AD0004AFD07460BE0306840050BD5E06800284A
:102AE000C1D007E0FFF73FFDC01B022894D8306833
:102AF0004005F7D57068217C20F0F85040EA01606D
:102B0000706020E00010024000093D0054000020E9
:102B10004C000020FFF4FEEA0024F400E4730008F7
:102B200000200240D473000820F480703060FFF76A
:102B30001AFD074604E0FFF716FDC01B0228A1D8C6
:102B400030684005F7D42078000729D5606900284F
:102B5000D6F8940013D040F00100C6F89400FFF7B7
:102B600002FD00E00AE1074604E0FFF7FCFCC01BA1
:102B7000022887D8D6F894008007F6D510E020F018
:102B80000100C6F89400FFF7EEFC074604E0FFF7EB
:102B9000EAFCC01B02287AD8D6F894008007F6D445
:102BA0002078400765D5B06D4FF00008C00009D40B
:102BB000B06D40F08050B065B06D4FF0010800F08E
:102BC00080500090F6480168C90511D4016881461B
:102BD00041F480710160FFF7C6FC074604E0FFF78F
:102BE000C2FCC01B022852D8D9F80000C005F6D597
:102BF000A068012815D00528D6F8900016D020F03E
:102C00000100C6F89000D6F8900020F00400C6F845
:102C10009000A06841F28839B8B1FFF7A4FC0746DC
:102C20000EE0D6F8900040F00100F0E740F004001C
:102C3000C6F89000F5E7FFF796FCC11B494526D87A
:102C4000D6F890008007F6D50CE0FFF78CFC07461D
:102C500004E0FFF788FCC11B494518D8D6F890005E
:102C60008007F6D4B8F1000F03D0B06D20F080508B
:102C7000B065A06AF0B302280AD00C2D7ED030686F
:102C800020F080703060FFF76EFC0446A2E09EE00A
:102C9000F068E26A00F00301914229D1216B00F053
:102CA000700209011039914222D1626B00F4FE4199
:102CB000B1EB022F1CD1A16B00F40032072901D027
:102CC000012100E000218A4212D1A18F00F4C0024C
:102CD00049084905A1F50011914209D194F8401025
:102CE00000F0C06049084906A1F10071814251D04D
:102CF0000C2D00E065E076D03068400173D4306878
:102D0000C00070D4306820F080703060FFF72BFC7A
:102D1000054604E0FFF727FC401B022857D830681F
:102D20008001F7D4D4E90B016FF00F0202EB01111F
:102D30000843A18F5204490802EB4151626B41EAFA
:102D40000221084394F840104FF07E42490802EBFC
:102D500041610843A16B090940EA4140F168914A89
:102D600011400843F060306840F080703060F068D7
:102D700040F08070F060FFF7F6FB00E033E00446BF
:102D800004E0FFF7F0FB001B022820D83068800128
:102D9000F7D526E03068800123D4306840F0807099
:102DA0003060F06840F08070F060FFF7DCFB0446B4
:102DB00004E0FFF7D8FB001B022808D83068800128
:102DC000F7D50EE0FFF7CFFB001B022802D9032046
:102DD000BDE8F88330688001F4D4F0687249084097
:102DE000F0600020F4E70120F2E72DE9F0470D46FE
:102DF000040071D0DFF8B481D8F8000000F00700BB
:102E0000A8420CD2D8F8001021F007012943C8F8D5
:102E10000010D8F8000000F00700A8425CD120782C
:102E2000634E80070AD5A068B16801F0F0018842BE
:102E300004D9B16821F0F0010143B1602078C007E6
:102E40002BD06068032811D0022812D0316898B1C5
:102E50004905002940DAB16821F003010143B1605E
:102E6000FFF781FB074641F288390FE0316889019D
:102E7000EFE731688903ECE78907EAE7FFF773FBBF
:102E8000C11B494502D90320BDE8F087B0686168DD
:102E900000F00C00B0EB810FF0D1207880070AD54C
:102EA000A068B16801F0F001884204D2B16821F055
:102EB000F0010143B160D8F80010404601F007016D
:102EC000A9420BD9016821F007012943016000687C
:102ED00000F00700A84201D00120D5E72078400784
:102EE00005D5B068E16820F4E0600843B060207860
:102EF000000706D5B068216920F4605040EAC1009F
:102F0000B060FFF766FCB1682A4AC1F30311515C57
:102F100001F01F01C8402849086028480068BDE842
:102F2000F047FFF7D8BA70B5214C86B01646E06C72
:102F30000D4640F00100E064E06C694600F00100DD
:102F40000590A015009002200190039000200290AF
:102F500004904FF0904000F0DDF8A068354320F079
:102F6000EE402843A06006B070BD1348006870476B
:102F700011480F4900688968114AC1F30221515C68
:102F800001F01F01C84070470B4809490068896873
:102F90000B4AC1F3C221515C01F01F01C8407047C8
:102FA000007000408C809DF9FCFFEEFE0020024086
:102FB00000100240D4730008540000204C00002090
:102FC0001474000810B51F21016050490A685303AA
:102FD0004FF0000202D54FF4A02304E00B68DB039E
:102FE00003D54FF48033436000E042600B68DC0798
:102FF0004FF0010301D0836100E082614C68C4F3AB
:103000000724C4610C6804F0F00404620C68E40551
:1030100003D54FF48074C46000E0C2604C68C4F310
:1030200004640461D1F89040640702D505248460EB
:1030300006E0D1F89040E40701D0836000E08260B0
:10304000D1F89440E40701D0436100E0426142625C
:103050000A68D20102D50222826200E08362CA6855
:1030600002F00302C262CA68C2F30212521C026377
:10307000CA68C2F306224263CA68C2F34152521CB4
:103080005200C263CA68C2F34162521C5200026419
:10309000C968890301D5112100E00721816310BDB2
:1030A0000F220260194A936803F003034360936898
:1030B00003F0F0038360936803F4E063C3609268F5
:1030C0004FF4E06303EAD20202611148006800F0A5
:1030D0000700086070470D48016841F40021016055
:1030E0007047704710B5094CE069C00503D5FFF77C
:1030F000F8FFA015206210BD044951F8940F0A682A
:1031000000F07E4042F400020A6070470010024066
:10311000002002402DE9F84FDFF814930022A9F1B6
:10312000040B03274FF00F0C09F1040AABF1040E56
:10313000C1E001249440234077D00D7905F00305C8
:10314000012D01D0022D15D18668550007FA05F82A
:1031500026EA0806D1F80C8008FA05F848EA0608BD
:10316000C0F8088045680E79A543C6F3001696405E
:103170002E4346604D68EE43B6070AD1C66AA643A1
:10318000C5F3C00494403443C4620C79E443A407FB
:1031900008D0C568540007FA04F6B5438E68A64007
:1031A0002E43C6600C7904F00304022C11D1D4081C
:1031B00000EB8406356A5407E40E0CFA04F825EA9D
:1031C0000805D1F8108008FA04F848EA0508C6F89E
:1031D00020800568540007FA04F6B5430E7906F01E
:1031E0000306A6402E4306604C6814F4403F61D0AD
:1031F000904C256E45F001052566246E22F00305EE
:1032000004F0010400948C4C05EB0408D8F8085035
:103210009407260F0CFA06F4A543B0F1904F05D0A1
:10322000864CA04204D101241CE043E0002419E0B4
:10323000834CA04201D1022414E0824CA04201D16F
:1032400003240FE0804CA04201D104240AE07F4C0B
:10325000A04201D1052405E07D4CA04201D1062405
:1032600000E00724B4402C43C8F80840D9F80040D7
:103270004D464E689C43F60200D51C432C60DAF89C
:10328000004055464E689C43B60200D51C432C6056
:10329000DBF800405D464E689C43B60300D51C43F6
:1032A0002C60DEF8004075464E689C43F60300D55E
:1032B0001C432C60521C0B6833FA02F47FF439AFC4
:1032C00000F0C8B82DE9F04F0022DFF86CA14FF0F4
:1032D000010B4FF00F0978E00BFA02F515EA010433
:1032E00072D022F003065644B36897074FEA177C62
:1032F00009FA0CF707EA0308B0F1904F04D04F4BDE
:10330000984203D101231BE0002319E04C4B984263
:1033100001D1022314E04B4B984201D103230FE06B
:10332000494B984201D104230AE0484B984201D10D
:10333000052305E0464B984201D1062300E0072310
:1033400003FA0CF3434522D1DFF8E4C0ACF1080CDA
:10335000DCF80030A343CCF800300CF1040CDCF8AE
:103360000030A343CCF80030DFF8C4C00CF1040CEB
:10337000DCF80030A343CCF80030DFF8B4C0DCF850
:103380000030A343CCF80030B368BB43B36004689B
:1033900056000323B3401C430460D40800EB8404AC
:1033A000276A56074FEAD66C09FA0CF6B74327622C
:1033B00084689C4384604468AC434460C4689C4314
:1033C000C460C36AAB43C362521C31FA02F383D1B7
:1033D00000F043B80069084000D0012070470AB1EE
:1033E0008161704781627047426921EA02030A40A5
:1033F00043EA02418161704708B541F4803200928E
:10340000C261C1610099C161C1690091C069C00315
:1034100001D5002008BD012008BD7047044910B542
:103420000C310A68024202D00860FFF7F6FF10BDB7
:103430000804014000100240000001400004004860
:1034400000080048000C0048001000480014004824
:103450000018004818BCBDE8E08F30BCBDE8C08F44
:1034600070B568B1FD4C01681423FD4AA14209D230
:10347000FC4C0C44B4FBF3F39B00C0E910230BE0BD
:10348000012070BDF54C64420C44B4FBF3F39B0087
:103490004364F24B083B0364022380F825300C6838
:1034A00047F6F0739C43D0E902352B43D0E904562C
:1034B00035432B4385692B43C5692B43056A2B4351
:1034C00023430B608168B1F5804F29D0016C0F2335
:1034D000914212D152F8A81F90F8444004F01C0405
:1034E000A3409943116090F84430416803F01C03F5
:1034F000994013681943116012E0D849A0310A6855
:1035000090F8444004F01C04A3409A430A6090F8E9
:103510004430426803F01C039A400B681A430A6067
:103520000021C163012280F8252080F8241008467C
:1035300070BD30B590B101680A6822F001020A60DE
:10354000C64C02681421C64BA24209D2C54C144491
:10355000B4FBF1F18900C0E910310BE0012030BD6E
:10356000BE4C64421444B4FBF1F189004164BB4990
:10357000083901640021116090F8442002F01C0415
:103580000122A240046C6260046C0F229C4202D1B2
:1035900053F8A84F02E0B14BA0331C6890F8445098
:1035A00005F01C05AA4094431C60C162016341639D
:1035B0008163C16380F8251080F82410002030BD9D
:1035C00030B590F8444004F01C050124AC40056C73
:1035D0006C60046863608368102B036803D0996093
:1035E0000068C26030BD9A600068C16030BD70B5CF
:1035F000044690F82400002501280CD0012084F80E
:10360000240094F825600020012E06D084F82400C0
:103610000225284670BD022070BD022684F8256070
:10362000E0632068066826F0010606602046FFF782
:10363000C7FF2068016841F001010160E9E770B54A
:10364000044690F82400002501280CD0012084F8BD
:10365000240094F825600020012E06D084F8240070
:103660000225284670BD022070BD022684F8256020
:10367000E0632068066826F0010606602046FFF732
:103680009FFF206B00282068016802D041F00E01E6
:1036900006E021F0040101602068016841F00A01A0
:1036A00001602068016841F001010160D9E710B5AF
:1036B00090F825100022022905D00421C16380F86A
:1036C0002420012010BD01680B6823F00E030B605D
:1036D00001680B6823F001030B6090F8441001248B
:1036E00001F01C0304FA03F1036C596080F82540D3
:1036F00080F82420104610BD10B590F82510002445
:10370000022903D00421C16301241AE001680A6878
:1037100022F00E020A6001680A6822F001020A60C3
:1037200090F84410012301F01C0203FA02F1026C2C
:10373000516080F82530002180F82410816B01B1A0
:103740008847204610BD2DE9F05F044690F825001B
:1037500015468B464FF000084FF0040A022802D0AD
:10376000C4F83CA04DE020680068800603D54FF403
:103770008070E06347E094F84400BBF1000F00F074
:103780001C0007D00AFA00F6FEF7EDFE07464FF0E0
:1037900001091FE002268640F6E7016894F844001C
:1037A00000F01C020820904001420BD094F8440025
:1037B000226C00F01C0109FA01F148465160C4F87E
:1037C0003C901CE0681C05D0FEF7CDFEC01BA84253
:1037D00012D88DB1206C01683142DED094F84400DB
:1037E000BBF1000F00F01C010FD00AFA01F0216CB0
:1037F0004860002000F0C8B82020E063484684F804
:10380000250084F824800120F4E702208840216C00
:10381000486084F8248084F82590EAE7F0B4016CCD
:103820000B6801680A6890F84440042504F01C0401
:1038300005FA04F61E4217D0560715D50A689206F7
:1038400003D40A6822F004020A6090F8441001F0E0
:103850001C018D40016C4D60016B23E008040240A7
:1038600000000240F8FFFDBF022606FA04F71F42DF
:103870004FF0000C4FF0010518D0970716D50A68D5
:10388000920605D40A6822F00A020A6080F82550E0
:1038900090F8441001F01C018E40016C4E6080F8DD
:1038A00024C0C16A00291AD0F0BC08470826A640E7
:1038B0001E4214D0120712D50A6822F00E020A60C6
:1038C00090F84410026C01F01C0105FA01F15160FE
:1038D000C56380F8255080F824C0416BE2E7F0BC56
:1038E000704710B590F824400023012C07D0012424
:1038F00080F8244090F82540012C02D008E00220F6
:1039000010BD59B101290BD002290BD003290BD0CE
:103910000123002180F82410184610BDC262F8E788
:103920000263F6E74263F4E78263F2E710B590F8CA
:1039300024300022012B08D0012380F8243090F895
:1039400025400023012C02D014E0022010BD0529DF
:1039500010D2DFE801F0030507090B00C3620AE09B
:10396000036308E0436306E0836304E0C362036328
:103970004363F9E7012280F82430104610BD90F827
:1039800025007047C06B704730BCBDE8C09F000089
:103990005E48816B41F080518163816B21F08051E1
:1039A000816370475A48016841F480710160704733
:1039B0005748016821F480710160704730B554495F
:1039C0004A68036822F00E021A434A60514B196894
:1039D00021F4803119601A1F116821F480311160BF
:1039E0004C4C0834216821F480312160191D0D6888
:1039F00025F480350D604568ED0303D5156845F461
:103A0000803515604268920303D51A6842F480320B
:103A10001A600279D20703D00A6842F480320A6041
:103A20000079800703D5206840F4803020600020B2
:103A300030BD3748416841F001014160704734486A
:103A4000416821F0010141607047314AD36800F0BC
:103A50001F018B4343EA5010D06090680843906088
:103A600070472B498A6800F01F0082438A607047C4
:103A7000274A10B5002850690C460FD0C043800576
:103A800001D500F0E2FA2448016821F00401016048
:103A9000012C0AD040BF20BF20BF10BD8005F2D549
:103AA00000F0D9FA0028F8D1EDE730BF10BDB0F52D
:103AB000804F084601D000F0E9BA00F0FDBA144882
:103AC000016821F00701C91C01601348016841F039
:103AD0000401016030BF70470F48016841F00201E6
:103AE000016070470C48016821F0020101607047D5
:103AF0000948016841F010010160704706480168FB
:103B000021F0100101607047704700000010024072
:103B1000007000400404014010ED00E0FE48006821
:103B200000F4C0607047FC49B0F5007F0868C0F33E
:103B3000412009D0022805D0086820F4C06040F474
:103B400080600860002070470128FBD0086820F4DE
:103B5000C06040F400700860F048322200685043B2
:103B6000EF4AB0FBF2F0401C00E0401E4A695205EB
:103B700001D50028F9D148694005E3D503207047F5
:103B8000E549CA6822F400720243CA60C86840F47A
:103B90008070C8607047E048C16821F48071C160DE
:103BA0007047DD48416841F4806141607047DA4800
:103BB000416821F4806141607047D748416841F411
:103BC000007141607047D448416821F40071416040
:103BD0007047D148816841F4004181607047CE4808
:103BE000816821F4004181607047034610B50020D0
:103BF000C94A082B45D2DFE803F0040F181F262D11
:103C0000343B136A21F4804423431362536A21F442
:103C100020418B43536210BD936A0B439362D36A76
:103C200021F010018B43D36210BD136B0B43136360
:103C3000536B8B43536310BD936B0B439363D36BF5
:103C40008B43D36310BD136C0B431364536C8B43D2
:103C5000536410BD936C0B439364D36C8B43D36458
:103C600010BD136D0B431365536D8B43536510BD2E
:103C7000936D01F003010B439365D36D8B43D365C3
:103C800010BD012010BD034610B50020A24A082B2C
:103C900029D2DFE803F0040A0E12161A1E22136A54
:103CA00021F480418B43136210BD936A8B4393626E
:103CB00010BD136B8B43136310BD936B8B439363E6
:103CC00010BD136C8B43136410BD936C8B439364D2
:103CD00010BD136D8B43136510BD936D01F003018F
:103CE0008B43936510BD012010BD034610B5002025
:103CF000894A082B45D2DFE803F0040F181F262D50
:103D0000343B536A21F4204423435362136A21F461
:103D100080418B43136210BDD36A21F0100423430A
:103D2000D362936A8B43936210BD536B0B4353630F
:103D3000136B8B43136310BDD36B0B43D363936B34
:103D40008B43936310BD536C0B435364136C8B43D1
:103D5000136410BDD36C0B43D364936C8B43936497
:103D600010BD536D0B435365136D8B43136510BD2D
:103D7000D36D01F003010B43D365936D8B439365C2
:103D800010BD012010BD034610B50020624A082B6B
:103D90002BD2DFE803F0040A1014181C2024536A05
:103DA00021F420418B43536210BDD36A21F01001EE
:103DB0008B43D36210BD536B8B43536310BDD36BE6
:103DC0008B43D36310BD536C8B43536410BDD36CD2
:103DD0008B43D36410BD536D8B43536510BDD36DBE
:103DE00001F003018B43D36510BD012010BD4A488B
:103DF000816841F48061816070474748816821F49F
:103E0000806181607047444920B1B0F5807F05D062
:103E100001207047886820F4807002E0886840F4D0
:103E200080708860002070474FF48070EBE70020BE
:103E3000E9E73948C16841F40051C160704736482C
:103E4000C16821F40051C16070473348416841F0B6
:103E50001001416070473048416821F01001416015
:103E600070472D48416841F02001416070472A4861
:103E7000416821F02001416070472748416841F0C6
:103E80004001416070472448416821F04001416091
:103E900070472148416841F08001416070471E48E9
:103EA000416821F080014160704770B51D4B1D4C89
:103EB000016800221E1F08341D1D102908D020296A
:103EC0003CD0402966D080297ED00122104670BDAA
:103ED000196821F008011960316821F0080131608A
:103EE000216821F008012160296821F0080129607A
:103EF0004168C90303D5316841F008013160416868
:103F0000890303D5196841F0080119600179C907CF
:103F10000DD0296808E00000007000405400002027
:103F200040420F002404014041F00801296000795B
:103F30008007CBD5206840F0080084E0196821F0A4
:103F400010011960316821F010013160216821F001
:103F500010012160296821F0100129604168C9031E
:103F600003D5316841F0100131604168890303D500
:103F7000196841F0100119600179C90703D0296857
:103F800041F010012960007980079FD5206840F03A
:103F9000100058E0196821F020011960316821F003
:103FA00020013160216821F020012160296821F081
:103FB000200129604168C90303D5316841F020011F
:103FC00031604168890300E012E003D5196841F0CF
:103FD000200119600179C90703D0296841F0200147
:103FE000296000798007A4D5206840F020002AE0ED
:103FF000196821F040011960316821F040013160F9
:10400000216821F040012160296821F040012960E8
:104010004168C90303D5316841F04001316041680E
:10402000890303D5196841F0400119600179C90776
:1040300003D0296841F04001296000798007A4D5A8
:10404000206840F04000206040E74F48016841F49C
:104050008041016070474C49086820F48040086046
:104060004A48322200685043494AB0FBF2F0401CF3
:1040700000E0401E4A69920501D50028F9D148693F
:10408000800501D503207047002070473E490A682B
:1040900022F007020A603F490A6842F004020A60FF
:1040A000012807D040BF20BF20BF086820F00400CF
:1040B0000860704730BFF8E733490A6822F007020A
:1040C000521C0A6033490A6842F004020A6001285F
:1040D00007D040BF20BF20BF086820F00400086060
:1040E000704730BFF8E728490A6822F00702921C9F
:1040F0000A6028490A6842F004020A60012807D0D1
:1041000040BF20BF20BF086820F00400086070474F
:1041100030BFF8E71C48016821F00701091D016064
:104120001C48016841F00401016030BF70477047CE
:1041300070477047704710B5174C2068C00304D50E
:10414000FFF7E2FC4FF480302060134C20342068ED
:10415000000703D5FFF7EEFF082020602068C006A7
:1041600003D5FFF7E6FF102020602068800603D506
:10417000FFF7DEFF202020602068400603D5FFF710
:10418000D6FF4020206010BD007000405400002089
:1041900040420F0010ED00E014040140994A00F085
:1041A000070110684FF6FF03184040EA01209649C6
:1041B000084310607047F0B4924B1B68C3F30223AE
:1041C000C3F10704042C00D904241D1D072D01D2BE
:1041D000002300E0DB1E012606FA04F56D1E0D40EB
:1041E0009D409E40761E164045EA0601F0BC00F058
:1041F000F8B8002809DB00F01F02012191404009B6
:10420000800000F1E020C0F80011704700280DDBAD
:1042100000F01F02012191404009800000F1E020E0
:10422000C0F88011BFF34F8FBFF36F8F7047BFF39C
:104230004F8F74480168744A01F4E061121D114304
:104240000160BFF34F8F00BFFDE710B5401EB0F116
:10425000807F01D3012010BD4FF0E02460610F2169
:10426000601700F0BEF80020A06107202061002048
:1042700010BD64480068C0F302207047F0B5002804
:1042800004DB00F1E02090F8000405E000F00F00EE
:1042900000F1E02090F8140D040901F00700C0F1CE
:1042A0000701042900D90421051D072D01D2002092
:1042B00000E0C01E012724FA00F607FA01F56D1E82
:1042C0002E4007FA00F56D1E254016601D60F0BDFA
:1042D000002809DB00F01F02012191404009800005
:1042E00000F1E020C0F80012704700280DDB410902
:1042F000890001F1E021D1F8001200F01F02012035
:104300009040014201D001207047002070470028F2
:1043100009DB00F01F02012191404009800000F1FB
:10432000E020C0F88012704700280DDB41098900A9
:1043300001F1E021D1F8001300F01F0201209040AC
:10434000014201D001207047002070474FF0E0216A
:104350000428086903D020F004000861704740F089
:104360000400FAE7704710B5FFF7FCFF10BD2549C0
:1043700040F0010088310860BFF34F8FBFF36F8FAB
:104380007047BFF35F8F1F49002088310860704776
:104390001C4A41788C3211600378111D0A1DE3B16B
:1043A00043680B60017BC37A090741EA0361837AA2
:1043B00041EAC341437B41EA8341837B41EA434174
:1043C000C37B41EA0341437A41EA0321037A00783F
:1043D00041EA43010143116070470020086010600A
:1043E00070470907090E002804DB00F1E02080F87F
:1043F0000014704700F00F0000F1E02080F8141D59
:10440000704700000CED00E00000FA052848016844
:1044100041F470010160704770B5264C20680007B8
:1044200004D4D4F89400C0F3032002E02068C0F361
:104430000310214951F82010A068204A10F00C0008
:1044400007D01F4D042806D06E10082805D00C2870
:1044500005D011601CE015601AE0166018E0E068F5
:1044600000F00303E068C0F30210401C022B19D0D7
:10447000032B1AD0B1FBF0F0E168C1F306214143F0
:10448000E068C0F34160401C4000B1FBF0F01060F8
:10449000A0680949C0F303101039085C1168C140D5
:1044A000116070BDB5FBF0F0E6E7B6FBF0F0E3E7B6
:1044B00088ED00E000100240E47300085400002082
:1044C0000024F4004FF0000200B5134694469646CF
:1044D000203922BFA0E80C50A0E80C50B1F1200117
:1044E000BFF4F7AF090728BFA0E80C5048BF0CC0C5
:1044F0005DF804EB890028BF40F8042B08BF704723
:1045000048BF20F8022B11F0804F18BF00F8012B94
:10451000704770477047704710B500F009F80068A1
:1045200010BD10B5044600F003F8046010BD000093
:1045300000487047F806002000487047F806002041
:104540007546FFF7F9FFAE4605006946534620F071
:104550000700854618B020B5FBF774FEBDE8204083
:104560004FF000064FF000074FF000084FF0000B2F
:1045700021F00701AC46ACE8C009ACE8C009ACE8E2
:10458000C009ACE8C0098D46704710B50446AFF3CA
:1045900000802046BDE81040FBF73FBE01491820CF
:1045A000ABBEFEE726000200704703B4019841004D
:1045B000009850EAC12018BF04204A0D18BF40F0EF
:1045C000010040F2FF72B2EB515F08BF40F0020001
:1045D000012808BF052002B070474100080218BF3B
:1045E00004200A0E18BF40F001004FF07F4232EA6B
:1045F000010108BF40F00200012808BF05207047F4
:1046000010B510EE104A4FF01A402DED028B00EB62
:104610004400B0F1C85F4AD84FF0FC40B0EB440F03
:1046200022D2B0EEC00AF7EE000A30EEC00AF6EE73
:10463000000A20EE208A18EE100A01F0DAFF00EEE0
:10464000100A14F0004F1DBF9FED281ADFED280A55
:10465000B1EE400A9FED271A08BFF0EE410AF8EECE
:10466000001A20EE210A05E020EE008A9FED221AB2
:10467000DFED220ADFED221A9FED222A70EEC00A3A
:1046800020EE080A08EE212ADFED1F1A48EE021A72
:104690009FED1E2A08EE212ADFED1D1A48EE021AB0
:1046A000BDEC028B40EE610A30EE810A10BD4FF086
:1046B000CC40B0EB440F82BF9FED160ABDEC028BDD
:1046C00010BD4FF07F40B0EB440F05D2BDEC028B24
:1046D000BDE8104001F034BF0120FFF722FFBDEC20
:1046E000028BBDE8104001F031BF000000004940DE
:1046F00022AA7D3A000000000000C93F22AAFD392D
:1047000024FE1C3DC78AD83C1E67383D1B93993D4B
:10471000AFAA2A3EDB0FC93F10B54FF00E402DED7A
:10472000028BB0EE408A18EE104A00EB4400B0F164
:10473000506F4AD84FF0FC40B0EB440F22D2B0EE9D
:10474000C80AF7EE000A30EEC00AF6EE000A60EE84
:10475000208A18EE900A01F04CFF01EE100A14F0C6
:10476000004F1DBFDFED2D0A9FED2D0AB1EE411A5E
:10477000DFED2C0A08BF9FED2C0AF8EE001A21EE9F
:10478000218A05E0DFED290A68EE088AB0EE600AAA
:104790009FED271ADFED271A30EE080A48EE811A3E
:1047A0009FED251A08EEA11ADFED241A48EE811AB2
:1047B0009FED231A08EEA11A68EE281ABDEC028BB1
:1047C00001EE810A30EE200A10BD4FF0E440B0EB5C
:1047D000440F0CD918EE100AFFF7FFFE042808BF9B
:1047E00001F0BCFEB0EE480ABDEC028B10BD4FF0EC
:1047F0007F40B0EB440F07D2B0EE480ABDEC028B0D
:10480000BDE8104001F09CBE0120FFF78AFEBDEC20
:10481000028BBDE8104001F099BE00000000C9BF46
:1048200022AAFDB90000C93F22AAFD3900000000FC
:1048300024FE1C3DC78AD83C1E67383D1B93993D1A
:10484000AFAA2A3E70B54FF068422DED048BF0EE12
:10485000408A18EE900AB0EE608A18EE101A02EB49
:104860004003B3F1654F3CBF02EB4102B2F1654F2B
:104870007DD200BFC0F3C753C1F3C7529A1A1B2A97
:1048800009DD10F0004F14BF9FED830A9FED830AEE
:10489000BDEC048B70BD12F11A0F36DA11F0004F27
:1048A00009D010F0004F0CBF9FED7D0A9FED7D0AEF
:1048B000BDEC048B70BD88EE889A19EE100AFFF7E4
:1048C0008CFE042808BF01F049FE18EE900AFFF79D
:1048D00084FE054618EE100AFFF77FFE044619EE27
:1048E000100AFFF77AFE042D18BF052D08D1042CFD
:1048F00018BF052C04D1002804BF0220FFF711FEC9
:10490000B0EE490ABDEC048B70BD4200B2EB410F22
:104910003AD910F0004F19BFDFED630A9FED630A2B
:10492000DFED630A9FED630AB0EE481A0A46B1EE66
:10493000688A80F00041F0EE418A10460A1A52005F
:10494000B2F1807F34D2484010F0004FDFED5A1AA8
:104950009FED5A2A1DBFBEEE001A70EEE10A30EE3E
:10496000420AB6EE001A08BF70EEA10A00E040E06D
:1049700008BF30EE020AB0EE682A01EE482A08EEBF
:10498000818AC2EE081A15E011F0004F04BF9FEDB6
:104990004C0AF0EE400AD1D010F0004F19BFDFED05
:1049A000490A9FED490ADFED490A9FED490AC5E72B
:1049B000C8EE881A21EEA11A9FED462ADFED462A9D
:1049C00041EE022A9FED452A01EE222ADFED442A1C
:1049D00041EE022A9FED432ABDEC048B01EE222A10
:1049E00021EE811A01EE020A30EE210A30EE200A91
:1049F00070BD4FF07F42B2EB400F28BFB2EB410FCA
:104A000009D2F0EE480AB0EE680ABDEC048BBDE8AE
:104A1000704001F098BD40EA01035B0008BF41F01F
:104A2000FF410BD0B2EB400F08BFB2EB410F08D1F2
:104A300020F0804008EE900A21F0804108EE101A24
:104A400018E7B2EB400F12BF5FEA410340F0FF40AE
:104A500001F000413FF40EAFB2EB410F12BF5FEA2D
:104A6000400200F0004041F0FF413FF403AF4A0034
:104A700092EA40033FF5FEAE002AACBF9FED1A0A52
:104A80009FED1A0A68EE808A28EE008A18EE900AD6
:104A900018EE101AEEE60000DB0FC9BFDB0FC93FAE
:104AA000DB0F4940DB0F49C00000C9BF22AAFDB996
:104AB0000000C93F22AAFD390060ED3EC30ACE378F
:104AC00000000000000049C022AA7DBA0000494051
:104AD00022AA7D3A2DAD65BD8FB8D53D0FB511BE6B
:104AE00061C84C3EA8AAAABE0000804F0000802FDB
:104AF0002DE9F04D2DED040B2DED0E8B96B0DDE97B
:104B00002550279CDDF890A025F0004624F00048B1
:104B1000BAF1000F14BF0121002101EB4502FC494D
:104B200053184A1093422AD3002814BF01230023AC
:104B300003EB44030B44F7498B4220D358EA0001AE
:104B40009FEDF59B76D0DFF8D8B35D4503D1BAF180
:104B5000000F05D188E0BAF1000F08BF002100D096
:104B6000012101EB450111F5001F08D8002814BFF1
:104B70000121002101EB440111F5001F0BD99DED2E
:104B8000261B9DED240B16B000F0DABD04B0BDE885
:104B9000F04D01F09BBC0027002DBCBFE1498845CA
:104BA00021DAE1498845A8BF02271CDAC3451ADC8F
:104BB000DE4901EB2851142908DDC1F1340220FA45
:104BC00002F101FA02F282420DD108E058B9C1F1B6
:104BD000140228FA02F101FA02F2424503D101F06F
:104BE0000101C1F1020756EA0A0124D1002C22DAA0
:104BF000002D18BF022F01D0012F0AD00220FFF78D
:104C000090FC16B000F0A2BD04B0BDE8F04D01F07C
:104C10003BBC0220FFF785FC01F036FC51EC100B89
:104C200001F006FD41EC100B16B000F095BD04B08C
:104C3000BDE8F08D18E09FEDBEAB9FEDBF8B002867
:104C400071D1B848804522D105F1804010F580101F
:104C500008BFBAF1000F07D0B3450ADC002CA8BF8B
:104C60009DED260BE0DA0DE0B0EE490AF0EE690AA0
:104C7000DAE7002C06DA9DED260B51EC100B01F063
:104C8000D7FC6FE0AE48784490ED000BCCE7D845F8
:104C90004DD1002C48DA2EB186423AD1BAF1000F3C
:104CA00042D126E0BAF1000F13D00220FFF739FC01
:104CB00001F026FC8DED020B9DED240B8DED000B1C
:104CC00010EE900A039961F31E0003909DED020B14
:104CD000AAE78DED02AB9DED240B1AEE901A10EEB3
:104CE000900A8DED000B61F31E0003909DED020B09
:104CF0009AE78DED028B9DED240B18EE901A10EEC5
:104D0000900A8DED000B61F31E0003909DED020BE8
:104D10008AE709DA9DED240B51EC190B53EC102BAB
:104D200001F080FD1EE020E09DED240B7CE7864233
:104D30001BDAB4F1804F0DD0A4F10050B0F1FF5058
:104D400013D1002D11DB9DED240B51EC100B01F064
:104D500019FC07E09DED240B53EC102B51EC100BCC
:104D600000F0C2BC41EC100B5EE79DED240B51EC52
:104D7000100B01F0FBFBBAF1000FCDE90E0142D19F
:104D80009FED710B46B3A6F1E040B0F17F600CD00F
:104D90005E4538D1002D00DAA7B3022F0CBF0120E9
:104DA0004FF0FF3001F0C5FEDCE7002D01DD002CE7
:104DB0000DDA002D01DD002C1FDB002D16DA002C92
:104DC00014DB012F08BF9FED620B3FF42DAFB0EE57
:104DD0004A0AF0EE6A0A27E7022F18BF002D0CD00E
:104DE000012F0AD1002DFFF61FAF06E0002DB8BF3E
:104DF000002C08DA012F3FF417AFB0EE480AF0EEAE
:104E0000680A11E71BE0012000EBE57050EA07019A
:104E100015D0791EB0EE498AF0EE698A084308BFC2
:104E20009FED4D8B4E480025804570DD4D494E4825
:104E3000884514DDB0420DDB002C19DB2FE001208A
:104E4000FFF76FFB16B000F08DBC04B0BDE8F04D6D
:104E500001F046BBB34502DC002C09DC1FE08642B2
:104E600002DA002C1BDA03E05E452BDD002C16DD98
:104E70000220FFF756FB01F043FB8DED020B53ECD4
:104E80001A2B51EC180B01F0BBFECDE90001039980
:104E9000019861F31E0003909DED020BC4E6022011
:104EA000FFF73FFB01F03CFB10EE901A18EE900A62
:104EB0008DED020B8DED008B61F31E0003909DEDD7
:104EC000020BB1E69DED0E0B53EC192B51EC100BC0
:104ED00002F0A2F89FED260BCDE9080153EC102B50
:104EE0009DED080B51EC100B01F08AFE9FED221B8B
:104EF00053EC112B01F0B8FF9DED081B53EC112B67
:104F000001F07EFE9FED1E1B53EC112B3CE08CE06C
:104F1000FFFF1F00FFFF0F00000000000000F03F38
:104F20000000F03F0000F07F0000404301FCFFFF65
:104F3000000000000000F07F000000000000000002
:104F40004E2800000000000000000000000000806B
:104F5000000000000000F0FF000000000000F0BFB3
:104F60000000E0410000F043FFFFEF3F00000000C1
:104F7000000000000000D03F555555555555D53F10
:104F8000000000000000E03F01F06EFF9DED080B07
:104F900041EC1A0B53EC102B51EC100B01F030FECE
:104FA00053EC1A2B01F02CFE41EC1A0B9FEDFE0B7B
:104FB00053EC102B9DED080B51EC100B01F020FE73
:104FC00041EC1B0B9FEDFA0B51EC1A0B53EC102B21
:104FD00001F016FE41EC1A0B9FEDF70B53EC102B72
:104FE0009DED080B51EC100B01F00AFE53EC1A2B4F
:104FF00002F012F841EC1A0B51EC1B0B53EC1A2B7C
:1050000001F054FB0690CDE906519DED060B53ECE3
:105010001B2B51EC100B01F0FFFF53EC1A2B01F08E
:1050200023FF41EC100B00F0A1B90020B6F5801F62
:105030000EDA9FEDE30B53EC102B9DED0E0B51ECB4
:10504000100B01F0DDFDCDE90E016FF034000E46CE
:1050500000EB2650A0F2FF37C6F31300DA4940F008
:105060007F6646F040568842D8BF002408DDD74905
:105070008142C8BF012403DC0024A6F580167F1CF2
:10508000D348784400EBC4000F9690ED00CB9DED23
:105090000E0B53EC1C2B51EC100B01F0BDFF9DEDE2
:1050A0000E0B41EC1B0B53EC1C2B51EC100B01F0C5
:1050B000FDFA41EC100B51EC190B53EC102B01F0E5
:1050C000B1FB41EC1D0B51EC1B0B53EC1D2B01F004
:1050D00097FD41EC1A0BBF488DED10AB784410954D
:1050E00090ED000B4FF0005040EA660000EB84406A
:1050F0008DED080B00F5002009909DED080B53EC99
:105100001C2B51EC100B01F087FF9DED0E1B53EC97
:10511000112B01F0A9FE41EC100B53EC102B9DED6F
:10512000100B51EC100B01F06BFD9DED080B41ECE9
:105130001C0B53EC102B9DED100B51EC100B01F0E0
:105140005FFD53EC1B2B01F08FFE53EC1C2B01F089
:1051500063FF53EC1D2B01F053FD41EC1C0B53EC92
:105160001A2B51EC1A0B01F04BFD41EC1B0B9A482A
:105170000621B0EE4B0AF0EE6B0A784400F0B4FE64
:10518000B0EE401AF0EE601AB0EE41DAF0EE61DAFD
:1051900053EC1B2B51EC1B0B01F032FD53EC1D2B80
:1051A00001F02EFD9DED100B41EC1B0B53EC1A2B67
:1051B00051EC100B01F07AFA53EC1C2B01F020FD9E
:1051C00053EC1B2B01F072FA9DED100B41EC1B0B05
:1051D00053EC102B51EC100B01F012FD41EC1D0BA8
:1051E0009FED7FEB53EC1E2B01F060FA53EC1B2B71
:1051F00001F05CFA0890CDE908519DED080B53ECE5
:105200001E2B51EC100B01F007FF53EC1D2B01F08E
:1052100003FF53EC1B2B01F027FE9DED080B41EC27
:105220001D0B53EC102B9DED100B51EC100B01F0EE
:10523000E7FC41EC1B0B53EC1A2B51EC1D0B01F05E
:10524000DFFC9DED080B41EC1A0B53EC102B51ECDD
:105250001C0B01F0D5FC53EC1A2B01F027FA41ECA2
:105260001A0B51EC1B0B53EC1A2B01F01FFA0C908C
:10527000CDE90C519DED0C0B53EC1B2B51EC100B9D
:1052800001F0CAFE53EC1A2B01F0EEFD41EC1B0BB2
:105290009FED550B53EC102B9DED0C0B51EC100BAF
:1052A00001F0AEFC41EC1A0B9FED510B51EC1B0BC6
:1052B00053EC102B01F0A4FC41EC1B0B9FED4E0BAB
:1052C00053EC102B9DED0C0B51EC100B01F098FCE6
:1052D00053EC1B2B01F0EAF941EC100B48487844E1
:1052E00000EBC40090ED001B51EC100B53EC112BA4
:1052F00001F0DCF941EC1B0B384601F01AFCCDE95A
:10530000080153EC1B2B51EC1A0B01F0CFF941ECC7
:10531000100B3C48784400EBC40090ED00CB51ECFE
:10532000100B53EC1C2B01F0C1F99DED081B53EC45
:10533000112B01F0BBF90690CDE906519DED080B4C
:1053400053EC102B9DED060B51EC100B01F064FE9D
:1053500053EC1C2B01F060FE53EC1A2B01F05CFEA9
:1053600053EC1B2B01F080FD41EC100B9DED261B37
:1053700053EC102B8DED001B00959DED260B51EC91
:10538000100B01F03DFC9DED000B41EC1A0B53ECB2
:10539000102B9DED260B51EC100B01F03DFE9DED09
:1053A000061B53EC112B2FE0000000604715F73F60
:1053B000FE822B654715F73F44DF5DF80BAE543E88
:1053C00000000000000040438E9803007AB60B00F6
:1053D0009A230000F8230000D22200000000000001
:1053E0000000000000000840000000E009C7EE3F98
:1053F000FD033ADC09C7EE3FF5015B14E02F3EBE2A
:105400005E2100001821000001F0FAFB53EC1A2B7A
:1054100001F04CF99DED060B41EC1A0B53EC102BEF
:105420009DED000B51EC100B01F0EAFBCDE90C01F6
:105430009DED0C0B51EC1A0B53EC102B01F036F9CF
:10544000CDE902010C46AA498C422FDB611A0843C0
:1054500018D19DED0C0B53EC102B9DED020B51EC74
:10546000100B01F0D9FD41EC1B0B9FEDA30B51EC90
:105470001A0B53EC102B01F019F953EC1B2B01F014
:10548000BDFC2DD20220FFF74CF801F039F810EEE8
:10549000901A18EE900A8DED020B8DED008B61F3E2
:1054A0001E0003909DED020BFFF7BEBB944A24F053
:1054B0000041914214D39349214408437FF4EFAC57
:1054C0009DED0C0B53EC102B9DED020B51EC100BD2
:1054D00001F0A2FD53EC1A2B01F090FC7FF6DFAC3B
:1054E00024F000408849894A002601EB205182427D
:1054F0002BDA481C4FF4801121FA00F02044844A32
:10550000C0F30A517A44A1F2FF3192ED000B814AB7
:105510008DED080BCA4020EA0202C0F3130040F4EC
:105520008010C1F1140120FA01F60992002CB8BFD5
:1055300076429DED080B53EC102B9DED0C0B51ECBE
:10554000100B01F069FDCDE90C019DED0C0B51EC48
:105550001A0B53EC102B01F0A9F89FED6F0B08907C
:10556000CDE9085153EC102B9DED080B51EC100BBD
:1055700001F046FB41EC1B0B9FED690B53EC102B2C
:105580009DED080B51EC100B01F03AFB9DED0C0B5F
:1055900041EC1C0B53EC102B9DED080B51EC100B48
:1055A00001F03AFD53EC1A2B01F05EFC9FED5E1BFF
:1055B00053EC112B01F024FB53EC1C2B01F076F87B
:1055C00041EC1A0B51EC1B0B53EC1A2B01F06EF84B
:1055D000CDE902019DED020B53EC1B2B51EC100B9E
:1055E00001F01AFD53EC1A2B01F03EFC9DED020B6D
:1055F00041EC1A0B53EC102B51EC100B01F000FB9B
:10560000CDE908014A489DED080B0521784400F0DA
:105610006BFC9DED081B51EC100B53EC112B01F0B2
:10562000EFFA9DED021B53EC112B01F01DFCCDE9AF
:1056300006019DED020B53EC1A2B51EC100B01F0FF
:10564000DFFA53EC1A2B01F031F89FED3B0B41ECE4
:105650001A0B53EC102B9DED060B51EC100B01F0C7
:10566000DBFC9DED060B41EC1B0B53EC102B9DED71
:10567000020B51EC100B01F0C3FA53EC1B2B01F0A1
:10568000D1F853EC1A2B01F0C7FC9DED021B53EC33
:10569000112B01F0C1FC53EC192B01F0E5FBCDE916
:1056A000020101EB065001150029C8BF039015DC6B
:1056B0009DED020B324651EC100B01F044FEFEF75B
:1056C00074FF042808BF00F02BFF32469DED020B4B
:1056D00051EC100B01F037FECDE902019DED020BFC
:1056E00051EC180B53EC102B01F08AFAFFF73ABB80
:1056F0000000904000000000FE822B654715973C9B
:1057000000CC904000346F3F01FCFFFF0000E03F01
:10571000D01F0000FFFF0F0000000000432EE63FF7
:10572000396CA80C615C20BEEF39FAFE422EE63FD0
:10573000701E00000000000000000000000000409B
:10574000BDEC088BBDEC06CBFFF720BABDEC088B97
:10575000BDEC06CBFFF758BABDEC088BBDEC06CB11
:10576000FFF765BABDEC088BBDEC06CBFFF76DBB50
:1057700010B52F499FED2C1B2DED020B84B0059821
:1057800020F000408842DCBF00209DED040B32DD9C
:105790002849884209D1049840B94FF00100FEF72A
:1057A000C0FE00F09DFE06B010BD05DB9DED040BB4
:1057B00000F082FE06B010BD68469DED040B00F0BF
:1057C000BBF810F0030011D0012818D09DED021B8A
:1057D0009DED000B02281AD000F0CEFA51EC100B10
:1057E00000F026FF06B041EC100B10BD9DED021B32
:1057F0009DED000B012000F0F3FB06B010BD9DED08
:10580000021B9DED000B00F0B7FA06B010BD0120A1
:1058100000F0E6FB51EC100B00F00AFF06B041EC83
:10582000100B10BD00000000000000000000000090
:10583000FB21E93F0000F07F00B52DED048BB0EEB9
:10584000409AF0EE609A83B051EC190B01F018FB0E
:1058500041EC180B18EE100A18EE901A8DED008B23
:10586000002818BF0120084320F00040C0F17F60ED
:1058700000F1E040C00F14D019EE101A19EE900A92
:105880008DED009B002918BF0121084320F0004046
:10589000C0F17F6000F1E040C00F04BF0120FEF7BF
:1058A00040FEB0EE480A03B0F0EE680ABDEC048B8F
:1058B00000BD00000000000010B51D499FED1A1B3F
:1058C0002DED020B84B0059820F000408842DCBF2B
:1058D00001209DED040B21DD1649884209D1049871
:1058E00040B94FF00100FEF71CFE00F0F9FD06B0D4
:1058F00010BD05DB9DED040B00F0DEFD06B010BD14
:1059000068469DED040B00F017F800F0010001213E
:10591000A1EB40009DED021B9DED000B00F004FC8F
:1059200006B010BD000000000000000000000000F4
:10593000FB21E93F0000F07F2DE9F14F04462DEDFA
:10594000020B2DED088B8AB09FEDE70B80ED020B6B
:10595000139EE74826F0004585420ADC9DED120BB8
:10596000002084ED000B0AB0BDEC088B03B000F002
:10597000FFB9E0489FEDE0AB9FEDE1BBA84247DDFA
:10598000E14F9FEDE39B9FEDE48B9DED120B53ECFC
:105990001A2B51EC100B002E1CDD01F03DFB41ECED
:1059A000100BBD4208D053EC1B2B51EC100B01F037
:1059B00033FBC4E900010BE053EC192B51EC100B45
:1059C00001F02AFB53EC182B01F026FBC4E900017F
:1059D0000120C8E700F06AFE41EC100BBD4208D080
:1059E00053EC1B2B51EC100B00F060FEC4E90001DE
:1059F0000BE053EC192B51EC100B00F057FE53EC5D
:105A0000182B00F053FEC4E900014FF0FF30AAE765
:105A1000C348A84279DB9DED120B51EC100B00F04E
:105A2000A5FD41EC180B9FEDC00B53EC102B01F0C2
:105A3000E7F89FEDBF1B53EC112B00F037FE01F090
:105A400049F8074601F075F841EC190B53EC1A2B95
:105A500001F0D6F853EC182B01F006FA41EC180BC4
:105A600053EC1B2B51EC190B01F0CAF8DFF8C8A25C
:105A700041EC100B4FEA15580125FA4453EC102B5A
:105A800051EC180B01F0C8FA032DC4E900013DD018
:105A9000C1F30A5005EB4511A8EB00001139814212
:105AA00034DA0AEB051BB0EE48AA9BED000BF0EED2
:105AB00068AA53EC102B51EC190B01F0A1F841EC42
:105AC0001B0B51EC1A0B53EC1B2B01F0A5FA41EC0C
:105AD000180B51EC1A0B53EC182B01F09DFA53ECF8
