:020000040800F2
:10000000080A002029020008690700086B07000899
:100010006D0700086F070008710700080000000066
:10002000000000000000000000000000730700084E
:10003000750700080000000077070008790700082E
:10004000430200084302000843020008430200087C
:10005000430200084302000843020008430200086C
:10006000430200084302000843020008430200085C
:10007000430200084302000843020008430200084C
:10008000430200084302000843020008430200083C
:10009000430200084302000843020008430200082C
:1000A000430200084302000843020008430200081C
:1000B000430200084302000843020008430200080C
:1000C00043020008430200084302000843020008FC
:1000D00043020008430200084302000843020008EC
:1000E00043020008430200084302000843020008DC
:1000F00043020008430200084302000843020008CC
:1001000043020008430200084302000843020008BB
:1001100043020008430200084302000843020008AB
:10012000430200084302000843020008430200089B
:10013000430200084302000843020008430200088B
:10014000430200084302000843020008430200087B
:10015000430200084302000843020008430200086B
:10016000430200084302000843020008430200085B
:100170004302000843020008430200080000000098
:10018000430200084302000800F002F800F03CF8C7
:100190000AA090E8000C82448344AAF10107DA45E2
:1001A00001D100F031F8AFF2090EBAE80F0013F0F8
:1001B000010F18BFFB1A43F0010318470456000053
:1001C00024560000103A24BF78C878C1FAD85207E4
:1001D00024BF30C830C144BF04680C6070470000C1
:1001E0000023002400250026103A28BF78C1FBD840
:1001F000520728BF30C148BF0B6070471FB505F0DC
:100200001CFA1FBD10B510BD04F00CF81146FFF725
:10021000F5FF00F01BFA04F02AF803B4FFF7F2FF31
:1002200003BC04F02DF80000094880470948004746
:10023000FEE7FEE7FEE7FEE7FEE7FEE7FEE7FEE796
:10024000FEE7FEE704480549054A064B70470000F3
:10025000F14000088901000808040020080A002075
:100260000806002008060020491E03D412F8013BAE
:100270004354F9E7704773B584B000200D460290EF
:1002800004AA042101A8FFF7EFFF049A4FF090445D
:10029000A2F11050C73823D0A2F12050CD381FD082
:1002A000A2F13050CB381BD01021204602F004FFC1
:1002B000012813D100221021204602F002FF4FF640
:1002C000FF73042201A9B44800F01EFC0122102192
:1002D000204602F0F6FE284601F0CFFF06B070BDC2
:1002E0001021204602F0E8FE0128F7D1002210215B
:1002F0002646204602F0E5FE4FF480742346042291
:1003000001A9A54800F000FC01221021304602F0AE
:10031000D8FE284601F0B1FF00221021304602F03D
:10032000D0FE042302AA01A99B48009400F0EBFC34
:1003300001221021304602F0C4FE284601F09DFF44
:100340009DF80A009DF8091000EB012080B2C5E776
:1003500010B501219148FFF78EFF01219048FFF76A
:100360008AFF01218F48FFF786FF19218E48FFF78A
:1003700082FF8E4C01212046FFF77DFF2046BDE81D
:100380001040012177E710B5FF221F2120FA01F369
:1003900013F0010F02F0800301D083F080035206B6
:1003A000120E0BB182F01D02491EC9B20729EDD809
:1003B000D043C0B210BD30B57E4B7D4C9968DD682E
:1003C00054F82120821A2A44DA6044F82100491C9A
:1003D00001F03F009860D01702EB9060801100B2EE
:1003E00030BD30B5734B744C19695D6954F82120E8
:1003F000821A2A445A6144F82100491C01F03F0046
:100400001861D01702EB9060801100B230BD30B59A
:10041000684B6A4C19685D6854F82120821A2A4496
:100420005A6044F82100491C01F03F001860D017C1
:1004300002EB9060801100B230BD70B58AB0044606
:100440005F4807905F4808905F48099007AA042119
:1004500004A8FFF709FF08AA042105A8FFF704FF75
:1004600009AA042106A8FFF7FFFE4FF090461021CD
:10047000304602F021FE01284FD1002210213046E3
:1004800002F01FFE4FF6FF752B46042204A94248D6
:1004900000F03AFB01221021304602F012FE01204A
:1004A00001F0EBFE00221021304602F00AFE042388
:1004B00001AA05A93848009500F025FC0122102169
:1004C000304602F0FEFD012001F0D7FE002210218F
:1004D000304602F0F6FD042302AA06A92E48009534
:1004E00000F011FC01221021304602F0EAFD01204B
:1004F00001F0C3FE00221021304602F0E2FD2B463F
:10050000042203A9244800F02DFD012210213046C9
:1005100002F0D7FD012001F0B0FE9DF806009DF825
:10052000051000EB012000B2FFF771FF00EE100A8A
:10053000F8EEC00A9FED250A20EE801ADFED240AAE
:1005400021EE201A84ED001A9DF80A009DF809108A
:1005500000EB012000B2FFF744FF01EE100AB8EEF5
:10056000C11A21EE001A21EE201A84ED011A9DF81D
:100570000E009DF80D1000EB012000B2FFF71BFFED
:1005800001EE100AB8EEC11A21EE000A20EE200A90
:1005900084ED020A0AB070BD280300201F0000B4D9
:1005A000982000B4380300B46F1F00B0E5000018B5
:1005B0002801002000000020280200202800002040
:1005C000C7000024CD000028CB00002C000080389C
:1005D0000000B44272B6FEE710B596B044216846FA
:1005E00003F0E2FD142111A803F0DEFD4FF40070CA
:1005F00003F00BF908B172B6FEE71020009001205D
:10060000002460210690CDE907410221CDE90A10BE
:100610000C9020200D900720CDE90E016846109126
:1006200001F0CFFF08B172B6FEE70F201190032052
:10063000CDE912040146149411A8159402F047FA6A
:10064000002801D072B6FEE716B010BD2DED048B68
:1006500086B001F0CFFDFFF7BFFF1421684603F01D
:10066000A3FD3A48C16C41F00101C164C06C4FF078
:10067000904400F00100059001221021204602F074
:1006800020FD10210120CDE90010002102910391ED
:100690006946204602F0B0FB00F036F80122102136
:1006A000204602F00EFDFFF753FE294DDFED299A9B
:1006B0009FED299A9FED298B05F10C062448FFF741
:1006C000BCFE002405EB840090ED000A60EE290AD0
:1006D00080EE890A10EE100A04F03EFF41EC100B88
:1006E00003F0EEFDB0EE481AF0EE681A53EC112B51
:1006F00051EC100B04F03CFD04F0AEFA46F8240077
:10070000641C032CDED3D9E7114810B564381549B1
:1007100001604FF48271416000214FF4E062C0E952
:1007200002124FF400720161C0E905122022C0E9F3
:10073000072107224162C0E90A120163416300F008
:1007400072F8002801D072B6FEE710BD001002401A
:100750008C030020DB0F4940000034430000000000
:100760000000994000300140FEE7FEE7FEE7FEE7AB
:10077000FEE770477047704701F061BD274808B534
:10078000016E41F001010166016E01F0010100916D
:10079000816D41F080518165806D00F08050009046
:1007A00008BD10B586B004461421684603F0FCFC71
:1007B0001B49206888421FD11848016E41F48051BE
:1007C0000166016E01F480510591C16C41F0010197
:1007D000C164C06C694600F001000590E020009003
:1007E0000220019000200290032003900520049035
:1007F0004FF0904002F000FB06B010BD00680849C1
:10080000884209D10548016E21F480510166E0213A
:100810004FF0904002F0C8BB70470000001002404B
:1008200000300140704770B5040009D0606A0025AF
:1008300040B125616561A56294F85D0040B10CE0AE
:10084000012070BD6068B0F5827FF4D0E561F2E709
:1008500084F85C502046FFF7A4FF022084F85D0076
:100860002068016821F040010160E0684FF4E06217
:10087000904201D9002101E04FF48051B0F5706F32
:1008800002D0904200D0A562A088228900F4827034
:1008900002F404421043227C02F002021043227D43
:1008A00002F001021043228B02F400721043227FF7
:1008B00002F03802104394F8202002F08002104326
:1008C000228D02F40052104322681060A0690422B5
:1008D00002EA104094F8242001F4805102F0100242
:1008E000104394F8342002F008021043A28902F465
:1008F000706210430843216848602566012084F82F
:100900005D00002070BD704710B5040011D00220BA
:1009100084F85D002068016821F0400101602046F4
:10092000FFF76CFF0020206684F85D0084F85C000F
:1009300010BD012010BD2DE9FC5F4FF0000B984663
:1009400016460F4604460C9D8DF804B001F07DFC60
:10095000411BA8EB010501F078FC8246206800F1FC
:100960000C09F7480068C0EBC00000EB8000000DE8
:10097000684343E0B7F5C06F06D12EB999F800007F
:100980008DF804009DF80400B8F1FF3F37D001F066
:100990005CFCA0EB0A00A84203D215B1009858B342
:1009A0002BE02068416821F0E00141606068B0F50B
:1009B000827F0BD1A068B0F5004F02D0B0F5806FF8
:1009C00004D12068016821F040010160A06AB0F5FF
:1009D000005F09D12068016821F40051016020689E
:1009E000016841F400510160012084F85D0084F841
:1009F0005CB0032001F0D6BB0025401E00902068AB
:100A000080683840B042B5D10020F3E72DE9F843C3
:100A10001E46914688460446089D01F016FC401B80
:100A2000351A01F012FC0746C5480068C0F3CB3008
:100A3000684338E0701C37D001F007FCC01BA842A7
:100A400003D215B1009860B32CE02068416821F012
:100A5000E00141606068B0F5827F0BD1A068B0F51D
:100A6000004F02D0B0F5806F04D12068016821F0FA
:100A700040010160A06AB0F5005F09D120680168FB
:100A800021F4005101602068016841F400510160C7
:100A9000012084F85D00002084F85C000320BDE89C
:100AA000F8830025401E00902068816838EA010024
:100AB00004D000204845BDD10020F0E70120F9E72F
:100AC000F8B515460E460B460092044600224FF438
:100AD000C051FFF730FF88B93346002280212046FD
:100AE0000095FFF793FF48B9334600224FF4C061E9
:100AF00020460095FFF71FFF002804D0206E40F02D
:100B0000200020660320F8BD2DE9F84F044690F838
:100B10005C0000261D469046894601280ED04FF005
:100B2000010B84F85CB001F090FB074694F85D007F
:100B30004146B246012804D00226A5E0022001F079
:100B400034BBB9F1000F76D0B8F1000F73D0032099
:100B500084F85D00C4F860A0C4F83890A4F83C8024
:100B6000A4F83E80C4F840A0A4F844A0A4F846A08D
:100B7000C4F850A0C4F84CA0A068B0F5004F09D14B
:100B80002068026822F0400202602068026842F495
:100B90008042026020680268520603D4026842F074
:100BA00040020260E068B0F5E06F606822D908B1E9
:100BB00001291BD1A06B21680088C86006E020686D
:100BC0008168890709D5A16B0988C160A06B801C69
:100BD000A063E08F401EE08708E001F036FBC01BF9
:100BE000A84202D3681C01D045E0A5B3E08F0028DD
:100BF000E5D135E008B101292FD1E08F0128A06BA4
:100C000003D921680088C8600FE021680078087364
:100C100014E0E08721E020688168890714D5E18F1E
:100C20000129A16B08D90988C160A06B801CA06351
:100C3000E08F801EEDE726E009780173A06B401C71
:100C4000A063E08F401EE4E701F0FFFAC01BA8425A
:100C500002D3681C01D00EE06DB1E08F0028DAD11C
:100C60003A4629462046FFF72BFF08B12020206690
:100C7000A06810B105E0032606E02068C16880681E
:100C80000090206E00B1012684F85DB084F85CA06D
:100C9000304654E72DE9F843044640684FF4827625
:100CA000154689464FF400474FF48068B04209D199
:100CB000A068B84201D0404504D12068016821F005
:100CC000400101604B460022802120460095FFF73D
:100CD0009DFE80B96068B04213D1A068B84201D0CF
:100CE00040450ED14B4600224FF4C061204600958E
:100CF000FFF721FE28B1206E40F02000206603207F
:100D0000CDE60020CBE62DE9F05F044690F85C00CC
:100D100001250A9E1F4692468B464FF00008012887
:100D200010D0012084F85C0001F08FFA814694F81D
:100D30005D00616801280ED0B1F5827F09D104E021
:100D400024000020022001F033BAA16809B9042868
:100D500001D0022004E1BBF1000F24D0BAF1000F52
:100D600021D007B394F85D00042802D0052084F850
:100D70005D0000202066C4F840A0A4F84670A4F8E6
:100D80004470C4F838B0E787A787E0642065E0685E
:100D90004FF4E061884201D8012F06D920684268EB
:100DA00022F4805205E00120DAE02068426842F433
:100DB0008052426020680268520603D4026842F002
:100DC00040020260E0688842606842D908B1012FA1
:100DD00037D1A06B21680088C860A06B801CA0631D
:100DE000E08F401EE0872CE02068816889070DD5E0
:100DF000E18F59B1012D09D1A16B0988C160A06BA8
:100E0000801CA063E08F401EE08700252068816879
:100E1000C9070ED0B4F8461059B1C068216C0880DB
:100E2000206C801C2064B4F84600401EA4F84600E4
:100E3000012501F00AFAA0EB0900B04201D3701CB1
:100E400072D1E08F0028CFD1B4F846000028CBD172
:100E500073E008B1012F69D1E08F0128A06B08D998
:100E600021680088C860A06B801CA063E08F801E92
:100E700007E0216800780873A06B401CA063E08F36
:100E8000401EE08752E020688168890718D5E18F0D
:100E9000B1B1012D14D1E18F0129A16B07D90988C6
:100EA000C160A06B801CA063E08F801E06E0097803
:100EB0000173A06B401CA063E08F401EE0870025FB
:100EC00020688168C90727D0B4F8461021B3B4F868
:100ED0004610012914D9C068216C0880206C801C40
:100EE0002064B4F84600801EA4F84600B4F846001A
:100EF000012810D82068416841F4805141600AE01F
:100F0000007B216C0870206C401C2064B4F8460003
:100F1000401EA4F84600012501F097F9A0EB090056
:100F2000B04202D3701C01D019E0C6B1E08F002896
:100F3000A9D1B4F846000028A5D14A46314620463A
:100F4000FFF7BEFD18B120204FF0010820660120F8
:100F500084F85D00002084F85C004046F3E603203E
:100F60008046F4E72DE9F84F0446406800261D4608
:100F7000904689464FF0040BB0F5827F01D1A068FE
:100F800088B194F85C00012816D0012084F85C0038
:100F900001F05BF9074694F85D004FF0000A012864
:100FA0000CD0022692E084F85DB0009313460A4606
:100FB0002046FFF7A8FEC2E50220C0E5B9F1000F08
:100FC00073D0B8F1000F70D084F85DB0C4F860A0A1
:100FD000C4F84090A4F84480A4F84680C4F838A02F
:100FE000A4F83CA0A4F83EA0C4F84CA0C4F850A0BB
:100FF000E0684FF4E06188422068426802D922F438
:10100000805201E042F480524260A068B0F5004F87
:1010100009D12068026822F040020260206802685C
:1010200022F48042026020680268520603D40268FB
:1010300042F040020260E068884219D937E0206837
:101040008168C9070BD0007B216C0870206C401CA4
:101050002064B4F84600401EA4F8460008E001F001
:10106000F4F8C01BA84202D3681C01D036E0A5B337
:10107000B4F846000028E2D11DE020688168C90765
:101080000BD0C068216C0880206C801C2064B4F8F0
:101090004600401EA4F8460009E001F0D6F8C01B47
:1010A000A84203D3681C02D018E00EE0ADB1B4F83A
:1010B00046000028E1D13A4629462046FFF7EAFDDE
:1010C00008B120202066206E00B10126012084F89E
:1010D0005D0084F85CA0304631E5FFE70326F5E7C4
:1010E0007047704738B5044601F0AFF802462068F3
:1010F000416821F0A001416064212046FFF7E0FC37
:1011000018B1206E40F020002066A06818B9206851
:10111000C16880680090012084F85D00206E00287E
:10112000204602D0FFF7DDFF38BDFFF7D9FF38BDFD
:10113000816B026809781173816B491C8163C18FCF
:10114000491EC187C18F002900D1CBE77047816B51
:1011500002680988D160816B891C8163C18F491E37
:10116000C187C18F002900D1BCE7704730B590F826
:101170005C400023012C0BD0012480F85C4000244B
:1011800041B13AB190F85D50012D05D0022333E012
:10119000022030BD01232FE0032580F85D50046656
:1011A00081638287C2870464A0F84440A0F8464067
:1011B000C464C168B1F5E06F01D9FE4900E0FE49A1
:1011C00001658168B1F5004F09D101680A6822F014
:1011D00040020A6001680A6842F480420A600168BD
:1011E0004A6842F0A0024A6001680A68520603D4C5
:1011F0000A6842F040020A6080F85C40184630BD40
:10120000704710B504460068416821F060014160F4
:1012100001F01BF8024664212046FFF73BFD18B1A0
:10122000206E40F020002066012084F85D00206ED2
:101230000028204602D0FFF754FF10BDFFF7E0FF63
:1012400010BD0168097B026C1170016C491C0164BE
:10125000B0F84610491EA0F84610B0F84610002914
:1012600000D1CEE770470168C968026C1180016C3B
:10127000891C0164B0F84610491EA0F84610B0F869
:101280004610002900D1BCE77047704710B50446EE
:1012900000F0DBFF02462068416821F02001416038
:1012A00064212046FFF70CFC18B1206E40F02000AE
:1012B0002066216E012029B184F85D002046FFF7E9
:1012C00010FF10BD94F85D1084F85D0004292046DD
:1012D00002D0FFF7DAFF10BDFFF792FF10BDC38FFA
:1012E000826B0168022B07D31288CA60816B891C4C
:1012F0008163C18F891E06E012780A73816B491CD5
:101300008163C18F491EC187C18F002909D101683E
:101310004A6822F080024A60B0F84610002900D1E5
:10132000B4E77047B0F84630026C0168012B13D95E
:10133000C9681180016C891C0164B0F84610891ECF
:10134000A0F84610B0F8461001290FD101684A688C
:1013500042F480524A6009E0097B1170016C491C1B
:101360000164B0F84610491EA0F84610B0F84610C7
:10137000002908D101684A6822F060024A60C18FE2
:10138000002900D182E77047816B02680988D1602B
:10139000816B891C8163C18F491EC187C18F002960
:1013A00009D101684A6822F080024A60B0F846100C
:1013B000002900D16AE770470168C968026C118092
:1013C000016C891C0164B0F84610491EA0F8461053
:1013D000B0F84610002908D101684A6822F040029E
:1013E0004A60C18F002900D150E77047F0B590F8EE
:1013F0005C500024012D0CD0012580F85C5090F841
:101400005D5000264768012D0BD0B7F5827F06D1CD
:1014100001E00220F0BD87680FB9042D01D002243D
:101420003AE0D1B1CAB1C3B190F85D50042D02D0F9
:10143000052580F85D50066681638387C387026453
:10144000A0F84430A0F84630C168B1F5E06F06D985
:101450005A49C1645A49016507E001241CE0594911
:10146000C16459490165022B04D301684A6822F41A
:10147000805203E001684A6842F480524A60016881
:101480004A6842F0E0024A6001680A68520603D4E2
:101490000A6842F040020A6080F85C602046F0BDB5
:1014A00070B40023846804251CB94468B4F5827FB5
:1014B0000DD090F85C40012C0FD0012480F85C40E6
:1014C00090F85D600024012E0AD0022343E080F8EA
:1014D0005D5070BC13460A4688E7022070BC704716
:1014E000B9B1B2B180F85D5004660164A0F844203F
:1014F000A0F8462084638487C4870465C168B1F579
:10150000E06F01684A6806D922F480524A602F4988
:1015100005E001231FE042F480524A602C49C16477
:101520008168B1F5004F09D101680A6822F04002D4
:101530000A6001680A6822F480420A6001684A6809
:1015400042F060024A6001680A68520603D40A68E1
:1015500042F040020A6080F85C401846BEE710B5D1
:10156000806A01684A6822F003024A60016E41F015
:1015700010010166012180F85D10FFF7B2FD10BD7A
:1015800038B50546846A00F060FE024628680068A7
:10159000800634D42068416821F020014160206831
:1015A000416821F00201416064212046FFF788FA7A
:1015B000A0B10FE04F11000831110008B913000865
:1015C0008913000825130008DF12000867120008BD
:1015D00043120008206E40F020002066A068002121
:1015E00018B92068C26880680090E187012084F8FB
:1015F0005D00206E18B12046FFF773FD38BD204610
:10160000FFF76EFD38BD704710B5806AFFF7FBFF2E
:1016100010BD2DE9F041044690F85C00002501283A
:1016200009D0012784F85C7094F85D000026012839
:1016300004D0022570E00220BDE8F08199B192B19A
:10164000032084F85D002666A163A287E2872664F2
:101650002665E664A4F84460A4F84660A068B0F586
:10166000004F02D00BE0012556E02068016821F010
:10167000400101602068016841F480410160616DB2
:10168000FD480863616DFD48C862616DFC484863B0
:10169000606D86632068416821F480414160E068A4
:1016A000B0F5E06F10D8606D8069B0F5806F0BD138
:1016B000E08FC0072068416816D041F48041416046
:1016C000E08F07EB5000E087E38F2268A16B0C32BC
:1016D000606D01F026FE68B1206E40F010002066BB
:1016E000012584F85D7017E021F480414160E08FAE
:1016F0004008E8E720680168490603D4016841F022
:10170000400101602068416841F02001416020688B
:10171000416841F00201416084F85C6028468BE733
:1017200070B50546846A00F090FD0246286800689E
:10173000800627D42068416821F020014160A0681C
:1017400018B96068B0F5827F17D02068416821F031
:101750000101416064212046FFF79CFA08B1202076
:1017600020660020A4F84600012084F85D00206E69
:1017700040B12046FFF7B5FC70BD2068416821F0FC
:101780000301E6E72046FFF73BFD70BD704710B54B
:10179000806AFFF7FBFF10BD70B50546846A00F054
:1017A00054FD02462868006880061FD420684168FE
:1017B00021F02001416064212046FFF781F918B132
:1017C000206E40F0200020662068416821F003016F
:1017D00041600020E087A4F84600012084F85D0005
:1017E000206E18B12046FFF77CFC70BD2046FFF745
:1017F0004CFD70BD704710B5806AFFF7FBFF10BD50
:101800002DE9F041044690F85C00002501280DD038
:10181000012684F85C6094F85D000027D4F804C0C9
:1018200001280ED0BCF5827F09D101E0022003E738
:10183000D4F808C0BCF1000F01D1042801D0022562
:10184000ADE011B30AB303B394F85D00042802D0ED
:10185000052084F85D002766A163A387E3872264DF
:10186000A4F84430A4F84630E7642765206841684E
:1018700021F4C0414160E068B0F5E06F2068416844
:1018800005D921F4805141602FE0012587E041F422
:1018900080514160606D4FF48061806988420CD155
:1018A00094F83C00C0072068426837D042F4804278
:1018B0004260E08F06EB5000E087A06D80698842AF
:1018C00013D12068416821F480514160B4F846008A
:1018D000C0072068416827D041F400514160B4F846
:1018E000460006EB5000A4F8460094F85D0004287A
:1018F00021D0A16D634808636348A16DC862A16DE2
:101900005F484863A06D8763B4F846302168226C55
:101910000C31A06D01F005FD38BB11E022F48042CE
:101920004260E08F4008C7E721F400514160B4F8FD
:1019300046004008D7E7A16D544808635448DCE7E7
:101940002068416841F001014160606D0763606D8E
:10195000C762606D4763606D8763E38F2268A16B28
:101960000C32606D01F0DDFC38B1206E40F01000EB
:101970002066012584F85D6011E020680168490651
:1019800003D4016841F0400101602068416841F0E2
:10199000200141602068416841F00201416084F803
:1019A0005C70284648E62DE9F04104460025806831
:1019B000042318B96668B6F5827F0ED094F85C608F
:1019C000012E12D0012684F85C6094F85DC00027D7
:1019D000BCF1010F0BD0022597E084F85D30204662
:1019E000BDE8F04113460A460AE7022024E681B129
:1019F0007AB184F85D3027662164A4F84420A4F805
:101A00004620E7642765A787E787B0F5004F02D037
:101A10000BE0012579E02068016821F040010160B8
:101A20002068016821F4804101602068416821F448
:101A300000514160E068B0F5E06F2068416803D96B
:101A400021F4805141602BE041F480514160A06D50
:101A50008069B0F5806F23D12068416821F48051FE
:101A60004160B4F84600C0072068416834D041F4B2
:101A7000005141600EE000000916000881150008C1
:101A80005F150008F7170008991700088F1700085E
:101A900021170008B4F8460006EB5000A4F84600F1
:101AA000A16DFE480863A16DFD48C862A16DFD48A7
:101AB0004863A06D8763B4F846302168226C0C310E
:101AC000A06D01F02EFC70B1206E40F01000206679
:101AD000012584F85D6018E021F400514160B4F8FC
:101AE00046004008DAE720680168490603D4016827
:101AF00041F0400101602068416841F020014160EF
:101B00002068416841F00101416084F85C7028461A
:101B100092E538B504460068016821F04001016093
:101B2000E14845F6C0510068B0FBF1F0642148433C
:101B300000902068416821F040014160009808B39E
:101B4000401E0090206840684006F7D400F07DFBFE
:101B500000906423002280212046FEF757FF402595
:101B600000B1256600F071FB0090642300224FF461
:101B7000C0612046FEF7DFFE00B12566072084F82D
:101B80005D0038BD206E40F040002066DEE77CB589
:101B90000446C54845F6C0510068B0FBF1F0642129
:101BA000484301902068416821F08001416001981C
:101BB00000284BD0401E0190206840680006F6D4F3
:101BC00000F043FB024664212046FEF779FF4025E2
:101BD00000B125662068016821F04001016000F035
:101BE00034FB4FF4C0660090642300223146204647
:101BF000FEF7A1FE00B1256620684168490621D59F
:101C0000416821F040014160019820B3401E0190DD
:101C1000206840684006F7D400F017FB009064236A
:101C2000002280212046FEF7F1FE00B1256600F07B
:101C30000CFB00906423002231462046FEF77BFE19
:101C400000B12566072084F85D007CBD206E40F061
:101C500040002066B4E7206E40F040002066DBE7DD
:101C60002DE9FC410446904845F6C0510025006826
:101C7000B0FBF1F064214843019000902068416876
:101C800021F0200141602168486800060CD5874892
:101C90002065009800287DD0401E009094F85D00DB
:101CA0000728F6D101980090486840060CD5804876
:101CB000E064009800287DD0401E009094F85D00FC
:101CC0000728F6D10198009048684FF4C068800753
:101CD0004FF040064FF0000725D5606D18B38763BD
:101CE000606D01F056FB00B126662068416821F066
:101CF0000201416000F0A9FA024664212046FEF785
:101D0000DFFE00B126662068016821F04001016015
:101D100000F09BFA00906423002241462046FEF723
:101D20000AFE00B1266620684068C00727D0A06D73
:101D300028B38763A06D01F02CFB00B126662068F4
:101D4000016821F04001016000F07FFA00906423F7
:101D5000002280212046FEF759FE00B1266600F0E1
:101D600074FA00906423002241462046FEF7E3FD0A
:101D700000B126662068416821F001014160A4F8A5
:101D80004670E787206E402819D027662068C16812
:101D9000816801E009E00DE0009180680090012079
:101DA00084F85D002846BDE8FC81206E40F04000CC
:101DB000206677E7206E40F04000206682E701252C
:101DC000E4E77047F8B5846A2068016821F04001B3
:101DD0000160A06D002585632068416821F0010144
:101DE000416000F032FA00906423002280212046F6
:101DF000FEF70CFE402600B1266600F026FA0090A1
:101E0000642300224FF4C0612046FEF794FD00B128
:101E10002666606D10B1806B002812D1A4F8465080
:101E2000E587206E402800D025662068C16881685B
:101E3000009180680090012084F85D002046FFF743
:101E4000C0FFF8BDF8B5846A0025606D8563206821
:101E5000416821F00201416000F0F7F90246642177
:101E60002046FEF72DFE402600B126662068016858
:101E700021F04001016000F0E8F9009064230022A5
:101E80004FF4C0612046FEF756FD00B12666A06DF6
:101E900010B1806B002820D10CE000008F170008E3
:101EA000211700085F150008240000208F1B000880
:101EB000131B0008A4F84650E587206E402800D088
:101EC00025662068C16881680091806800900120C3
:101ED00084F85D002046FFF774FFF8BD2DE9FC4152
:101EE0000446AA4845F6C051002600680125B0FB0B
:101EF000F1F064214843019000902068416821F08E
:101F0000200141602168486800060BD5A048206583
:101F10000098F8B1401E009094F85D000728F7D1B2
:101F200001980090486840060BD59A48E0640098F4
:101F3000A8B1401E009094F85D000728F7D10198E1
:101F40000090606D002780B1496889070CD59249DF
:101F500081630AE0206E40F040002066E0E7206EDA
:101F600040F040002066EAE78763A06D38B1216841
:101F70004968C90702D08949816300E08763206806
:101F800040684FF0400880070AD5606D40B101F00D
:101F900025FA20B1606D8763C4F8608000E00025F9
:101FA00020684068C00708D0A06D30B101F016FA73
:101FB000B8B1A06D8763C4F8608095B1A4F846708D
:101FC000E787206E40280ED027662068C1688168A8
:101FD000009180680090012084F85D002046FFF7A2
:101FE000F0FE3046DFE60126EFE790F85C100129AD
:101FF0000CD0012180F85C1001684A6822F00302CD
:102000004A60002180F85C10084670470220704743
:1020100090F85C1001290CD0012180F85C10016857
:102020004A6842F003024A60002180F85C100846CA
:1020300070470220704770B50446406D002538B1E6
:1020400001F0A7F920B1206E40F0100020660125B4
:10205000A06D38B101F09DF920B1206E40F0100064
:10206000206601252068416821F0030141600120BC
:1020700084F85D00284670BD10B5806A0021A0F884
:102080004610C187FFF72DF810BD38B5016804462A
:102090004A688868C043430606D5C30704D1D343C2
:1020A0005B0601D4E16C05E0830708D4D3431B062B
:1020B00005D4216D01B02046BDE8304008478306B5
:1020C00003D5430601D5C30551D4D3439B064ED453
:1020D00043060AD494F85D30032B49D0236E43F0B5
:1020E00004032366CB688B680093830609D4236EB0
:1020F00043F0010323668B6800930B6823F04003D1
:102100000B60C00506D4206E40F0080020662068F1
:1021100080680090206E002829D02068416821F056
:10212000E0014160012084F85D00900701D4D007F0
:1021300022D02068416821F003014160184DA06D54
:1021400040B18563A06D01F049F918B1206E40F0EF
:1021500040002066606D002809D08563606D01F045
:102160003DF9002803D0206E40F04000206638BDC5
:10217000C8688868009038BD2046FEF7B2FF38BDB9
:1021800090F85D007047006E70470000240000204A
:102190008F1B0008131B0008451E0008C51D000802
:1021A000792000083CBCBDE8C09F18BCBDE8E08FAA
:1021B00030BCBDE8C09F0000704770B5824E054638
:1021C0000024307898B14FF47A71B1FBF0F07F4978
:1021D0000968B1FBF0F001F0AAFE40B9102D06D25B
:1021E00000222946501E01F058FE756000E00124CF
:1021F000204670BD10B50024032001F041FE0F20E1
:10220000FFF7DBFF08B1012401E0FEF7B7FA204633
:1022100010BD70476E4810B54FF0FF318163C16348
:1022200000228263C2630164026481628262C162CD
:10223000C26201630263FFF7ECFF002010BD624839
:10224000816802781144816070475F4880687047F8
:102250005D484068704770B55B4D014600202C78A2
:102260008C4206D029706868FFF7A7FF002800D0CD
:102270002C7070BD54480078704770B50446FFF765
:10228000E4FF0546601C02D04F4800780444FFF785
:10229000DCFF401BA042FAD370BD4FF0E020016983
:1022A00021F00201016170474FF0E020016941F027
:1022B0000201016170474748704747480068000CB9
:1022C000704745480068C0F30B00704743480068FA
:1022D00070474248001D0068704740480830006859
:1022E00070473D48416841F00101416070473A48FC
:1022F000416821F00101416070473748416841F071
:102300000201416070473448416821F00201416098
:1023100070473148416841F00401416070472E48E0
:10232000416821F00401416070472D48CA21416293
:10233000532141622B490120C1F80003704729490C
:10234000012008627047274900200862704724492D
:102350000A6B22F0040202430A63704720490A6BA9
:1023600022F0020202430A6370471D494A6B22F0C1
:102370003F0202434A63704770B5194C206B40F02E
:1023800001002063FFF761FF054606E0FFF75DFFF0
:10239000401B0A2801D9032070BD206B0007F5D52A
:1023A000002070BD0E48016B21F0010101637047F0
:1023B0000B48416841F480714160704708484168AA
:1023C00021F4807141607047180000202400002033
:1023D0000010024000030D01002004E09075FF1F73
:1023E00000000140000020422DE9F041FE4C206831
:1023F00040F001002060FFF728FF054604E0FFF7EA
:1024000024FF401B022831D820688007F7D52068B8
:1024100020F0F00040F0600020600026A660F44943
:10242000F2480860F3480068FFF7C7FE10B10120CA
:10243000BDE8F081FFF709FF054641F2883704E067
:10244000FFF703FF401BB84210D8A06810F00C0F34
:10245000F6D12068E84908402060FFF7F6FE0546FF
:1024600006E0FFF7F2FE401B022801D90320DFE758
:10247000206810F0285FF4D1E660E06840F48050F6
:10248000E0602661206940F48050206166616069E7
:1024900040F480506061206820F480202060A661B4
:1024A0004FF0FF302062D4F8940040F40000C4F8EC
:1024B00094000020BCE770B5CB4B00221046996811
:1024C000DC6811F00C0104F00306CC4C4FEA640503
:1024D00008D00C2904D0042931D0082931D010E0CB
:1024E000012E10D11A68120704D4D3F89420C2F335
:1024F000032202E01A68C2F30312C14E56F82220EA
:10250000D9B10C2918D1D86800F0030002281AD0DC
:1025100003281AD01046D968DA68C1F30211C2F351
:1025200006224243491CB2FBF1F0D968C1F3416174
:10253000491C4900B0FBF1F070BD104670BD20464B
:1025400070BD284670BD2046E5E72846E3E7F8B5AC
:10255000A54E05460024B06DC00002D501F050F92B
:102560000DE0B06D40F08050B065B06D00F080506F
:10257000009001F045F9B16D21F08051B165B0F5E1
:10258000007F04D0802D07D94FF003040AE0802D8E
:1025900008D9A02D01D804E001D1022402E0702D59
:1025A00000D101249748016821F00701214301600F
:1025B000006800F00700A04201D00120F8BD002013
:1025C000F8BD2DE9F84304006FD0874EB06800F0E5
:1025D0000C05F06800F003072078C00664D575B1DB
:1025E0000C2D01D1012F0AD0A0690028306879D0C4
:1025F00040F001003060FFF728FE80465CE0306864
:10260000800702D5A0690028DED0216A3068000763
:1026100003D5306800F0F00004E0D6F89400F02212
:1026200002EA1010814216D90846FFF790FF0028F1
:102630003BD1306840F0080030603068216A20F0FB
:10264000F000084330607068E16920F47F4040EAA0
:102650000120706016E0306840F00800306030689B
:10266000216A20F0F000084330607068E16920F4CE
:102670007F4040EA0120706025B9206AFFF767FFBC
:102680000028D5D1FFF717FFB1685F4AC1F30311E6
:10269000515C01F01F01C840554908605548006869
:1026A000FFF78BFD00287DD12CE0CDE0FFF7CDFDBD
:1026B000A0EB0800022876D830688007F6D530688D
:1026C00040F0080030603068216A20F0F0000843D4
:1026D00030607068E16920F47F4040EA012070605A
:1026E00010E0FFE720F001003060FFF7AEFD80460C
:1026F00005E0FFF7AAFDA0EB08000228DBD8306850
:102700008007F6D42078C00740D0082D18D00C2DB3
:1027100001D1032F14D06068B0F5803F17D0B0F519
:10272000A02F306817D020F480303060306820F45B
:10273000802030606068E0B1FFF787FD804614E0DC
:102740003068800322D5606800287DD01EE03068A4
:1027500040F48030EDE740F480203060F7E7FFF789
:1027600074FDA0EB08006428A5D830688003F6D576
:102770000CE0FFF76AFD804605E0FFF766FDA0EB81
:102780000800642897D830688003F6D42078800742
:102790004BD5042D11D00C2D01D1022F0DD0E068A6
:1027A000002801E086E1E4E030682FD040F480703A
:1027B0003060FFF74AFD07460BE0306840050BD557
:1027C000E0680028C1D007E0FFF73FFDC01B0228EA
:1027D00094D830684005F7D57068217C20F0F85017
:1027E00040EA0160706020E00010024000093D00F6
:1027F000240000201C000020FFF4FEEA0024F40066
:1028000060560008002002405056000820F48070F6
:102810003060FFF71AFD074604E0FFF716FDC01B06
:102820000228A1D830684005F7D42078000729D5C0
:1028300060690028D6F8940013D040F00100C6F873
:102840009400FFF702FD00E00AE1074604E0FFF70D
:10285000FCFCC01B022887D8D6F894008007F6D568
:1028600010E020F00100C6F89400FFF7EEFC0746E8
:1028700004E0FFF7EAFCC01B02287AD8D6F89400DF
:102880008007F6D42078400765D5B06D4FF000087A
:10289000C00009D4B06D40F08050B065B06D4FF00D
:1028A000010800F080500090F6480168C90511D475
:1028B0000168814641F480710160FFF7C6FC07465C
:1028C00004E0FFF7C2FCC01B022852D8D9F8000070
:1028D000C005F6D5A068012815D00528D6F89000C7
:1028E00016D020F00100C6F89000D6F8900020F035
:1028F0000400C6F89000A06841F28839B8B1FFF72B
:10290000A4FC07460EE0D6F8900040F00100F0E786
:1029100040F00400C6F89000F5E7FFF796FCC11BF5
:10292000494526D8D6F890008007F6D50CE0FFF789
:102930008CFC074604E0FFF788FCC11B494518D80A
:10294000D6F890008007F6D4B8F1000F03D0B06D30
:1029500020F08050B065A06AF0B302280AD00C2D98
:102960007ED0306820F080703060FFF76EFC044647
:10297000A2E09EE0F068E26A00F00301914229D1F2
:10298000216B00F0700209011039914222D1626B73
:1029900000F4FE41B1EB022F1CD1A16B00F4003218
:1029A000072901D0012100E000218A4212D1A18F24
:1029B00000F4C00249084905A1F50011914209D16E
:1029C00094F8401000F0C06049084906A1F1007178
:1029D000814251D00C2D00E065E076D03068400196
:1029E00073D43068C00070D4306820F080703060DC
:1029F000FFF72BFC054604E0FFF727FC401B0228ED
:102A000057D830688001F7D4D4E90B016FF00F027A
:102A100002EB01110843A18F5204490802EB415116
:102A2000626B41EA0221084394F840104FF07E4265
:102A3000490802EB41610843A16B090940EA4140A2
:102A4000F168914A11400843F060306840F08070AE
:102A50003060F06840F08070F060FFF7F6FB00E057
:102A600033E0044604E0FFF7F0FB001B022820D807
:102A700030688001F7D526E03068800123D43068C3
:102A800040F080703060F06840F08070F060FFF7D8
:102A9000DCFB044604E0FFF7D8FB001B022808D843
:102AA00030688001F7D50EE0FFF7CFFB001B02284E
:102AB00002D90320BDE8F88330688001F4D4F068BF
:102AC00072490840F0600020F4E70120F2E72DE9A8
:102AD000F0470D46040071D0DFF8B481D8F800004B
:102AE00000F00700A8420CD2D8F8001021F007012E
:102AF0002943C8F80010D8F8000000F00700A842E9
:102B00005CD12078634E80070AD5A068B16801F0D7
:102B1000F001884204D9B16821F0F0010143B160AD
:102B20002078C0072BD06068032811D0022812D06B
:102B3000316898B14905002940DAB16821F00301F4
:102B40000143B160FFF781FB074641F288390FE08E
:102B500031688901EFE731688903ECE78907EAE723
:102B6000FFF773FBC11B494502D90320BDE8F0877D
:102B7000B068616800F00C00B0EB810FF0D12078F4
:102B800080070AD5A068B16801F0F001884204D23C
:102B9000B16821F0F0010143B160D8F8001040465F
:102BA00001F00701A9420BD9016821F0070129436F
:102BB0000160006800F00700A84201D00120D5E7BD
:102BC0002078400705D5B068E16820F4E06008434C
:102BD000B0602078000706D5B068216920F4605005
:102BE00040EAC100B060FFF766FCB1682A4AC1F351
:102BF0000311515C01F01F01C840284908602848B2
:102C00000068BDE8F047FFF7D8BA70B5214C86B030
:102C10001646E06C0D4640F00100E064E06C694649
:102C200000F001000590A015009002200190039093
:102C30000020029004904FF0904000F0DDF8A06872
:102C4000354320F0EE402843A06006B070BD134825
:102C50000068704711480F4900688968114AC1F33C
:102C60000221515C01F01F01C84070470B4809491F
:102C7000006889680B4AC1F3C221515C01F01F0151
:102C8000C8407047007000408C809DF9FCFFEEFE4C
:102C9000002002400010024050560008240000208E
:102CA0001C0000209056000810B51F2101605049FB
:102CB0000A6853034FF0000202D54FF4A02304E04A
:102CC0000B68DB0303D54FF48033436000E04260C0
:102CD0000B68DC074FF0010301D0836100E08261E3
:102CE0004C68C4F30724C4610C6804F0F004046267
:102CF0000C68E40503D54FF48074C46000E0C26042
:102D00004C68C4F304640461D1F89040640702D5B0
:102D10000524846006E0D1F89040E40701D0836088
:102D200000E08260D1F89440E40701D0436100E004
:102D3000426142620A68D20102D50222826200E048
:102D40008362CA6802F00302C262CA68C2F3021256
:102D5000521C0263CA68C2F306224263CA68C2F305
:102D60004152521C5200C263CA68C2F34162521CF3
:102D700052000264C968890301D5112100E00721CE
:102D8000816310BD0F220260194A936803F00303A8
:102D90004360936803F0F0038360936803F4E06397
:102DA000C36092684FF4E06303EAD2020261114803
:102DB000006800F00700086070470D48016841F4A2
:102DC000002101607047704710B5094CE069C005EB
:102DD00003D5FFF7F8FFA015206210BD044951F894
:102DE000940F0A6800F07E4042F400020A607047C7
:102DF00000100240002002402DE9F84FDFF8149344
:102E00000022A9F1040B03274FF00F0C09F1040A6B
:102E1000ABF1040EC1E001249440234077D00D793A
:102E200005F00305012D01D0022D15D1866855004E
:102E300007FA05F826EA0806D1F80C8008FA05F822
:102E400048EA0608C0F8088045680E79A543C6F32D
:102E5000001696402E4346604D68EE43B6070AD1F1
:102E6000C66AA643C5F3C00494403443C4620C79D7
:102E7000E443A40708D0C568540007FA04F6B54334
:102E80008E68A6402E43C6600C7904F00304022C21
:102E900011D1D40800EB8406356A5407E40E0CFA0D
:102EA00004F825EA0805D1F8108008FA04F848EA81
:102EB0000508C6F820800568540007FA04F6B543F3
:102EC0000E7906F00306A6402E4306604C6814F403
:102ED000403F61D0904C256E45F001052566246E7B
:102EE00022F0030504F0010400948C4C05EB040867
:102EF000D8F808509407260F0CFA06F4A543B0F151
:102F0000904F05D0864CA04204D101241CE043E040
:102F1000002419E0834CA04201D1022414E0824C29
:102F2000A04201D103240FE0804CA04201D104242F
:102F30000AE07F4CA04201D1052405E07D4CA0426F
:102F400001D1062400E00724B4402C43C8F808400F
:102F5000D9F800404D464E689C43F60200D51C430C
:102F60002C60DAF8004055464E689C43B60200D506
:102F70001C432C60DBF800405D464E689C43B60362
:102F800000D51C432C60DEF8004075464E689C431B
:102F9000F60300D51C432C60521C0B6833FA02F474
:102FA0007FF439AF00F0C8B82DE9F04F0022DFF808
:102FB0006CA14FF0010B4FF00F0978E00BFA02F50E
:102FC00015EA010472D022F003065644B36897074D
:102FD0004FEA177C09FA0CF707EA0308B0F1904FA3
:102FE00004D04F4B984203D101231BE0002319E08A
:102FF0004C4B984201D1022314E04B4B984201D133
:1030000003230FE0494B984201D104230AE0484BC7
:10301000984201D1052305E0464B984201D1062391
:1030200000E0072303FA0CF3434522D1DFF8E4C0A4
:10303000ACF1080CDCF80030A343CCF800300CF104
:10304000040CDCF80030A343CCF80030DFF8C4C037
:103050000CF1040CDCF80030A343CCF80030DFF8AE
:10306000B4C0DCF80030A343CCF80030B368BB43F5
:10307000B360046856000323B3401C430460D408C3
:1030800000EB8404276A56074FEAD66C09FA0CF65F
:10309000B743276284689C4384604468AC434460BF
:1030A000C4689C43C460C36AAB43C362521C31FA18
:1030B00002F383D100F043B80069084000D001203A
:1030C00070470AB18161704781627047426921EAA5
:1030D00002030A4043EA02418161704708B541F4A6
:1030E00080320092C261C1610099C161C1690091E1
:1030F000C069C00301D5002008BD012008BD70478C
:10310000044910B50C310A68024202D00860FFF78A
:10311000F6FF10BD0804014000100240000001400D
:103120000004004800080048000C00480010004857
:10313000001400480018004818BCBDE8E08F30BCFF
:10314000BDE8C08F70B568B1FD4C01681423FD4A1D
:10315000A14209D2FC4C0C44B4FBF3F39B00C0E940
:1031600010230BE0012070BDF54C64420C44B4FB0D
:10317000F3F39B004364F24B083B0364022380F8A3
:1031800025300C6847F6F0739C43D0E902352B4399
:10319000D0E9045635432B4385692B43C5692B433E
:1031A000056A2B4323430B608168B1F5804F29D01A
:1031B000016C0F23914212D152F8A81F90F844409D
:1031C00004F01C04A3409943116090F84430416816
:1031D00003F01C03994013681943116012E0D849A9
:1031E000A0310A6890F8444004F01C04A3409A43BC
:1031F0000A6090F84430426803F01C039A400B6860
:103200001A430A600021C163012280F8252080F85A
:103210002410084670BD30B590B101680A6822F0EC
:1032200001020A60C64C02681421C64BA24209D2B0
:10323000C54C1444B4FBF1F18900C0E910310BE036
:10324000012030BDBE4C64421444B4FBF1F189004E
:103250004164BB49083901640021116090F84420A1
:1032600002F01C040122A240046C6260046C0F2274
:103270009C4202D153F8A84F02E0B14BA0331C6826
:1032800090F8445005F01C05AA4094431C60C162AC
:10329000016341638163C16380F8251080F82410C5
:1032A000002030BD30B590F8444004F01C050124E6
:1032B000AC40056C6C60046863608368102B036825
:1032C00003D099600068C26030BD9A600068C16038
:1032D00030BD70B5044690F82400002501280CD0BC
:1032E000012084F8240094F825600020012E06D0E7
:1032F00084F824000225284670BD022070BD0226F5
:1033000084F82560E0632068066826F00106066000
:103310002046FFF7C7FF2068016841F00101016006
:10332000E9E770B5044690F82400002501280CD088
:10333000012084F8240094F825600020012E06D096
:1033400084F824000225284670BD022070BD0226A4
:1033500084F82560E0632068066826F001060660B0
:103360002046FFF79FFF206B00282068016802D0ED
:1033700041F00E0106E021F00401016020680168BF
:1033800041F00A0101602068016841F0010101601B
:10339000D9E710B590F825100022022905D00421A4
:1033A000C16380F82420012010BD01680B6823F060
:1033B0000E030B6001680B6823F001030B6090F8AB
:1033C0004410012401F01C0304FA03F1036C59605A
:1033D00080F8254080F82420104610BD10B590F8E4
:1033E00025100024022903D00421C16301241AE01E
:1033F00001680A6822F00E020A6001680A6822F079
:1034000001020A6090F84410012301F01C0203FA43
:1034100002F1026C516080F82530002180F8241000
:10342000816B01B18847204610BD2DE9F05F04464D
:1034300090F8250015468B464FF000084FF0040A1F
:10344000022802D0C4F83CA04DE020680068800645
:1034500003D54FF48070E06347E094F84400BBF17B
:10346000000F00F01C0007D00AFA00F6FEF7EDFE90
:1034700007464FF001091FE002268640F6E7016883
:1034800094F8440000F01C020820904001420BD048
:1034900094F84400226C00F01C0109FA01F148463E
:1034A0005160C4F83C901CE0681C05D0FEF7CDFECE
:1034B000C01BA84212D88DB1206C01683142DED009
:1034C00094F84400BBF1000F00F01C010FD00AFA81
:1034D00001F0216C4860002000F0C8B82020E063B3
:1034E000484684F8250084F824800120F4E702206F
:1034F0008840216C486084F8248084F82590EAE7AD
:10350000F0B4016C0B6801680A6890F84440042527
:1035100004F01C0405FA04F61E4217D0560715D510
:103520000A68920603D40A6822F004020A6090F83E
:10353000441001F01C018D40016C4D60016B23E0D3
:103540000804024000000240F8FFFDBF022606FA10
:1035500004F71F424FF0000C4FF0010518D09707F9
:1035600016D50A68920605D40A6822F00A020A6093
:1035700080F8255090F8441001F01C018E40016C39
:103580004E6080F824C0C16A00291AD0F0BC0847F8
:103590000826A6401E4214D0120712D50A6822F04F
:1035A0000E020A6090F84410026C01F01C0105FA4A
:1035B00001F15160C56380F8255080F824C0416B4B
:1035C000E2E7F0BC704710B590F824400023012CCE
:1035D00007D0012480F8244090F82540012C02D027
:1035E00008E0022010BD59B101290BD002290BD0EF
:1035F00003290BD00123002180F82410184610BDA8
:10360000C262F8E70263F6E74263F4E78263F2E737
:1036100010B590F824300022012B08D0012380F847
:10362000243090F825400023012C02D014E0022021
:1036300010BD052910D2DFE801F0030507090B00D2
:10364000C3620AE0036308E0436306E0836304E0C7
:10365000C36203634363F9E7012280F82430104614
:1036600010BD90F825007047C06B704730BCBDE8B6
:10367000C09F00005E48816B41F080518163816B87
:1036800021F08051816370475A48016841F480718C
:10369000016070475748016821F4807101607047EC
:1036A00030B554494A68036822F00E021A434A6052
:1036B000514B196821F4803119601A1F116821F4E7
:1036C000803111604C4C0834216821F48031216034
:1036D000191D0D6825F480350D604568ED0303D58F
:1036E000156845F4803515604268920303D51A6861
:1036F00042F480321A600279D20703D00A6842F499
:1037000080320A600079800703D5206840F4803059
:103710002060002030BD3748416841F00101416020
:1037200070473448416821F0010141607047314AD7
:10373000D36800F01F018B4343EA5010D0609068BB
:103740000843906070472B498A6800F01F0082434D
:103750008A607047274A10B5002850690C460FD080
:10376000C043800501D500F0E2FA2448016821F049
:1037700004010160012C0AD040BF20BF20BF10BD52
:103780008005F2D500F0D9FA0028F8D1EDE730BF76
:1037900010BDB0F5804F084601D000F0E9BA00F046
:1037A000FDBA1448016821F00701C91C01601348E3
:1037B000016841F00401016030BF70470F480168A3
:1037C00041F00201016070470C48016821F00201DC
:1037D000016070470948016841F0100101607047BD
:1037E0000648016821F01001016070477047000031
:1037F00000100240007000400404014010ED00E0A1
:10380000FE48006800F4C0607047FC49B0F5007FD6
:103810000868C0F3412009D0022805D0086820F4C8
:10382000C06040F480600860002070470128FBD031
:10383000086820F4C06040F400700860F04832224C
:1038400000685043EF4AB0FBF2F0401C00E0401E1D
:103850004A69520501D50028F9D148694005E3D5E8
:1038600003207047E549CA6822F400720243CA6027
:10387000C86840F48070C8607047E048C16821F4AF
:103880008071C1607047DD48416841F480614160EA
:103890007047DA48416821F4806141607047D74839
:1038A000416841F4007141607047D448416821F497
:1038B000007141607047D148816841F400418160E6
:1038C0007047CE48816821F400418160704703460B
:1038D00010B50020C94A082B45D2DFE803F0040FD9
:1038E000181F262D343B136A21F4804423431362AE
:1038F000536A21F420418B43536210BD936A0B43FA
:103900009362D36A21F010018B43D36210BD136B15
:103910000B431363536B8B43536310BD936B0B4388
:103920009363D36B8B43D36310BD136C0B4313644E
:10393000536C8B43536410BD936C0B439364D36CF3
:103940008B43D36410BD136D0B431365536D8B43D1
:10395000536510BD936D01F003010B439365D36D67
:103960008B43D36510BD012010BD034610B5002068
:10397000A24A082B29D2DFE803F0040A0E12161A15
:103980001E22136A21F480418B43136210BD936A97
:103990008B43936210BD136B8B43136310BD936B0A
:1039A0008B43936310BD136C8B43136410BD936CF6
:1039B0008B43936410BD136D8B43136510BD936DE2
:1039C00001F003018B43936510BD012010BD034638
:1039D00010B50020894A082B45D2DFE803F0040F18
:1039E000181F262D343B536A21F42044234353628D
:1039F000136A21F480418B43136210BDD36A21F016
:103A000010042343D362936A8B43936210BD536BBC
:103A10000B435363136B8B43136310BDD36B0B4387
:103A2000D363936B8B43936310BD536C0B4353640D
:103A3000136C8B43136410BDD36C0B43D364936C32
:103A40008B43936410BD536D0B435365136D8B43D0
:103A5000136510BDD36D01F003010B43D365936D66
:103A60008B43936510BD012010BD034610B50020A7
:103A7000624A082B2BD2DFE803F0040A1014181C4A
:103A80002024536A21F420418B43536210BDD36A32
:103A900021F010018B43D36210BD536B8B435363F2
:103AA00010BDD36B8B43D36310BD536C8B435364F6
:103AB00010BDD36C8B43D36410BD536D8B435365E2
:103AC00010BDD36D01F003018B43D36510BD012000
:103AD00010BD4A48816841F4806181607047474861
:103AE000816821F4806181607047444920B1B0F55C
:103AF000807F05D001207047886820F4807002E044
:103B0000886840F480708860002070474FF48070AF
:103B1000EBE70020E9E73948C16841F40051C16092
:103B200070473648C16821F40051C160704733487E
:103B3000416841F01001416070473048416821F010
:103B40001001416070472D48416841F020014160FB
:103B500070472A48416821F020014160704727489A
:103B6000416841F04001416070472448416821F0BC
:103B70004001416070472148416841F08001416047
:103B800070471E48416821F080014160704770B560
:103B90001D4B1D4C016800221E1F08341D1D1029DD
:103BA00008D020293CD0402966D080297ED001222F
:103BB000104670BD196821F008011960316821F0C4
:103BC00008013160216821F008012160296821F095
:103BD000080129604168C90303D5316841F0080133
:103BE00031604168890303D5196841F00801196003
:103BF0000179C9070DD0296808E000000070004075
:103C00002400002040420F002404014041F008013C
:103C1000296000798007CBD5206840F0080084E057
:103C2000196821F010011960316821F0100131602C
:103C3000216821F010012160296821F0100129601C
:103C40004168C90303D5316841F010013160416812
:103C5000890303D5196841F0100119600179C9077A
:103C600003D0296841F010012960007980079FD5B1
:103C7000206840F0100058E0196821F02001196018
:103C8000316821F020013160216821F0200121609C
:103C9000296821F0200129604168C90303D53168F2
:103CA00041F0200131604168890300E012E003D552
:103CB000196841F0200119600179C90703D029680A
:103CC00041F02001296000798007A4D5206840F0E8
:103CD00020002AE0196821F040011960316821F0C4
:103CE00040013160216821F040012160296821F004
:103CF000400129604168C90303D5316841F04001A2
:103D000031604168890303D5196841F040011960A9
:103D10000179C90703D0296841F040012960007981
:103D20008007A4D5206840F04000206040E74F485D
:103D3000016841F48041016070474C49086820F4F3
:103D4000804008604A48322200685043494AB0FB2C
:103D5000F2F0401C00E0401E4A69920501D500289F
:103D6000F9D14869800501D50320704700207047CC
:103D70003E490A6822F007020A603F490A6842F099
:103D800004020A60012807D040BF20BF20BF086896
:103D900020F004000860704730BFF8E733490A6834
:103DA00022F00702521C0A6033490A6842F00402FA
:103DB0000A60012807D040BF20BF20BF086820F05C
:103DC00004000860704730BFF8E728490A6822F00D
:103DD0000702921C0A6028490A6842F004020A603D
:103DE000012807D040BF20BF20BF086820F0040092
:103DF0000860704730BFF8E71C48016821F00701F0
:103E0000091D01601C48016841F00401016030BFD8
:103E10007047704770477047704710B5174C20685F
:103E2000C00304D5FFF7E2FC4FF480302060134C50
:103E300020342068000703D5FFF7EEFF082020603C
:103E40002068C00603D5FFF7E6FF10202060206839
:103E5000800603D5FFF7DEFF2020206020684006A3
:103E600003D5FFF7D6FF4020206010BD0070004052
:103E70002400002040420F0010ED00E01404014037
:103E8000994A00F0070110684FF6FF03184040EA16
:103E900001209649084310607047F0B4924B1B68AC
:103EA000C3F30223C3F10704042C00D904241D1D0D
:103EB000072D01D2002300E0DB1E012606FA04F5DF
:103EC0006D1E0D409D409E40761E164045EA06013F
:103ED000F0BC00F0F8B8002809DB00F01F02012157
:103EE00091404009800000F1E020C0F800117047C7
:103EF00000280DDB00F01F020121914040098000E5
:103F000000F1E020C0F88011BFF34F8FBFF36F8F37
:103F10007047BFF34F8F74480168744A01F4E06141
:103F2000121D11430160BFF34F8F00BFFDE710B5B5
:103F3000401EB0F1807F01D3012010BD4FF0E0247E
:103F400060610F21601700F0BEF80020A06107201B
:103F50002061002010BD64480068C0F30220704753
:103F6000F0B5002804DB00F1E02090F8000405E043
:103F700000F00F0000F1E02090F8140D040901F0AA
:103F80000700C0F10701042900D90421051D072DF0
:103F900001D2002000E0C01E012724FA00F607FA33
:103FA00001F56D1E2E4007FA00F56D1E25401660C6
:103FB0001D60F0BD002809DB00F01F0201219140C7
:103FC0004009800000F1E020C0F80012704700288E
:103FD0000DDB4109890001F1E021D1F8001200F068
:103FE0001F0201209040014201D0012070470020B3
:103FF0007047002809DB00F01F02012191404009B1
:10400000800000F1E020C0F88012704700280DDB2E
:104010004109890001F1E021D1F8001300F01F02ED
:1040200001209040014201D00120704700207047DC
:104030004FF0E0210428086903D020F00400086153
:10404000704740F00400FAE7704710B5FFF7FCFF37
:1040500010BD254940F0010088310860BFF34F8F43
:10406000BFF36F8F7047BFF35F8F1F490020883108
:10407000086070471C4A41788C3211600378111D2A
:104080000A1DE3B143680B60017BC37A090741EA6B
:104090000361837A41EAC341437B41EA8341837BE5
:1040A00041EA4341C37B41EA0341437A41EA0321A8
:1040B000037A007841EA4301014311607047002010
:1040C0000860106070470907090E002804DB00F142
:1040D000E02080F80014704700F00F0000F1E020AD
:1040E00080F8141D704700000CED00E00000FA0598
:1040F0002848016841F470010160704770B5264C92
:104100002068000704D4D4F89400C0F3032002E030
:104110002068C0F30310214951F82010A068204AFC
:1041200010F00C0007D01F4D042806D06E10082890
:1041300005D00C2805D011601CE015601AE016604F
:1041400018E0E06800F00303E068C0F30210401CD0
:10415000022B19D0032B1AD0B1FBF0F0E168C1F3A8
:1041600006214143E068C0F34160401C4000B1FBC0
:10417000F0F01060A0680949C0F303101039085C22
:104180001168C140116070BDB5FBF0F0E6E7B6FB09
:10419000F0F0E3E788ED00E0001002406056000810
:1041A000240000200024F4004FF0000200B5134664
:1041B00094469646203922BFA0E80C50A0E80C5047
:1041C000B1F12001BFF4F7AF090728BFA0E80C50F8
:1041D00048BF0CC05DF804EB890028BF40F8042BF1
:1041E00008BF704748BF20F8022B11F0804F18BF5E
:1041F00000F8012B704770477047704710B500F00A
:1042000009F8006810BD10B5044600F003F804601A
:1042100010BD000000487047A4030020004870470C
:10422000A40300207546FFF7F9FFAE460500694676
:10423000534620F00700854618B020B5FCF702F879
:10424000BDE820404FF000064FF000074FF0000897
:104250004FF0000B21F00701AC46ACE8C009ACE818
:10426000C009ACE8C009ACE8C0098D46704710B57C
:104270000446AFF300802046BDE81040FBF7CDBFF9
:1042800001491820ABBEFEE726000200704703B4C8
:1042900001984100009850EAC12018BF04204A0D3F
:1042A00018BF40F0010040F2FF72B2EB515F08BF4F
:1042B00040F00200012808BF052002B0704700004E
:1042C00010B51D499FED1A1B2DED020B84B005980A
:1042D00020F000408842DCBF01209DED040B21DD71
:1042E0001649884209D1049840B94FF00100FFF700
:1042F0008AFF00F079FC06B010BD05DB9DED040BD4
:1043000000F068FC06B010BD68469DED040B00F09F
:1043100017F800F001000121A1EB40009DED021B08
:104320009DED000B00F0A8FA06B010BD00000000E3
:104330000000000000000000FB21E93F0000F07FCA
:104340002DE9F14F04462DED020B2DED088B8AB0BF
:104350009FEDE70B80ED020B139EE74826F000452A
:1043600085420ADC9DED120B002084ED000B0AB0A3
:10437000BDEC088B03B000F0FFB9E0489FEDE0AB67
:104380009FEDE1BBA84247DDE14F9FEDE39B9FED31
:10439000E48B9DED120B53EC1A2B51EC100B002EFD
:1043A0001CDD00F0EFFF41EC100BBD4208D053ECD8
:1043B0001B2B51EC100B00F0E5FFC4E900010BE0F2
:1043C00053EC192B51EC100B00F0DCFF53EC182BC5
:1043D00000F0D8FFC4E900010120C8E700F06EFC3E
:1043E00041EC100BBD4208D053EC1B2B51EC100BD1
:1043F00000F064FCC4E900010BE053EC192B51EC14
:10440000100B00F05BFC53EC182B00F057FCC4E9D8
:1044100000014FF0FF30AAE7C348A84279DB9DEDC9
:10442000120B51EC100B00F0FFFB41EC180B9FED51
:10443000C00B53EC102B00F09BFE9FEDBF1B53EC09
:10444000112B00F03BFC00F039FE074600F065FE42
:1044500041EC190B53EC1A2B00F08AFE53EC182B8D
:1044600000F084FF41EC180B53EC1B2B51EC190BA3
:1044700000F07EFEDFF8C8A241EC100B4FEA1558A1
:104480000125FA4453EC102B51EC180B00F07AFF85
:10449000032DC4E900013DD0C1F30A5005EB4511DD
:1044A000A8EB00001139814234DA0AEB051BB0EEAB
:1044B00048AA9BED000BF0EE68AA53EC102B51ECD0
:1044C000190B00F055FE41EC1B0B51EC1A0B53EC91
:1044D0001B2B00F057FF41EC180B51EC1A0B53EC5F
:1044E000182B00F04FFF53EC1B2B00F04BFF9BED04
:1044F000020B41EC1A0B53EC102B51EC190B00F092
:1045000037FE53EC1A2B00F03DFF41EC100B6D1CF5
:10451000B8E70EE0002EA8BF3846BFF628AF94EDEE
:10452000000B51EC100B00F08BFBC4E9000178424A
:104530001DE7C6F3130040F4801EC6F30A50A0F234
:10454000F530471100F01F05C5F12000DDF848B037
:1045500008900020069007900520EC467949002D30
:1045600007EB0002794408BF51F8221009D051F836
:10457000223001EB8201AB404A68089922FA01F12E
:104580001943A1FB0E26A1FB0B131A449A4234BF18
:104590000123002303EB06080CEB8003D3E901A6FB
:1045A0000E448E4234BF0121002192448A4411B14D
:1045B000924502D903E0924501D2012100E0002199
:1045C000C3E901A641444CF82010011EA0F10100EE
:1045D000C4DC029800F10050850F0298DDE9036702
:1045E0008000DDF8148000F098FD41EC1A0B304695
:1045F00000F0AAFD9FED541B53EC112B00F0B8FD09
:1046000041EC1B0B384600F09FFD9FED511B53EC16
:10461000112B00F0ADFD41EC180B404600F094FD6D
:104620009FED4D1B53EC112B00F0A2FD41EC190B3B
:1046300051EC180B53EC192B00F040FB53EC1B2BE7
:1046400000F03CFB53EC1A2B00F038FBCDE90801DD
:10465000002008909DED080B53EC1A2B51EC100B29
:1046600000F090FE53EC1B2B00F08CFE53EC182B4B
:1046700000F088FE53EC192B00F078FE9FED381BFC
:1046800053EC112B00F074FD9FED370B41EC180B30
:1046900053EC102B9DED080B51EC100B00F068FD56
:1046A00053EC182B00F00AFB9FED310B41EC180B7B
:1046B00053EC102B9DED080B51EC100B00F058FD46
:1046C00053EC182B00F0FAFA41EC100B139810F091
:1046D000004F06D06D4251EC100B00F0B1FA41ECE6
:1046E000100B284684ED000B41E60000000000009E
:1046F0000000000000000000FB21E93F7CD90240DF
:1047000000004054FB21F93F3163621A61B4D03D8F
:10471000FB21F93F000000000000601A61B4D03DA9
:104720007370032E8A19A33BFB213941000000005E
:1047300083C8C96D305FE43F000000000000E03F27
:104740001212000060110000000000000000103E86
:10475000000000000000103C000000000000103AC3
:10476000182D4454FB21F93D3326A611460B113C6C
:1047700000000054FB21F93D30BCBDE8C08F70B58E
:1047800004462DED028B4D1E00EBC500B0EE408AB5
:10479000F0EE608A90ED000B35F0060017D053EC78
:1047A000182B51EC100B00F0E3FC41EC100B6D1ECC
:1047B00004EBC50090ED001B51EC100B53EC112BDA
:1047C00000F07CFA41EC100B35F00600E7D1022D29
:1047D00036D0042D1CD0062D1CBFBDEC028B70BD45
:1047E00053EC182B51EC100B00F0C2FC94ED0A1B9B
:1047F00053EC112B00F062FA53EC182B00F0B8FCCC
:1048000094ED081B53EC112B00F058FA41EC100BFF
:1048100053EC182B51EC100B00F0AAFC94ED061B86
:1048200053EC112B00F04AFA53EC182B00F0A0FCCB
:1048300094ED040B53EC102B00F040FA41EC100BFC
:1048400053EC182B51EC100B00F092FC94ED021B72
:1048500053EC112B00F032FA53EC182B00F088FCCB
:1048600094ED001B53EC112B00F028FABDEC028BE9
:1048700041EC100B70BD0000F1B506462DED040BA8
:10488000BD482DED0C8B8AB0B0EE418AF0EE618A06
:10489000179D25F000449FEDBABB9FEDBBCB844232
:1048A00008DA9DED160B51EC100B00F007FC002808
:1048B00000F0E980B64FA74231DC002D0DDA9DED06
:1048C000160B51EC100B00F0BBF9CDE9160151ECC1
:1048D000180B00F0B5F941EC180B9FEDAF0B53EC42
:1048E000102B9DED160B51EC100B00F03FFD53EC1F
:1048F000182B9FEDAB0BCDE9040151EC100B00F030
:1049000041FD41EC100B53EC102B9DED040B51ECD1
:10491000100B00F0D3F99FEDA48BCDE916019DEDAE
:10492000160B53EC102B51EC100B00F021FCCDE9D1
:1049300004019DED040B53EC102B51EC100B00F017
:1049400017FC41EC190B9A480621B0EE490AF0EE2B
:10495000690A7844FFF713FF9648B0EE40DAF0EEAC
:1049600060DAB0EE490AF0EE690A06217844FFF7F2
:1049700006FF9DED041B51EC100B53EC112B00F0C6
:10498000F7FB9DED040B41EC1A0B53EC102B9DED46
:10499000160B51EC100B00F0EBFB41EC190B53EC38
:1049A0001A2B51EC1D0B00F089F953EC192B00F078
:1049B000DFFB53EC182B00F081F99DED041B53EC49
:1049C000112B00F0D5FB53EC182B00F077F941ECDC
:1049D000180B9FED790B51EC190B53EC102B00F0D9
:1049E000C7FB53EC182B00F069F941EC190B9DED56
:1049F000160B53EC192B51EC100B00F05FF941EC46
:104A0000180BA74269DC304600F087FB41EC1A0B1B
:104A100051EC180B53EC1A2B00F050F941EC1B0B26
:104A200053EC182B51EC180B00F0A2FB53EC1B2B92
:104A300000F0ECF953EC192B00F0A4FC9DED161BD3
:104A400053EC112B00F092FC9FED5D1B53EC112BEE
:104A500000F08EFB53EC1A2B00F088FC41EC180B95
:104A6000022000EAA570C0F1010000F056FB53ECF3
:104A7000182B00F07DFB00BF41EC100B0AB000F0DA
:104A8000A3B805B0F0BD711C1698214308430CD0A3
:104A90009DED160B012E1CBF53EC102B51EC1C0B83
:104AA00010D000BF00F0B2F9E6E79DED160B51EC17
:104AB000100B00F0B9F841EC100B51EC1B0B53EC50
:104AC000102BEFE751EC100BFFF7E1FB042808BFB8
:104AD00000F09AF89DED160BD0E7012E04BFB0EE62
:104AE000480AF0EE680AC9D08DED048B00240494C6
:104AF0009DED040B53EC102B9DED160B51EC100BA0
:104B000000F034FC53EC192B00F030FC41EC190B95
:104B100053EC182B51EC1C0B00F078F941EC180BFE
:104B20008DED008B00949DED040B53EC102B9DED4F
:104B3000000B51EC100B00F01BFB53EC1B2B00F097
:104B4000BDF89DED000B41EC1A0B53EC192B51EC09
:104B5000100B00F00DFB53EC1A2B00F0AFF853ECE8
:104B6000182B00F005FB9DED001B53EC112B00F002
:104B7000A5F881E7000000000000303E00000000C2
:104B8000000000000000F03F000000000000F0BF47
:104B90002894E53F00000000182D4454FB21E93F14
:104BA000075C143326A6813C0000000000000000D2
:104BB0000A0E0000200E0000635555555555D53F8F
:104BC0000000000000000040BDEC088BBDEC04CBF1
:104BD000FFF757BF10B553EC102B51EC100B00F042
:104BE0006DF841EC100B10BD9FED050B10B553ECAB
:104BF000102B51EC100B00F009F941EC100B10BD1B
:104C000000000000000000009FED050B10B553EC04
:104C1000102B51EC100B00F0ABFA41EC100B10BD57
:104C2000000000000000001082B0CDE9000121F07A
:104C3000004001909DED000B02B051EC100B70474D
:104C400081F00041704780F00040704721F0004142
:104C5000704720F00040704721F00042A2F16052FE
:104C6000B2F5801F01F0004328BFD2F17F6C0BD951
:104C70005FEA001C43EAC20242EB507018BF704763
:104C800028BF20F001007047B2F5801FBCBF184656
:104C900070474FEA410C1CF5001F02D2084600F095
:104CA000D1BC70B500F00EFB00000089FFF7F6BF25
:104CB0004FF00040A0F580007047000010B591EA69
:104CC000030F48BF83F0004300F16483841A71EB43
:104CD000030C05D2121943EB0C03001B61EB0C0112
:104CE000DFF824E14FEA1154A4EB135C1EEA430FF2
:104CF00018BF9EEA445F73D023EA0E03DCF1200E56
:104D000021EA045143F4801332D322FA0CFE10EB53
:104D10000E0023FA0CFE41EB0E01CCF1200E03FA3B
:104D20000EFE10EB0E0051F10001B1F5801FCCF129
:104D3000200E32D201EB045112FA0EF2BDE81040FF
:104D400058BF7047401C38BF5FEA420218BF704727
:104D5000002814BF20F0010041F100014FEA410397
:104D600013F5001F38BF7047A1F1C04100F0F8BA39
:104D7000012A43EB0302ACF1200CDCF11F0E32BF21
:104D80004FF0000E23FA0CF310EB030041EB04513B
:104D9000B4EB115FD0D0A1EB045101F580114908AB
:104DA0005FEA300001EB04510ED350F1000038BF30
:104DB00012FA0EFE08D1BDE81040C9E7401C38BF0A
:104DC0005FEA4202CAD1C3E7BDE810404FEA41039F
:104DD00013F5001F38BF7047A1F1C04100F0C0BA01
:104DE0009EEA445F08D011EA5E0FBDE8104004BFA0
:104DF00001F0004100207047BDE8104070B500F0A0
:104E000061FA00BF64FBBE3E0000E0FF2DE9C04137
:104E100030B4DFF8A0C23CEA111418BF3CEA131406
:104E200000F0EC8081EA03051CEA111444EAD57411
:104E300018BF1CEA131500F0C780A4EB05044FF05F
:104E4000004545EAC12145EAC32341EA505143EAFE
:104E5000525304F17F74994204F500344FEAC020A4
:104E60004FEAC22208BF904200F09C804FEA1365CF
:104E70000FF24016765D4FEA134506FB05F7C7F1C2
:104E8000807706FB07F74FEAD737A7FB0368764220
:104E9000C8F58038A7FB06CE38BFA8F1010807FB8C
:104EA00008E64FF0000EA6FB028CE6FB03CEDCF119
:104EB000000CCEF1004E38BFAEF1010EA6FB0C582F
:104EC0004FF000074FF00005E6FB0E87A1FB08C678
:104ED000A0FB07CE16EB0E0645F10005E1FB0765CA
:104EE00015F1E04E7EBFA4F580345FEA46066D41C1
:104EF00016F1800745F100054FEA17274FEA0666CD
:104F000047EA0567A6F1DE46B6F1805F4FEA152550
:104F10001FD9384624F0010C05EBC471BCF1FE6FBB
:104F200001EB0C1102D8F0BCBDE8008124425CBF4B
:104F300001F5801E9EEAC47F02D4F0BCBDE800816A
:104F4000244238D4F0BCA1F1C041BDE8004100F0DA
:104F500007BA4FEAD22242EA43524FEAD323A7FBD1
:104F600002864FEAD02040EA415007FB03661EEA62
:104F70000E0F4FEAD12105FB026658BFA6EB005683
:104F8000B6EB00564FEA520E4EEAC37E18EB0E0EF9
:104F900056EB530EBDD518EB02085E417F1C55F150
:104FA0000005B6E74FF480154FF000074FF00006FC
:104FB0004FF00008ADE7F0BC4FF0000001F1C04138
:104FC00001F00041BDE8008111EA0C1F0CEA131545
:104FD00000D00CE013EA0C1F00F025804FF0000019
:104FE000F0BC81EA030101F00041BDE80081F0BCA2
:104FF000BDE8004181EA030100F0B2B9F0BCBDE8B0
:10500000004170B500F05EF9097EFC3E00F007B883
:1050100081EA03014FF0000001F00041704781EA8E
:10502000030100F09DB9F0BCBDE800414FF0000065
:1050300021497047FFFDFBF9F7F5F4F2F0EEEDEBD7
:10504000E9E8E6E4E3E1E0DEDDDBDAD8D7D5D4D386
:10505000D1D0CFCDCCCBCAC8C7C6C5C4C2C1C0BFD2
:10506000BEBDBCBBBAB9B8B7B6B5B4B3B2B1B0AFD8
:10507000AEADACABAAA9A8A8A7A6A5A4A3A3A2A1BC
:10508000A09F9F9E9D9C9C9B9A9999989797969577
:1050900095949393929191908F8F8E8E8D8C8C8B13
:1050A0008B8A89898888878786858584848383829B
:1050B000828181800000FF070000F87F4FEA4103F2
:1050C0004FEA5353A3F58063D3F11E03C8BFD3F156
:1050D000210C0CDD4FF0004242EAC12242EA50525C
:1050E00032FA03FC8CEAE17CACEBE1707047102BE8
:1050F000C4BF0020704703F5787CBCF1FF3F04D0AB
:105100006FF0004282EA2100704770B500F0DAF8D3
:105110004992248000207047F2E710F0004248BF17
:105120004042B0FA80F310FA03F10AD0C3F11D0334
:1051300003F580634FEA415002EB035202EBD121A9
:1051400070474FF000007047B0FA80F310FA03F197
:105150000AD0C3F11D0303F580634FEA41504FEAC3
:10516000035202EBD12170474FF00000704700005E
:10517000DFF848C170B51CEA111E1EBF1CEA1315EA
:105180009EEA0C0F95EA0C0F00F06F8081EA030491
:1051900023EA4C134EEAD47E21EA4C1141F48011EB
:1051A00043F48013AE44A1FB024CA0FB0365AEF1B7
:1051B0007F7E361955EB0C05A1FB034C4CF1000327
:1051C000A0FB021C16EB0C06654153F100030942DB
:1051D00018BF46F0010613F4007F0BD14FEA0331EC
:1051E0004FEA0530340341EA155140EA16506FF09A
:1051F00003020AE04FEAC3214FEAC520F40241EA64
:10520000555140EA56506FF0020202EB2E4201EB7C
:10521000025585EACE710AD05FEA440C18BF24F02B
:10522000004450F1000041F1000120EAD47040F246
:10523000FE7C624500D270BDA84214BF4FF080448E
:105240004FF04044002E08BF0024BEF1806FA8BF7D
:10525000A1F1C041BDE8704080F282804FF00000B3
:1052600001F1C04101F0004170479EEA0C0F0CEAC9
:10527000131518BF95EA0C0F06D04FF0000081EA15
:10528000030E0EF0004170BD00F01CF88900013ED5
:1052900000F007B800F009B84FEA430C5FEA5C5C25
:1052A00008D081EA030100F05BB84FEA410C5FEAE5
:1052B0005C5CF6D14FF00000014970470000FF0729
:1052C0000000F87F0EF1020E2EF0030E5EF8046B64
:1052D000364205D4012A43EB030515F5001F12D809
:1052E000012841EB010C1CF5001F0CD80ED14FEA30
:1052F000D17C15F5001F0CEB4C0C0CF1020C08BF17
:105300004CEBD37C04E04FF0080C01E04FEAD37C77
:105310000CEB4C0526FA05F606F00706B6F1040C70
:1053200006D20EEB860CBDE870404CF0010C6047D5
:10533000DFE80CF0090B02024FF000414FF00000D3
:10534000A1F5002170BD19461046012851EB01045A
:1053500018BFD4F5001484BF002001F0004170BDD7
:105360000808A0F500114FEA3101704791EA030FD8
:1053700010B581F000413FF5A9AC83F0004300F087
:1053800009B8000010B591EA030F48BF83F000434D
:105390003FF59CAC841A71EB030C07D212198CF008
:1053A000004C43EB0C03001B61EB0C01DFF8A4E1A4
:1053B0004FEA1154A4EB135C1EEA430F18BF9EEA98
:1053C000445F00F0B08023EA6E03524221EA0451A8
:1053D000C3EB6E0338BF5B1EDCF1200E25D322FA2F
:1053E0000CFE10EB0E0043FA0CFE41EB0E01CCF16B
:1053F000200E03FA0EFE10EB0E0051F10001CCF16D
:10540000200E29D412FA0EF201EB0451BDE810402F
:1054100058BF7047401C1CBFB2F1004F70470028B6
:105420000CBF491C20F00100704712EB020E43EB49
:10543000030218BF4FF0010E4EEA4202ACF1200CFD
:10544000DCF11E0E54D943FA0CFE10EB0E0051F1A4
:10545000FF31CCF11E0ED5D50EF1010E12FA0EFE63
:10546000404141EB010101EB445C5FEA5C5C10D917
:1054700010EBDE7001EB045138BFBEF1004FBDE808
:10548000104018BF704700280CBF491C20F00100D5
:10549000704730D24FEAD42C11F5001124F4006487
:1054A0001BD0B1FA81F20B3AA41AA41ED2F1200348
:1054B000914030FA03F31943904001EBCC71002C7A
:1054C00001EB0451BDE81040A8BF704701F1C04195
:1054D0004FF0000001F000417047B0FA80F310FA7D
:1054E00003F100D110BDE41A173C4805C90AE4E7EE
:1054F00001EB045110BD491001EB0451BDE810400F
:105500004FEA300002E04FF0000170474A0008BF48
:105510000042F8D0B2F5001F28BF704701F00041EB
:105520004FF0000070479EEA445F07D011EA5E0F1B
:10553000BDE8104004BF002100207047BDE81040C6
:1055400070B5FFF7BFFE00BF40DFF63E83F00041BD
:10555000104670470000E0FF43004FEAD30C4FEACB
:105560003C0C43401FBF40070CF1605113F0FE4F4D
:1055700070471CF0006F03D100200CF00041704711
:105580000CF0004343EA507010B540EACC0000F044
:105590000EF800BF000000924FEA0001FFF7E0BEE6
:1055A0004FF000414FF00000A1F5002170470EF1CF
:1055B000020E2EF0030E5EF8044B244204D44FEA90
:1055C0004102B2F17F4F11D84FEA4003B3F17F4F50
:1055D0000CD80ED14FEAD07CB2F17F4F0CEB4C0CC3
:1055E0000CF1020C08BF4CEBD17C04E04FF0080C2E
:1055F00001E04FEAD17C0CEB4C0324FA03F404F0F5
:105600000704B4F1040C06D20EEB840CBDE8104084
:105610004CF0010C6047DFE80CF0070802024FF085
:105620000040A0F5800010BD0846420018BFD2F12E
:10563000807288BF00F0004010BD4FF04070E1EE76
:10564000100A7047FF2141EAD050C00570470000A2
:105650000000000000000000010203040607080922
:10566000A0860100400D0300801A060000350C00E2
:1056700040420F0080841E0000093D0000127A00A5
:105680000024F40000366E010048E801006CDC02E2
:10569000000000000102030400004054FB21F93F18
:1056A0003163621A61B4D03D0000601A61B4D03D2C
:1056B0007370032E8A19A33B0000002E8A19A33BA6
:1056C000C14920259A837B390000000000000000BA
:1056D0006E83F9A22915444ED15727FCC0DD34F55D
:1056E000999562DB4190433CAB6351FE61C5BBDEE3
:1056F0003A6E24B7E0D24D42EA2E49061C92D109F7
:105700001CEB1DFE3EA729B1F53582E88444BB2E73
:1057100026709CE9417E5FB439D69139F4395383C0
:105720008B5F849C3B28F9BDFF97F81F0F9805DE1F
:105730008B112FEF1F6D0A5ACF7E366DB709CB271D
:10574000663F464F2DEA5F9EC7BA27757BF1E5EBB2
:10575000F739073DEA92528AB15FFB6B085D8D1FF6
:105760007AFE10111111C13F37D60684F464963FBA
:10577000280356C9226D6D3F0165F2F2D844433FBC
:10578000A69237A0887E143F735360DBCB75F3BEBF
:10579000FE41B31BBAA1AB3F93846EE9E326823F7F
:1057A0001583E0FEC8DB573F68108D1AF726303F9F
:1057B000E9A7F0320FB8123FD47ABF74702AFB3ECB
:1057C000E05700080000002028000000C401000885
:1057D0000858000828000020E0090000E001000847
:1057E00000000000000000000000000000000000B9
:1057F0000000000000000000010000001000000098
:085800000000000000093D005A
:040000050800018965
:00000001FF
