:020000040800F2
:10000000500D002029020008990B00089B0B0008E6
:100010009D0B00089F0B0008A10B000800000000CA
:10002000000000000000000000000000A30B00081A
:10003000A50B000800000000A70B0008A90B000892
:10004000430200084302000843020008430200087C
:10005000430200084302000843020008430200086C
:10006000430200084302000843020008430200085C
:10007000430200084302000843020008430200084C
:10008000430200084302000843020008430200083C
:10009000430200084302000843020008430200082C
:1000A000430200084302000843020008430200081C
:1000B000430200084302000843020008430200080C
:1000C00043020008430200084302000843020008FC
:1000D00043020008430200084302000843020008EC
:1000E00043020008430200084302000843020008DC
:1000F00043020008430200084302000843020008CC
:1001000043020008430200084302000843020008BB
:1001100043020008430200084302000843020008AB
:10012000430200084302000843020008430200089B
:10013000430200084302000843020008430200088B
:10014000430200084302000843020008430200087B
:10015000430200084302000843020008430200086B
:10016000430200084302000843020008430200085B
:100170004302000843020008430200080000000098
:10018000430200084302000800F002F800F03CF8C7
:100190000AA090E8000C82448344AAF10107DA45E2
:1001A00001D100F031F8AFF2090EBAE80F0013F0F8
:1001B000010F18BFFB1A43F001031847B49F00005A
:1001C000D49F0000103A24BF78C878C1FAD85207EB
:1001D00024BF30C830C144BF04680C6070470000C1
:1001E0000023002400250026103A28BF78C1FBD840
:1001F000520728BF30C148BF0B6070471FB508F0D9
:1002000042FB1FBD10B510BD05F0FAFD1146FFF70A
:10021000F5FF00F0F5FA05F018FE03B4FFF7F2FF62
:1002200003BC05F01BFE0000094880470948004751
:10023000FEE7FEE7FEE7FEE7FEE7FEE7FEE7FEE796
:10024000FEE7FEE704480549054A064B70470000F3
:10025000214500088901000850070020500D0020AA
:100260005009002050090020491E03D412F8013B18
:100270004354F9E7704773B584B000200D460290EF
:1002800004AA042101A8FFF7EFFF049A4FF090445D
:10029000A2F11050C73823D0A2F12050CD381FD082
:1002A000A2F13050CB381BD01021204603F01CF9AE
:1002B000012813D100221021204603F01AF94FF62D
:1002C000FF73042201A9FE4800F036FE012210212E
:1002D000204603F00EF9284602F0E7F906B070BD9B
:1002E0001021204603F000F90128F7D10022102147
:1002F0002646204603F0FDF84FF48074234604227E
:1003000001A9EF4800F018FE01221021304603F049
:10031000F0F8284602F0C9F900221021304603F017
:10032000E8F8042302AA01A9E548009400F003FFBD
:1003300001221021304603F0DCF8284602F0B5F91E
:100340009DF80A009DF8091000EB012080B2C5E776
:1003500010B50121DB48FFF78EFF0121DA48FFF7D6
:100360008AFF0121D948FFF786FF1921D848FFF7F6
:1003700082FFD84C01212046FFF77DFF2046BDE8D3
:100380001040012177E710B5FF221F2120FA01F369
:1003900013F0010F02F0800301D083F080035206B6
:1003A000120E0BB182F01D02491EC9B20729EDD809
:1003B000D043C0B210BD30B5C84BC74C196A5D6A96
:1003C00054F82120821A2A445A6244F82100491C18
:1003D00001F03F001862D01702EB9060801100B26C
:1003E00030BD30B5BD4BBE4C996ADD6A54F8212052
:1003F000821A2A44DA6244F82100491C01F03F00C5
:100400009862D01702EB9060801100B230BD30B519
:10041000B24BB44C9969DD6954F82120821A2A4400
:10042000DA6144F82100491C01F03F009861D017BF
:1004300002EB9060801100B230BD30B5A74BAA4CE2
:100440009968DD6854F82120821A2A44DA6044F859
:100450002100491C01F03F009860D01702EB90602A
:10046000801100B230BD30B59C4BA04C19695D695C
:1004700054F82120821A2A445A6144F82100491C68
:1004800001F03F001861D01702EB9060801100B2BC
:1004900030BD30B5914B964C19685D6854F82120F9
:1004A000821A2A445A6044F82100491C01F03F0096
:1004B0001860D01702EB9060801100B230BD70B5AB
:1004C00094B004468B480D908B480E908B480F904B
:1004D0008B4810908B4811908B4812900DAA0421E4
:1004E00007A8FFF7C1FE0EAA042108A8FFF7BCFE6B
:1004F0000FAA042109A8FFF7B7FE10AA04210AA831
:10050000FFF7B2FE11AA04210BA8FFF7ADFE12AA55
:1005100004210CA8FFF7A8FE4FF0904610213046AA
:1005200002F0E2FF01287CD100221021304602F0C7
:10053000E0FF4FF6FF752B46042207A9604800F044
:10054000FBFC01221021304602F0D3FF012002F013
:10055000ACF800221021304602F0CBFF042301AAA0
:1005600008A95748009500F0E6FD01221021304609
:1005700002F0BFFF012002F098F80022102130465F
:1005800002F0B7FF042302AA09A94D48009500F024
:10059000D2FD01221021304602F0ABFF012002F013
:1005A00084F800221021304602F0A3FF042303AA9E
:1005B0000AA94348009500F0BEFD012210213046F3
:1005C00002F097FF012002F070F80022102130465F
:1005D00002F08FFF042304AA0BA93948009500F00C
:1005E000AAFD01221021304602F083FF012002F013
:1005F0005CF800221021304602F07BFF042305AA9C
:100600000CA92F48009500F096FD012210213046DC
:1006100002F06FFF012002F048F80022102130465E
:1006200000E00FE002F065FF2B46042206A92448F3
:1006300000F0B0FE01221021304602F05AFF0120E6
:1006400002F033F89DF806009DF8051000EB01203C
:1006500000B2FFF71EFF00EE100AF8EEC00A9FED91
:100660002B0A20EE801ADFED2A0A21EE201A84EDF3
:10067000001A9DF80A009DF8091000EB012000B255
:10068000FFF7F1FE01EE100AB8EEC11A21EE001AD2
:1006900021EE201A84ED011A9DF80E009DF80D1030
:1006A00000EB012000B2FFF7C8FE01EE100AB8EE21
:1006B000C11A21EE000A20EE200A84ED020A29E088
:1006C000400600201F0000B4982000B4380300B496
:1006D0006F1F00B0E500001840040020000000205B
:1006E000400500204003002040010020400200207F
:1006F00040000020C7000024CD000028CB00002CC3
:10070000F7000004FD000008FB00000C000080382A
:100710000000B4429DF812009DF8111000EB01207A
:1007200000B2FFF774FE00EE100AF8EEC00A9FED6B
:10073000150A80EE801A84ED031A9DF816009DF8C4
:10074000151000EB012000B2FFF74BFE00EE900AFF
:10075000F8EEE00A80EE801A84ED041A9DF81A0083
:100760009DF8191000EB012000B2FFF724FE00EE07
:10077000900AF8EEE00A80EE801A84ED051A14B0B3
:1007800070BD000000803B4672B6FEE710B596B023
:100790004421684605F0F6FA142111A805F0F2FA92
:1007A0004FF4007003F049FA08B172B6FEE710206A
:1007B00000900120002460210690CDE9074102212C
:1007C000CDE90A100C9020200D900720CDE90E01F4
:1007D0006846109102F00DF908B172B6FEE70F20DD
:1007E00011900320CDE912040146149411A8159428
:1007F00002F085FB002801D072B6FEE716B010BDEE
:100800002DED088B86B001F00DFFFFF7BFFF14211F
:10081000684605F0B7FAD948C16C41F00101C164DE
:10082000C06C4FF0904400F00100059001221021AF
:10083000204602F05EFE10210120CDE900100021CB
:10084000029103916946204602F0EEFC00F074F933
:1008500001221021204602F04CFEFFF779FD9FEDAA
:10086000C88BDFF82483A8F12407DFEDC89A9FED39
:10087000C89A07F11806C4482438FFF720FE002460
:1008800007EB840595ED000A60EE290A80EE890ADF
:1008900010EE100A07F086FF41EC100B06F028FD61
:1008A000B0EE481AF0EE681A53EC112B51EC100B15
:1008B00007F04EFD07F03CFA48F8240095ED000AD9
:1008C00006EB8400641C20EE290A032CC0EE090A02
:1008D000C0ED000AD4D396ED010A04F07FFAD7EDFB
:1008E000030A20EE20AA96ED020A04F077FA2AEE17
:1008F00000AA96ED020A04F0E9FAD7ED040A60EEC8
:1009000020AA96ED010A04F069FA0AEEC0AA96ED53
:10091000010A04F0DBFAD7ED050A9B4C00EE80AA31
:10092000183484ED00AA96ED000A04F0CFFAB0EE78
:1009300040AA96ED010A04F0C9FA2AEE00AA96ED43
:10094000020A04F04BFA2AEE00AA96ED020A04F01D
:10095000BDFAF0EE40AA96ED000A04F03FFA0AEE66
:1009600080AA97ED030A2AEE00AA96ED000A04F089
:10097000ADFAF1EE40AA96ED010A04F0A7FA6AEE8C
:1009800080AA96ED020A04F0A1FA6AEE80AA96ED1A
:10099000000A04F023FAB0EE40BA96ED020A04F021
:1009A0001DFA4BEE00AA97ED040A00EE2AAA96ED76
:1009B000000A04F08BFAF1EE40AA96ED010A04F069
:1009C0000DFA2AEE800AD7ED050A00EE80AA84ED22
:1009D00001AA96ED000A04F079FAB0EE40AA96ED6D
:1009E000020A04F073FA2AEE00AA96ED010A04F056
:1009F0006DFAF0EE40AA96ED000A04F0EFF96AEE07
:100A000080AA96ED020A04F0E9F90AEEC0AA97ED71
:100A1000030A2AEE00AA96ED000A04F057FAF0EE57
:100A200040AA96ED020A04F0D9F96AEE80AA96ED82
:100A3000010A04F04BFAB0EE40BA96ED020A04F057
:100A400045FA2BEE00BA96ED000A04F0C7F94BEE1A
:100A500000AA97ED040A00EE2AAA96ED000A04F017
:100A6000BDF9F0EE40AA96ED010A04F0B7F92AEEBE
:100A7000800AD7ED050A00EE80AAF0EE000A84EDA8
:100A800002AA94ED010A06F0E1F8B0EE40AA94ED56
:100A9000020AF0EE000A06F0D9F83AEE000A06F073
:100AA00007FCF0EE400A94ED000A05F009FA20EE8A
:100AB000090AA4F10C05C0EE290AC5ED000A94ED5F
:100AC000000AF0EE000A06F0C1F8B0EE40AA94ED7C
:100AD000020AF0EE000A06F0B9F83AEE000A06F053
:100AE000E7FBF0EE400A94ED010A05F0E9F920EE8B
:100AF000090AC0EE290AC5ED010A94ED000AF0EEDC
:100B0000000A06F0A3F8B0EE40AA94ED010AF0EE58
:100B1000000A06F09BF83AEE000A06F0C9FBF0EE78
:100B2000400A94ED020A05F0CBF920EE090AC0EE66
:100B3000290AC5ED020A9EE6134810B58838154902
:100B400001604FF48271416000214FF4E062C0E91E
:100B500002124FF400720161C0E905121822C0E9C7
:100B6000072107224162C0E90A120163416300F0D4
:100B700072F8002801D072B6FEE710BD00100240E6
:100B80000000000000009940C8060020DB0F49402B
:100B90000000344300300140FEE7FEE7FEE7FEE7D9
:100BA000FEE770477047704701F061BD274808B500
:100BB000016E41F001010166016E01F00101009139
:100BC000816D41F080518165806D00F08050009012
:100BD00008BD10B586B004461421684605F0D2F869
:100BE0001B49206888421FD11848016E41F480518A
:100BF0000166016E01F480510591C16C41F0010163
:100C0000C164C06C694600F001000590E0200090CE
:100C10000220019000200290032003900520049000
:100C20004FF0904002F000FB06B010BD006808498C
:100C3000884209D10548016E21F480510166E02106
:100C40004FF0904002F0C8BB704700000010024017
:100C500000300140704770B5040009D0606A00257B
:100C600040B125616561A56294F85D0040B10CE07A
:100C7000012070BD6068B0F5827FF4D0E561F2E7D5
:100C800084F85C502046FFF7A4FF022084F85D0042
:100C90002068016821F040010160E0684FF4E062E3
:100CA000904201D9002101E04FF48051B0F5706FFE
:100CB00002D0904200D0A562A088228900F4827000
:100CC00002F404421043227C02F002021043227D0F
:100CD00002F001021043228B02F400721043227FC3
:100CE00002F03802104394F8202002F080021043F2
:100CF000228D02F40052104322681060A069042281
:100D000002EA104094F8242001F4805102F010020D
:100D1000104394F8342002F008021043A28902F430
:100D2000706210430843216848602566012084F8FA
:100D30005D00002070BD704710B5040011D0022086
:100D400084F85D002068016821F0400101602046C0
:100D5000FFF76CFF0020206684F85D0084F85C00DB
:100D600010BD012010BD2DE9FC5F4FF0000B98462F
:100D700016460F4604460C9D8DF804B001F07DFC2C
:100D8000411BA8EB010501F078FC8246206800F1C8
:100D90000C09F7480068C0EBC00000EB8000000DB4
:100DA000684343E0B7F5C06F06D12EB999F800004B
:100DB0008DF804009DF80400B8F1FF3F37D001F032
:100DC0005CFCA0EB0A00A84203D215B1009858B30E
:100DD0002BE02068416821F0E00141606068B0F5D7
:100DE000827F0BD1A068B0F5004F02D0B0F5806FC4
:100DF00004D12068016821F040010160A06AB0F5CB
:100E0000005F09D12068016821F400510160206869
:100E1000016841F400510160012084F85D0084F80C
:100E20005CB0032001F0D6BB0025401E0090206876
:100E300080683840B042B5D10020F3E72DE9F8438F
:100E40001E46914688460446089D01F016FC401B4C
:100E5000351A01F012FC0746C5480068C0F3CB30D4
:100E6000684338E0701C37D001F007FCC01BA84273
:100E700003D215B1009860B32CE02068416821F0DE
:100E8000E00141606068B0F5827F0BD1A068B0F5E9
:100E9000004F02D0B0F5806F04D12068016821F0C6
:100EA00040010160A06AB0F5005F09D120680168C7
:100EB00021F4005101602068016841F40051016093
:100EC000012084F85D00002084F85C000320BDE868
:100ED000F8830025401E00902068816838EA0100F0
:100EE00004D000204845BDD10020F0E70120F9E7FB
:100EF000F8B515460E460B460092044600224FF404
:100F0000C051FFF730FF88B93346002280212046C8
:100F10000095FFF793FF48B9334600224FF4C061B4
:100F200020460095FFF71FFF002804D0206E40F0F8
:100F3000200020660320F8BD2DE9F84F044690F804
:100F40005C0000261D469046894601280ED04FF0D1
:100F5000010B84F85CB001F090FB074694F85D004B
:100F60004146B246012804D00226A5E0022001F045
:100F700034BBB9F1000F76D0B8F1000F73D0032065
:100F800084F85D00C4F860A0C4F83890A4F83C80F0
:100F9000A4F83E80C4F840A0A4F844A0A4F846A059
:100FA000C4F850A0C4F84CA0A068B0F5004F09D117
:100FB0002068026822F0400202602068026842F461
:100FC0008042026020680268520603D4026842F040
:100FD00040020260E068B0F5E06F606822D908B1B5
:100FE00001291BD1A06B21680088C86006E0206839
:100FF0008168890709D5A16B0988C160A06B801C35
:10100000A063E08F401EE08708E001F036FBC01BC4
:10101000A84202D3681C01D045E0A5B3E08F0028A8
:10102000E5D135E008B101292FD1E08F0128A06B6F
:1010300003D921680088C8600FE021680078087330
:1010400014E0E08721E020688168890714D5E18FEA
:101050000129A16B08D90988C160A06B801CA0631D
:10106000E08F801EEDE726E009780173A06B401C3D
:10107000A063E08F401EE4E701F0FFFAC01BA84226
:1010800002D3681C01D00EE06DB1E08F0028DAD1E8
:101090003A4629462046FFF72BFF08B1202020665C
:1010A000A06810B105E0032606E02068C1688068EA
:1010B0000090206E00B1012684F85DB084F85CA039
:1010C000304654E72DE9F843044640684FF48276F1
:1010D000154689464FF400474FF48068B04209D165
:1010E000A068B84201D0404504D12068016821F0D1
:1010F000400101604B460022802120460095FFF709
:101100009DFE80B96068B04213D1A068B84201D09A
:1011100040450ED14B4600224FF4C0612046009559
:10112000FFF721FE28B1206E40F02000206603204A
:10113000CDE60020CBE62DE9F05F044690F85C0098
:1011400001250A9E1F4692468B464FF00008012853
:1011500010D0012084F85C0001F08FFA814694F8E9
:101160005D00616801280ED0B1F5827F09D104E0ED
:101170003C000020022001F033BAA16809B904281C
:1011800001D0022004E1BBF1000F24D0BAF1000F1E
:1011900021D007B394F85D00042802D0052084F81C
:1011A0005D0000202066C4F840A0A4F84670A4F8B2
:1011B0004470C4F838B0E787A787E0642065E0682A
:1011C0004FF4E061884201D8012F06D920684268B7
:1011D00022F4805205E00120DAE02068426842F4FF
:1011E0008052426020680268520603D4026842F0CE
:1011F00040020260E0688842606842D908B1012F6D
:1012000037D1A06B21680088C860A06B801CA063E8
:10121000E08F401EE0872CE02068816889070DD5AB
:10122000E18F59B1012D09D1A16B0988C160A06B73
:10123000801CA063E08F401EE08700252068816845
:10124000C9070ED0B4F8461059B1C068216C0880A7
:10125000206C801C2064B4F84600401EA4F84600B0
:10126000012501F00AFAA0EB0900B04201D3701C7D
:1012700072D1E08F0028CFD1B4F846000028CBD13E
:1012800073E008B1012F69D1E08F0128A06B08D964
:1012900021680088C860A06B801CA063E08F801E5E
:1012A00007E0216800780873A06B401CA063E08F02
:1012B000401EE08752E020688168890718D5E18FD9
:1012C000B1B1012D14D1E18F0129A16B07D9098892
:1012D000C160A06B801CA063E08F801E06E00978CF
:1012E0000173A06B401CA063E08F401EE0870025C7
:1012F00020688168C90727D0B4F8461021B3B4F834
:101300004610012914D9C068216C0880206C801C0B
:101310002064B4F84600801EA4F84600B4F84600E5
:10132000012810D82068416841F4805141600AE0EA
:10133000007B216C0870206C401C2064B4F84600CF
:10134000401EA4F84600012501F097F9A0EB090022
:10135000B04202D3701C01D019E0C6B1E08F002862
:10136000A9D1B4F846000028A5D14A463146204606
:10137000FFF7BEFD18B120204FF0010820660120C4
:1013800084F85D00002084F85C004046F3E603200A
:101390008046F4E72DE9F84F0446406800261D46D4
:1013A000904689464FF0040BB0F5827F01D1A068CA
:1013B00088B194F85C00012816D0012084F85C0004
:1013C00001F05BF9074694F85D004FF0000A012830
:1013D0000CD0022692E084F85DB0009313460A46D2
:1013E0002046FFF7A8FEC2E50220C0E5B9F1000FD4
:1013F00073D0B8F1000F70D084F85DB0C4F860A06D
:10140000C4F84090A4F84480A4F84680C4F838A0FA
:10141000A4F83CA0A4F83EA0C4F84CA0C4F850A086
:10142000E0684FF4E06188422068426802D922F403
:10143000805201E042F480524260A068B0F5004F53
:1014400009D12068026822F0400202602068026828
:1014500022F48042026020680268520603D40268C7
:1014600042F040020260E068884219D937E0206803
:101470008168C9070BD0007B216C0870206C401C70
:101480002064B4F84600401EA4F8460008E001F0CD
:10149000F4F8C01BA84202D3681C01D036E0A5B303
:1014A000B4F846000028E2D11DE020688168C90731
:1014B0000BD0C068216C0880206C801C2064B4F8BC
:1014C0004600401EA4F8460009E001F0D6F8C01B13
:1014D000A84203D3681C02D018E00EE0ADB1B4F806
:1014E00046000028E1D13A4629462046FFF7EAFDAA
:1014F00008B120202066206E00B10126012084F86A
:101500005D0084F85CA0304631E5FFE70326F5E78F
:101510007047704738B5044601F0AFF802462068BE
:10152000416821F0A001416064212046FFF7E0FC02
:1015300018B1206E40F020002066A06818B920681D
:10154000C16880680090012084F85D00206E00284A
:10155000204602D0FFF7DDFF38BDFFF7D9FF38BDC9
:10156000816B026809781173816B491C8163C18F9B
:10157000491EC187C18F002900D1CBE77047816B1D
:1015800002680988D160816B891C8163C18F491E03
:10159000C187C18F002900D1BCE7704730B590F8F2
:1015A0005C400023012C0BD0012480F85C40002417
:1015B00041B13AB190F85D50012D05D0022333E0DE
:1015C000022030BD01232FE0032580F85D50046622
:1015D00081638287C2870464A0F84440A0F8464033
:1015E000C464C168B1F5E06F01D9FE4900E0FE496D
:1015F00001658168B1F5004F09D101680A6822F0E0
:1016000040020A6001680A6842F480420A60016888
:101610004A6842F0A0024A6001680A68520603D490
:101620000A6842F040020A6080F85C40184630BD0B
:10163000704710B504460068416821F060014160C0
:1016400001F01BF8024664212046FFF73BFD18B16C
:10165000206E40F020002066012084F85D00206E9E
:101660000028204602D0FFF754FF10BDFFF7E0FF2F
:1016700010BD0168097B026C1170016C491C01648A
:10168000B0F84610491EA0F84610B0F846100029E0
:1016900000D1CEE770470168C968026C1180016C07
:1016A000891C0164B0F84610491EA0F84610B0F835
:1016B0004610002900D1BCE77047704710B50446BA
:1016C00000F0DBFF02462068416821F02001416004
:1016D00064212046FFF70CFC18B1206E40F020007A
:1016E0002066216E012029B184F85D002046FFF7B5
:1016F00010FF10BD94F85D1084F85D0004292046A9
:1017000002D0FFF7DAFF10BDFFF792FF10BDC38FC5
:10171000826B0168022B07D31288CA60816B891C17
:101720008163C18F891E06E012780A73816B491CA0
:101730008163C18F491EC187C18F002909D101680A
:101740004A6822F080024A60B0F84610002900D1B1
:10175000B4E77047B0F84630026C0168012B13D92A
:10176000C9681180016C891C0164B0F84610891E9B
:10177000A0F84610B0F8461001290FD101684A6858
:1017800042F480524A6009E0097B1170016C491CE7
:101790000164B0F84610491EA0F84610B0F8461093
:1017A000002908D101684A6822F060024A60C18FAE
:1017B000002900D182E77047816B02680988D160F7
:1017C000816B891C8163C18F491EC187C18F00292C
:1017D00009D101684A6822F080024A60B0F84610D8
:1017E000002900D16AE770470168C968026C11805E
:1017F000016C891C0164B0F84610491EA0F846101F
:10180000B0F84610002908D101684A6822F0400269
:101810004A60C18F002900D150E77047F0B590F8B9
:101820005C500024012D0CD0012580F85C5090F80C
:101830005D5000264768012D0BD0B7F5827F06D199
:1018400001E00220F0BD87680FB9042D01D0022409
:101850003AE0D1B1CAB1C3B190F85D50042D02D0C5
:10186000052580F85D50066681638387C38702641F
:10187000A0F84430A0F84630C168B1F5E06F06D951
:101880005A49C1645A49016507E001241CE05949DD
:10189000C16459490165022B04D301684A6822F4E6
:1018A000805203E001684A6842F480524A6001684D
:1018B0004A6842F0E0024A6001680A68520603D4AE
:1018C0000A6842F040020A6080F85C602046F0BD81
:1018D00070B40023846804251CB94468B4F5827F81
:1018E0000DD090F85C40012C0FD0012480F85C40B2
:1018F00090F85D600024012E0AD0022343E080F8B6
:101900005D5070BC13460A4688E7022070BC7047E1
:10191000B9B1B2B180F85D5004660164A0F844200A
:10192000A0F8462084638487C4870465C168B1F544
:10193000E06F01684A6806D922F480524A602F4954
:1019400005E001231FE042F480524A602C49C16443
:101950008168B1F5004F09D101680A6822F04002A0
:101960000A6001680A6822F480420A6001684A68D5
:1019700042F060024A6001680A68520603D40A68AD
:1019800042F040020A6080F85C401846BEE710B59D
:10199000806A01684A6822F003024A60016E41F0E1
:1019A00010010166012180F85D10FFF7B2FD10BD46
:1019B00038B50546846A00F060FE02462868006873
:1019C000800634D42068416821F0200141602068FD
:1019D000416821F00201416064212046FFF788FA46
:1019E000A0B10FE07F15000861150008E917000895
:1019F000B9170008551700080F17000897160008B8
:101A000073160008206E40F020002066A0680021B8
:101A100018B92068C26880680090E187012084F8C6
:101A20005D00206E18B12046FFF773FD38BD2046DB
:101A3000FFF76EFD38BD704710B5806AFFF7FBFFFA
:101A400010BD2DE9F041044690F85C000025012806
:101A500009D0012784F85C7094F85D000026012805
:101A600004D0022570E00220BDE8F08199B192B166
:101A7000032084F85D002666A163A287E2872664BE
:101A80002665E664A4F84460A4F84660A068B0F552
:101A9000004F02D00BE0012556E02068016821F0DC
:101AA000400101602068016841F480410160616D7E
:101AB000FD480863616DFD48C862616DFC4848637C
:101AC000606D86632068416821F480414160E06870
:101AD000B0F5E06F10D8606D8069B0F5806F0BD104
:101AE000E08FC0072068416816D041F48041416012
:101AF000E08F07EB5000E087E38F2268A16B0C3288
:101B0000606D01F026FE68B1206E40F01000206686
:101B1000012584F85D7017E021F480414160E08F79
:101B20004008E8E720680168490603D4016841F0ED
:101B3000400101602068416841F020014160206857
:101B4000416841F00201416084F85C6028468BE7FF
:101B500070B50546846A00F090FD0246286800686A
:101B6000800627D42068416821F020014160A068E8
:101B700018B96068B0F5827F17D02068416821F0FD
:101B80000101416064212046FFF79CFA08B1202042
:101B900020660020A4F84600012084F85D00206E35
:101BA00040B12046FFF7B5FC70BD2068416821F0C8
:101BB0000301E6E72046FFF73BFD70BD704710B517
:101BC000806AFFF7FBFF10BD70B50546846A00F020
:101BD00054FD02462868006880061FD420684168CA
:101BE00021F02001416064212046FFF781F918B1FE
:101BF000206E40F0200020662068416821F003013B
:101C000041600020E087A4F84600012084F85D00D0
:101C1000206E18B12046FFF77CFC70BD2046FFF710
:101C20004CFD70BD704710B5806AFFF7FBFF10BD1B
:101C30002DE9F041044690F85C00002501280DD004
:101C4000012684F85C6094F85D000027D4F804C095
:101C500001280ED0BCF5827F09D101E0022003E704
:101C6000D4F808C0BCF1000F01D1042801D002252E
:101C7000ADE011B30AB303B394F85D00042802D0B9
:101C8000052084F85D002766A163A387E3872264AB
:101C9000A4F84430A4F84630E7642765206841681A
:101CA00021F4C0414160E068B0F5E06F2068416810
:101CB00005D921F4805141602FE0012587E041F4EE
:101CC00080514160606D4FF48061806988420CD121
:101CD00094F83C00C0072068426837D042F4804244
:101CE0004260E08F06EB5000E087A06D806988427B
:101CF00013D12068416821F480514160B4F8460056
:101D0000C0072068416827D041F400514160B4F811
:101D1000460006EB5000A4F8460094F85D00042845
:101D200021D0A16D634808636348A16DC862A16DAD
:101D30005F484863A06D8763B4F846302168226C21
:101D40000C31A06D01F005FD38BB11E022F480429A
:101D50004260E08F4008C7E721F400514160B4F8C9
:101D600046004008D7E7A16D544808635448DCE7B3
:101D70002068416841F001014160606D0763606D5A
:101D8000C762606D4763606D8763E38F2268A16BF4
:101D90000C32606D01F0DDFC38B1206E40F01000B7
:101DA0002066012584F85D6011E02068016849061D
:101DB00003D4016841F0400101602068416841F0AE
:101DC000200141602068416841F00201416084F8CF
:101DD0005C70284648E62DE9F041044600258068FD
:101DE000042318B96668B6F5827F0ED094F85C605B
:101DF000012E12D0012684F85C6094F85DC00027A3
:101E0000BCF1010F0BD0022597E084F85D3020462D
:101E1000BDE8F04113460A460AE7022024E681B1F4
:101E20007AB184F85D3027662164A4F84420A4F8D0
:101E30004620E7642765A787E787B0F5004F02D003
:101E40000BE0012579E02068016821F04001016084
:101E50002068016821F4804101602068416821F414
:101E600000514160E068B0F5E06F2068416803D937
:101E700021F4805141602BE041F480514160A06D1C
:101E80008069B0F5806F23D12068416821F48051CA
:101E90004160B4F84600C0072068416834D041F47E
:101EA000005141600EE00000391A0008B119000825
:101EB0008F190008271C0008C91B0008BF1B000859
:101EC000511B0008B4F8460006EB5000A4F8460089
:101ED000A16DFE480863A16DFD48C862A16DFD4873
:101EE0004863A06D8763B4F846302168226C0C31DA
:101EF000A06D01F02EFC70B1206E40F01000206645
:101F0000012584F85D6018E021F400514160B4F8C7
:101F100046004008DAE720680168490603D40168F2
:101F200041F0400101602068416841F020014160BA
:101F30002068416841F00101416084F85C702846E6
:101F400092E538B504460068016821F0400101605F
:101F5000E14845F6C0510068B0FBF1F06421484308
:101F600000902068416821F040014160009808B36A
:101F7000401E0090206840684006F7D400F07DFBCA
:101F800000906423002280212046FEF757FF402561
:101F900000B1256600F071FB0090642300224FF42D
:101FA000C0612046FEF7DFFE00B12566072084F8F9
:101FB0005D0038BD206E40F040002066DEE77CB555
:101FC0000446C54845F6C0510068B0FBF1F06421F5
:101FD000484301902068416821F0800141600198E8
:101FE00000284BD0401E0190206840680006F6D4BF
:101FF00000F043FB024664212046FEF779FF4025AE
:1020000000B125662068016821F04001016000F000
:1020100034FB4FF4C0660090642300223146204612
:10202000FEF7A1FE00B1256620684168490621D56A
:10203000416821F040014160019820B3401E0190A9
:10204000206840684006F7D400F017FB0090642336
:10205000002280212046FEF7F1FE00B1256600F047
:102060000CFB00906423002231462046FEF77BFEE5
:1020700000B12566072084F85D007CBD206E40F02D
:1020800040002066B4E7206E40F040002066DBE7A9
:102090002DE9FC410446904845F6C05100250068F2
:1020A000B0FBF1F064214843019000902068416842
:1020B00021F0200141602168486800060CD587485E
:1020C0002065009800287DD0401E009094F85D00A7
:1020D0000728F6D101980090486840060CD5804842
:1020E000E064009800287DD0401E009094F85D00C8
:1020F0000728F6D10198009048684FF4C06880071F
:102100004FF040064FF0000725D5606D18B3876388
:10211000606D01F056FB00B126662068416821F031
:102120000201416000F0A9FA024664212046FEF750
:10213000DFFE00B126662068016821F040010160E1
:1021400000F09BFA00906423002241462046FEF7EF
:102150000AFE00B1266620684068C00727D0A06D3F
:1021600028B38763A06D01F02CFB00B126662068C0
:10217000016821F04001016000F07FFA00906423C3
:10218000002280212046FEF759FE00B1266600F0AD
:1021900074FA00906423002241462046FEF7E3FDD6
:1021A00000B126662068416821F001014160A4F871
:1021B0004670E787206E402819D027662068C168DE
:1021C000816801E009E00DE0009180680090012045
:1021D00084F85D002846BDE8FC81206E40F0400098
:1021E000206677E7206E40F04000206682E70125F8
:1021F000E4E77047F8B5846A2068016821F040017F
:102200000160A06D002585632068416821F001010F
:10221000416000F032FA00906423002280212046C1
:10222000FEF70CFE402600B1266600F026FA00906C
:10223000642300224FF4C0612046FEF794FD00B1F4
:102240002666606D10B1806B002812D1A4F846504C
:10225000E587206E402800D025662068C168816827
:10226000009180680090012084F85D002046FFF70F
:10227000C0FFF8BDF8B5846A0025606D85632068ED
:10228000416821F00201416000F0F7F90246642143
:102290002046FEF72DFE402600B126662068016824
:1022A00021F04001016000F0E8F900906423002271
:1022B0004FF4C0612046FEF756FD00B12666A06DC2
:1022C00010B1806B002820D10CE00000BF1B00087B
:1022D000511B00088F1900083C000020BF1F000898
:1022E000431F0008A4F84650E587206E402800D020
:1022F00025662068C168816800918068009001208F
:1023000084F85D002046FFF774FFF8BD2DE9FC411D
:102310000446AA4845F6C051002600680125B0FBD6
:10232000F1F064214843019000902068416821F059
:10233000200141602168486800060BD5A04820654F
:102340000098F8B1401E009094F85D000728F7D17E
:1023500001980090486840060BD59A48E0640098C0
:10236000A8B1401E009094F85D000728F7D10198AD
:102370000090606D002780B1496889070CD59249AB
:1023800081630AE0206E40F040002066E0E7206EA6
:1023900040F040002066EAE78763A06D38B121680D
:1023A0004968C90702D08949816300E087632068D2
:1023B00040684FF0400880070AD5606D40B101F0D9
:1023C00025FA20B1606D8763C4F8608000E00025C5
:1023D00020684068C00708D0A06D30B101F016FA3F
:1023E000B8B1A06D8763C4F8608095B1A4F8467059
:1023F000E787206E40280ED027662068C168816874
:10240000009180680090012084F85D002046FFF76D
:10241000F0FE3046DFE60126EFE790F85C10012978
:102420000CD0012180F85C1001684A6822F0030298
:102430004A60002180F85C1008467047022070470F
:1024400090F85C1001290CD0012180F85C10016823
:102450004A6842F003024A60002180F85C10084696
:1024600070470220704770B50446406D002538B1B2
:1024700001F0A7F920B1206E40F010002066012580
:10248000A06D38B101F09DF920B1206E40F0100030
:10249000206601252068416821F003014160012088
:1024A00084F85D00284670BD10B5806A0021A0F850
:1024B0004610C187FFF72DF810BD38B501680446F6
:1024C0004A688868C043430606D5C30704D1D3438E
:1024D0005B0601D4E16C05E0830708D4D3431B06F7
:1024E00005D4216D01B02046BDE830400847830681
:1024F00003D5430601D5C30551D4D3439B064ED41F
:1025000043060AD494F85D30032B49D0236E43F080
:1025100004032366CB688B680093830609D4236E7B
:1025200043F0010323668B6800930B6823F040039C
:102530000B60C00506D4206E40F0080020662068BD
:1025400080680090206E002829D02068416821F022
:10255000E0014160012084F85D00900701D4D007BC
:1025600022D02068416821F003014160184DA06D20
:1025700040B18563A06D01F049F918B1206E40F0BB
:1025800040002066606D002809D08563606D01F011
:102590003DF9002803D0206E40F04000206638BD91
:1025A000C8688868009038BD2046FEF7B2FF38BD85
:1025B00090F85D007047006E704700003C000020FE
:1025C000BF1F0008431F000875220008F5210008FE
:1025D000A92400083CBCBDE8C09F18BCBDE8E08F42
:1025E00030BCBDE8C09F0000704770B5824E054604
:1025F0000024307898B14FF47A71B1FBF0F07F4944
:102600000968B1FBF0F001F0AAFE40B9102D06D226
:1026100000222946501E01F058FE756000E001249A
:10262000204670BD10B50024032001F041FE0F20AC
:10263000FFF7DBFF08B1012401E0FEF7B7FA2046FF
:1026400010BD70476E4810B54FF0FF318163C16314
:1026500000228263C2630164026481628262C16299
:10266000C26201630263FFF7ECFF002010BD624805
:10267000816802781144816070475F4880687047C4
:102680005D484068704770B55B4D014600202C786E
:102690008C4206D029706868FFF7A7FF002800D099
:1026A0002C7070BD54480078704770B50446FFF731
:1026B000E4FF0546601C02D04F4800780444FFF751
:1026C000DCFF401BA042FAD370BD4FF0E02001694F
:1026D00021F00201016170474FF0E020016941F0F3
:1026E0000201016170474748704747480068000C85
:1026F000704745480068C0F30B00704743480068C6
:1027000070474248001D0068704740480830006824
:1027100070473D48416841F00101416070473A48C7
:10272000416821F00101416070473748416841F03C
:102730000201416070473448416821F00201416064
:1027400070473148416841F00401416070472E48AC
:10275000416821F00401416070472D48CA2141625F
:10276000532141622B490120C1F8000370472949D8
:1027700001200862704727490020086270472449F9
:102780000A6B22F0040202430A63704720490A6B75
:1027900022F0020202430A6370471D494A6B22F08D
:1027A0003F0202434A63704770B5194C206B40F0FA
:1027B00001002063FFF761FF054606E0FFF75DFFBC
:1027C000401B0A2801D9032070BD206B0007F5D5F6
:1027D000002070BD0E48016B21F0010101637047BC
:1027E0000B48416841F48071416070470848416876
:1027F00021F4807141607047300000203C000020CF
:102800000010024000030D01002004E09075FF1F3E
:1028100000000140000020422DE9F041FE4C2068FC
:1028200040F001002060FFF728FF054604E0FFF7B5
:1028300024FF401B022831D820688007F7D5206884
:1028400020F0F00040F0600020600026A660F4490F
:10285000F2480860F3480068FFF7C7FE10B1012096
:10286000BDE8F081FFF709FF054641F2883704E033
:10287000FFF703FF401BB84210D8A06810F00C0F00
:10288000F6D12068E84908402060FFF7F6FE0546CB
:1028900006E0FFF7F2FE401B022801D90320DFE724
:1028A000206810F0285FF4D1E660E06840F48050C2
:1028B000E0602661206940F48050206166616069B3
:1028C00040F480506061206820F480202060A66180
:1028D0004FF0FF302062D4F8940040F40000C4F8B8
:1028E00094000020BCE770B5CB4B002210469968DD
:1028F000DC6811F00C0104F00306CC4C4FEA6405CF
:1029000008D00C2904D0042931D0082931D010E096
:10291000012E10D11A68120704D4D3F89420C2F300
:10292000032202E01A68C2F30312C14E56F82220B5
:10293000D9B10C2918D1D86800F0030002281AD0A8
:1029400003281AD01046D968DA68C1F30211C2F31D
:1029500006224243491CB2FBF1F0D968C1F3416140
:10296000491C4900B0FBF1F070BD104670BD204617
:1029700070BD284670BD2046E5E72846E3E7F8B578
:10298000A54E05460024B06DC00002D501F050F9F7
:102990000DE0B06D40F08050B065B06D00F080503B
:1029A000009001F045F9B16D21F08051B165B0F5AD
:1029B000007F04D0802D07D94FF003040AE0802D5A
:1029C00008D9A02D01D804E001D1022402E0702D25
:1029D00000D101249748016821F0070121430160DB
:1029E000006800F00700A04201D00120F8BD0020DF
:1029F000F8BD2DE9F84304006FD0874EB06800F0B1
:102A00000C05F06800F003072078C00664D575B1A6
:102A10000C2D01D1012F0AD0A0690028306879D08F
:102A200040F001003060FFF728FE80465CE030682F
:102A3000800702D5A0690028DED0216A306800072F
:102A400003D5306800F0F00004E0D6F89400F022DE
:102A500002EA1010814216D90846FFF790FF0028BD
:102A60003BD1306840F0080030603068216A20F0C7
:102A7000F000084330607068E16920F47F4040EA6C
:102A80000120706016E0306840F008003060306867
:102A9000216A20F0F000084330607068E16920F49A
:102AA0007F4040EA0120706025B9206AFFF767FF88
:102AB0000028D5D1FFF717FFB1685F4AC1F30311B2
:102AC000515C01F01F01C840554908605548006835
:102AD000FFF78BFD00287DD12CE0CDE0FFF7CDFD89
:102AE000A0EB0800022876D830688007F6D5306859
:102AF00040F0080030603068216A20F0F0000843A0
:102B000030607068E16920F47F4040EA0120706025
:102B100010E0FFE720F001003060FFF7AEFD8046D7
:102B200005E0FFF7AAFDA0EB08000228DBD830681B
:102B30008007F6D42078C00740D0082D18D00C2D7F
:102B400001D1032F14D06068B0F5803F17D0B0F5E5
:102B5000A02F306817D020F480303060306820F427
:102B6000802030606068E0B1FFF787FD804614E0A8
:102B70003068800322D5606800287DD01EE0306870
:102B800040F48030EDE740F480203060F7E7FFF755
:102B900074FDA0EB08006428A5D830688003F6D542
:102BA0000CE0FFF76AFD804605E0FFF766FDA0EB4D
:102BB0000800642897D830688003F6D4207880070E
:102BC0004BD5042D11D00C2D01D1022F0DD0E06872
:102BD000002801E086E1E4E030682FD040F4807006
:102BE0003060FFF74AFD07460BE0306840050BD523
:102BF000E0680028C1D007E0FFF73FFDC01B0228B6
:102C000094D830684005F7D57068217C20F0F850E2
:102C100040EA0160706020E00010024000093D00C1
:102C20003C00002034000020FFF4FEEA0024F40001
:102C3000AC880008002002409C88000820F48070C6
:102C40003060FFF71AFD074604E0FFF716FDC01BD2
:102C50000228A1D830684005F7D42078000729D58C
:102C600060690028D6F8940013D040F00100C6F83F
:102C70009400FFF702FD00E00AE1074604E0FFF7D9
:102C8000FCFCC01B022887D8D6F894008007F6D534
:102C900010E020F00100C6F89400FFF7EEFC0746B4
:102CA00004E0FFF7EAFCC01B02287AD8D6F89400AB
:102CB0008007F6D42078400765D5B06D4FF0000846
:102CC000C00009D4B06D40F08050B065B06D4FF0D9
:102CD000010800F080500090F6480168C90511D441
:102CE0000168814641F480710160FFF7C6FC074628
:102CF00004E0FFF7C2FCC01B022852D8D9F800003C
:102D0000C005F6D5A068012815D00528D6F8900092
:102D100016D020F00100C6F89000D6F8900020F000
:102D20000400C6F89000A06841F28839B8B1FFF7F6
:102D3000A4FC07460EE0D6F8900040F00100F0E752
:102D400040F00400C6F89000F5E7FFF796FCC11BC1
:102D5000494526D8D6F890008007F6D50CE0FFF755
:102D60008CFC074604E0FFF788FCC11B494518D8D6
:102D7000D6F890008007F6D4B8F1000F03D0B06DFC
:102D800020F08050B065A06AF0B302280AD00C2D64
:102D90007ED0306820F080703060FFF76EFC044613
:102DA000A2E09EE0F068E26A00F00301914229D1BE
:102DB000216B00F0700209011039914222D1626B3F
:102DC00000F4FE41B1EB022F1CD1A16B00F40032E4
:102DD000072901D0012100E000218A4212D1A18FF0
:102DE00000F4C00249084905A1F50011914209D13A
:102DF00094F8401000F0C06049084906A1F1007144
:102E0000814251D00C2D00E065E076D03068400161
:102E100073D43068C00070D4306820F080703060A7
:102E2000FFF72BFC054604E0FFF727FC401B0228B8
:102E300057D830688001F7D4D4E90B016FF00F0246
:102E400002EB01110843A18F5204490802EB4151E2
:102E5000626B41EA0221084394F840104FF07E4231
:102E6000490802EB41610843A16B090940EA41406E
:102E7000F168914A11400843F060306840F080707A
:102E80003060F06840F08070F060FFF7F6FB00E023
:102E900033E0044604E0FFF7F0FB001B022820D8D3
:102EA00030688001F7D526E03068800123D430688F
:102EB00040F080703060F06840F08070F060FFF7A4
:102EC000DCFB044604E0FFF7D8FB001B022808D80F
:102ED00030688001F7D50EE0FFF7CFFB001B02281A
:102EE00002D90320BDE8F88330688001F4D4F0688B
:102EF00072490840F0600020F4E70120F2E72DE974
:102F0000F0470D46040071D0DFF8B481D8F8000016
:102F100000F00700A8420CD2D8F8001021F00701F9
:102F20002943C8F80010D8F8000000F00700A842B4
:102F30005CD12078634E80070AD5A068B16801F0A3
:102F4000F001884204D9B16821F0F0010143B16079
:102F50002078C0072BD06068032811D0022812D037
:102F6000316898B14905002940DAB16821F00301C0
:102F70000143B160FFF781FB074641F288390FE05A
:102F800031688901EFE731688903ECE78907EAE7EF
:102F9000FFF773FBC11B494502D90320BDE8F08749
:102FA000B068616800F00C00B0EB810FF0D12078C0
:102FB00080070AD5A068B16801F0F001884204D208
:102FC000B16821F0F0010143B160D8F8001040462B
:102FD00001F00701A9420BD9016821F0070129433B
:102FE0000160006800F00700A84201D00120D5E789
:102FF0002078400705D5B068E16820F4E060084318
:10300000B0602078000706D5B068216920F46050D0
:1030100040EAC100B060FFF766FCB1682A4AC1F31C
:103020000311515C01F01F01C8402849086028487D
:103030000068BDE8F047FFF7D8BA70B5214C86B0FC
:103040001646E06C0D4640F00100E064E06C694615
:1030500000F001000590A01500900220019003905F
:103060000020029004904FF0904000F0DDF8A0683E
:10307000354320F0EE402843A06006B070BD1348F1
:103080000068704711480F4900688968114AC1F308
:103090000221515C01F01F01C84070470B480949EB
:1030A000006889680B4AC1F3C221515C01F01F011D
:1030B000C8407047007000408C809DF9FCFFEEFE18
:1030C00000200240001002409C8800083C000020C4
:1030D00034000020DC88000810B51F210160504931
:1030E0000A6853034FF0000202D54FF4A02304E016
:1030F0000B68DB0303D54FF48033436000E042608C
:103100000B68DC074FF0010301D0836100E08261AE
:103110004C68C4F30724C4610C6804F0F004046232
:103120000C68E40503D54FF48074C46000E0C2600D
:103130004C68C4F304640461D1F89040640702D57C
:103140000524846006E0D1F89040E40701D0836054
:1031500000E08260D1F89440E40701D0436100E0D0
:10316000426142620A68D20102D50222826200E014
:103170008362CA6802F00302C262CA68C2F3021222
:10318000521C0263CA68C2F306224263CA68C2F3D1
:103190004152521C5200C263CA68C2F34162521CBF
:1031A00052000264C968890301D5112100E007219A
:1031B000816310BD0F220260194A936803F0030374
:1031C0004360936803F0F0038360936803F4E06363
:1031D000C36092684FF4E06303EAD20202611148CF
:1031E000006800F00700086070470D48016841F46E
:1031F000002101607047704710B5094CE069C005B7
:1032000003D5FFF7F8FFA015206210BD044951F85F
:10321000940F0A6800F07E4042F400020A60704792
:1032200000100240002002402DE9F84FDFF814930F
:103230000022A9F1040B03274FF00F0C09F1040A37
:10324000ABF1040EC1E001249440234077D00D7906
:1032500005F00305012D01D0022D15D1866855001A
:1032600007FA05F826EA0806D1F80C8008FA05F8EE
:1032700048EA0608C0F8088045680E79A543C6F3F9
:10328000001696402E4346604D68EE43B6070AD1BD
:10329000C66AA643C5F3C00494403443C4620C79A3
:1032A000E443A40708D0C568540007FA04F6B54300
:1032B0008E68A6402E43C6600C7904F00304022CED
:1032C00011D1D40800EB8406356A5407E40E0CFAD9
:1032D00004F825EA0805D1F8108008FA04F848EA4D
:1032E0000508C6F820800568540007FA04F6B543BF
:1032F0000E7906F00306A6402E4306604C6814F4CF
:10330000403F61D0904C256E45F001052566246E46
:1033100022F0030504F0010400948C4C05EB040832
:10332000D8F808509407260F0CFA06F4A543B0F11C
:10333000904F05D0864CA04204D101241CE043E00C
:10334000002419E0834CA04201D1022414E0824CF5
:10335000A04201D103240FE0804CA04201D10424FB
:103360000AE07F4CA04201D1052405E07D4CA0423B
:1033700001D1062400E00724B4402C43C8F80840DB
:10338000D9F800404D464E689C43F60200D51C43D8
:103390002C60DAF8004055464E689C43B60200D5D2
:1033A0001C432C60DBF800405D464E689C43B6032E
:1033B00000D51C432C60DEF8004075464E689C43E7
:1033C000F60300D51C432C60521C0B6833FA02F440
:1033D0007FF439AF00F0C8B82DE9F04F0022DFF8D4
:1033E0006CA14FF0010B4FF00F0978E00BFA02F5DA
:1033F00015EA010472D022F003065644B368970719
:103400004FEA177C09FA0CF707EA0308B0F1904F6E
:1034100004D04F4B984203D101231BE0002319E055
:103420004C4B984201D1022314E04B4B984201D1FE
:1034300003230FE0494B984201D104230AE0484B93
:10344000984201D1052305E0464B984201D106235D
:1034500000E0072303FA0CF3434522D1DFF8E4C070
:10346000ACF1080CDCF80030A343CCF800300CF1D0
:10347000040CDCF80030A343CCF80030DFF8C4C003
:103480000CF1040CDCF80030A343CCF80030DFF87A
:10349000B4C0DCF80030A343CCF80030B368BB43C1
:1034A000B360046856000323B3401C430460D4088F
:1034B00000EB8404276A56074FEAD66C09FA0CF62B
:1034C000B743276284689C4384604468AC4344608B
:1034D000C4689C43C460C36AAB43C362521C31FAE4
:1034E00002F383D100F043B80069084000D0012006
:1034F00070470AB18161704781627047426921EA71
:1035000002030A4043EA02418161704708B541F471
:1035100080320092C261C1610099C161C1690091AC
:10352000C069C00301D5002008BD012008BD704757
:10353000044910B50C310A68024202D00860FFF756
:10354000F6FF10BD080401400010024000000140D9
:103550000004004800080048000C00480010004823
:10356000001400480018004818BCBDE8E08F30BCCB
:10357000BDE8C08F70B568B1FD4C01681423FD4AE9
:10358000A14209D2FC4C0C44B4FBF3F39B00C0E90C
:1035900010230BE0012070BDF54C64420C44B4FBD9
:1035A000F3F39B004364F24B083B0364022380F86F
:1035B00025300C6847F6F0739C43D0E902352B4365
:1035C000D0E9045635432B4385692B43C5692B430A
:1035D000056A2B4323430B608168B1F5804F29D0E6
:1035E000016C0F23914212D152F8A81F90F8444069
:1035F00004F01C04A3409943116090F844304168E2
:1036000003F01C03994013681943116012E0D84974
:10361000A0310A6890F8444004F01C04A3409A4387
:103620000A6090F84430426803F01C039A400B682B
:103630001A430A600021C163012280F8252080F826
:103640002410084670BD30B590B101680A6822F0B8
:1036500001020A60C64C02681421C64BA24209D27C
:10366000C54C1444B4FBF1F18900C0E910310BE002
:10367000012030BDBE4C64421444B4FBF1F189001A
:103680004164BB49083901640021116090F844206D
:1036900002F01C040122A240046C6260046C0F2240
:1036A0009C4202D153F8A84F02E0B14BA0331C68F2
:1036B00090F8445005F01C05AA4094431C60C16278
:1036C000016341638163C16380F8251080F8241091
:1036D000002030BD30B590F8444004F01C050124B2
:1036E000AC40056C6C60046863608368102B0368F1
:1036F00003D099600068C26030BD9A600068C16004
:1037000030BD70B5044690F82400002501280CD087
:10371000012084F8240094F825600020012E06D0B2
:1037200084F824000225284670BD022070BD0226C0
:1037300084F82560E0632068066826F001060660CC
:103740002046FFF7C7FF2068016841F001010160D2
:10375000E9E770B5044690F82400002501280CD054
:10376000012084F8240094F825600020012E06D062
:1037700084F824000225284670BD022070BD022670
:1037800084F82560E0632068066826F0010606607C
:103790002046FFF79FFF206B00282068016802D0B9
:1037A00041F00E0106E021F004010160206801688B
:1037B00041F00A0101602068016841F001010160E7
:1037C000D9E710B590F825100022022905D0042170
:1037D000C16380F82420012010BD01680B6823F02C
:1037E0000E030B6001680B6823F001030B6090F877
:1037F0004410012401F01C0304FA03F1036C596026
:1038000080F8254080F82420104610BD10B590F8AF
:1038100025100024022903D00421C16301241AE0E9
:1038200001680A6822F00E020A6001680A6822F044
:1038300001020A6090F84410012301F01C0203FA0F
:1038400002F1026C516080F82530002180F82410CC
:10385000816B01B18847204610BD2DE9F05F044619
:1038600090F8250015468B464FF000084FF0040AEB
:10387000022802D0C4F83CA04DE020680068800611
:1038800003D54FF48070E06347E094F84400BBF147
:10389000000F00F01C0007D00AFA00F6FEF7EDFE5C
:1038A00007464FF001091FE002268640F6E701684F
:1038B00094F8440000F01C020820904001420BD014
:1038C00094F84400226C00F01C0109FA01F148460A
:1038D0005160C4F83C901CE0681C05D0FEF7CDFE9A
:1038E000C01BA84212D88DB1206C01683142DED0D5
:1038F00094F84400BBF1000F00F01C010FD00AFA4D
:1039000001F0216C4860002000F0C8B82020E0637E
:10391000484684F8250084F824800120F4E702203A
:103920008840216C486084F8248084F82590EAE778
:10393000F0B4016C0B6801680A6890F844400425F3
:1039400004F01C0405FA04F61E4217D0560715D5DC
:103950000A68920603D40A6822F004020A6090F80A
:10396000441001F01C018D40016C4D60016B23E09F
:103970000804024000000240F8FFFDBF022606FADC
:1039800004F71F424FF0000C4FF0010518D09707C5
:1039900016D50A68920605D40A6822F00A020A605F
:1039A00080F8255090F8441001F01C018E40016C05
:1039B0004E6080F824C0C16A00291AD0F0BC0847C4
:1039C0000826A6401E4214D0120712D50A6822F01B
:1039D0000E020A6090F84410026C01F01C0105FA16
:1039E00001F15160C56380F8255080F824C0416B17
:1039F000E2E7F0BC704710B590F824400023012C9A
:103A000007D0012480F8244090F82540012C02D0F2
:103A100008E0022010BD59B101290BD002290BD0BA
:103A200003290BD00123002180F82410184610BD73
:103A3000C262F8E70263F6E74263F4E78263F2E703
:103A400010B590F824300022012B08D0012380F813
:103A5000243090F825400023012C02D014E00220ED
:103A600010BD052910D2DFE801F0030507090B009E
:103A7000C3620AE0036308E0436306E0836304E093
:103A8000C36203634363F9E7012280F824301046E0
:103A900010BD90F825007047C06B704730BCBDE882
:103AA000C09F00005E48816B41F080518163816B53
:103AB00021F08051816370475A48016841F4807158
:103AC000016070475748016821F4807101607047B8
:103AD00030B554494A68036822F00E021A434A601E
:103AE000514B196821F4803119601A1F116821F4B3
:103AF000803111604C4C0834216821F48031216000
:103B0000191D0D6825F480350D604568ED0303D55A
:103B1000156845F4803515604268920303D51A682C
:103B200042F480321A600279D20703D00A6842F464
:103B300080320A600079800703D5206840F4803025
:103B40002060002030BD3748416841F001014160EC
:103B500070473448416821F0010141607047314AA3
:103B6000D36800F01F018B4343EA5010D060906887
:103B70000843906070472B498A6800F01F00824319
:103B80008A607047274A10B5002850690C460FD04C
:103B9000C043800501D500F0E2FA2448016821F015
:103BA00004010160012C0AD040BF20BF20BF10BD1E
:103BB0008005F2D500F0D9FA0028F8D1EDE730BF42
:103BC00010BDB0F5804F084601D000F0E9BA00F012
:103BD000FDBA1448016821F00701C91C01601348AF
:103BE000016841F00401016030BF70470F4801686F
:103BF00041F00201016070470C48016821F00201A8
:103C0000016070470948016841F010010160704788
:103C10000648016821F010010160704770470000FC
:103C200000100240007000400404014010ED00E06C
:103C3000FE48006800F4C0607047FC49B0F5007FA2
:103C40000868C0F3412009D0022805D0086820F494
:103C5000C06040F480600860002070470128FBD0FD
:103C6000086820F4C06040F400700860F048322218
:103C700000685043EF4AB0FBF2F0401C00E0401EE9
:103C80004A69520501D50028F9D148694005E3D5B4
:103C900003207047E549CA6822F400720243CA60F3
:103CA000C86840F48070C8607047E048C16821F47B
:103CB0008071C1607047DD48416841F480614160B6
:103CC0007047DA48416821F4806141607047D74805
:103CD000416841F4007141607047D448416821F463
:103CE000007141607047D148816841F400418160B2
:103CF0007047CE48816821F40041816070470346D7
:103D000010B50020C94A082B45D2DFE803F0040FA4
:103D1000181F262D343B136A21F480442343136279
:103D2000536A21F420418B43536210BD936A0B43C5
:103D30009362D36A21F010018B43D36210BD136BE1
:103D40000B431363536B8B43536310BD936B0B4354
:103D50009363D36B8B43D36310BD136C0B4313641A
:103D6000536C8B43536410BD936C0B439364D36CBF
:103D70008B43D36410BD136D0B431365536D8B439D
:103D8000536510BD936D01F003010B439365D36D33
:103D90008B43D36510BD012010BD034610B5002034
:103DA000A24A082B29D2DFE803F0040A0E12161AE1
:103DB0001E22136A21F480418B43136210BD936A63
:103DC0008B43936210BD136B8B43136310BD936BD6
:103DD0008B43936310BD136C8B43136410BD936CC2
:103DE0008B43936410BD136D8B43136510BD936DAE
:103DF00001F003018B43936510BD012010BD034604
:103E000010B50020894A082B45D2DFE803F0040FE3
:103E1000181F262D343B536A21F420442343536258
:103E2000136A21F480418B43136210BDD36A21F0E1
:103E300010042343D362936A8B43936210BD536B88
:103E40000B435363136B8B43136310BDD36B0B4353
:103E5000D363936B8B43936310BD536C0B435364D9
:103E6000136C8B43136410BDD36C0B43D364936CFE
:103E70008B43936410BD536D0B435365136D8B439C
:103E8000136510BDD36D01F003010B43D365936D32
:103E90008B43936510BD012010BD034610B5002073
:103EA000624A082B2BD2DFE803F0040A1014181C16
:103EB0002024536A21F420418B43536210BDD36AFE
:103EC00021F010018B43D36210BD536B8B435363BE
:103ED00010BDD36B8B43D36310BD536C8B435364C2
:103EE00010BDD36C8B43D36410BD536D8B435365AE
:103EF00010BDD36D01F003018B43D36510BD0120CC
:103F000010BD4A48816841F480618160704747482C
:103F1000816821F4806181607047444920B1B0F527
:103F2000807F05D001207047886820F4807002E00F
:103F3000886840F480708860002070474FF480707B
:103F4000EBE70020E9E73948C16841F40051C1605E
:103F500070473648C16821F40051C160704733484A
:103F6000416841F01001416070473048416821F0DC
:103F70001001416070472D48416841F020014160C7
:103F800070472A48416821F0200141607047274866
:103F9000416841F04001416070472448416821F088
:103FA0004001416070472148416841F08001416013
:103FB00070471E48416821F080014160704770B52C
:103FC0001D4B1D4C016800221E1F08341D1D1029A9
:103FD00008D020293CD0402966D080297ED00122FB
:103FE000104670BD196821F008011960316821F090
:103FF00008013160216821F008012160296821F061
:10400000080129604168C90303D5316841F00801FE
:1040100031604168890303D5196841F008011960CE
:104020000179C9070DD0296808E000000070004040
:104030003C00002040420F002404014041F00801F0
:10404000296000798007CBD5206840F0080084E023
:10405000196821F010011960316821F010013160F8
:10406000216821F010012160296821F010012960E8
:104070004168C90303D5316841F0100131604168DE
:10408000890303D5196841F0100119600179C90746
:1040900003D0296841F010012960007980079FD57D
:1040A000206840F0100058E0196821F020011960E4
:1040B000316821F020013160216821F02001216068
:1040C000296821F0200129604168C90303D53168BE
:1040D00041F0200131604168890300E012E003D51E
:1040E000196841F0200119600179C90703D02968D6
:1040F00041F02001296000798007A4D5206840F0B4
:1041000020002AE0196821F040011960316821F08F
:1041100040013160216821F040012160296821F0CF
:10412000400129604168C90303D5316841F040016D
:1041300031604168890303D5196841F04001196075
:104140000179C90703D0296841F04001296000794D
:104150008007A4D5206840F04000206040E74F4829
:10416000016841F48041016070474C49086820F4BF
:10417000804008604A48322200685043494AB0FBF8
:10418000F2F0401C00E0401E4A69920501D500286B
:10419000F9D14869800501D5032070470020704798
:1041A0003E490A6822F007020A603F490A6842F065
:1041B00004020A60012807D040BF20BF20BF086862
:1041C00020F004000860704730BFF8E733490A6800
:1041D00022F00702521C0A6033490A6842F00402C6
:1041E0000A60012807D040BF20BF20BF086820F028
:1041F00004000860704730BFF8E728490A6822F0D9
:104200000702921C0A6028490A6842F004020A6008
:10421000012807D040BF20BF20BF086820F004005D
:104220000860704730BFF8E71C48016821F00701BB
:10423000091D01601C48016841F00401016030BFA4
:104240007047704770477047704710B5174C20682B
:10425000C00304D5FFF7E2FC4FF480302060134C1C
:1042600020342068000703D5FFF7EEFF0820206008
:104270002068C00603D5FFF7E6FF10202060206805
:10428000800603D5FFF7DEFF20202060206840066F
:1042900003D5FFF7D6FF4020206010BD007000401E
:1042A0003C00002040420F0010ED00E014040140EB
:1042B000994A00F0070110684FF6FF03184040EAE2
:1042C00001209649084310607047F0B4924B1B6878
:1042D000C3F30223C3F10704042C00D904241D1DD9
:1042E000072D01D2002300E0DB1E012606FA04F5AB
:1042F0006D1E0D409D409E40761E164045EA06010B
:10430000F0BC00F0F8B8002809DB00F01F02012122
:1043100091404009800000F1E020C0F80011704792
:1043200000280DDB00F01F020121914040098000B0
:1043300000F1E020C0F88011BFF34F8FBFF36F8F03
:104340007047BFF34F8F74480168744A01F4E0610D
:10435000121D11430160BFF34F8F00BFFDE710B581
:10436000401EB0F1807F01D3012010BD4FF0E0244A
:1043700060610F21601700F0BEF80020A0610720E7
:104380002061002010BD64480068C0F3022070471F
:10439000F0B5002804DB00F1E02090F8000405E00F
:1043A00000F00F0000F1E02090F8140D040901F076
:1043B0000700C0F10701042900D90421051D072DBC
:1043C00001D2002000E0C01E012724FA00F607FAFF
:1043D00001F56D1E2E4007FA00F56D1E2540166092
:1043E0001D60F0BD002809DB00F01F020121914093
:1043F0004009800000F1E020C0F80012704700285A
:104400000DDB4109890001F1E021D1F8001200F033
:104410001F0201209040014201D00120704700207E
:104420007047002809DB00F01F020121914040097C
:10443000800000F1E020C0F88012704700280DDBFA
:104440004109890001F1E021D1F8001300F01F02B9
:1044500001209040014201D00120704700207047A8
:104460004FF0E0210428086903D020F0040008611F
:10447000704740F00400FAE7704710B5FFF7FCFF03
:1044800010BD254940F0010088310860BFF34F8F0F
:10449000BFF36F8F7047BFF35F8F1F4900208831D4
:1044A000086070471C4A41788C3211600378111DF6
:1044B0000A1DE3B143680B60017BC37A090741EA37
:1044C0000361837A41EAC341437B41EA8341837BB1
:1044D00041EA4341C37B41EA0341437A41EA032174
:1044E000037A007841EA43010143116070470020DC
:1044F0000860106070470907090E002804DB00F10E
:10450000E02080F80014704700F00F0000F1E02078
:1045100080F8141D704700000CED00E00000FA0563
:104520002848016841F470010160704770B5264C5D
:104530002068000704D4D4F89400C0F3032002E0FC
:104540002068C0F30310214951F82010A068204AC8
:1045500010F00C0007D01F4D042806D06E1008285C
:1045600005D00C2805D011601CE015601AE016601B
:1045700018E0E06800F00303E068C0F30210401C9C
:10458000022B19D0032B1AD0B1FBF0F0E168C1F374
:1045900006214143E068C0F34160401C4000B1FB8C
:1045A000F0F01060A0680949C0F303101039085CEE
:1045B0001168C140116070BDB5FBF0F0E6E7B6FBD5
:1045C000F0F0E3E788ED00E000100240AC8800085E
:1045D0003C0000200024F40007E000BFB0EC010A1A
:1045E000521EB0EEC00AA1EC010A002AF6D17047B3
:1045F00070B50D460646144607E000BFB6EC020B48
:1046000002F06EF8A5EC020B641E002CF6D170BD12
:1046100010B500240AE000BF30F9023B002B02DC99
:10462000D4FA13F31BB221F8023B521E002AF3D135
:1046300010BD10B5002406E008C8002B01DC83FA89
:10464000A4F308C1521E002AF6D110BD10B50024F3
:104650000AE000BF10F9013B002B02DCC4FA13F39F
:104660005BB201F8013B521E002AF3D110BD08E0F5
:10467000B0EC010A5B1EF1EC010A30EE200AA2EC5C
:10468000010A002BF4D170472DE9F04115460E4682
:1046900007461C460FE000BF96ED001B97ED000B90
:1046A00053EC112B51EC100B03F074FB641E083615
:1046B000E5E802010837002CEED1BDE8F08130B505
:1046C00009E000BF30F9024B31F9025B94FA15F4AE
:1046D00022F8024B5B1E002BF4D130BD30B505E053
:1046E00010C820C985FA84F410C25B1E002BF7D1D4
:1046F00030BD30B50AE000BF10F9014B11F9015B84
:104700005B1E2C4404F3070402F8014B002BF3D189
:1047100030BD30B508E000BF30F8024B31F8025B25
:104720002C4022F8024B5B1E002BF5D130BD30B57A
:1047300004E010C820C92C4010C25B1E002BF8D129
:1047400030BD30B508E000BF10F8014B11F8015B37
:104750002C4002F8014B5B1E002BF5D130BD9FEDC4
:10476000F80A06E0F0EC010A521EB1EC011A00EE64
:10477000810A002AF6D183ED000A70472DE9F04145
:104780001F462DED028B0D4606469FEDEE8B14461F
:1047900013E000BF95ED000B96ED001B53EC102BC2
:1047A00051EC110B03F0D4FD53EC182B03F0F2FA8B
:1047B00041EC180B641E08350836002CEAD187ED51
:1047C000008BBDEC028B78E7F0B50024254606E0AF
:1047D00030F9027B31F9026BC7FB8645521E002A75
:1047E000F6D1C3E90045F0BDF0B500252C460BE03D
:1047F00040C880C9A2F1010286FB0776BF0B47EAD9
:1048000086477D1944EBA634002AF1D1C3E9005450
:10481000F0BD70B5002406E010F9015B11F9016BE1
:1048200015FB0644521E002AF6D11C6070BD08E03C
:10483000B0EC010A5B1EF1EC010A20EE200AA2ECAA
:10484000010A002BF4D170472DE9F04115460E46C0
:1048500007461C460FE000BF96ED001B97ED000BCE
:1048600053EC112B51EC100B03F072FD641E083653
:10487000E5E802010837002CEED11EE730B50AE06A
:1048800030F8024B31F8025B14FB05F424F3CF340B
:1048900022F8024B5B1E002BF2D130BD30B508E090
:1048A00010C820C954FB05F404F31E04640010C2B0
:1048B0005B1E002BF4D130BD30B50AE010F9014B7E
:1048C00011F9015B14FB05F424F3C71402F8014B42
:1048D0005B1E002BF2D130BD07E000BFB0EC010A37
:1048E000521EB1EE400AA1EC010A002AF6D170472F
:1048F00070B50D46064614460AE000BF96ED000B63
:1049000051EC100B03F008FA641EE5E802010836CA
:10491000002CF3D170BD30B58C4C650C0AE000BFA3
:1049200030F9023BA34201D12B4600E05B4221F863
:10493000023B521E002AF3D130BD10B5002404E022
:1049400008C883FAA4F308C1521E002AF8D110BD8A
:1049500010B5002407E000BF10F9013BC4FA13F3BF
:1049600001F8013B521E002AF6D110BD06E000BF3F
:1049700030F8023BDB4321F8023B521E002AF7D1FC
:10498000704703E008C8DB4308C1521E002AF9D172
:10499000704705E010F8013BDB4301F8013B521E74
:1049A000002AF7D1704706E0F0EC010A521E70EEC3
:1049B000800AE1EC010A002AF6D1704770B50D4675
:1049C0002DED028BB0EE408AF0EE608A064614466A
:1049D0000CE000BF96ED000B53EC182B51EC100BC4
:1049E00003F0D8F9641EE5E802010836002CF1D185
:1049F000BDEC028B70BD10B507E000BF30F9024B73
:104A000094FA11F422F8024B5B1E002BF6D110BD74
:104A100010B504E010C881FA84F410C25B1E002BAC
:104A2000F8D110BD10B507E010F9014B5B1E0C4426
:104A300004F3070402F8014B002BF5D110BD30B58B
:104A400008E000BF30F8024B31F8025B2C4322F83B
:104A5000024B5B1E002BF5D130BD30B504E010C811
:104A600020C92C4310C25B1E002BF8D130BD30B5DD
:104A700008E000BF10F8014B11F8015B2C4302F86D
:104A8000014B5B1E002BF5D130BD06E0F0EC010AB6
:104A9000521E60EE800AE1EC010A002AF6D170474E
:104AA00070B50D462DED028BB0EE408AF0EE608AB7
:104AB000064614460CE000BF96ED000B53EC182B95
:104AC00051EC100B03F044FC641EE5E802010836CB
:104AD000002CF1D18CE730B5C2F10F0252B2039C29
:104AE0000AE000BF30F8025B15FB01F5154105F344
:104AF0000F0523F8025B641E002CF3D130BDF0B526
:104B0000521C55B205F08002059C52B2BAB16D42FA
:104B1000002C21D004C852FB01F22A4104C3641EB8
:104B2000F6E704C852FB01F606FA05F242FA05FC64
:104B3000B44501D087EAE67204C3641E0AE007E0C8
:104B40000000000000000000000000000080FFFFE7
:104B50006FF00047002CE4D1F0BD30B5C2F1070280
:104B600052B2039C0AE000BF10F9015B15FB01F58E
:104B7000154105F3070503F8015B641E002CF3D112
:104B800030BD10B511F0800F12D04942002B11D06A
:104B900030F9024B0C4122F8024B5B1EF6E700BFD6
:104BA00030F9024B8C4004F30F0422F8024B5B1ED9
:104BB000002BF5D110BD2DE9F04115460F460646F4
:104BC00011F0800F1C4615D04842002C16D002CEA2
:104BD000014102C5641EF8E701CE3A46C11701F053
:104BE00087F8CA17B1EBE07F01D082EA080001C55F
:104BF000641E01E06FF00048002CEDD15DE510B5BA
:104C000011F0800F12D04942002B11D010F9014B46
:104C10000C4102F8014B5B1EF6E700BF10F9014B97
:104C20008C4004F3070402F8014B5B1E002BF5D106
:104C300010BD08E0B0EC010A5B1EF1EC010A30EE99
:104C4000600AA2EC010A002BF4D170472DE9F04173
:104C500015460E4607461C460FE000BF96ED001BAA
:104C600097ED000B53EC112B51EC100B03F0B0FC43
:104C7000641E0836E5E802010837002CEED11CE579
:104C800030B508E030F9024B31F9025BD4FA15F483
:104C900022F8024B5B1E002BF4D130BD30B505E08D
:104CA00010C820C985FAA4F410C25B1E002BF7D1EE
:104CB00030BD30B50AE000BF10F9014B11F9015BBE
:104CC000641B04F3070402F8014B5B1E002BF3D1B5
:104CD00030BD30B508E000BF30F8024B31F8025B60
:104CE0006C4022F8024B5B1E002BF5D130BD30B575
:104CF00004E010C820C96C4010C25B1E002BF8D124
:104D000030BD30B508E000BF10F8014B11F8015B71
:104D10006C4002F8014B5B1E002BF5D130BD10B585
:104D200000231AE000EB830494ED001AB4EEE01ABD
:104D3000F1EE10FA04DD01EB8304C4ED000A0BE090
:104D4000B4EEC01A01EB8304F1EE10FA02D284ED46
:104D5000000A01E084ED001A5B1C9342E2D310BD0F
:104D600070B50024049E0EE050F824509D4202DDF0
:104D700041F8243006E0954202DA41F8242001E0AF
:104D800041F82450641CB442EED370BD70B50024C9
:104D9000049E0EE030F914509D4202DD21F81430DB
:104DA00006E0954202DA21F8142001E021F81450BF
:104DB000641CB442EED370BD70B50024049E0AE0BA
:104DC00005579D4201DD0B5504E0954201DA0A5575
:104DD00000E00D55641CB442F2D370BD9FEDFD1A86
:104DE000F5EE000A40EE010ABDEEE00AF5EEC00A5B
:104DF00010EE100AF1EE10FA00D2401E00EE100A7A
:104E0000B8EEC00A30EEC00ADFEDF30A20EE200A49
:104E1000BCEEC01A11EE100A80B2B0F5007F02D3CA
:104E200030EE600A002000EE900AEC49F7EE001A1E
:104E3000F8EE600A01EB800090ED011A70EE600A56
:104E400090ED000A71EEE01A21EE800A00EE810A70
:104E5000704700F5005000B2002802DA00F500406B
:104E600000B28109DE4BA0EB8110400233F9112022
:104E700003EB410100B2C0F50043498853431A14C3
:104E800010FB01F000EB02400014400000B270473C
:104E9000F0B510F1005001D500F10040820DD14B6A
:104EA000A0EB8250410253F8220003EB8202C1F1D1
:104EB0000043A3FB00760024C51704FB0060526882
:104EC00003FB050051FB02004000F0BDDFEDC10A0D
:104ED00020EE200AFDEEC00AB5EEC00A10EE900AE0
:104EE000F1EE10FA00D2401E00EE900AF8EEE00A51
:104EF00030EE600ADFEDB80A20EE200ABCEEC01AE0
:104F000011EE100A80B2B0F5007F02D330EE600AD5
:104F1000002000EE900AB149F7EE001AF8EE600AA0
:104F200001EB800090ED011A70EE600A90ED000A2E
:104F300071EEE01A21EE800A00EE810A7047002827
:104F400002DA00F5004000B28109A54BA0EB811008
:104F5000400233F9112003EB410100B2C0F50043D8
:104F6000498853431A1410FB01F000EB024000146F
:104F7000400000B27047F0B5002801DA00F10040AF
:104F8000820D984BA0EB8250410253F8220003EBB4
:104F90008202C1F10043A3FB00760024C51704FB85
:104FA0000060526803FB050051FB02004000F0BDA9
:104FB00070B5031E4FF0FF3052DDB3FA83F0421E8E
:104FC000C007B0F1004F49D0501E8340864C981660
:104FD00004EB800050F8204C84FB0405000F40EAED
:104FE000051083FB0005C00F40EA4500C0F14050AA
:104FF00084FB0004400F40EAC40080FB00542601FB
:1050000046EA157483FB0445E40F44EA4504C4F101
:10501000405480FB0404400F40EAC40080FB00457C
:10502000240F44EA051483FB0454660046EAD57451
:10503000C4F1405480FB0404400F40EAC40083FBE9
:105040000030040144EA1370D30700D0521E02EB73
:10505000D272521010410860002070BD9340B5E735
:1050600000220A6070BD10B5002844DDB0FA80F35C
:10507000A3F11102DB07B3F1004F3AD0531E984061
:1050800000B25A4CC31204EB430333F8083C13FB41
:1050900003F4241310FB04F444F3CF34C4F5405458
:1050A00013FB04F35B1313FB03F4241310FB04F44E
:1050B00044F3CF34C4F5405413FB04F35C1314FBE6
:1050C00004F31B1310FB03F343F3CF33C3F5405337
:1050D00014FB03F35B1310FB03F040F30F30D30713
:1050E00000D0521E02EBD2725210104108800020F4
:1050F00010BD9040C4E700200880401E10BD70B570
:105100000D460646144606E0B6EC010A01F0F4F935
:10511000A5EC010A641E002CF6D170BD70B50D46D9
:105120000646144607E000BFB6EC020B01F020F87B
:10513000A5EC020B641E002CF6D170BD70B50D46B7
:105140000646144607E000BFB6EC010A01F0C8FCB1
:10515000A5EC010A641E002CF6D170BD70B50D4699
:105160000646144607E000BFB6EC020B01F0C4FA95
:10517000A5EC020B641E002CF6D170BD7FB500209B
:105180001880BDF90010BDF904001E4641401446C8
:10519000CD13F0B1694601220846FFF739FA01A99B
:1051A00001220846FFF734FABDF90000BDF90410EA
:1051B000C00390FBF1F0B0FA80F1C1F111010029B8
:1051C00001DD3180084105B140422080002004B05B
:1051D00070BD0DE083F9223E00000044E488000821
:1051E000EC980008E8900008F09C0008709D00080A
:1051F00015B14FF4004001E047F6FF7010806FF0EA
:105200000300E4E77FB500201880DDE9001041408D
:105210001E461446CD1728B3694601220846FFF7FB
:1052200008FA01A901220846FFF703FA0098019A3B
:10523000C117C90741EA5001C007D31700F07EFD2E
:10524000C20F42EA4102B2FA82F2C2F12002002AFF
:1052500002DD328000F05FFD05B1404220604FF07A
:105260000000B4E715B14FF0004001E06FF00040DE
:1052700010606FF00300AAE7F0B526E008C8002729
:10528000B3FA83F44FF00076651E03D5C4F101052F
:10529000EB4000E0AB4000254FF0004CA3FB033E89
:1052A0009B0F43EA8E03634501D337445B087608BE
:1052B0006D1C1F2DF2DBA7EB8463FE4C83FB0434D3
:1052C000DB0F43EA440308C1521E002AD6D1F0BDC9
:1052D000F0B52AE030F8023B0025B3FA83F7A7F1D6
:1052E00010044FF48066112F03D5C4F10107FB4071
:1052F00002E0671EBB409BB200274FF4004C5B43AB
:10530000C3F38F33634502D33544ADB25B087608EF
:105310007F1C0F2FF3DBA5EBC4231BB24BF27214DF
:1053200063431B0C21F8023B521E002AD2D1F0BD70
:1053300010B59FEDE12A4FF07E54F7EE003A9FED55
:10534000DF1ADFEDDF2AF5EEC00ADE49F1EE10FAD2
:105350003DDDC0EE201A0023F5EEC01AF1EE10FA82
:1053600002D20123F1EE611A11EE902AA24215DD5C
:1053700083EEA10A5FF00102C2F1090401EB84048B
:10538000F0EE411AD4ED000A521C0A2AB0EE601A5F
:1053900000EE211AF0DB32EEC10A12E05FF00102EA
:1053A000C2F1090401EB8404F0EE410A94ED000A15
:1053B000521C0A2AB0EE401A01EEA01AF0DB31EEC0
:1053C000020A0BB1B1EE400A80ED000AA3E0F5EE4F
:1053D000C00AF1EE10FA7DD29FEDBB3AB5EEC00ADD
:1053E000F1EE10FA3DDDC0EE201A0023F5EEC01AF2
:1053F000F1EE10FA02D20123F1EE611A11EE902AB9
:10540000A24215DD83EEA10A5FF00102C2F1090498
:1054100001EB8404F0EE411AD4ED000A521C0A2A72
:10542000B0EE601A00EE211AF0DB32EEC10A12E093
:105430005FF00102C2F1090401EB8404F0EE410ABD
:1054400094ED000A521C0A2AB0EE401A01EEA01A8E
:10545000F0DB31EE020A0BB1B1EE400A30EE030A86
:10546000B2E7B5EEC00AF1EE10FA3ED2C0EE201A55
:105470000023F5EEC01AF1EE10FA02D20123F1EE8C
:10548000611A11EE902AA24214DD83EEA10A0122D4
:10549000C2F1090401EB8404F0EE411AD4ED000AD4
:1054A000521C0A2AB0EE601A00EE211AF0DB32EE2E
:1054B000C10A14E05FF00102C2F1090401EB8404A7
:1054C000F0EE410A94ED000A521CB0EE401A01EED3
:1054D000A01A00E013E00A2AEEDB31EE020A0BB15B
:1054E000B1EE400A30EE430A6EE710EE101A0029C2
:1054F00002DA9FED760A67E780ED003A0BE0F5EE01
:10550000C00AF1EE10FA10D1B5EEC00AF1EE10FAB1
:1055100003DDC0ED002A002010BDB5EEC00AF1EE9B
:1055200010FA02D29FED6A0A4EE76FF0030010BD39
:105530002DE9F04F634C15460022DFF898A128347E
:1055400085B06FF0004900297EDDCDE900101646D8
:105550000292002805DA01A901220846FFF7EDF9B9
:1055600001260098002806DA6946C6F101060122E4
:105570000846FFF7E2F9DDE90070B84204AB03AA80
:1055800035DD01463846FFF73DFEBDF8100003AAA1
:1055900041B201231046FFF70EFB4F49039A8816CC
:1055A0000123D717A2FB01C807FB018102FB0010F2
:1055B0004FEADC7141EA40014FEAE07CC3F10C00A4
:1055C00003F1010354F8208018EB01014CEBE87063
:1055D0000D2BE7DB890841EA80718010B0EBE17F99
:1055E00001D089EAE071AAEB0100029034E039466B
:1055F000FFF708FEBDF8100003AA41B201231046D0
:10560000FFF7D9FA3449039A881601235FEAE27753
:10561000A2FB01C807FB018102FB00104FEADC710D
:1056200041EA40014FEAE07CC3F10C0003F10103C1
:1056300054F8208018EB01014CEBE8700D2BE7DBF0
:10564000890841EA807100E00EE08010B0EBE17F54
:1056500001D089EAE071029126B102A9012208462F
:10566000FFF76BF9029838E17DDADFF870B00028B7
:105670007ADD8DE807004FF0000605DA6946012261
:105680000846FFF75AF901260198002806DA01A911
:10569000C6F1010601220846FFF74FF9DDE90001D6
:1056A000884204AB03AA4CDD01460198FFF7AAFD2E
:1056B000012315E0FB0BB95800000000A59204BDC2
:1056C000DB0FC93F909D0008DB0F4940DB0F49C04D
:1056D000DB0FC9BFA9F6433254C0DBFD51ED87642F
:1056E000BDF8100003AA41B21046FFF764FAF94969
:1056F000039A88160123D717A2FB01C807FB018173
:1057000002FB00104FEADC7141EA40014FEAE07C05
:10571000C3F10C0003F1010354F8208018EB0101E0
:105720004CEBE8700D2BE7DB890841EA80718010B3
:10573000B0EBE17F01D089EAE071AAEB01000290B1
:1057400033E0FFF75FFDBDF8100003AA41B201236B
:105750001046FFF730FADF49039A88160123D7175E
:10576000A2FB01C801E0BDE029E007FB018102FBCB
:1057700000104FEADC7141EA40014FEAE07CC3F1DE
:105780000C0003F1010354F8208018EB01014CEBED
:10579000E8700D2BE4DB890841EA80718010B0EBE2
:1057A000E17F01D089EAE071029126B102A90122CC
:1057B0000846FFF7C2F8029901EB0B008DE07CDA96
:1057C0008DE807000026002805DA69460122084610
:1057D000FFF7B3F801260198002806DA01A9C6F1FF
:1057E000010601220846FFF7A8F8DDE9000188421A
:1057F00004AB03AA35DD01460198FFF703FDBDF8B0
:10580000100003AA41B201231046FFF7D4F9B149B1
:10581000039A88160123D717A2FB01C807FB018151
:1058200002FB00104FEADC7141EA40014FEAE07CE4
:10583000C3F10C0003F1010354F8208018EB0101BF
:105840004CEBE8700D2BE7DB890841EA8071801092
:10585000B0EBE17F01D089EAE071AAEB0100029090
:1058600032E0FFF7CFFCBDF8100003AA41B20123DC
:105870001046FFF7A0F99749039A88160123D71716
:10588000A2FB01C807FB018102FB00104FEADC719B
:1058900041EA40014FEAE07CC3F10C0003F101034F
:1058A00054F8208018EB01014CEBE8700D2BE7DB7E
:1058B000890841EA8071801000E010E0B0EBE17FE0
:1058C00001D089EAE071029126B102A901220846BD
:1058D000FFF733F8804902980844286006E0C5F8CD
:1058E00000B003E0002806DDC5F800A04FF000007E
:1058F00005B000F083B901DA7848EEE76FF00300F5
:10590000F6E72DE9F04316460022754C754D89B037
:1059100043F24428002967DDADF80000ADF810100F
:105920001746ADF80C20002805DA69460122084622
:10593000FEF7F1FF0127BDF91000002806DA04A9DF
:10594000C7F1010701220846FEF7E5FFBDF9000097
:10595000BDF910C007AB604506AA1FDD01466046D1
:10596000FFF70CFCBDF81C0006AA41B2012310464B
:10597000FFF707F9BDF918105FF00100C0F1090346
:1059800001FB04F235F91330401C03EBE2340A2822
:10599000F4DB24F38F00A8EB00001AE06146FFF768
:1059A000EDFBBDF81C0006AA41B201231046FFF72B
:1059B000E8F8BDF918100120C0F1090301FB04F259
:1059C00035F91330401C03EBE2340A28F4DB24F3EE
:1059D0008F00ADF80C0027B103A901220846FEF79D
:1059E0009AFFBDF80C00F3E07EDA46F28849002801
:1059F0007CDDADF8000000B2ADF804104FF00007F8
:105A0000ADF81020002805DA694601220846FEF7A5
:105A100082FF0127BDF90400002806DA01A9C7F1B9
:105A2000010701220846FEF776FFBDF90000BDF927
:105A3000041008AB884207AA20DDBDF90010BDF9AB
:105A40000400FFF79BFBBDF8200007AA41B2012329
:105A50001046FFF796F8BDF91C100120C0F10903AC
:105A600001FB04F235F91330401C03EBE2340A2841
:105A7000F4DB24F38F00A8EB00001EE0BDF9041056
:105A8000BDF90000FFF77AFBBDF8200007AA41B27C
:105A900001231046FFF775F8BDF91C105FF00100F7
:105AA000C0F1090301FB04F235F91330401C03EB8C
:105AB000E2340A28F4DB24F38F00ADF8100027B19C
:105AC00004A901220846FEF726FFBDF8101001EBDD
:105AD00009007DE054C0DBFDAF12789B5709BCCDB7
