:020000040800F2
:10000000180D002029020008A31700080517000892
:10001000A11700084F030008291B0008000000007A
:10002000000000000000000000000000551A000859
:10003000AD04000800000000A5170008A11A000880
:10004000430200084302000843020008430200087C
:10005000430200084302000843020008430200086C
:10006000430200084302000843020008430200085C
:10007000430200084302000843020008430200084C
:10008000430200084302000843020008430200083C
:10009000430200084302000843020008430200082C
:1000A000430200084302000843020008430200081C
:1000B000430200084302000843020008430200080C
:1000C0004302000843020008430200082D180008FC
:1000D00043020008430200084302000843020008EC
:1000E00043020008430200084302000843020008DC
:1000F00043020008430200084302000843020008CC
:1001000043020008430200084302000843020008BB
:1001100043020008430200084302000843020008AB
:10012000430200084302000843020008430200089B
:10013000430200084302000843020008430200088B
:10014000430200084302000843020008430200087B
:10015000430200084302000843020008430200086B
:10016000430200084302000843020008430200085B
:100170004302000843020008430200080000000098
:10018000430200084302000800F002F800F03CF8C7
:100190000AA090E8000C82448344AAF10107DA45E2
:1001A00001D100F031F8AFF2090EBAE80F0013F0F8
:1001B000010F18BFFB1A43F00103184784300000F9
:1001C000A4300000103A24BF78C878C1FAD852078A
:1001D00024BF30C830C144BF04680C6070470000C1
:1001E0000023002400250026103A28BF78C1FBD840
:1001F000520728BF30C148BF0B6070471FB502F0DF
:1002000060FF1FBD10B510BD00F06CF81146FFF780
:10021000F5FF02F0C9F900F08AF803B4FFF7F2FF26
:1002200003BC00F08DF800000948804709480047EA
:10023000FEE7FEE7FEE7FEE7FEE7FEE7FEE7FEE796
:10024000FEE7FEE704480549054A064B70470000F3
:10025000191B00088901000818070020180D00204C
:1002600018090020180900204FF0000200B51346BD
:1002700094469646203922BFA0E80C50A0E80C50C6
:10028000B1F12001BFF4F7AF090728BFA0E80C5077
:1002900048BF0CC05DF804EB890028BF40F8042B70
:1002A00008BF704748BF20F8022B11F0804F18BFDD
:1002B00000F8012B704770477047704710B500F089
:1002C00009F8006810BD10B5044600F003F804609A
:1002D00010BD000000487047B80600200048704775
:1002E000B80600207546FFF7F9FFAE4605006946DF
:1002F000534620F00700854618B020B5FFF7A2FF4F
:10030000BDE820404FF000064FF000074FF0000816
:100310004FF0000B21F00701AC46ACE8C009ACE897
:10032000C009ACE8C009ACE8C0098D46704710B5FB
:100330000446AFF300802046BDE81040FFF76DBFD4
:1003400001491820ABBEFEE7260002007047FEE719
:10035000FEB515468DF80B100A0A8DF80A200A0C16
:100360008DF809200A0E8DF8082042694FF4807636
:100370004FF090448A4205D082698A4202D0C26915
:100380008A4236D11021204600F0B9F901282FD138
:10039000274600221021384600F0B8F9344623469B
:1003A000042202A9404800F07FFF012210213846B4
:1003B00000F0ACF9284600F0A3F8002210213846DE
:1003C00000F0A4F9042301AA02A93748009401F01F
:1003D0004CF801221021384600F098F9284600F028
:1003E0008FF89DF806009DF8051000EB012080B203
:1003F000FEBD02688A4205D042688A4202D0806807
:10040000884236D11021204600F079F90128EFD139
:10041000274600221021384600F078F9344623465A
:10042000042202A9204800F03FFF01221021384693
:1004300000F06CF9284600F063F8002210213846DD
:1004400000F064F9042301AA02A91748009401F0FE
:100450000CF801221021384600F058F9284600F027
:100460004FF89DF806009DF8051000EB012080B2C2
:10047000FEBD1021204600F042F90128F8D10022EB
:100480001021204600F042F94FF6FF73042202A922
:10049000054800F009FF01221021204600F036F93E
:1004A000284600F02DF8FEBD30060020704772B6D9
:1004B000FEE710B5002490F82510022903D004218E
:1004C000C16301241AE001680A6822F00E020A6082
:1004D00001680A6822F001020A6090F844100123C2
:1004E00001F01C0203FA02F1026C516080F8253021
:1004F000002180F82410816B01B18847204610BD8F
:1005000070B5044600F008F90546601C02D00448A6
:100510000078044400F000F9401BA042FAD370BDFB
:10052000800000202DE9F84F0022DFF8A8914FF05D
:10053000010803274FF00F0C09F1040AA9F1040B7D
:10054000C1E008FA02F42340002B76D00D7905F0C3
:100550000305012D01D0022D15D18668550007FA3B
:1005600005FE26EA0E06D1F80CE00EFA05FE4EEA6C
:10057000060EC0F808E04568A5430E79C6F30016DC
:1005800096402E4346604D68EE43B60706D1C66AD4
:10059000A643C5F3C00494403443C4620C79E443D9
:1005A000A40708D0C568540007FA04F6B5438E685E
:1005B000A6402E43C6600C7904F00304022C11D12E
:1005C000D40800EB8406356A5407E40E0CFA04FEE6
:1005D00025EA0E05D1F810E00EFA04FE4EEA050EEB
:1005E000C6F820E00568540007FA04F6B5430E7912
:1005F00006F00306A6402E4306604C6814F4403F04
:1006000060D0354C256E45F001052566246E04F05A
:1006100001040094314C22F003052E19B5689407AB
:100620004FEA147E0CFA0EF4A543B0F1904F05D0BA
:100630002B4CA04204D101241CE043E0002419E02B
:10064000284CA04201D1022414E0274CA04201D141
:1006500003240FE0254CA04201D104240AE0244CDD
:10066000A04201D1052405E0224CA04201D106247C
:1006700000E0072404FA0EF42C43B460D9F80040DB
:100680009C434D68ED0200D51C43C9F80040DAF8E0
:1006900000409C434D68AD0200D51C43CAF80040A1
:1006A000DBF800409C434D68AD0300D51C43CBF8FC
:1006B0000040084D083D2C689C434E68F60300D569
:1006C0001C432C60521C0B6833FA02F47FF439AFE0
:1006D00000F012B808040140001002400000014080
:1006E0000004004800080048000C004800100048C2
:1006F000001400480018004818BCBDE8E08F0069ED
:10070000084201D00120704700207047002A01D024
:1007100081617047816270470148806870470000BE
:10072000800000200248816802781144816070478F
:100730008000002010B50024032000F075F80F2081
:1007400000F008F808B1012401E000F029F8204683
:1007500010BD000070B5054600240F4E307800280B
:1007600017D04FF47A71B1FBF0F00C490968B1FB76
:10077000F0F000F0B3FF08B101240BE0102D06D219
:1007800000222946501E00F02FF8756002E0012477
:1007900000E00124204670BD800000208C00002075
:1007A00008B50948016E41F001010166016E01F0D2
:1007B00001010091816D41F080518165806D00F0F3
:1007C0008050009008BD000000100240002809DBA6
:1007D00000F01F02012191404009800000F1E0205B
:1007E000C0F8001170470000F0B40D460D4B1B68B7
:1007F000C3F30223C3F10704042C00D90424191DF8
:10080000072901D2002300E0DB1E012606FA04F1CD
:10081000491E294099409E40761E16403143F0BC47
:1008200001F09BB90CED00E000F00701054A1068EB
:100830004FF6FF03184040EA0120034908431060C7
:10084000704700000CED00E00000FA051749B0F514
:10085000007F0CD00868C0F34120022805D008684A
:1008600020F4C06040F48060086000207047086891
:10087000C0F341200128F8D0086820F4C06040F49B
:10088000007008600A48322200685043094AB0FBF1
:10089000F2F0401C00E0401E4A69520501D50028D4
:1008A000F9D148694005E0D5032070470070004049
:1008B0008C00002040420F000248006800F4C06035
:1008C00070470000007000402DE9F04704460D46D7
:1008D000002C17D0DFF84C81D8F8000000F007009A
:1008E000A84211D2D8F8000020F007002843C8F829
:1008F0000000D8F8000000F00700A84204D0012052
:10090000BDE8F0870120FBE72078474E80070AD535
:10091000A068B16801F0F001884204D9B16821F003
:10092000F0010143B1602078C00732D0606803282D
:1009300007D002280AD070B13168490510D40120CF
:10094000DEE7316889010BD40120D9E731688903DA
:1009500006D40120D4E73168890701D40120CFE70C
:10096000B16821F003010143B160FFF7D5FE0746EE
:1009700041F2883906E0FFF7CFFEC01B484501D998
:100980000320BDE7B068616800F00C00B0EB810F98
:10099000F1D1207880070AD5A068B16801F0F00194
:1009A000884204D2B16821F0F0010143B160D8F867
:1009B000000000F00700A8420ED9D8F8000020F08F
:1009C00007002843C8F80000D8F8000000F007002E
:1009D000A84201D0012093E72078400705D5B068F0
:1009E000E16820F4E0600843B0602078000706D595
:1009F000B068216920F4605040EAC100B06000F0A6
:100A00001BF8B168094AC1F30311515C01F01F01E1
:100A1000C8400749086007480068BDE8F047FFF78D
:100A200099BE00000020024000100240D8300008AB
:100A30008C0000208400002070B500220020244B90
:100A4000996801F00C01DC6804F00304214D6E107C
:100A5000002908D00C2901D1012C04D0042913D07D
:100A6000082913D013E01A68120704D4D3F894208D
:100A7000C2F3032202E01A68C2F30312164C54F8C0
:100A8000222021B9104602E0284600E030460C2919
:100A900018D1D86800F00300022814D0032814D01D
:100AA0001046D968C1F30211491CDA68C2F3062264
:100AB0004243B2FBF1F0D968C1F34161491C4900DE
:100AC000B0FBF1F070BD2846EBE73046E9E70000E7
:100AD000001002400024F400E83000082DE9F8433B
:100AE0000446002C0DD0F94EB06800F00C05F068FB
:100AF00000F003072078C0066AD595B10C2D03D00D
:100B000004E00120BDE8F883012F0AD0A069002885
:100B10007DD0306840F001003060FFF7FDFD804679
:100B20005FE03068800701D5A06938B1206A31687C
:100B3000090705D5316801F0F00106E00120E1E781
:100B4000D6F8941001F470610909884216D900F0B2
:100B50002BFE08B10120D5E7306840F00800306076
:100B60003068216A20F0F000084330607068E16965
:100B700020F47F4040EA0120706017E0306840F0C8
:100B8000080030603068216A20F0F00008433060CF
:100B90007068E16920F47F4040EA012070602DB95F
:100BA000206A00F001FE08B10120ABE7FFF744FF27
:100BB000B168C74AC1F30311515C01F01F01C8407D
:100BC000C4490860C4480068FFF7C4FD002899D1F3
:100BD00030E0FFF7A1FDA0EB0800022801D90320B7
:100BE00090E730688007F4D5306840F00800306046
:100BF0003068216A20F0F000084330607068E169D5
:100C000020F47F4040EA0120706013E0FFE7306885
:100C100020F001003060FFF77FFD804607E0FFF71E
:100C20007BFDA0EB0800022801D903206AE73068A9
:100C30008007F4D42078C0074AD0082D18D00C2D96
:100C400001D1032F14D06068B0F5803F17D0B0F504
:100C5000A02F19D0306820F480303060306820F444
:100C600080203060606820B3FFF756FD80461CE0AE
:100C7000306880032CD5606850BB012042E73068A3
:100C800040F480303060EDE7306840F48020306020
:100C9000306840F480303060E4E7FFF73DFDA0EBC2
:100CA0000800642801D903202CE730688003F4D5BC
:100CB0000EE0FFF731FD804607E0FFF72DFDA0EBCA
:100CC0000800642801D903201CE730688003F4D4AD
:100CD0002078800742D5042D0DD00C2D01D1022F94
:100CE00009D0E06840B3306840F480703060FFF7AE
:100CF00013FD074615E03068400501D5E06838B1BE
:100D00007068217C20F0F85040EA0160706025E0B6
:100D10000120F7E6FFF700FDC01B022801D90320E0
:100D2000F0E630684005F5D57068217C20F0F85079
:100D300040EA0160706011E0306820F4807030603B
:100D4000FFF7EAFC074606E0FFF7E6FCC01B0228B7
:100D500001D90320D6E630684005F5D42078000795
:100D60002CD56069A8B1D6F8940040F00100C6F80F
:100D70009400FFF7D1FC074606E0FFF7CDFCC01B4F
:100D8000022801D90320BDE6D6F894008007F4D5E7
:100D900014E0D6F8940020F00100C6F89400FFF7A4
:100DA000BBFC074606E0FFF7B7FCC01B022801D9D1
:100DB0000320A7E6D6F894008007F4D420784007F3
:100DC00076D54FF00008B06DC00009D4B06D40F08A
:100DD0008050B065B06D00F0805000904FF0010879
:100DE000DFF8F890D9F80000C00514D4D9F8000055
:100DF00040F48070C9F80000FFF78EFC074606E05B
:100E0000FFF78AFCC01B022801D903207AE6D9F833
:100E10000000C005F4D5A068012813D0052818D01B
:100E200056F8900F20F001003060306820F0040088
:100E300046F89009A06841F2883710B3FFF76CFCC0
:100E4000814619E0D6F8900040F00100C6F8900005
:100E5000F0E756F8900F40F004003060306840F042
:100E6000010046F89009E5E7FFF756FCA0EB090002
:100E7000B84201D9032045E6D6F890008007F3D5A3
:100E80000FE0FFF749FC814607E0FFF745FCA0EBC8
:100E90000900B84201D9032034E6D6F89000800753
:100EA000F3D4B8F1010F03D1B06D20F08050B065DC
:100EB000A06A88B3022813D00C2D7CD0306820F0B3
:100EC00080703060FFF728FC0446AEE0001002405E
:100ED000D83000088C000020840000200070004002
:100EE000F068E26A00F003014FF0FF37914228D129
:100EF000216B00F07002491EB2EB011F21D1626B21
:100F000000F4FE41B1EB022F1BD1A16B00F40032C3
:100F1000072902D0012101E07FE000218A4210D19F
:100F2000A28F00F4C00107EB5202B1EB425F08D17F
:100F300094F8401000F0C06007EB5101B0EB416F36
:100F400052D00C2D4ED03068400102D43068C00021
:100F500001D50120D6E5306820F080703060FFF7C1
:100F6000DBFB054606E0FFF7D7FB401B022801D953
:100F70000320C7E530688001F5D4D4E90B10401E8A
:100F800041EA0010616BA28F090207EB520241EAAD
:100F90004251084394F8401007EB510140EA416088
:100FA000A16B090940EA4140F168254A1140084314
:100FB000F060306800E041E040F080703060F06840
:100FC00040F08070F060FFF7A7FB044606E0FFF7F3
:100FD000A3FB001B022801D9032093E530688001A0
:100FE000F5D529E001208DE53068800124D43068F2
:100FF00040F080703060F06840F08070F060FFF783
:101000008BFB044606E0FFF787FB001B022801D993
:10101000032077E530688001F5D50DE0FFF77CFB14
:10102000001B022801D903206CE530688001F5D44B
:10103000F06804490840F060002063E5012061E5A4
:101040008C809DF9FCFFEEFE7047000038B5044629
:10105000206842688168C9434B060AD5CB0708D18E
:10106000D3435B0605D4E16C01B02046BDE83040B7
:1010700008478B0708D4D3431B0605D4216D01B064
:101080002046BDE8304008478B0603D54B0601D506
:10109000CB0551D4D3439B064ED44B060AD494F8C7
:1010A0005D30032B49D0236E43F004032366C368ED
:1010B000836800938B0609D4236E43F001032366F3
:1010C00083680093036823F040030360C80506D4D7
:1010D000206E40F008002066206880680090206E36
:1010E000002829D02068416821F0E00141600120FA
:1010F00084F85D00900701D4D00722D020684168B1
:1011000021F003014160114DA06D40B18563A06DD8
:10111000FFF7CFF918B1206E40F040002066606DF7
:10112000002809D08563606DFFF7C3F9002803D05C
:10113000206E40F04000206638BDC1688068009095
:1011400038BD2046FFF780FF38BD00003918000881
:1011500070B50446002C09D0606A002540B12561B5
:101160006561A56294F85D0040B10CE0012070BD9E
:101170006068B0F5827FF4D0E561F2E784F85C50F6
:10118000204600F057F8022084F85D0020680168CE
:1011900021F040010160E1684FF4E062914201D921
:1011A000002001E04FF48050B1F5706F02D0914201
:1011B00000D0A562A188228901F4827102F4044260
:1011C0001143227C02F002021143227D02F001024F
:1011D0001143228B02F400721143227F02F0380285
:1011E000114394F8202002F080021143228D02F472
:1011F0000052114322681160A169042202EA1141E0
:1012000094F8242000F4805002F01002114394F866
:10121000342002F008021143A28902F470621143E3
:101220000143206841602566012084F85D000020AC
:1012300070BD000010B586B00446142101A8FFF768
:1012400013F817492068884227D11648016E41F4E7
:1012500080510166016E01F480510091C16C41F032
:101260000101C164C06C00F001000090E020019019
:101270000220029000200390032004900520059096
:1012800001A94FF09040FFF74DF9002211462320AD
:10129000FFF7AAFA2320FFF799FA06B010BD000065
:1012A00000300140001002402DE9F84F04468B4603
:1012B00092461D46002694F85C0001280DD04FF0A0
:1012C000010984F85C90FFF727FA074694F85D005F
:1012D000B046012804D00226BEE0022000F0C2B8C9
:1012E000BBF1000F1CD05FEA0A0019D0032084F87C
:1012F0005D00C4F86080C4F838B0A4F83CA0A4F83D
:101300003EA0C4F84080A4F84480A4F84680C4F805
:101310005080C4F84C80A068B0F5004F02D00BE0BC
:10132000012699E02068016821F0400101602068F1
:10133000016841F48041016020680168490603D4D6
:10134000016841F040010160E068B0F5E06F2BD921
:10135000606810B1BAF1010F20D1A06B216800883C
:10136000C860A06B801CA063E08F401EE08715E082
:1013700020688168890709D5A16B0988C160A06BC5
:10138000801CA063E08F401EE08707E0FFF7C4F9F0
:10139000C01BA84201D3681C04D11DB1E08F0028F6
:1013A000E6D145E0032657E0606810B1BAF1010FBD
:1013B0003BD1E08F01280AD9A06B21680088C86062
:1013C000A06B801CA063E08F801EE0872DE0A06BE7
:1013D000216800780873A06B401CA063E08F401E5A
:1013E000E08722E020688168890716D5E18F01290E
:1013F00009D9A16B0988C160A06B801CA063E08F34
:10140000801EE08711E0A16B09780173A06B401C7E
:10141000A063E08F401EE08707E0FFF77DF9C01B67
:10142000A84201D3681C0ED16DB1E08F0028D9D13C
:101430003A462946204600F008FA08B120202066E6
:10144000A06810B105E0032606E02068C168806846
:101450000090206E00B1012684F85D9084F85C80D5
:1014600030463BE718BCBDE8E08F2DE9F05F04464D
:101470000A9E8A4693461F4601254FF0000894F8BD
:101480005C0001280ED0012084F85C00FFF744F9CD
:10149000814694F85D00616801280DD0B1F5827F26
:1014A00007D102E0022000F016B9A16809B90428AA
:1014B00002D04FF0020804E1BAF1000F26D0BBF1D0
:1014C000000F23D0380021D094F85D00042802D00A
:1014D000052084F85D0000202066C4F840B0A4F820
:1014E0004670A4F84470C4F838A0E787A787E06482
:1014F0002065E0684FF4E061884201D8012F08D9E7
:101500002068426822F48052426007E04FF00108F0
:10151000D7E02068426842F4805242602068026846
:10152000520603D4026842F040020260E06888423A
:1015300046D9606808B1012F3AD1A06B21680088B4
:10154000C860A06B801CA063E08F401EE0872FE086
:101550002068816889070DD5E18F59B1012D09D126
:10156000A16B0988C160A06B801CA063E08F401E46
:10157000E087002520688168C9070ED0B4F84610BE
:1015800059B1C068216C0880206C801C2064B4F8BC
:101590004600401EA4F846000125FFF7BDF8A0EB69
:1015A0000900B04204D3701C02D04FF0030888E059
:1015B000E08F0028CCD1B4F846000028C8D176E0EE
:1015C000606808B1012F6BD1E08F01280AD9A06BA8
:1015D00021680088C860A06B801CA063E08F801E1B
:1015E000E0875DE0A06B216800780873A06B401C69
:1015F000A063E08F401EE08752E020688168890781
:101600001AD5E18FC1B1012D16D1E18F012909D978
:10161000A16B0988C160A06B801CA063E08F801E55
:10162000E08708E0A16B09780173A06B401CA06300
:10163000E08F401EE087002520688168C90726D01A
:10164000B4F8461019B3B4F84610012913D9C0688C
:1016500054F8401F08802068801C2060E088801EAD
:10166000E080E088403C012810D82068416841F4BF
:10167000805141600AE0007B216C0870206C401CA6
:101680002064B4F84600401EA4F846000125FFF788
:1016900043F8A0EB0900B04201D3701C18D1BEB1D1
:1016A000E08F0028A9D1B4F846000028A5D14A4609
:1016B0003146204600F0C9F818B14FF0010820204B
:1016C000206601205C346070002020704046EAE60D
:1016D0004FF00308F5E730BCBDE8C09F10B5401ED1
:1016E000B0F1807F01D3012010BD4FF0E024606194
:1016F0000F21601700F031FA0020A061072020615F
:10170000002010BDFEE7000010B586B0142101A82E
:10171000FEF7AAFD0E48C16C41F00101C164C06C26
:1017200000F0010000904FF090440122102120466B
:10173000FEF7ECFF1021019101210291002103919C
:10174000049101A92046FEF7EDFE06B010BD000091
:101750000010024010B511480F4901604FF482712A
:101760004160002181604FF4E062C260016141612B
:101770004FF4007282612022C26101624162816283
:101780000722C26201634163FFF7E2FC002801D037
:10179000FEF78DFE10BD0000003001403006002035
:1017A000FEE7FEE770470000F8B5054600241D4E31
:1017B000B06DC00002D5FFF77FF80DE0B06D40F0CE
:1017C0008050B065B06D00F080500090FFF774F865
:1017D000B16D21F08051B165B0F5007F04D0802D4E
:1017E0000AD94FF003040DE0802D0BD9A02D01D9AB
:1017F000022407E0012405E001D1022402E0702D5B
:1018000000D101240848016821F00701214301604B
:10181000006800F00700A04201D00120F8BD0020C0
:10182000F8BD000000100240002002400148FFF710
:101830000DBC00003006002010B5806A0021A0F821
:101840004610C187FFF700FC10BDF8B504460E46F0
:101850001546334600224FF4C0512046009500F053
:1018600027F828B1206E40F0200020660320F8BD44
:101870003346002280212046009500F08DF828B1E3
:10188000206E40F0200020660320F8BD3346002281
:101890004FF4C0612046009500F00AF828B1206E90
:1018A00040F0200020660320F8BD0020F8BD0000B5
:1018B0002DE9FC5F04460C9D0E46174698464FF0F6
:1018C000000BCDF800B0FEF727FF401BA8EB00058A
:1018D000FEF722FF8146D4F800A00AF10C0A2B483B
:1018E0000068C0EBC00000EB8000000D6843019071
:1018F00044E0B6F5C06F05D127B99AF80000009012
:101900009DF80000B8F1FF3F38D0FEF705FFA0EBCF
:101910000900A84203D215B1019858B32BE0206802
:10192000416821F0E00141606068B0F5827F0BD131
:10193000A068B0F5004F02D0B0F5806F04D12068E8
:10194000016821F040010160A06AB0F5005F09D193
:101950002068016821F4005101602068016841F4A9
:1019600000510160012084F85D0084F85CB0032020
:1019700000F00EB800250198401E01902068806894
:101980003040B842B5D10020F2E700008C000020C2
:101990003CBCBDE8C09F00002DE9F84304460F465B
:1019A00091461E46089DFEF7B7FE401B351AFEF70E
:1019B000B3FE804626480068C0F3CB3068430090F1
:1019C0003AE0701C38D0FEF7A7FEA0EB0800A84252
:1019D00003D215B1009858B32BE02068416821F07C
:1019E000E00141606068B0F5827F0BD1A068B0F57E
:1019F000004F02D0B0F5806F04D12068016821F05B
:101A000040010160A06AB0F5005F09D1206801685B
:101A100021F4005101602068016841F40051016027
:101A200001205C346070002020700320BDE8F88342
:101A300000250098401E00902068806837EA00006A
:101A400004D000204845BCD10020EFE70120F9E791
:101A50008C0000207047000010B5104C0122204679
:101A6000A16CFEF775FC01222046E16CFEF770FCCC
:101A700001222046616BFEF76BFC1922204621698A
:101A8000FEF766FC01222046616AFEF761FC2046F3
:101A9000616ABDE810400122FEF75ABC1800002020
:101AA000FEF740BE10B596B0442105A8FEF7DCFB5A
:101AB00014216846FEF7D8FB4FF40070FEF7C6FE0F
:101AC00008B1FEF7F4FC1020059001200B900024D3
:101AD0000C9460210D9102210F9110901190202003
:101AE0001290072013901491159105A8FEF7F6FFA8
:101AF00008B1FEF7DCFC0F20009003200190029457
:101B00000394049403216846FEF7DEFE002801D00A
:101B1000FEF7CDFC16B010BD0248016841F470011B
:101B20000160704788ED00E0FEE703B401984100D2
:101B3000009850EAC12018BF04204A0D18BF40F099
:101B4000010040F2FF72B2EB515F08BF40F00200AB
:101B5000012808BF052002B070470907090E0028B8
:101B600004DB00F1E02080F80014704700F00F0063
:101B700000F1E02080F8141D704700000000000014
:101B800010B51D499FED1A1B2DED020B84B0059871
:101B900020F000408842DCBF01209DED040B21DDD8
:101BA0001649884209D1049840B94FF00100FEF768
:101BB0008AFB00F079FC06B010BD05DB9DED040B3F
:101BC00000F068FC06B010BD68469DED040B00F007
:101BD00017F800F001000121A1EB40009DED021B70
:101BE0009DED000B00F0A8FA06B010BD000000004B
:101BF0000000000000000000FB21E93F0000F07F32
:101C00002DE9F14F04462DED020B2DED088B8AB026
:101C10009FEDE70B80ED020B139EE74826F0004591
:101C200085420ADC9DED120B002084ED000B0AB00A
:101C3000BDEC088B03B000F0FFB9E0489FEDE0ABCE
:101C40009FEDE1BBA84247DDE14F9FEDE39B9FED98
:101C5000E48B9DED120B53EC1A2B51EC100B002E64
:101C60001CDD01F0D3F841EC100BBD4208D053EC61
:101C70001B2B51EC100B01F0C9F8C4E900010BE07B
:101C800053EC192B51EC100B01F0C0F853EC182B4E
:101C900001F0BCF8C4E900010120C8E700F052FDE2
:101CA00041EC100BBD4208D053EC1B2B51EC100B38
:101CB00000F048FDC4E900010BE053EC192B51EC96
:101CC000100B00F03FFD53EC182B00F03BFDC4E976
:101CD00000014FF0FF30AAE7C348A84279DB9DED31
:101CE000120B51EC100B00F0FFFB41EC180B9FEDB9
:101CF000C00B53EC102B00F07FFF9FEDBF1B53EC8C
:101D0000112B00F01FFD00F01DFF074600F049FFFA
:101D100041EC190B53EC1A2B00F06EFF53EC182B0F
:101D200001F068F841EC180B53EC1B2B51EC190B2C
:101D300000F062FFDFF8C8A241EC100B4FEA155823
:101D40000125FA4453EC102B51EC180B01F05EF80E
:101D5000032DC4E900013DD0C1F30A5005EB451144
:101D6000A8EB00001139814234DA0AEB051BB0EE12
:101D700048AA9BED000BF0EE68AA53EC102B51EC37
:101D8000190B00F039FF41EC1B0B51EC1A0B53EC13
:101D90001B2B01F03BF841EC180B51EC1A0B53ECE8
:101DA000182B01F033F853EC1B2B01F02FF89BEDAF
:101DB000020B41EC1A0B53EC102B51EC190B00F0F9
:101DC0001BFF53EC1A2B01F021F841EC100B6D1C9A
:101DD000B8E70EE0002EA8BF3846BFF628AF94ED56
:101DE000000B51EC100B00F06FFCC4E900017842CD
:101DF0001DE7C6F3130040F4801EC6F30A50A0F29C
:101E0000F530471100F01F05C5F12000DDF848B09E
:101E100008900020069007900520EC467949002D97
:101E200007EB0002794408BF51F8221009D051F89D
:101E3000223001EB8201AB404A68089922FA01F195
:101E40001943A1FB0E26A1FB0B131A449A4234BF7F
:101E50000123002303EB06080CEB8003D3E901A662
:101E60000E448E4234BF0121002192448A4411B1B4
:101E7000924502D903E0924501D2012100E0002100
:101E8000C3E901A641444CF82010011EA0F1010055
:101E9000C4DC029800F10050850F0298DDE9036769
:101EA0008000DDF8148000F07CFE41EC1A0B304617
:101EB00000F08EFE9FED541B53EC112B00F09CFEA6
:101EC00041EC1B0B384600F083FE9FED511B53EC99
:101ED000112B00F091FE41EC180B404600F078FE0B
:101EE0009FED4D1B53EC112B00F086FE41EC190BBE
:101EF00051EC180B53EC192B00F024FC53EC1B2B6A
:101F000000F020FC53EC1A2B00F01CFCCDE908017A
:101F1000002008909DED080B53EC1A2B51EC100B90
:101F200000F074FF53EC1B2B00F070FF53EC182BE8
:101F300000F06CFF53EC192B00F05CFF9FED381B99
:101F400053EC112B00F058FE9FED370B41EC180BB2
:101F500053EC102B9DED080B51EC100B00F04CFED8
:101F600053EC182B00F0EEFB9FED310B41EC180BFE
:101F700053EC102B9DED080B51EC100B00F03CFEC8
:101F800053EC182B00F0DEFB41EC100B139810F013
:101F9000004F06D06D4251EC100B00F095FB41EC68
:101FA000100B284684ED000B41E600000000000005
:101FB0000000000000000000FB21E93F7CD9024046
:101FC00000004054FB21F93F3163621A61B4D03DF7
:101FD000FB21F93F000000000000601A61B4D03D11
:101FE0007370032E8A19A33BFB21394100000000C6
:101FF00083C8C96D305FE43F000000000000E03F8F
:10200000D213000020130000000000000000103E6A
:10201000000000000000103C000000000000103A2A
:10202000182D4454FB21F93D3326A611460B113CD3
:1020300000000054FB21F93D30BCBDE8C08F70B5F5
:1020400004462DED028B4D1E00EBC500B0EE408A1C
:10205000F0EE608A90ED000B35F0060017D053ECDF
:10206000182B51EC100B00F0C7FD41EC100B6D1E4E
:1020700004EBC50090ED001B51EC100B53EC112B41
:1020800000F060FB41EC100B35F00600E7D1022DAB
:1020900036D0042D1CD0062D1CBFBDEC028B70BDAC
:1020A00053EC182B51EC100B00F0A6FD94ED0A1B1D
:1020B00053EC112B00F046FB53EC182B00F09CFD69
:1020C00094ED081B53EC112B00F03CFB41EC100B82
:1020D00053EC182B51EC100B00F08EFD94ED061B09
:1020E00053EC112B00F02EFB53EC182B00F084FD69
:1020F00094ED040B53EC102B00F024FB41EC100B7F
:1021000053EC182B51EC100B00F076FD94ED021BF4
:1021100053EC112B00F016FB53EC182B00F06CFD68
:1021200094ED001B53EC112B00F00CFBBDEC028B6B
:1021300041EC100B70BD0000F1B506462DED040B0F
:10214000BD482DED0C8B8AB0B0EE418AF0EE618A6D
:10215000179D25F000449FEDBABB9FEDBBCB844299
:1021600008DA9DED160B51EC100B00F0EBFC00288B
:1021700000F0E980B64FA74231DC002D0DDA9DED6D
:10218000160B51EC100B00F09FFACDE9160151EC43
:10219000180B00F099FA41EC180B9FEDAF0B53ECC4
:1021A000102B9DED160B51EC100B00F023FE53ECA1
:1021B000182B9FEDAB0BCDE9040151EC100B00F097
:1021C00025FE41EC100B53EC102B9DED040B51EC54
:1021D000100B00F0B7FA9FEDA48BCDE916019DED31
:1021E000160B53EC102B51EC100B00F005FDCDE954
:1021F00004019DED040B53EC102B51EC100B00F07F
:10220000FBFC41EC190B9A480621B0EE490AF0EEAE
:10221000690A7844FFF713FF9648B0EE40DAF0EE13
:1022200060DAB0EE490AF0EE690A06217844FFF759
:1022300006FF9DED041B51EC100B53EC112B00F02D
:10224000DBFC9DED040B41EC1A0B53EC102B9DEDC8
:10225000160B51EC100B00F0CFFC41EC190B53ECBA
:102260001A2B51EC1D0B00F06DFA53EC192B00F0FA
:10227000C3FC53EC182B00F065FA9DED041B53ECE6
:10228000112B00F0B9FC53EC182B00F05BFA41EC79
:10229000180B9FED790B51EC190B53EC102B00F040
:1022A000ABFC53EC182B00F04DFA41EC190B9DEDF3
:1022B000160B53EC192B51EC100B00F043FA41ECC8
:1022C000180BA74269DC304600F06BFC41EC1A0B9E
:1022D00051EC180B53EC1A2B00F034FA41EC1B0BA9
:1022E00053EC182B51EC180B00F086FC53EC1B2B15
:1022F00000F0D0FA53EC192B00F088FD9DED161B71
:1023000053EC112B00F076FD9FED5D1B53EC112B70
:1023100000F072FC53EC1A2B00F06CFD41EC180B32
:10232000022000EAA570C0F1010000F03AFC53EC75
:10233000182B00F061FC00BF41EC100B0AB000F05C
:10234000A3B805B0F0BD711C1698214308430CD00A
:102350009DED160B012E1CBF53EC102B51EC1C0BEA
:1023600010D000BF00F096FAE6E79DED160B51EC99
:10237000100B00F0B9F841EC100B51EC1B0B53ECB7
:10238000102BEFE751EC100BFFF7CFFB042808BF31
:1023900000F09AF89DED160BD0E7012E04BFB0EEC9
:1023A000480AF0EE680AC9D08DED048B002404942D
:1023B0009DED040B53EC102B9DED160B51EC100B07
:1023C00000F018FD53EC192B00F014FD41EC190B33
:1023D00053EC182B51EC1C0B00F05CFA41EC180B81
:1023E0008DED008B00949DED040B53EC102B9DEDB7
:1023F000000B51EC100B00F0FFFB53EC1B2B00F01B
:10240000A1F99DED000B41EC1A0B53EC192B51EC8B
:10241000100B00F0F1FB53EC1A2B00F093F953EC86
:10242000182B00F0E9FB9DED001B53EC112B00F085
:1024300089F981E7000000000000303E0000000044
:10244000000000000000F03F000000000000F0BFAE
:102450002894E53F00000000182D4454FB21E93F7B
:10246000075C143326A6813C000000000000000039
:10247000CA0F0000E00F0000635555555555D53F74
:102480000000000000000040BDEC088BBDEC04CB58
:10249000FFF757BF10B553EC102B51EC100B00F0A9
:1024A00051F941EC100B10BD9FED050B10B553EC2D
:1024B000102B51EC100B00F0EDF941EC100B10BD9E
:1024C00000000000000000009FED050B10B553EC6C
:1024D000102B51EC100B00F08FFB41EC100B10BDDA
:1024E000000000000000001082B0CDE9000121F0E2
:1024F000004001909DED000B02B051EC100B7047B5
:1025000030B50C4B0A4C19685D6854F82120821ACA
:102510002A445A6044F82100491C7820B1FBF0F4A9
:1025200000FB14111960B2FBF0F080B230BD000066
:10253000900000200000002030B50C4B0A4C1969B7
:102540005D6954F82120821A2A445A6144F8210016
:10255000491C7820B1FBF0F400FB14111961B2FBA7
:10256000F0F080B230BD00005004002000000020D8
:1025700030B50C4B0A4C9968DD6854F82120821A5A
:102580002A44DA6044F82100491C7820B1FBF0F4B9
:1025900000FB14119960B2FBF0F080B230BD000076
:1025A00070020020000000202DED068BFEF7C2F81F
:1025B000FFF778FAFFF7A8F8FFF7CCF8012210210F
:1025C0004FF09040FEF7A2F8FFF746FADFF8D88008
:1025D0009FED36AADFED36AA364D0024012232489F
:1025E000D8F81410FDF7B4FEFFF78AFF00EE100ACA
:1025F000B8EE400A20EE0A0A20EE2A0A85ED000A0B
:1026000001222948D8F81810FDF7A2FEFFF794FF21
:1026100000EE100AB8EE400A20EE0A0A20EE2A0A5E
:1026200085ED010A01222048D8F81C10FDF790FE24
:10263000FFF79EFF00EE100AB8EE400A20EE0A0AED
:1026400020EE2A0A85ED020A641C782CC6D30024E9
:10265000184E9FED199A183EDFED189A9FED188BD2
:1026600006F10C0705EB840090ED000A06EB8400F0
:1026700080ED000A60EE090A80EEA90A10EE100A49
:1026800000F0AEFC41EC100BFFF77AFA53EC182B7C
:1026900051EC100B00F0B0FA00F022F847F82400DB
:1026A000641C032CDED398E718000020000080385B
:1026B0000000B442AC060020DB0F49400000344368
:1026C000000000000000994081F00041704780F058
:1026D0000040704721F00041704720F000407047F3
:1026E00021F00042A2F16052B2F5801F01F00043D8
:1026F00028BFD2F17F6C0BD95FEA001C43EAC2020B
:1027000042EB507018BF704728BF20F0010070479F
:10271000B2F5801FBCBF184670474FEA410C1CF54C
:10272000001F02D2084600F0D1BC70B500F00EFBCD
:1027300000000089FFF7F6BF4FF00040A0F58000D1
:102740007047000010B591EA030F48BF83F00043C3
:1027500000F16483841A71EB030C05D2121943EB68
:102760000C03001B61EB0C01DFF824E14FEA11546C
:10277000A4EB135C1EEA430F18BF9EEA445F73D0BC
:1027800023EA0E03DCF1200E21EA045143F4801306
:1027900032D322FA0CFE10EB0E0023FA0CFE41EBB2
:1027A0000E01CCF1200E03FA0EFE10EB0E0051F1DB
:1027B0000001B1F5801FCCF1200E32D201EB0451A3
:1027C00012FA0EF2BDE8104058BF7047401C38BFE7
:1027D0005FEA420218BF7047002814BF20F00100D2
:1027E00041F100014FEA410313F5001F38BF704764
:1027F000A1F1C04100F0F8BA012A43EB0302ACF1A9
:10280000200CDCF11F0E32BF4FF0000E23FA0CF348
:1028100010EB030041EB0451B4EB115FD0D0A1EBFE
:10282000045101F5801149085FEA300001EB0451C1
:102830000ED350F1000038BF12FA0EFE08D1BDE8E9
:102840001040C9E7401C38BF5FEA4202CAD1C3E763
:10285000BDE810404FEA410313F5001F38BF704731
:10286000A1F1C04100F0C0BA9EEA445F08D011EA6D
:102870005E0FBDE8104004BF01F00041002070472A
:10288000BDE8104070B500F061FA00BF64FBBE3EC9
:102890000000E0FF2DE9C04130B4DFF8A0C23CEAFF
:1028A000111418BF3CEA131400F0EC8081EA030510
:1028B0001CEA111444EAD57418BF1CEA131500F081
:1028C000C780A4EB05044FF0004545EAC12145EA65
:1028D000C32341EA505143EA525304F17F749942B1
:1028E00004F500344FEAC0204FEAC22208BF9042EC
:1028F00000F09C804FEA13650FF24016765D4FEAB8
:10290000134506FB05F7C7F1807706FB07F74FEA8B
:10291000D737A7FB03687642C8F58038A7FB06CEF9
:1029200038BFA8F1010807FB08E64FF0000EA6FB30
:10293000028CE6FB03CEDCF1000CCEF1004E38BF7A
:10294000AEF1010EA6FB0C584FF000074FF000054A
:10295000E6FB0E87A1FB08C6A0FB07CE16EB0E0612
:1029600045F10005E1FB076515F1E04E7EBFA4F5DA
:1029700080345FEA46066D4116F1800745F1000597
:102980004FEA17274FEA066647EA0567A6F1DE46D3
:10299000B6F1805F4FEA15251FD9384624F0010CA7
:1029A00005EBC471BCF1FE6F01EB0C1102D8F0BC59
:1029B000BDE8008124425CBF01F5801E9EEAC47F11
:1029C00002D4F0BCBDE80081244238D4F0BCA1F1AF
:1029D000C041BDE8004100F007BA4FEAD22242EA06
:1029E00043524FEAD323A7FB02864FEAD02040EAA6
:1029F000415007FB03661EEA0E0F4FEAD12105FB8B
:102A0000026658BFA6EB0056B6EB00564FEA520ED0
:102A10004EEAC37E18EB0E0E56EB530EBDD518EBE7
:102A200002085E417F1C55F10005B6E74FF48015A2
:102A30004FF000074FF000064FF00008ADE7F0BC84
:102A40004FF0000001F1C04101F00041BDE80081FC
:102A500011EA0C1F0CEA131500D00CE013EA0C1F4E
:102A600000F025804FF00000F0BC81EA030101F086
:102A70000041BDE80081F0BCBDE8004181EA0301EE
:102A800000F0B2B9F0BCBDE8004170B500F05EF9ED
:102A9000097EFC3E00F007B881EA03014FF0000018
:102AA00001F00041704781EA030100F09DB9F0BCDC
:102AB000BDE800414FF0000021497047FFFDFBF9E0
:102AC000F7F5F4F2F0EEEDEBE9E8E6E4E3E1E0DE61
:102AD000DDDBDAD8D7D5D4D3D1D0CFCDCCCBCAC8D3
:102AE000C7C6C5C4C2C1C0BFBEBDBCBBBAB9B8B7FA
:102AF000B6B5B4B3B2B1B0AFAEADACABAAA9A8A8ED
:102B0000A7A6A5A4A3A3A2A1A09F9F9E9D9C9C9BBA
:102B10009A99999897979695959493939291919065
:102B20008F8F8E8E8D8C8C8B8B8A898988888787F6
:102B30008685858484838382828181800000FF076B
:102B40000000F87F4FEA41034FEA5353A3F5806337
:102B5000D3F11E03C8BFD3F1210C0CDD4FF00042AE
:102B600042EAC12242EA505232FA03FC8CEAE17C8A
:102B7000ACEBE1707047102BC4BF0020704703F529
:102B8000787CBCF1FF3F04D06FF0004282EA210064
:102B9000704770B500F0DAF8499224800020704741
:102BA000F2E710F0004248BF4042B0FA80F310FA5A
:102BB00003F10AD0C3F11D0303F580634FEA4150CE
:102BC00002EB035202EBD12170474FF00000704737
:102BD000B0FA80F310FA03F10AD0C3F11D0303F534
:102BE00080634FEA41504FEA035202EBD121704714
:102BF0004FF0000070470000DFF848C170B51CEAD4
:102C0000111E1EBF1CEA13159EEA0C0F95EA0C0F4D
:102C100000F06F8081EA030423EA4C134EEAD47E6D
:102C200021EA4C1141F4801143F48013AE44A1FB1E
:102C3000024CA0FB0365AEF17F7E361955EB0C0507
:102C4000A1FB034C4CF10003A0FB021C16EB0C068D
:102C5000654153F10003094218BF46F0010613F421
:102C6000007F0BD14FEA03314FEA0530340341EACC
:102C7000155140EA16506FF003020AE04FEAC321F3
:102C80004FEAC520F40241EA555140EA56506FF030
:102C9000020202EB2E4201EB025585EACE710AD008
:102CA0005FEA440C18BF24F0004450F1000041F1E9
:102CB000000120EAD47040F2FE7C624500D270BD73
:102CC000A84214BF4FF080444FF04044002E08BF8C
:102CD0000024BEF1806FA8BFA1F1C041BDE87040E3
:102CE00080F282804FF0000001F1C04101F000410C
:102CF00070479EEA0C0F0CEA131518BF95EA0C0FEB
:102D000006D04FF0000081EA030E0EF0004170BDC6
:102D100000F01CF88900013E00F007B800F009B887
:102D20004FEA430C5FEA5C5C08D081EA030100F0E3
:102D30005BB84FEA410C5FEA5C5CF6D14FF00000F3
:102D4000014970470000FF070000F87F0EF1020EF6
:102D50002EF0030E5EF8046B364205D4012A43EBD5
:102D6000030515F5001F12D8012841EB010C1CF5D5
:102D7000001F0CD80ED14FEAD17C15F5001F0CEBCB
:102D80004C0C0CF1020C08BF4CEBD37C04E04FF070
:102D9000080C01E04FEAD37C0CEB4C0526FA05F653
:102DA00006F00706B6F1040C06D20EEB860CBDE861
:102DB00070404CF0010C6047DFE80CF0090B020298
:102DC0004FF000414FF00000A1F5002170BD194601
:102DD0001046012851EB010418BFD4F5001484BF3C
:102DE000002001F0004170BD0808A0F500114FEA75
:102DF0003101704791EA030F10B581F000413FF5B2
:102E0000A9AC83F0004300F009B8000010B591EAC6
:102E1000030F48BF83F000433FF59CAC841A71EB6D
:102E2000030C07D212198CF0004C43EB0C03001B6F
:102E300061EB0C01DFF8A4E14FEA1154A4EB135C41
:102E40001EEA430F18BF9EEA445F00F0B08023EAF9
:102E50006E03524221EA0451C3EB6E0338BF5B1E7E
:102E6000DCF1200E25D322FA0CFE10EB0E0043FA03
:102E70000CFE41EB0E01CCF1200E03FA0EFE10EB1E
:102E80000E0051F10001CCF1200E29D412FA0EF2FD
:102E900001EB0451BDE8104058BF7047401C1CBFF7
:102EA000B2F1004F704700280CBF491C20F0010010
:102EB000704712EB020E43EB030218BF4FF0010EF6
:102EC0004EEA4202ACF1200CDCF11E0E54D943FA5A
:102ED0000CFE10EB0E0051F1FF31CCF11E0ED5D5DA
:102EE0000EF1010E12FA0EFE404141EB010101EB21
:102EF000445C5FEA5C5C10D910EBDE7001EB0451BE
:102F000038BFBEF1004FBDE8104018BF7047002821
:102F10000CBF491C20F00100704730D24FEAD42C7E
:102F200011F5001124F400641BD0B1FA81F20B3AC0
:102F3000A41AA41ED2F12003914030FA03F31943DE
:102F4000904001EBCC71002C01EB0451BDE8104026
:102F5000A8BF704701F1C0414FF0000001F00041EF
:102F60007047B0FA80F310FA03F100D110BDE41AF3
:102F7000173C4805C90AE4E701EB045110BD4910AC
:102F800001EB0451BDE810404FEA300002E04FF081
:102F9000000170474A0008BF0042F8D0B2F5001F98
:102FA00028BF704701F000414FF0000070479EEAD3
:102FB000445F07D011EA5E0FBDE8104004BF002156
:102FC00000207047BDE8104070B5FFF7BFFE00BF9E
:102FD00040DFF63E83F00041104670470000E0FFFE
:102FE00043004FEAD30C4FEA3C0C43401FBF40075D
:102FF0000CF1605113F0FE4F70471CF0006F03D1CD
:1030000000200CF0004170470CF0004343EA507080
:1030100010B540EACC0000F00EF800BF00000092AE
:103020004FEA0001FFF7E0BE4FF000414FF0000013
:10303000A1F5002170470EF1020E2EF0030E5EF88E
:10304000044B244204D44FEA4102B2F17F4F11D81D
:103050004FEA4003B3F17F4F0CD80ED14FEAD07C3A
:10306000B2F17F4F0CEB4C0C0CF1020C08BF4CEB97
:10307000D17C04E04FF0080C01E04FEAD17C0CEB6E
:103080004C0324FA03F404F00704B4F1040C06D250
:103090000EEB840CBDE810404CF0010C6047DFE8FB
:1030A0000CF0070802024FF00040A0F5800010BDB0
:1030B0000846420018BFD2F1807288BF00F000407D
:1030C00010BD4FF04070E1EE100A7047FF2141EA59
:1030D000D050C00570470000000000000000000054
:1030E0000102030406070809A0860100400D030041
:1030F000801A060000350C0040420F0080841E003C
:1031000000093D0000127A000024F40000366E0130
:103110000048E801006CDC0200004054FB21F93F4C
:103120003163621A61B4D03D0000601A61B4D03DD1
:103130007370032E8A19A33B0000002E8A19A33B4B
:10314000C14920259A837B3900000000000000005F
:103150006E83F9A22915444ED15727FCC0DD34F502
:10316000999562DB4190433CAB6351FE61C5BBDE88
:103170003A6E24B7E0D24D42EA2E49061C92D1099C
:103180001CEB1DFE3EA729B1F53582E88444BB2E19
:1031900026709CE9417E5FB439D69139F439538366
:1031A0008B5F849C3B28F9BDFF97F81F0F9805DEC5
:1031B0008B112FEF1F6D0A5ACF7E366DB709CB27C3
:1031C000663F464F2DEA5F9EC7BA27757BF1E5EB58
:1031D000F739073DEA92528AB15FFB6B085D8D1F9C
:1031E0007AFE10111111C13F37D60684F464963F60
:1031F000280356C9226D6D3F0165F2F2D844433F62
:10320000A69237A0887E143F735360DBCB75F3BE64
:10321000FE41B31BBAA1AB3F93846EE9E326823F24
:103220001583E0FEC8DB573F68108D1AF726303F44
:10323000E9A7F0320FB8123FD47ABF74702AFB3E70
:10324000603200080000002090000000C401000867
:10325000F032000890000020880C0000E001000817
:10326000000000000000000000000000000000005E
:103270000000000000000000F7000004FD0000084E
:10328000FB00000CE90000106F1F00B0C700002415
:10329000CD000028CB00002CEF000014E500001842
:1032A000E300001CC1000020DF0000341F0000B458
:1032B000020100B4250200B4380300B46B0400B46A
:1032C0001F0000B4982000B491000040A7000064E3
:1032D000AD000068B300007C730000FC6E0100FCD0
:1032E00001000000100000000000000000093D0087
:040000050800018965
:00000001FF
