:020000040800F2
:10000000400D002029020008A71700080917000862
:10001000A51700084F0300082D1B00080000000072
:10002000000000000000000000000000591A000855
:10003000B104000800000000A9170008A51A000874
:10004000430200084302000843020008430200087C
:10005000430200084302000843020008430200086C
:10006000430200084302000843020008430200085C
:10007000430200084302000843020008430200084C
:10008000430200084302000843020008430200083C
:10009000430200084302000843020008430200082C
:1000A000430200084302000843020008430200081C
:1000B000430200084302000843020008430200080C
:1000C00043020008430200084302000831180008F8
:1000D00043020008430200084302000843020008EC
:1000E00043020008430200084302000843020008DC
:1000F00043020008430200084302000843020008CC
:1001000043020008430200084302000843020008BB
:1001100043020008430200084302000843020008AB
:10012000430200084302000843020008430200089B
:10013000430200084302000843020008430200088B
:10014000430200084302000843020008430200087B
:10015000430200084302000843020008430200086B
:10016000430200084302000843020008430200085B
:100170004302000843020008430200080000000098
:10018000430200084302000800F002F800F03CF8C7
:100190000AA090E8000C82448344AAF10107DA45E2
:1001A00001D100F031F8AFF2090EBAE80F0013F0F8
:1001B000010F18BFFB1A43F0010318477439000000
:1001C00094390000103A24BF78C878C1FAD8520791
:1001D00024BF30C830C144BF04680C6070470000C1
:1001E0000023002400250026103A28BF78C1FBD840
:1001F000520728BF30C148BF0B6070471FB503F0DE
:1002000088FB1FBD10B510BD00F06CF81146FFF75C
:10021000F5FF02F089FC00F08AF803B4FFF7F2FF63
:1002200003BC00F08DF800000948804709480047EA
:10023000FEE7FEE7FEE7FEE7FEE7FEE7FEE7FEE796
:10024000FEE7FEE704480549054A064B70470000F3
:100250001D1B00088901000840070020400D0020F8
:1002600040090020400900204FF0000200B513466D
:1002700094469646203922BFA0E80C50A0E80C50C6
:10028000B1F12001BFF4F7AF090728BFA0E80C5077
:1002900048BF0CC05DF804EB890028BF40F8042B70
:1002A00008BF704748BF20F8022B11F0804F18BFDD
:1002B00000F8012B704770477047704710B500F089
:1002C00009F8006810BD10B5044600F003F804609A
:1002D00010BD000000487047E0060020004870474D
:1002E000E00600207546FFF7F9FFAE4605006946B7
:1002F000534620F00700854618B020B5FFF7A2FF4F
:10030000BDE820404FF000064FF000074FF0000816
:100310004FF0000B21F00701AC46ACE8C009ACE897
:10032000C009ACE8C009ACE8C0098D46704710B5FB
:100330000446AFF300802046BDE81040FFF76DBFD4
:1003400001491820ABBEFEE7260002007047FEE719
:100350002DE9FC4117468DF807100A0A8DF8062092
:100360000A0C8DF805200A0E8DF8042042694E4CC7
:100370004FF6FF764FF090458A4205D082698A4257
:1003800002D0C2698A4233D11021284600F0B9F95F
:1003900001282BD100221021284600F0B9F933465C
:1003A000042201A9414800F081FF012210212846C2
:1003B00000F0AEF9384600F0A5F8002210212846DA
:1003C00000F0A6F90423384A01A93848009601F044
:1003D0004EF801221021284600F09AF9384600F024
:1003E00091F8A078617800EB012080B2BDE8FC8133
:1003F00002688A4205D042688A4202D080688842F8
:1004000032D11021284600F07CF90128EED10022DB
:100410001021284600F07CF93346042201A9234824
:1004200000F044FF01221021284600F071F93846FF
:1004300000F068F800221021284600F069F9042332
:10044000194A01A91948009601F011F8012210215A
:10045000284600F05DF9384600F054F8A07861783D
:1004600000EB012080B2C1E71021284600F049F9D5
:100470000128BBD100221021284600F049F90423AD
:10048000094A01A90948009600F0F1FF0122102154
:10049000284600F03DF9384600F034F8A07861783D
:1004A00000EB012080B2A1E700000020340600200C
:1004B000704772B6FEE710B5002490F825100229A7
:1004C00003D00421C16301241AE001680A6822F004
:1004D0000E020A6001680A6822F001020A6090F8C0
:1004E0004410012301F01C0203FA02F1026C516076
:1004F00080F82530002180F82410816B01B18847F5
:10050000204610BD70B5044600F008F90546601C91
:1005100002D004480078044400F000F9401BA042D7
:10052000FAD370BD840000202DE9F84F0022DFF8D7
:10053000A8914FF0010803274FF00F0C09F1040AAE
:10054000A9F1040BC1E008FA02F42340002B76D095
:100550000D7905F00305012D01D0022D15D1866816
:10056000550007FA05FE26EA0E06D1F80CE00EFA51
:1005700005FE4EEA060EC0F808E04568A5430E7970
:10058000C6F3001696402E4346604D68EE43B6070C
:1005900006D1C66AA643C5F3C00494403443C4627E
:1005A0000C79E443A40708D0C568540007FA04F6A0
:1005B000B5438E68A6402E43C6600C7904F0030450
:1005C000022C11D1D40800EB8406356A5407E40EDE
:1005D0000CFA04FE25EA0E05D1F810E00EFA04FE2E
:1005E0004EEA050EC6F820E00568540007FA04F646
:1005F000B5430E7906F00306A6402E4306604C680C
:1006000014F4403F60D0354C256E45F00105256659
:10061000246E04F001040094314C22F003052E19DD
:10062000B56894074FEA147E0CFA0EF4A543B0F1B6
:10063000904F05D02B4CA04204D101241CE043E094
:10064000002419E0284CA04201D1022414E0274CD8
:10065000A04201D103240FE0254CA04201D1042483
:100660000AE0244CA04201D1052405E0224CA0421E
:1006700001D1062400E0072404FA0EF42C43B460F0
:10068000D9F800409C434D68ED0200D51C43C9F8E1
:100690000040DAF800409C434D68AD0200D51C4391
:1006A000CAF80040DBF800409C434D68AD0300D51C
:1006B0001C43CBF80040084D083D2C689C434E6815
:1006C000F60300D51C432C60521C0B6833FA02F46D
:1006D0007FF439AF00F012B8080401400010024066
:1006E000000001400004004800080048000C0048D9
:1006F00000100048001400480018004818BCBDE86D
:10070000E08F0069084201D0012070470020704747
:10071000002A01D08161704781627047014880687A
:10072000704700008400002002488168027811446C
:10073000816070478400002010B50024032000F081
:1007400075F80F2000F008F808B1012401E000F06E
:1007500029F8204610BD000070B5054600240F4E54
:100760003078002817D04FF47A71B1FBF0F00C49C3
:100770000968B1FBF0F000F0B3FF08B101240BE011
:10078000102D06D200222946501E00F02FF8756069
:1007900002E0012400E00124204670BD8400002016
:1007A0009000002008B50948016E41F00101016682
:1007B000016E01F001010091816D41F08051816570
:1007C000806D00F08050009008BD000000100240D5
:1007D000002809DB00F01F02012191404009800040
:1007E00000F1E020C0F8001170470000F0B40D46A1
:1007F0000D4B1B68C3F30223C3F10704042C00D97B
:100800000424191D072901D2002300E0DB1E012664
:1008100006FA04F1491E294099409E40761E164072
:100820003143F0BC01F09BB90CED00E000F0070192
:10083000054A10684FF6FF03184040EA01200349BB
:1008400008431060704700000CED00E00000FA055E
:100850001749B0F5007F0CD00868C0F3412002288A
:1008600005D0086820F4C06040F480600860002073
:1008700070470868C0F341200128F8D0086820F4C8
:10088000C06040F4007008600A483222006850439B
:10089000094AB0FBF2F0401C00E0401E4A695205D4
:1008A00001D50028F9D148694005E0D503207047FB
:1008B000007000409000002040420F000248006895
:1008C00000F4C06070470000007000402DE9F04760
:1008D00004460D46002C17D0DFF84C81D8F80000F4
:1008E00000F00700A84211D2D8F8000020F007005D
:1008F0002843C8F80000D8F8000000F00700A8421C
:1009000004D00120BDE8F0870120FBE72078474EA6
:1009100080070AD5A068B16801F0F001884204D9C7
:10092000B16821F0F0010143B1602078C00732D0F6
:100930006068032807D002280AD070B131684905E1
:1009400010D40120DEE7316889010BD40120D9E7FA
:100950003168890306D40120D4E73168890701D4BE
:100960000120CFE7B16821F003010143B160FFF737
:10097000D5FE074641F2883906E0FFF7CFFEC01BDF
:10098000484501D90320BDE7B068616800F00C005C
:10099000B0EB810FF1D1207880070AD5A068B1684B
:1009A00001F0F001884204D2B16821F0F001014366
:1009B000B160D8F8000000F00700A8420ED9D8F8BE
:1009C000000020F007002843C8F80000D8F8000015
:1009D00000F00700A84201D0012093E720784007EB
:1009E00005D5B068E16820F4E0600843B060207885
:1009F000000706D5B068216920F4605040EAC100C4
:100A0000B06000F01BF8B168094AC1F30311515CF2
:100A100001F01F01C8400749086007480068BDE8A9
:100A2000F047FFF799BE000000200240001002408E
:100A300028390008900000208800002070B50022AE
:100A40000020244B996801F00C01DC6804F00304D9
:100A5000214D6E10002908D00C2901D1012C04D0A1
:100A6000042913D0082913D013E01A68120704D4FC
:100A7000D3F89420C2F3032202E01A68C2F30312EF
:100A8000164C54F8222021B9104602E0284600E016
:100A900030460C2918D1D86800F00300022814D081
:100AA000032814D01046D968C1F30211491CDA6832
:100AB000C2F306224243B2FBF1F0D968C1F34161AF
:100AC000491C4900B0FBF1F070BD2846EBE7304609
:100AD000E9E70000001002400024F4003839000863
:100AE0002DE9F8430446002C0DD0F94EB06800F013
:100AF0000C05F06800F003072078C0066AD595B1B0
:100B00000C2D03D004E00120BDE8F883012F0AD0AA
:100B1000A06900287DD0306840F001003060FFF708
:100B2000FDFD80465FE03068800701D5A06938B1DF
:100B3000206A3168090705D5316801F0F00106E047
:100B40000120E1E7D6F8941001F4706109098842A8
:100B500016D900F02BFE08B10120D5E7306840F02F
:100B6000080030603068216A20F0F00008433060EF
:100B70007068E16920F47F4040EA0120706017E06E
:100B8000306840F0080030603068216A20F0F000E2
:100B9000084330607068E16920F47F4040EA01203A
:100BA00070602DB9206A00F001FE08B10120ABE7AA
:100BB000FFF744FFB168C74AC1F30311515C01F06C
:100BC0001F01C840C4490860C4480068FFF7C4FD5D
:100BD000002899D130E0FFF7A1FDA0EB0800022822
:100BE00001D9032090E730688007F4D5306840F0E1
:100BF000080030603068216A20F0F000084330605F
:100C00007068E16920F47F4040EA0120706013E0E1
:100C1000FFE7306820F001003060FFF77FFD80467D
:100C200007E0FFF77BFDA0EB0800022801D90320B5
:100C30006AE730688007F4D42078C0074AD0082DCE
:100C400018D00C2D01D1032F14D06068B0F5803F6F
:100C500017D0B0F5A02F19D0306820F48030306064
:100C6000306820F480203060606820B3FFF756FDC4
:100C700080461CE0306880032CD5606850BB0120A2
:100C800042E7306840F480303060EDE7306840F48F
:100C900080203060306840F480303060E4E7FFF757
:100CA0003DFDA0EB0800642801D903202CE7306843
:100CB0008003F4D50EE0FFF731FD804607E0FFF733
:100CC0002DFDA0EB0800642801D903201CE7306843
:100CD0008003F4D42078800742D5042D0DD00C2D4C
:100CE00001D1022F09D0E06840B3306840F4807031
:100CF0003060FFF713FD074615E03068400501D569
:100D0000E06838B17068217C20F0F85040EA01605A
:100D1000706025E00120F7E6FFF700FDC01B022808
:100D200001D90320F0E630684005F5D57068217CD4
:100D300020F0F85040EA0160706011E0306820F463
:100D400080703060FFF7EAFC074606E0FFF7E6FC3C
:100D5000C01B022801D90320D6E630684005F5D42F
:100D6000207800072CD56069A8B1D6F8940040F02F
:100D70000100C6F89400FFF7D1FC074606E0FFF734
:100D8000CDFCC01B022801D90320BDE6D6F8940093
:100D90008007F4D514E0D6F8940020F00100C6F8DE
:100DA0009400FFF7BBFC074606E0FFF7B7FCC01B4B
:100DB000022801D90320A7E6D6F894008007F4D4CE
:100DC0002078400776D54FF00008B06DC00009D4F8
:100DD000B06D40F08050B065B06D00F08050009074
:100DE0004FF00108DFF8F890D9F80000C00514D4DE
:100DF000D9F8000040F48070C9F80000FFF78EFCBD
:100E0000074606E0FFF78AFCC01B022801D9032031
:100E10007AE6D9F80000C005F4D5A068012813D0FF
:100E2000052818D056F8900F20F001003060306887
:100E300020F0040046F89009A06841F2883710B30A
:100E4000FFF76CFC814619E0D6F8900040F00100F5
:100E5000C6F89000F0E756F8900F40F004003060BC
:100E6000306840F0010046F89009E5E7FFF756FCCE
:100E7000A0EB0900B84201D9032045E6D6F890005E
:100E80008007F3D50FE0FFF749FC814607E0FFF745
:100E900045FCA0EB0900B84201D9032034E6D6F89E
:100EA00090008007F3D4B8F1010F03D1B06D20F0AA
:100EB0008050B065A06A88B3022813D00C2D7CD076
:100EC000306820F080703060FFF728FC0446AEE008
:100ED00000100240283900089000002088000020FF
:100EE00000700040F068E26A00F003014FF0FF3745
:100EF000914228D1216B00F07002491EB2EB011F14
:100F000021D1626B00F4FE41B1EB022F1BD1A16B2A
:100F100000F40032072902D0012101E07FE0002126
:100F20008A4210D1A28F00F4C00107EB5202B1EB4C
:100F3000425F08D194F8401000F0C06007EB510107
:100F4000B0EB416F52D00C2D4ED03068400102D42E
:100F50003068C00001D50120D6E5306820F08070EF
:100F60003060FFF7DBFB054606E0FFF7D7FB401BD1
:100F7000022801D90320C7E530688001F5D4D4E9FF
:100F80000B10401E41EA0010616BA28F090207EBB3
:100F9000520241EA4251084394F8401007EB5101D4
:100FA00040EA4160A16B090940EA4140F168254AE5
:100FB00011400843F060306800E041E040F080708C
:100FC0003060F06840F08070F060FFF7A7FB0446E7
:100FD00006E0FFF7A3FB001B022801D9032093E5DD
:100FE00030688001F5D529E001208DE53068800169
:100FF00024D4306840F080703060F06840F0807039
:10100000F060FFF78BFB044606E0FFF787FB001B51
:10101000022801D9032077E530688001F5D50DE07D
:10102000FFF77CFB001B022801D903206CE5306828
:101030008001F5D4F06804490840F060002063E5C1
:10104000012061E58C809DF9FCFFEEFE70470000F9
:1010500038B50446206842688168C9434B060AD502
:10106000CB0708D1D3435B0605D4E16C01B0204621
:10107000BDE8304008478B0708D4D3431B0605D48E
:10108000216D01B02046BDE8304008478B0603D5EE
:101090004B0601D5CB0551D4D3439B064ED44B060A
:1010A0000AD494F85D30032B49D0236E43F0040337
:1010B0002366C368836800938B0609D4236E43F0CC
:1010C0000103236683680093036823F040030360F1
:1010D000C80506D4206E40F00800206620688068AD
:1010E0000090206E002829D02068416821F0E0019E
:1010F0004160012084F85D00900701D4D00722D020
:101100002068416821F003014160114DA06D40B19C
:101110008563A06DFFF7CFF918B1206E40F0400055
:101120002066606D002809D08563606DFFF7C3F904
:10113000002803D0206E40F04000206638BDC16812
:101140008068009038BD2046FFF780FF38BD000062
:101150003D18000870B50446002C09D0606A0025CF
:1011600040B125616561A56294F85D0040B10CE075
:10117000012070BD6068B0F5827FF4D0E561F2E7D0
:1011800084F85C50204600F057F8022084F85D0097
:101190002068016821F040010160E1684FF4E062DD
:1011A000914201D9002001E04FF48050B1F5706FF9
:1011B00002D0914200D0A562A188228901F48271F7
:1011C00002F404421143227C02F002021143227D08
:1011D00002F001021143228B02F400721143227FBC
:1011E00002F03802114394F8202002F080021143EB
:1011F000228D02F40052114322681160A169042279
:1012000002EA114194F8242000F4805002F0100208
:10121000114394F8342002F008021143A28902F429
:10122000706211430143206841602566012084F803
:101230005D00002070BD000010B586B0044614218A
:1012400001A8FFF711F817492068884227D11648EE
:10125000016E41F480510166016E01F480510091EC
:10126000C16C41F00101C164C06C00F0010000904C
:10127000E0200190022002900020039003200490BF
:101280000520059001A94FF09040FFF74DF900228D
:1012900011462320FFF7AAFA2320FFF799FA06B098
:1012A00010BD000000300140001002402DE9F84F51
:1012B00004468B4692461D46002694F85C000128A1
:1012C0000DD04FF0010984F85C90FFF727FA07462C
:1012D00094F85D00B046012804D00226BEE002204A
:1012E00000F0C2B8BBF1000F1CD05FEA0A0019D0B1
:1012F000032084F85D00C4F86080C4F838B0A4F816
:101300003CA0A4F83EA0C4F84080A4F84480A4F80F
:101310004680C4F85080C4F84C80A068B0F5004FF7
:1013200002D00BE0012699E02068016821F040011D
:1013300001602068016841F4804101602068016813
:10134000490603D4016841F040010160E068B0F54E
:10135000E06F2BD9606810B1BAF1010F20D1A06BFA
:1013600021680088C860A06B801CA063E08F401ECD
:10137000E08715E020688168890709D5A16B098895
:10138000C160A06B801CA063E08F401EE08707E077
:10139000FFF7C4F9C01BA84201D3681C04D11DB1DA
:1013A000E08F0028E6D145E0032657E0606810B1E1
:1013B000BAF1010F3BD1E08F01280AD9A06B216857
:1013C0000088C860A06B801CA063E08F801EE0874F
:1013D0002DE0A06B216800780873A06B401CA0630F
:1013E000E08F401EE08722E020688168890716D5DB
:1013F000E18F012909D9A16B0988C160A06B801C0C
:10140000A063E08F801EE08711E0A16B0978017373
:10141000A06B401CA063E08F401EE08707E0FFF751
:101420007DF9C01BA84201D3681C0ED16DB1E08FBD
:101430000028D9D13A462946204600F008FA08B1DA
:1014400020202066A06810B105E0032606E0206891
:10145000C16880680090206E00B1012684F85D901C
:1014600084F85C8030463BE718BCBDE8E08F2DE98E
:10147000F05F04460A9E8A4693461F4601254FF0B8
:10148000000894F85C0001280ED0012084F85C006C
:10149000FFF744F9814694F85D00616801280DD09A
:1014A000B1F5827F07D102E0022000F016B9A168F1
:1014B00009B9042802D04FF0020804E1BAF1000F84
:1014C00026D0BBF1000F23D0380021D094F85D0066
:1014D000042802D0052084F85D0000202066C4F8AE
:1014E00040B0A4F84670A4F84470C4F838A0E78768
:1014F000A787E0642065E0684FF4E061884201D886
:10150000012F08D92068426822F48052426007E027
:101510004FF00108D7E02068426842F480524260F0
:1015200020680268520603D4026842F0400202605A
:10153000E068884246D9606808B1012F3AD1A06BB3
:1015400021680088C860A06B801CA063E08F401EEB
:10155000E0872FE02068816889070DD5E18F59B1B8
:10156000012D09D1A16B0988C160A06B801CA0630B
:10157000E08F401EE087002520688168C9070ED0F3
:10158000B4F8461059B1C068216C0880206C801CEA
:101590002064B4F84600401EA4F846000125FFF779
:1015A000BDF8A0EB0900B04204D3701C02D04FF08C
:1015B000030888E0E08F0028CCD1B4F8460000286A
:1015C000C8D176E0606808B1012F6BD1E08F0128A7
:1015D0000AD9A06B21680088C860A06B801CA0633A
:1015E000E08F801EE0875DE0A06B216800780873C3
:1015F000A06B401CA063E08F401EE08752E0206893
:10160000816889071AD5E18FC1B1012D16D1E18F0B
:10161000012909D9A16B0988C160A06B801CA06356
:10162000E08F801EE08708E0A16B09780173A06B52
:10163000401CA063E08F401EE08700252068816881
:10164000C90726D0B4F8461019B3B4F846100129DA
:1016500013D9C06854F8401F08802068801C20609F
:10166000E088801EE080E088403C012810D8206897
:10167000416841F4805141600AE0007B216C0870B0
:10168000206C401C2064B4F84600401EA4F84600BC
:101690000125FFF743F8A0EB0900B04201D3701C0D
:1016A00018D1BEB1E08F0028A9D1B4F846000028B7
:1016B000A5D14A463146204600F0C9F818B14FF08E
:1016C00001082020206601205C346070002020701A
:1016D0004046EAE64FF00308F5E730BCBDE8C09F9E
:1016E00010B5401EB0F1807F01D3012010BD4FF036
:1016F000E02460610F21601700F031FA0020A06142
:1017000007202061002010BDFEE7000010B586B064
:10171000142101A8FEF7A8FD0E48C16C41F001019B
:10172000C164C06C00F0010000904FF090440122B1
:1017300010212046FEF7ECFF1021019101210291BA
:1017400000210391049101A92046FEF7EDFE06B0A9
:1017500010BD00000010024010B511480F49016093
:101760004FF482714160002181604FF4E062C260F9
:10177000016141614FF4007282612022C261016205
:10178000416281620722C26201634163FFF7E2FCAA
:10179000002801D0FEF78DFE10BD00000030014092
:1017A00034060020FEE7FEE770470000F8B5054666
:1017B00000241D4EB06DC00002D5FFF77FF80DE08C
:1017C000B06D40F08050B065B06D00F0805000907A
:1017D000FFF774F8B16D21F08051B165B0F5007F6D
:1017E00004D0802D0AD94FF003040DE0802D0BD9D1
:1017F000A02D01D9022407E0012405E001D1022433
:1018000002E0702D00D101240848016821F0070191
:1018100021430160006800F00700A04201D00120D0
:10182000F8BD0020F8BD000000100240002002407A
:101830000148FFF70DBC00003406002010B5806A97
:101840000021A0F84610C187FFF700FC10BDF8B5D5
:1018500004460E461546334600224FF4C05120463A
:10186000009500F027F828B1206E40F02000206697
:101870000320F8BD3346002280212046009500F069
:101880008DF828B1206E40F0200020660320F8BDBE
:10189000334600224FF4C0612046009500F00AF85C
:1018A00028B1206E40F0200020660320F8BD002003
:1018B000F8BD00002DE9FC5F04460C9D0E4617465E
:1018C00098464FF0000BCDF800B0FEF727FF401B05
:1018D000A8EB0005FEF722FF8146D4F800A00AF12C
:1018E0000C0A2B480068C0EBC00000EB8000000D24
:1018F0006843019044E0B6F5C06F05D127B99AF866
:10190000000000909DF80000B8F1FF3F38D0FEF7CE
:1019100005FFA0EB0900A84203D215B1019858B306
:101920002BE02068416821F0E00141606068B0F57B
:10193000827F0BD1A068B0F5004F02D0B0F5806F68
:1019400004D12068016821F040010160A06AB0F56F
:10195000005F09D12068016821F40051016020680E
:10196000016841F400510160012084F85D0084F8B1
:101970005CB0032000F00EB800250198401E0190D5
:10198000206880683040B842B5D10020F2E70000FE
:10199000900000203CBCBDE8C09F00002DE9F8434A
:1019A00004460F4691461E46089DFEF7B7FE401BB3
:1019B000351AFEF7B3FE804626480068C0F3CB30E8
:1019C000684300903AE0701C38D0FEF7A7FEA0EB09
:1019D0000800A84203D215B1009858B32BE0206844
:1019E000416821F0E00141606068B0F5827F0BD171
:1019F000A068B0F5004F02D0B0F5806F04D1206828
:101A0000016821F040010160A06AB0F5005F09D1D2
:101A10002068016821F4005101602068016841F4E8
:101A20000051016001205C346070002020700320B0
:101A3000BDE8F88300250098401E0090206880686B
:101A400037EA000004D000204845BCD10020EFE771
:101A50000120F9E7900000207047000010B5104CFD
:101A600001222046A16CFEF773FC01222046E16CA6
:101A7000FEF76EFC01222046616BFEF769FC19221D
:101A800020462169FEF764FC01222046616AFEF7C8
:101A90005FFC2046616ABDE810400122FEF758BC99
:101AA0001C000020FEF740BE10B596B0442105A8EA
:101AB000FEF7DAFB14216846FEF7D6FB4FF4007000
:101AC000FEF7C6FE08B1FEF7F4FC102005900120D9
:101AD0000B9000240C9460210D9102210F91109025
:101AE000119020201290072013901491159105A8B1
:101AF000FEF7F6FF08B1FEF7DCFC0F200090032094
:101B0000019002940394049403216846FEF7DEFEDC
:101B1000002801D0FEF7CDFC16B010BD02480168C8
:101B200041F470010160704788ED00E0FEE703B406
:101B300001984100009850EAC12018BF04204A0DC6
:101B400018BF40F0010040F2FF72B2EB515F08BFD6
:101B500040F00200012808BF052002B070470907C5
:101B6000090E002804DB00F1E02080F80014704723
:101B700000F00F0000F1E02080F8141D7047000015
:101B800070B59B482DED020B2DED068B079D25F0C2
:101B90000044A04218DC9748844202DC0AD106982F
:101BA00040B19DED060BBDEC068B02B0BDE8704068
:101BB00000F01CBF002DCCBF9FED8F0B9FED900B55
:101BC000BDEC068B02B070BD8F48A04215DD8F487A
:101BD000A042D8BF4FF0FF3458DD9DED060B51EC0D
:101BE000100BFFF7A4FF042808BF00F025FF9DEDB0
:101BF000060BBDEC068B02B070BD9DED060B51ECE3
:101C0000100B00F031FFCDE9060181489FED828B7A
:101C1000A0423CDD8248A0421FDD00249FED82AB44
:101C20009DED060B53EC1A2B51EC100B01F09EF8B6
:101C30009DED060B41EC190B53EC1A2B51EC100BDC
:101C400001F036FB53EC182B01F008FD53EC192B77
:101C500001F040F9CDE9060149E09DED060B0124B4
:101C600053EC182B51EC100B01F080F89DED060B96
:101C700041EC190B53EC182B51EC100B01F0EEFC5E
:101C800053EC192B01F026F9CDE906012FE0684845
:101C9000A0421FDD02249FED689B9DED060B53ECD7
:101CA000192B51EC100B01F003FB53EC182B01F036
:101CB0005DF89DED060B41EC180B53EC192B51EC24
:101CC000100B01F0CBFC53EC182B01F003F9CDE91C
:101CD00006010CE09DED060B032453EC102B9FED49
:101CE000580B51EC100B01F0F5F8CDE906019DED14
:101CF000060B53EC102B51EC100B01F0D9FA41EC10
:101D0000180B53EC182B01F0D3FA41EC190B4E4889
:101D10000621B0EE490AF0EE690A784400F03BFC77
:101D200053EC182B51EC100B01F0C2FA41EC180BDC
:101D30004648B0EE490AF0EE690A0521784400F001
:101D40002AFC53EC192B51EC100B01F0B1FA41ECC9
:101D5000100B51EC180B53EC102B002C0EDA01F089
:101D600005F89DED061B53EC112B01F0A1FA9DED3A
:101D7000061B53EC112B01F099FB35E000F0F6FF48
:101D80009DED061B53EC112B01F092FA41EC100B68
:101D90002F48784400EBC40090ED001B51EC100B71
:101DA00053EC112B01F05AFC9DED061B53EC112B4B
:101DB00001F054FC41EC100B2648784400EBC400C1
:101DC00090ED001B51EC100B53EC112B01F06EFB4E
:101DD00041EC100B002DA2BFBDEC068B02B070BD14
:101DE00051EC100B00F084FF41EC100B01E70000F8
:101DF000000010440000F07F182D4454FB21F93FEF
:101E0000182D4454FB21F9BF0000DC3F0000203EA8
:101E10000000F33F00000000000000000000F03F61
:101E20000000E63F0000000000000000000000404D
:101E30000080034000000000000000000000F83FA8
:101E4000000000000000F0BFB21C0000681C000091
:101E5000F21B0000AA1B000070B56F4E2DED040BA5
:101E60002DED048B82B0DDF824C0DDE907235C4250
:101E70002CF000411C4341EAD474069D22F000403E
:101E8000B44205D86C422C4340EAD474B4420BD916
:101E90009DED081B9DED060B02B0BDEC048B04B05C
:101EA000BDE8704000F0ACBDACF14054A4F17F64DB
:101EB0001C430BD0022404EAAC7444EAD2740543F8
:101EC0009FED578B9FED582B07D015E09DED060B2E
:101ED00051EC100B00F0C0FD42E0002C11BF012CB2
:101EE0009DED060B02B0BDEC048B04BF04B070BDC9
:101EF000022C38D0032C3BD00B439FED4D1B9FEDA4
:101F00004E0B0AD0B14218D1B04209D121F0804124
:101F100020F08040099107900FE0002A15DA10E0C8
:101F2000474B7B44002C08BF93ED000B0DD0012CD8
:101F300010D0022C17D0032C1AD0B0421DD1002A89
:101F400003DAB0EE410AF0EE610A02B0BDEC048B98
:101F500004B070BD93ED000B51EC100B00F0C8FE07
:101F600041EC100BF1E7B0EE480AF0EE680AECE73E
:101F7000B0EE420AF0EE620AE7E7401A00159FED64
:101F8000329B3C28C8BF8DED000B17DCBCF1000F65
:101F9000BCBF10F13C0F8DED009B0FDB9DED080BDE
:101FA00053EC102B9DED060B51EC100B00F092FF43
:101FB00000F05AFD00F050FDCDE90001B4B1012C54
:101FC00010D0022C9FED220B53EC102B9DED000B3B
:101FD00051EC100B19D001F041FB53EC182B01F020
:101FE0003DFBBDE7019880F0004001909DED000BA6
:101FF00053EC192B51EC100B01F0C4F804BF022074
:10200000FEF761F99DED000B9FE701F027FB53EC14
:10201000182B01F04BFAA3E70000F07F000000004E
:10202000182D4454FB210940182D4454FB2109C0AC
:10203000182D4454FB21F9BF182D4454FB21F93FBE
:10204000DA1A00000000000000000000000000009C
:10205000075C143326A6A13C00B52DED048BB0EE31
:10206000409AF0EE609A83B051EC190B01F02AFA15
:1020700041EC180B18EE100A18EE901A8DED008B3B
:10208000002818BF0120084320F00040C0F17F6005
:1020900000F1E040C00F14D019EE101A19EE900AAA
:1020A0008DED009B002918BF0121084320F000405E
:1020B000C0F17F6000F1E040C00F04BF0120FEF7D7
:1020C00002F9B0EE480A03B0F0EE680ABDEC048BEA
:1020D00000BD00000000000010B51D499FED1A1B57
:1020E0002DED020B84B0059820F000408842DCBF43
:1020F00001209DED040B21DD1649884209D1049889
:1021000040B94FF00100FEF7DEF800F085FC06B0A4
:1021100010BD05DB9DED040B00F068FC06B010BDA2
:1021200068469DED040B00F017F800F00100012156
:10213000A1EB40009DED021B9DED000B00F0A8FA05
:1021400006B010BD0000000000000000000000000C
:10215000FB21E93F0000F07F2DE9F14F04462DED12
:10216000020B2DED088B8AB09FEDE70B80ED020B83
:10217000139EE74826F0004585420ADC9DED120BD0
:10218000002084ED000B0AB0BDEC088B03B000F01A
:10219000FFB9E0489FEDE0AB9FEDE1BBA84247DD12
:1021A000E14F9FEDE39B9FEDE48B9DED120B53EC14
:1021B0001A2B51EC100B002E1CDD01F04FFA41ECF4
:1021C000100BBD4208D053EC1B2B51EC100B01F04F
:1021D00045FAC4E900010BE053EC192B51EC100B4C
:1021E00001F03CFA53EC182B01F038FAC4E9000175
:1021F0000120C8E700F0BAFD41EC100BBD4208D049
:1022000053EC1B2B51EC100B00F0B0FDC4E90001A6
:102210000BE053EC192B51EC100B00F0A7FD53EC25
:10222000182B00F0A3FDC4E900014FF0FF30AAE72E
:10223000C348A84279DB9DED120B51EC100B00F066
:1022400013FC41EC180B9FEDC00B53EC102B01F06D
:102250002FF89FEDBF1B53EC112B00F087FD00F012
:10226000CDFF074600F0F9FF41EC190B53EC1A2B98
:1022700001F01EF853EC182B01F018F941EC180B83
:1022800053EC1B2B51EC190B01F012F8DFF8C8A22C
:1022900041EC100B4FEA15580125FA4453EC102B72
:1022A00051EC180B01F0DAF9032DC4E900013DD01F
:1022B000C1F30A5005EB4511A8EB0000113981422A
:1022C00034DA0AEB051BB0EE48AA9BED000BF0EEEA
:1022D00068AA53EC102B51EC190B00F0E9FF41EC0C
:1022E0001B0B51EC1A0B53EC1B2B01F0B7F941EC13
:1022F000180B51EC1A0B53EC182B01F0AFF953ECFF
:102300001B2B01F0ABF99BED020B41EC1A0B53ECCC
:10231000102B51EC190B00F0CBFF53EC1A2B01F0F2
:102320009DF941EC100B6D1CB8E70EE0002EA8BF24
:102330003846BFF628AF94ED000B51EC100B00F0BF
:10234000D7FCC4E9000178421DE7C6F3130040F44E
:10235000801EC6F30A50A0F2F530471100F01F05A9
:10236000C5F12000DDF848B00890002006900790E5
:102370000520EC467949002D07EB0002794408BF9F
:1023800051F8221009D051F8223001EB8201AB4004
:102390004A68089922FA01F11943A1FB0E26A1FB14
:1023A0000B131A449A4234BF0123002303EB06089F
:1023B0000CEB8003D3E901A60E448E4234BF012109
:1023C000002192448A4411B1924502D903E092451A
:1023D00001D2012100E00021C3E901A641444CF8EB
:1023E0002010011EA0F10100C4DC029800F1005091
:1023F000850F0298DDE903678000DDF8148000F0A6
:102400002CFF41EC1A0B304600F03EFF9FED541BB1
:1024100053EC112B00F04CFF41EC1B0B384600F045
:1024200033FF9FED511B53EC112B00F041FF41ECAA
:10243000180B404600F028FF9FED4D1B53EC112B6D
:1024400000F036FF41EC190B51EC180B53EC192B33
:1024500000F08CFC53EC1B2B00F088FC53EC1A2B87
:1024600000F084FCCDE90801002008909DED080BE8
:1024700053EC1A2B51EC100B01F0F0F853EC1B2B22
:1024800001F0ECF853EC182B01F0E8F853EC192BA1
:1024900001F00CF89FED381B53EC112B00F008FFF6
:1024A0009FED370B41EC180B53EC102B9DED080BF7
:1024B00051EC100B00F0FCFE53EC182B00F056FC16
:1024C0009FED310B41EC180B53EC102B9DED080BDD
:1024D00051EC100B00F0ECFE53EC182B00F046FC16
:1024E00041EC100B139810F0004F06D06D4251ECE8
:1024F000100B00F0FDFB41EC100B284684ED000BA7
:1025000041E60000000000000000000000000000A4
:10251000FB21E93F7CD9024000004054FB21F93FF8
:102520003163621A61B4D03DFB21F93F0000000025
:102530000000601A61B4D03D7370032E8A19A33B6A
:10254000FB2139410000000083C8C96D305FE43FC2
:10255000000000000000E03F6A170000B81600000D
:10256000000000000000103E000000000000103CD1
:10257000000000000000103A182D4454FB21F93DE2
:102580003326A611460B113C00000054FB21F93DF7
:1025900030BCBDE8C08F70B504462DED028B4D1EDA
:1025A00000EBC500B0EE408AF0EE608A90ED000BC3
:1025B00035F0060017D053EC182B51EC100B00F03F
:1025C00077FE41EC100B6D1E04EBC50090ED001B77
:1025D00051EC100B53EC112B00F0C8FB41EC100B2D
:1025E00035F00600E7D1022D36D0042D1CD0062D83
:1025F0001CBFBDEC028B70BD53EC182B51EC100BC3
:1026000000F056FE94ED0A1B53EC112B00F0AEFBCC
:1026100053EC182B00F04CFE94ED081B53EC112BDF
:1026200000F0A4FB41EC100B53EC182B51EC100BF9
:1026300000F03EFE94ED061B53EC112B00F096FBD0
:1026400053EC182B00F034FE94ED040B53EC102BDC
:1026500000F08CFB41EC100B53EC182B51EC100BE1
:1026600000F026FE94ED021B53EC112B00F07EFBD4
:1026700053EC182B00F01CFE94ED001B53EC112BB7
:1026800000F074FBBDEC028B41EC100B70BD000040
:10269000F1B506462DED040BBD482DED0C8B8AB02F
:1026A000B0EE418AF0EE618A179D25F000449FED5F
:1026B000BABB9FEDBBCB844208DA9DED160B51EC03
:1026C000100B00F09BFD002800F0E980B64FA742F8
:1026D00031DC002D0DDA9DED160B51EC100B00F0E6
:1026E00007FBCDE9160151EC180B00F001FB41ECA2
:1026F000180B9FEDAF0B53EC102B9DED160B51EC0F
:10270000100B00F0D3FE53EC182B9FEDAB0BCDE973
:10271000040151EC100B00F0A1FF41EC100B53EC45
:10272000102B9DED040B51EC100B00F01FFB9FEDE7
:10273000A48BCDE916019DED160B53EC102B51EC3B
:10274000100B00F0B5FDCDE904019DED040B53EC39
:10275000102B51EC100B00F0ABFD41EC190B9A481B
:102760000621B0EE490AF0EE690A7844FFF713FF3C
:102770009648B0EE40DAF0EE60DAB0EE490AF0EEDC
:10278000690A06217844FFF706FF9DED041B51EC12
:10279000100B53EC112B00F08BFD9DED040B41EC65
:1027A0001A0B53EC102B9DED160B51EC100B00F097
:1027B0007FFD41EC190B53EC1A2B51EC1D0B00F073
:1027C000D5FA53EC192B00F073FD53EC182B00F0E5
:1027D000CDFA9DED041B53EC112B00F069FD53EC79
:1027E000182B00F0C3FA41EC180B9FED790B51EC5C
:1027F000190B53EC102B00F05BFD53EC182B00F081
:10280000B5FA41EC190B9DED160B53EC192B51EC5D
:10281000100B00F0ABFA41EC180BA74269DC304614
:1028200000F01BFD41EC1A0B51EC180B53EC1A2B6A
:1028300000F09CFA41EC1B0B53EC182B51EC180BDD
:1028400000F036FD53EC1B2B00F044FB53EC192B2E
:1028500000F004FF9DED161B53EC112B00F026FE3B
:102860009FED5D1B53EC112B00F022FD53EC1A2B56
:1028700000F01CFE41EC180B022000EAA570C0F12C
:10288000010000F0EAFC53EC182B00F011FD00BF32
:1028900041EC100B0AB000F0A3B805B0F0BD711CFC
:1028A0001698214308430CD09DED160B012E1CBF3A
:1028B00053EC102B51EC1C0B10D000BF00F00AFBA6
:1028C000E6E79DED160B51EC100B00F0CDF841EC56
:1028D000100B51EC1B0B53EC102BEFE751EC100BD2
:1028E000FFF725F9042808BF00F0A6F89DED160BA8
:1028F000D0E7012E04BFB0EE480AF0EE680AC9D056
:102900008DED048B002404949DED040B53EC102BEF
:102910009DED160B51EC100B00F0C8FD53EC192B7C
:1029200000F0C4FD41EC190B53EC182B51EC1C0BBF
:1029300000F0D0FA41EC180B8DED008B00949DED6A
:10294000040B53EC102B9DED000B51EC100B00F021
:10295000AFFC53EC1B2B00F009FA9DED000B41EC92
:102960001A0B53EC192B51EC100B00F0A1FC53EC9B
:102970001A2B00F0FBF953EC182B00F099FC9DED9D
:10298000001B53EC112B00F0F1F981E7000000006F
:102990000000303E00000000000000000000F03F9A
:1029A000000000000000F0BF2894E53F0000000098
:1029B000182D4454FB21E93F075C143326A6813CC3
:1029C0000000000000000000621300007813000007
:1029D000635555555555D53F000000000000004097
:1029E000BDEC088BBDEC04CBFFF757BF10B553EC23
:1029F000102B51EC100B00F0B9F941EC100B10BD8D
:102A000010B553EC112B51EC100B00F0AFF941EC69
:102A1000100B10BD000000009FED050B10B553EC2E
:102A2000102B51EC100B00F055FA41EC100B10BDBF
:102A300000000000000000009FED050B10B553ECF6
:102A4000102B51EC100B00F033FC41EC100B10BDBF
:102A5000000000000000001010B541EC100BFFF763
:102A60008FF851EC100B10BD82B0CDE9000121F0C0
:102A7000004001909DED000B02B051EC100B70472F
:102A800030B50C4B0A4C59689D6854F82120821AC5
:102A90002A449A6044F82100491C7820B1FBF0F4E4
:102AA00000FB14115960B2FBF0F080B230BD0000A1
:102AB000940000200000002030B50C4B0A4C5969EE
:102AC0009D6954F82120821A2A449A6144F8210011
:102AD000491C7820B1FBF0F400FB14115961B2FBE2
:102AE000F0F080B230BD000054040020000000204F
:102AF00030B50C4B0A4CD9681D6954F82120821A54
:102B00002A441A6144F82100491C7820B1FBF0F4F2
:102B100000FB1411D960B2FBF0F080B230BD0000B0
:102B200074020020000000202DED068BFDF704FE4E
:102B3000FEF7BAFFFEF7EAFDFEF70EFE01221021B6
:102B40004FF09040FDF7E4FDFEF788FF9FED5FAA90
:102B5000DFED5FAA5F4E604D002401225E48696987
:102B6000FDF7F6FBFFF78CFF00EE100AB8EE400A07
:102B700020EE0A0A20EE2A0A86ED000A01225648B3
:102B8000A969FDF7E5FBFFF797FF00EE100AB8EE25
:102B9000400A20EE0A0A20EE2A0A86ED010A0122E6
:102BA0004D48E969FDF7D4FBFFF7A2FF00EE100ADC
:102BB000B8EE400A20EE0A0A20EE2A0A86ED020A42
:102BC000641C782CC9D30024424F3C3F9FED439AAC
:102BD000DFED439A9FED438B07F1180806EB840065
:102BE00090ED000A07EB840080ED000A60EE090A10
:102BF00080EEA90A10EE100A00F01AFE41EC100B4C
:102C0000FFF76AFA53EC182B51EC100B00F050FB55
:102C100000F07AF848F82400641C032CDED301226B
:102C20002D482968FDF794FB00EE100A9FED2F8ACE
:102C3000284CB8EE400A183CC0EE080AC4ED000A61
:102C4000012225486968FDF783FB00EE100AB8EE03
:102C5000400AC0EE080AC4ED010A01221E48A96814
:102C6000FDF776FB00EE100AB8EE400AC0EE080A47
:102C7000C4ED020A94ED010A0C34B1EE400A84ED71
:102C8000010AD4ED020A60EEA00A40EE000A10EE3E
:102C9000900A00F0CDFD41EC100BFFF7DDF9B0EE2E
:102CA000408AF0EE608A206800F0C2FD41EC100B13
:102CB000B0EE481AF0EE681AFFF7CEF851EC100BA0
:102CC00000F022F8A4F12401886045E70000803874
:102CD0000000B442D40600201C000020DB0F494055
:102CE0000000344300000000000099400080BB4514
:102CF00081F00041704780F00040704721F00041B2
:102D0000704720F00040704721F00042A2F160526D
:102D1000B2F5801F01F0004328BFD2F17F6C0BD9C0
:102D20005FEA001C43EAC20242EB507018BF7047D2
:102D300028BF20F001007047B2F5801FBCBF1846C5
:102D400070474FEA410C1CF5001F02D2084600F004
:102D5000E5BD70B500F056FB00000089FFF7F6BF37
:102D60004FF00040A0F580007047000010B591EAD8
:102D7000030F48BF83F0004300F17884841A71EB9D
:102D8000030C05D2121943EB0C03001B61EB0C0181
:102D9000DFF824E14FEA1154A4EB135C1EEA430F61
:102DA00018BF9EEA445F73D023EA0E03DCF1200EC5
:102DB00021EA045143F4801332D322FA0CFE10EBC3
:102DC0000E0023FA0CFE41EB0E01CCF1200E03FAAB
:102DD0000EFE10EB0E0051F10001B1F5801FCCF199
:102DE000200E32D201EB045112FA0EF2BDE810406F
:102DF00058BF7047401C38BF5FEA420218BF704797
:102E0000002814BF20F0010041F100014FEA410306
:102E100013F5001F38BF7047A1F1C04100F040BB5F
:102E2000012A43EB0302ACF1200CDCF11F0E32BF90
:102E30004FF0000E23FA0CF310EB030041EB0451AA
:102E4000B4EB115FD0D0A1EB045101F5801149081A
:102E50005FEA300001EB04510ED350F1000038BF9F
:102E600012FA0EFE08D1BDE81040C9E7401C38BF79
:102E70005FEA4202CAD1C3E7BDE810404FEA41030E
:102E800013F5001F38BF7047A1F1C04100F008BB27
:102E90009EEA445F08D011EA5E0FBDE8104004BF0F
:102EA00001F0004100207047BDE8104070B500F00F
:102EB000A9FA00BF64FBBE3E0000E0FF491058BF06
:102EC000C1F140415B1058BFC3F140438B42EFF367
:102ED000008070472DE9C04130B4DFF8A0C23CEA61
:102EE000111418BF3CEA131400F0EC8081EA0305CA
:102EF0001CEA111444EAD57418BF1CEA131500F03B
:102F0000C780A4EB05044FF0004545EAC12145EA1E
:102F1000C32341EA505143EA525304F17F7499426A
:102F200004F500344FEAC0204FEAC22208BF9042A5
:102F300000F09C804FEA13650FF24016765D4FEA71
:102F4000134506FB05F7C7F1807706FB07F74FEA45
:102F5000D737A7FB03687642C8F58038A7FB06CEB3
:102F600038BFA8F1010807FB08E64FF0000EA6FBEA
:102F7000028CE6FB03CEDCF1000CCEF1004E38BF34
:102F8000AEF1010EA6FB0C584FF000074FF0000504
:102F9000E6FB0E87A1FB08C6A0FB07CE16EB0E06CC
:102FA00045F10005E1FB076515F1E04E7EBFA4F594
:102FB00080345FEA46066D4116F1800745F1000551
:102FC0004FEA17274FEA066647EA0567A6F1DE468D
:102FD000B6F1805F4FEA15251FD9384624F0010C61
:102FE00005EBC471BCF1FE6F01EB0C1102D8F0BC13
:102FF000BDE8008124425CBF01F5801E9EEAC47FCB
:1030000002D4F0BCBDE80081244238D4F0BCA1F168
:10301000C041BDE8004100F043BA4FEAD22242EA83
:1030200043524FEAD323A7FB02864FEAD02040EA5F
:10303000415007FB03661EEA0E0F4FEAD12105FB44
:10304000026658BFA6EB0056B6EB00564FEA520E8A
:103050004EEAC37E18EB0E0E56EB530EBDD518EBA1
:1030600002085E417F1C55F10005B6E74FF480155C
:103070004FF000074FF000064FF00008ADE7F0BC3E
:103080004FF0000001F1C04101F00041BDE80081B6
:1030900011EA0C1F0CEA131500D00CE013EA0C1F08
:1030A00000F025804FF00000F0BC81EA030101F040
:1030B0000041BDE80081F0BCBDE8004181EA0301A8
:1030C00000F0EEB9F0BCBDE8004170B500F09AF92F
:1030D000097EFC3E00F007B881EA03014FF00000D2
:1030E00001F00041704781EA030100F0D9B9F0BC5A
:1030F000BDE800414FF0000021497047FFFDFBF99A
:10310000F7F5F4F2F0EEEDEBE9E8E6E4E3E1E0DE1A
:10311000DDDBDAD8D7D5D4D3D1D0CFCDCCCBCAC88C
:10312000C7C6C5C4C2C1C0BFBEBDBCBBBAB9B8B7B3
:10313000B6B5B4B3B2B1B0AFAEADACABAAA9A8A8A6
:10314000A7A6A5A4A3A3A2A1A09F9F9E9D9C9C9B74
:103150009A9999989797969595949393929191901F
:103160008F8F8E8E8D8C8C8B8B8A898988888787B0
:103170008685858484838382828181800000FF0725
:103180000000F87F51EA030C17D41CF5801F58BFCC
:10319000BCF5801F00F10680994218BF704708BF38
:1031A0009042704707D711F5801F58BF13F5801F55
:1031B00019D499427047894270471CF5801F08D581
:1031C000BCF5801FF7D58B4218BF704708BF8242FD
:1031D00070474FF4001C1CEB410F38BF1CEB430F32
:1031E00001D28B42704770B500F00CF9922449006F
:1031F0004FF000514FF08053FFF760BE4FEA41039C
:103200004FEA5353A3F58063D3F11E03C8BFD3F134
:10321000210C0CDD4FF0004242EAC12242EA50523A
:1032200032FA03FC8CEAE17CACEBE1707047102BC6
:10323000C4BF0020704703F5787CBCF1FF3F04D089
:103240006FF0004282EA2100704770B500F0DAF8B2
:103250004992248000207047F2E710F0004248BFF6
:103260004042B0FA80F310FA03F10AD0C3F11D0313
:1032700003F580634FEA415002EB035202EBD12188
:1032800070474FF000007047B0FA80F310FA03F176
:103290000AD0C3F11D0303F580634FEA41504FEAA2
:1032A000035202EBD12170474FF00000704700003D
:1032B000DFF848C170B51CEA111E1EBF1CEA1315C9
:1032C0009EEA0C0F95EA0C0F00F06F8081EA030470
:1032D00023EA4C134EEAD47E21EA4C1141F48011CA
:1032E00043F48013AE44A1FB024CA0FB0365AEF196
:1032F0007F7E361955EB0C05A1FB034C4CF1000306
:10330000A0FB021C16EB0C06654153F100030942B9
:1033100018BF46F0010613F4007F0BD14FEA0331CA
:103320004FEA0530340341EA155140EA16506FF078
:1033300003020AE04FEAC3214FEAC520F40241EA42
:10334000555140EA56506FF0020202EB2E4201EB5B
:10335000025585EACE710AD05FEA440C18BF24F00A
:10336000004450F1000041F1000120EAD47040F225
:10337000FE7C624500D270BDA84214BF4FF080446D
:103380004FF04044002E08BF0024BEF1806FA8BF5C
:10339000A1F1C041BDE8704080F282804FF0000092
:1033A00001F1C04101F0004170479EEA0C0F0CEAA8
:1033B000131518BF95EA0C0F06D04FF0000081EAF4
:1033C000030E0EF0004170BD00F01CF88900013EB4
:1033D00000F007B800F009B84FEA430C5FEA5C5C04
:1033E00008D081EA030100F05BB84FEA410C5FEAC4
:1033F0005C5CF6D14FF00000014970470000FF0708
:103400000000F87F0EF1020E2EF0030E5EF8046B42
:10341000364205D4012A43EB030515F5001F12D8E7
:10342000012841EB010C1CF5001F0CD80ED14FEA0E
:10343000D17C15F5001F0CEB4C0C0CF1020C08BFF5
:103440004CEBD37C04E04FF0080C01E04FEAD37C56
:103450000CEB4C0526FA05F606F00706B6F1040C4F
:1034600006D20EEB860CBDE870404CF0010C6047B4
:10347000DFE80CF0090B02024FF000414FF00000B2
:10348000A1F5002170BD19461046012851EB010439
:1034900018BFD4F5001484BF002001F0004170BDB6
:1034A0000808A0F500114FEA3101704791EA030FB7
:1034B00010B581F000413FF561AC83F0004300F0AE
:1034C000D5B800002DE9F04101F5801CBCF5001FC6
:1034D000C0F2A9804FEA115C21EA0C510CF1FD0CFD
:1034E00041F480115FEA5C0C0CF5C07C01D3400014
:1034F000494130A4890241EA905187028E0E0A0C9C
:10350000A45D04FB04F602FB06F6C6F14046A4FBEC
:103510000662F60D46EA422606FB06F4A4FB0123EA
:103520005242C3F1404338BF5B1EA6FB0242002457
:10353000E6FB0324D20B42EA4446A6FB0623A1FB8A
:1035400002E2A3FB07E4E3FB61426442C2F1404EA6
:1035500038BFAEF1010EA6FB04234FF00002E6FBDC
:103560000E32A2FB03463400E2FB6264A1FB06E6D6
:10357000A4FB07E8E4FB61687642C8F1405838BF15
:10358000A8F10108A2FB06E4A3FB08E5E2FB6854EE
:10359000A1FB05E6A7FB04E8E1FB648618F1200522
:1035A00056F10006A809A8F11B08B10908F03F0868
:1035B000B8F10A0F40EA86601CD901EB0C51BDE856
:1035C000F08100BFFCF5EEE8E2DDD8D3CFCBC7C376
:1035D000C0BDB9B6B4B1AEACA9A7A5A3A19F9D9B30
:1035E0009A9896959392908F8D8C8B8988878685F3
:1035F00084838281A0FB006800FB01F208EB420893
:10360000B8EB872807D5341858EB0104D5D5401CF2
:1036100051F10001D1E7341A78EB0104CDD4401EFA
:1036200071F10001C9E75FEA4C0C5FEA9C5C0DD1C7
:1036300005D34FF0000001F00041BDE8F081BDE886
:10364000F04170B5FFF7DEFE6DDBFFBEBDE8F04177
:103650004FF00000004970470000F87F10B591EA74
:10366000030F48BF83F000433FF588AB841A71EB2A
:10367000030C07D212198CF0004C43EB0C03001B17
:1036800061EB0C01DFF8A4E14FEA1154A4EB135CE9
:103690001EEA430F18BF9EEA445F00F0B08023EAA1
:1036A0006E03524221EA0451C3EB6E0338BF5B1E26
:1036B000DCF1200E25D322FA0CFE10EB0E0043FAAB
:1036C0000CFE41EB0E01CCF1200E03FA0EFE10EBC6
:1036D0000E0051F10001CCF1200E29D412FA0EF2A5
:1036E00001EB0451BDE8104058BF7047401C1CBF9F
:1036F000B2F1004F704700280CBF491C20F00100B8
:10370000704712EB020E43EB030218BF4FF0010E9D
:103710004EEA4202ACF1200CDCF11E0E54D943FA01
:103720000CFE10EB0E0051F1FF31CCF11E0ED5D581
:103730000EF1010E12FA0EFE404141EB010101EBC8
:10374000445C5FEA5C5C10D910EBDE7001EB045165
:1037500038BFBEF1004FBDE8104018BF70470028C9
:103760000CBF491C20F00100704730D24FEAD42C26
:1037700011F5001124F400641BD0B1FA81F20B3A68
:10378000A41AA41ED2F12003914030FA03F3194386
:10379000904001EBCC71002C01EB0451BDE81040CE
:1037A000A8BF704701F1C0414FF0000001F0004197
:1037B0007047B0FA80F310FA03F100D110BDE41A9B
:1037C000173C4805C90AE4E701EB045110BD491054
:1037D00001EB0451BDE810404FEA300002E04FF029
:1037E000000170474A0008BF0042F8D0B2F5001F40
:1037F00028BF704701F000414FF0000070479EEA7B
:10380000445F07D011EA5E0FBDE8104004BF0021FD
:1038100000207047BDE8104070B5FFF7F3FD00BF12
:1038200040DFF63E83F00041104670470000E0FFA5
:1038300043004FEAD30C4FEA3C0C43401FBF400704
:103840000CF1605113F0FE4F70471CF0006F03D174
:1038500000200CF0004170470CF0004343EA507028
:1038600010B540EACC0000F00EF800BF0000009256
:103870004FEA0001FFF714BE4FF000414FF0000087
:10388000A1F5002170470EF1020E2EF0030E5EF836
:10389000044B244204D44FEA4102B2F17F4F11D8C5
:1038A0004FEA4003B3F17F4F0CD80ED14FEAD07CE2
:1038B000B2F17F4F0CEB4C0C0CF1020C08BF4CEB3F
:1038C000D17C04E04FF0080C01E04FEAD17C0CEB16
:1038D0004C0324FA03F404F00704B4F1040C06D2F8
:1038E0000EEB840CBDE810404CF0010C6047DFE8A3
:1038F0000CF0070802024FF00040A0F5800010BD58
:103900000846420018BFD2F1807288BF00F0004024
:1039100010BD4FF04070E1EE100A7047FF2141EA00
:10392000D050C005704700000000000000000000FB
:103930000102030406070809A0860100400D0300E8
:10394000801A060000350C0040420F0080841E00E3
:1039500000093D0000127A000024F40000366E01D8
:103960000048E801006CDC024FBB610567ACDD3F3D
:10397000182D4454FB21E93F9BF681D20B73EF3F96
:10398000182D4454FB21F93FE2652F227F2B7A3C0E
:10399000075C143326A6813CBDCBF07A8807703CC7
:1039A000075C143326A6913CC4EB98999999C9BF3A
:1039B000711623FEC671BCBF6D9A74AFF2B0B3BF6F
:1039C0009AFDDE522DDEADBF2F6C6A2C44B4A2BF2F
:1039D0000D5555555555D53FFF8300922449C23F9B
:1039E0006E204CC5CD45B73F513DD0A0660DB13FCF
:1039F000EB0D76244B7BA93F11DA22E33AAD903FE1
:103A0000000000000000000000004054FB21F93FCE
:103A10003163621A61B4D03D0000601A61B4D03DD8
:103A20007370032E8A19A33B0000002E8A19A33B52
:103A3000C14920259A837B39000000000000000066
:103A40006E83F9A22915444ED15727FCC0DD34F509
:103A5000999562DB4190433CAB6351FE61C5BBDE8F
:103A60003A6E24B7E0D24D42EA2E49061C92D109A3
:103A70001CEB1DFE3EA729B1F53582E88444BB2E20
:103A800026709CE9417E5FB439D69139F43953836D
:103A90008B5F849C3B28F9BDFF97F81F0F9805DECC
:103AA0008B112FEF1F6D0A5ACF7E366DB709CB27CA
:103AB000663F464F2DEA5F9EC7BA27757BF1E5EB5F
:103AC000F739073DEA92528AB15FFB6B085D8D1FA3
:103AD0007AFE10111111C13F37D60684F464963F67
:103AE000280356C9226D6D3F0165F2F2D844433F69
:103AF000A69237A0887E143F735360DBCB75F3BE6C
:103B0000FE41B31BBAA1AB3F93846EE9E326823F2B
:103B10001583E0FEC8DB573F68108D1AF726303F4B
:103B2000E9A7F0320FB8123FD47ABF74702AFB3E77
:103B3000503B00080000002094000000C401000871
:103B4000E43B000894000020AC0C0000E0010008F9
:103B50000000000000000000000000000000000065
:103B6000000000000000000000000000F70000045A
:103B7000FD000008FB00000CE90000106F1F00B002
:103B8000C7000024CD000028CB00002CEF0000145B
:103B9000E5000018E300001CC1000020DF00003435
:103BA0001F0000B4020100B4250200B4380300B4C1
:103BB0006B0400B41F0000B4982000B491000040D2
:103BC000A7000064AD000068B300007C730000FC37
:103BD0006E0100FC01000000100000000000000069
:043BE00000093D009B
:040000050800018965
:00000001FF
